{
	"ITechnology.sol": {
		"Marketplace": {
			"abi": [
				{
					"inputs": [],
					"name": "checkBalance",
					"outputs": [
						{
							"internalType": "uint256",
							"name": "",
							"type": "uint256"
						}
					],
					"stateMutability": "view",
					"type": "function"
				},
				{
					"inputs": [
						{
							"internalType": "uint256",
							"name": "amount",
							"type": "uint256"
						}
					],
					"name": "deposit",
					"outputs": [],
					"stateMutability": "payable",
					"type": "function"
				},
				{
					"inputs": [
						{
							"internalType": "uint256",
							"name": "amount",
							"type": "uint256"
						}
					],
					"name": "withdraw",
					"outputs": [],
					"stateMutability": "nonpayable",
					"type": "function"
				}
			],
			"devdoc": {
				"kind": "dev",
				"methods": {},
				"version": 1
			},
			"evm": {
				"assembly": "    /* \"ITechnology.sol\":309:1004  contract Marketplace is ITransaction {... */\n  mstore(0x40, 0x80)\n  callvalue\n  dup1\n  iszero\n  tag_1\n  jumpi\n  revert(0x00, 0x00)\ntag_1:\n  pop\n  dataSize(sub_0)\n  dup1\n  dataOffset(sub_0)\n  0x00\n  codecopy\n  0x00\n  return\nstop\n\nsub_0: assembly {\n        /* \"ITechnology.sol\":309:1004  contract Marketplace is ITransaction {... */\n      mstore(0x40, 0x80)\n      jumpi(tag_1, lt(calldatasize, 0x04))\n      shr(0xe0, calldataload(0x00))\n      dup1\n      0x2e1a7d4d\n      eq\n      tag_2\n      jumpi\n      dup1\n      0xb6b55f25\n      eq\n      tag_3\n      jumpi\n      dup1\n      0xc71daccb\n      eq\n      tag_4\n      jumpi\n    tag_1:\n      revert(0x00, 0x00)\n        /* \"ITechnology.sol\":596:882  function withdraw(uint256 amount) external override {... */\n    tag_2:\n      callvalue\n      dup1\n      iszero\n      tag_5\n      jumpi\n      revert(0x00, 0x00)\n    tag_5:\n      pop\n      tag_6\n      0x04\n      dup1\n      calldatasize\n      sub\n      dup2\n      add\n      swap1\n      tag_7\n      swap2\n      swap1\n      tag_8\n      jump\t// in\n    tag_7:\n      tag_9\n      jump\t// in\n    tag_6:\n      stop\n        /* \"ITechnology.sol\":406:589  function deposit(uint256 amount) external payable override {... */\n    tag_3:\n      tag_10\n      0x04\n      dup1\n      calldatasize\n      sub\n      dup2\n      add\n      swap1\n      tag_11\n      swap2\n      swap1\n      tag_8\n      jump\t// in\n    tag_11:\n      tag_12\n      jump\t// in\n    tag_10:\n      stop\n        /* \"ITechnology.sol\":890:1001  function checkBalance() external view override returns (uint256) {... */\n    tag_4:\n      callvalue\n      dup1\n      iszero\n      tag_13\n      jumpi\n      revert(0x00, 0x00)\n    tag_13:\n      pop\n      tag_14\n      tag_15\n      jump\t// in\n    tag_14:\n      mload(0x40)\n      tag_16\n      swap2\n      swap1\n      tag_17\n      jump\t// in\n    tag_16:\n      mload(0x40)\n      dup1\n      swap2\n      sub\n      swap1\n      return\n        /* \"ITechnology.sol\":596:882  function withdraw(uint256 amount) external override {... */\n    tag_9:\n        /* \"ITechnology.sol\":687:693  amount */\n      dup1\n        /* \"ITechnology.sol\":663:671  balances */\n      0x00\n        /* \"ITechnology.sol\":663:683  balances[msg.sender] */\n      0x00\n        /* \"ITechnology.sol\":672:682  msg.sender */\n      caller\n        /* \"ITechnology.sol\":663:683  balances[msg.sender] */\n      0xffffffffffffffffffffffffffffffffffffffff\n      and\n      0xffffffffffffffffffffffffffffffffffffffff\n      and\n      dup2\n      mstore\n      0x20\n      add\n      swap1\n      dup2\n      mstore\n      0x20\n      add\n      0x00\n      keccak256\n      sload\n        /* \"ITechnology.sol\":663:693  balances[msg.sender] >= amount */\n      lt\n      iszero\n        /* \"ITechnology.sol\":655:718  require(balances[msg.sender] >= amount, \"Insufficient balance\") */\n      tag_19\n      jumpi\n      mload(0x40)\n      0x08c379a000000000000000000000000000000000000000000000000000000000\n      dup2\n      mstore\n      0x04\n      add\n      tag_20\n      swap1\n      tag_21\n      jump\t// in\n    tag_20:\n      mload(0x40)\n      dup1\n      swap2\n      sub\n      swap1\n      revert\n    tag_19:\n        /* \"ITechnology.sol\":755:761  amount */\n      dup1\n        /* \"ITechnology.sol\":731:739  balances */\n      0x00\n        /* \"ITechnology.sol\":731:751  balances[msg.sender] */\n      0x00\n        /* \"ITechnology.sol\":740:750  msg.sender */\n      caller\n        /* \"ITechnology.sol\":731:751  balances[msg.sender] */\n      0xffffffffffffffffffffffffffffffffffffffff\n      and\n      0xffffffffffffffffffffffffffffffffffffffff\n      and\n      dup2\n      mstore\n      0x20\n      add\n      swap1\n      dup2\n      mstore\n      0x20\n      add\n      0x00\n      keccak256\n      0x00\n        /* \"ITechnology.sol\":731:761  balances[msg.sender] -= amount */\n      dup3\n      dup3\n      sload\n      tag_22\n      swap2\n      swap1\n      tag_23\n      jump\t// in\n    tag_22:\n      swap3\n      pop\n      pop\n      dup2\n      swap1\n      sstore\n      pop\n        /* \"ITechnology.sol\":775:787  bool success */\n      0x00\n        /* \"ITechnology.sol\":801:811  msg.sender */\n      caller\n        /* \"ITechnology.sol\":793:817  payable(msg.sender).call */\n      0xffffffffffffffffffffffffffffffffffffffff\n      and\n        /* \"ITechnology.sol\":825:831  amount */\n      dup3\n        /* \"ITechnology.sol\":793:836  payable(msg.sender).call{value: amount}(\"\") */\n      mload(0x40)\n      tag_24\n      swap1\n      tag_25\n      jump\t// in\n    tag_24:\n      0x00\n      mload(0x40)\n      dup1\n      dup4\n      sub\n      dup2\n      dup6\n      dup8\n      gas\n      call\n      swap3\n      pop\n      pop\n      pop\n      returndatasize\n      dup1\n      0x00\n      dup2\n      eq\n      tag_28\n      jumpi\n      mload(0x40)\n      swap2\n      pop\n      and(add(returndatasize, 0x3f), not(0x1f))\n      dup3\n      add\n      0x40\n      mstore\n      returndatasize\n      dup3\n      mstore\n      returndatasize\n      0x00\n      0x20\n      dup5\n      add\n      returndatacopy\n      jump(tag_27)\n    tag_28:\n      0x60\n      swap2\n      pop\n    tag_27:\n      pop\n        /* \"ITechnology.sol\":774:836  (bool success, ) = payable(msg.sender).call{value: amount}(\"\") */\n      pop\n      swap1\n      pop\n        /* \"ITechnology.sol\":851:858  success */\n      dup1\n        /* \"ITechnology.sol\":843:878  require(success, \"Transfer failed\") */\n      tag_29\n      jumpi\n      mload(0x40)\n      0x08c379a000000000000000000000000000000000000000000000000000000000\n      dup2\n      mstore\n      0x04\n      add\n      tag_30\n      swap1\n      tag_31\n      jump\t// in\n    tag_30:\n      mload(0x40)\n      dup1\n      swap2\n      sub\n      swap1\n      revert\n    tag_29:\n        /* \"ITechnology.sol\":648:882  {... */\n      pop\n        /* \"ITechnology.sol\":596:882  function withdraw(uint256 amount) external override {... */\n      pop\n      jump\t// out\n        /* \"ITechnology.sol\":406:589  function deposit(uint256 amount) external payable override {... */\n    tag_12:\n        /* \"ITechnology.sol\":497:503  amount */\n      dup1\n        /* \"ITechnology.sol\":484:493  msg.value */\n      callvalue\n        /* \"ITechnology.sol\":484:503  msg.value == amount */\n      eq\n        /* \"ITechnology.sol\":476:540  require(msg.value == amount, \"Amount does not match sent Ether\") */\n      tag_33\n      jumpi\n      mload(0x40)\n      0x08c379a000000000000000000000000000000000000000000000000000000000\n      dup2\n      mstore\n      0x04\n      add\n      tag_34\n      swap1\n      tag_35\n      jump\t// in\n    tag_34:\n      mload(0x40)\n      dup1\n      swap2\n      sub\n      swap1\n      revert\n    tag_33:\n        /* \"ITechnology.sol\":575:581  amount */\n      dup1\n        /* \"ITechnology.sol\":551:559  balances */\n      0x00\n        /* \"ITechnology.sol\":551:571  balances[msg.sender] */\n      0x00\n        /* \"ITechnology.sol\":560:570  msg.sender */\n      caller\n        /* \"ITechnology.sol\":551:571  balances[msg.sender] */\n      0xffffffffffffffffffffffffffffffffffffffff\n      and\n      0xffffffffffffffffffffffffffffffffffffffff\n      and\n      dup2\n      mstore\n      0x20\n      add\n      swap1\n      dup2\n      mstore\n      0x20\n      add\n      0x00\n      keccak256\n      0x00\n        /* \"ITechnology.sol\":551:581  balances[msg.sender] += amount */\n      dup3\n      dup3\n      sload\n      tag_36\n      swap2\n      swap1\n      tag_37\n      jump\t// in\n    tag_36:\n      swap3\n      pop\n      pop\n      dup2\n      swap1\n      sstore\n      pop\n        /* \"ITechnology.sol\":406:589  function deposit(uint256 amount) external payable override {... */\n      pop\n      jump\t// out\n        /* \"ITechnology.sol\":890:1001  function checkBalance() external view override returns (uint256) {... */\n    tag_15:\n        /* \"ITechnology.sol\":946:953  uint256 */\n      0x00\n        /* \"ITechnology.sol\":973:981  balances */\n      0x00\n        /* \"ITechnology.sol\":973:993  balances[msg.sender] */\n      0x00\n        /* \"ITechnology.sol\":982:992  msg.sender */\n      caller\n        /* \"ITechnology.sol\":973:993  balances[msg.sender] */\n      0xffffffffffffffffffffffffffffffffffffffff\n      and\n      0xffffffffffffffffffffffffffffffffffffffff\n      and\n      dup2\n      mstore\n      0x20\n      add\n      swap1\n      dup2\n      mstore\n      0x20\n      add\n      0x00\n      keccak256\n      sload\n        /* \"ITechnology.sol\":966:993  return balances[msg.sender] */\n      swap1\n      pop\n        /* \"ITechnology.sol\":890:1001  function checkBalance() external view override returns (uint256) {... */\n      swap1\n      jump\t// out\n        /* \"#utility.yul\":88:205   */\n    tag_40:\n        /* \"#utility.yul\":197:198   */\n      0x00\n        /* \"#utility.yul\":194:195   */\n      0x00\n        /* \"#utility.yul\":187:199   */\n      revert\n        /* \"#utility.yul\":334:411   */\n    tag_42:\n        /* \"#utility.yul\":371:378   */\n      0x00\n        /* \"#utility.yul\":400:405   */\n      dup2\n        /* \"#utility.yul\":389:405   */\n      swap1\n      pop\n        /* \"#utility.yul\":334:411   */\n      swap2\n      swap1\n      pop\n      jump\t// out\n        /* \"#utility.yul\":417:539   */\n    tag_43:\n        /* \"#utility.yul\":490:514   */\n      tag_63\n        /* \"#utility.yul\":508:513   */\n      dup2\n        /* \"#utility.yul\":490:514   */\n      tag_42\n      jump\t// in\n    tag_63:\n        /* \"#utility.yul\":483:488   */\n      dup2\n        /* \"#utility.yul\":480:515   */\n      eq\n        /* \"#utility.yul\":470:533   */\n      tag_64\n      jumpi\n        /* \"#utility.yul\":529:530   */\n      0x00\n        /* \"#utility.yul\":526:527   */\n      0x00\n        /* \"#utility.yul\":519:531   */\n      revert\n        /* \"#utility.yul\":470:533   */\n    tag_64:\n        /* \"#utility.yul\":417:539   */\n      pop\n      jump\t// out\n        /* \"#utility.yul\":545:684   */\n    tag_44:\n        /* \"#utility.yul\":591:596   */\n      0x00\n        /* \"#utility.yul\":629:635   */\n      dup2\n        /* \"#utility.yul\":616:636   */\n      calldataload\n        /* \"#utility.yul\":607:636   */\n      swap1\n      pop\n        /* \"#utility.yul\":645:678   */\n      tag_66\n        /* \"#utility.yul\":672:677   */\n      dup2\n        /* \"#utility.yul\":645:678   */\n      tag_43\n      jump\t// in\n    tag_66:\n        /* \"#utility.yul\":545:684   */\n      swap3\n      swap2\n      pop\n      pop\n      jump\t// out\n        /* \"#utility.yul\":690:1019   */\n    tag_8:\n        /* \"#utility.yul\":749:755   */\n      0x00\n        /* \"#utility.yul\":798:800   */\n      0x20\n        /* \"#utility.yul\":786:795   */\n      dup3\n        /* \"#utility.yul\":777:784   */\n      dup5\n        /* \"#utility.yul\":773:796   */\n      sub\n        /* \"#utility.yul\":769:801   */\n      slt\n        /* \"#utility.yul\":766:885   */\n      iszero\n      tag_68\n      jumpi\n        /* \"#utility.yul\":804:883   */\n      tag_69\n      tag_40\n      jump\t// in\n    tag_69:\n        /* \"#utility.yul\":766:885   */\n    tag_68:\n        /* \"#utility.yul\":924:925   */\n      0x00\n        /* \"#utility.yul\":949:1002   */\n      tag_70\n        /* \"#utility.yul\":994:1001   */\n      dup5\n        /* \"#utility.yul\":985:991   */\n      dup3\n        /* \"#utility.yul\":974:983   */\n      dup6\n        /* \"#utility.yul\":970:992   */\n      add\n        /* \"#utility.yul\":949:1002   */\n      tag_44\n      jump\t// in\n    tag_70:\n        /* \"#utility.yul\":939:1002   */\n      swap2\n      pop\n        /* \"#utility.yul\":895:1012   */\n      pop\n        /* \"#utility.yul\":690:1019   */\n      swap3\n      swap2\n      pop\n      pop\n      jump\t// out\n        /* \"#utility.yul\":1025:1143   */\n    tag_45:\n        /* \"#utility.yul\":1112:1136   */\n      tag_72\n        /* \"#utility.yul\":1130:1135   */\n      dup2\n        /* \"#utility.yul\":1112:1136   */\n      tag_42\n      jump\t// in\n    tag_72:\n        /* \"#utility.yul\":1107:1110   */\n      dup3\n        /* \"#utility.yul\":1100:1137   */\n      mstore\n        /* \"#utility.yul\":1025:1143   */\n      pop\n      pop\n      jump\t// out\n        /* \"#utility.yul\":1149:1371   */\n    tag_17:\n        /* \"#utility.yul\":1242:1246   */\n      0x00\n        /* \"#utility.yul\":1280:1282   */\n      0x20\n        /* \"#utility.yul\":1269:1278   */\n      dup3\n        /* \"#utility.yul\":1265:1283   */\n      add\n        /* \"#utility.yul\":1257:1283   */\n      swap1\n      pop\n        /* \"#utility.yul\":1293:1364   */\n      tag_74\n        /* \"#utility.yul\":1361:1362   */\n      0x00\n        /* \"#utility.yul\":1350:1359   */\n      dup4\n        /* \"#utility.yul\":1346:1363   */\n      add\n        /* \"#utility.yul\":1337:1343   */\n      dup5\n        /* \"#utility.yul\":1293:1364   */\n      tag_45\n      jump\t// in\n    tag_74:\n        /* \"#utility.yul\":1149:1371   */\n      swap3\n      swap2\n      pop\n      pop\n      jump\t// out\n        /* \"#utility.yul\":1377:1546   */\n    tag_46:\n        /* \"#utility.yul\":1461:1472   */\n      0x00\n        /* \"#utility.yul\":1495:1501   */\n      dup3\n        /* \"#utility.yul\":1490:1493   */\n      dup3\n        /* \"#utility.yul\":1483:1502   */\n      mstore\n        /* \"#utility.yul\":1535:1539   */\n      0x20\n        /* \"#utility.yul\":1530:1533   */\n      dup3\n        /* \"#utility.yul\":1526:1540   */\n      add\n        /* \"#utility.yul\":1511:1540   */\n      swap1\n      pop\n        /* \"#utility.yul\":1377:1546   */\n      swap3\n      swap2\n      pop\n      pop\n      jump\t// out\n        /* \"#utility.yul\":1552:1722   */\n    tag_47:\n        /* \"#utility.yul\":1692:1714   */\n      0x496e73756666696369656e742062616c616e6365000000000000000000000000\n        /* \"#utility.yul\":1688:1689   */\n      0x00\n        /* \"#utility.yul\":1680:1686   */\n      dup3\n        /* \"#utility.yul\":1676:1690   */\n      add\n        /* \"#utility.yul\":1669:1715   */\n      mstore\n        /* \"#utility.yul\":1552:1722   */\n      pop\n      jump\t// out\n        /* \"#utility.yul\":1728:2094   */\n    tag_48:\n        /* \"#utility.yul\":1870:1873   */\n      0x00\n        /* \"#utility.yul\":1891:1958   */\n      tag_78\n        /* \"#utility.yul\":1955:1957   */\n      0x14\n        /* \"#utility.yul\":1950:1953   */\n      dup4\n        /* \"#utility.yul\":1891:1958   */\n      tag_46\n      jump\t// in\n    tag_78:\n        /* \"#utility.yul\":1884:1958   */\n      swap2\n      pop\n        /* \"#utility.yul\":1967:2060   */\n      tag_79\n        /* \"#utility.yul\":2056:2059   */\n      dup3\n        /* \"#utility.yul\":1967:2060   */\n      tag_47\n      jump\t// in\n    tag_79:\n        /* \"#utility.yul\":2085:2087   */\n      0x20\n        /* \"#utility.yul\":2080:2083   */\n      dup3\n        /* \"#utility.yul\":2076:2088   */\n      add\n        /* \"#utility.yul\":2069:2088   */\n      swap1\n      pop\n        /* \"#utility.yul\":1728:2094   */\n      swap2\n      swap1\n      pop\n      jump\t// out\n        /* \"#utility.yul\":2100:2519   */\n    tag_21:\n        /* \"#utility.yul\":2266:2270   */\n      0x00\n        /* \"#utility.yul\":2304:2306   */\n      0x20\n        /* \"#utility.yul\":2293:2302   */\n      dup3\n        /* \"#utility.yul\":2289:2307   */\n      add\n        /* \"#utility.yul\":2281:2307   */\n      swap1\n      pop\n        /* \"#utility.yul\":2353:2362   */\n      dup2\n        /* \"#utility.yul\":2347:2351   */\n      dup2\n        /* \"#utility.yul\":2343:2363   */\n      sub\n        /* \"#utility.yul\":2339:2340   */\n      0x00\n        /* \"#utility.yul\":2328:2337   */\n      dup4\n        /* \"#utility.yul\":2324:2341   */\n      add\n        /* \"#utility.yul\":2317:2364   */\n      mstore\n        /* \"#utility.yul\":2381:2512   */\n      tag_81\n        /* \"#utility.yul\":2507:2511   */\n      dup2\n        /* \"#utility.yul\":2381:2512   */\n      tag_48\n      jump\t// in\n    tag_81:\n        /* \"#utility.yul\":2373:2512   */\n      swap1\n      pop\n        /* \"#utility.yul\":2100:2519   */\n      swap2\n      swap1\n      pop\n      jump\t// out\n        /* \"#utility.yul\":2525:2705   */\n    tag_49:\n        /* \"#utility.yul\":2573:2650   */\n      0x4e487b7100000000000000000000000000000000000000000000000000000000\n        /* \"#utility.yul\":2570:2571   */\n      0x00\n        /* \"#utility.yul\":2563:2651   */\n      mstore\n        /* \"#utility.yul\":2670:2674   */\n      0x11\n        /* \"#utility.yul\":2667:2668   */\n      0x04\n        /* \"#utility.yul\":2660:2675   */\n      mstore\n        /* \"#utility.yul\":2694:2698   */\n      0x24\n        /* \"#utility.yul\":2691:2692   */\n      0x00\n        /* \"#utility.yul\":2684:2699   */\n      revert\n        /* \"#utility.yul\":2711:2905   */\n    tag_23:\n        /* \"#utility.yul\":2751:2755   */\n      0x00\n        /* \"#utility.yul\":2771:2791   */\n      tag_84\n        /* \"#utility.yul\":2789:2790   */\n      dup3\n        /* \"#utility.yul\":2771:2791   */\n      tag_42\n      jump\t// in\n    tag_84:\n        /* \"#utility.yul\":2766:2791   */\n      swap2\n      pop\n        /* \"#utility.yul\":2805:2825   */\n      tag_85\n        /* \"#utility.yul\":2823:2824   */\n      dup4\n        /* \"#utility.yul\":2805:2825   */\n      tag_42\n      jump\t// in\n    tag_85:\n        /* \"#utility.yul\":2800:2825   */\n      swap3\n      pop\n        /* \"#utility.yul\":2849:2850   */\n      dup3\n        /* \"#utility.yul\":2846:2847   */\n      dup3\n        /* \"#utility.yul\":2842:2851   */\n      sub\n        /* \"#utility.yul\":2834:2851   */\n      swap1\n      pop\n        /* \"#utility.yul\":2873:2874   */\n      dup2\n        /* \"#utility.yul\":2867:2871   */\n      dup2\n        /* \"#utility.yul\":2864:2875   */\n      gt\n        /* \"#utility.yul\":2861:2898   */\n      iszero\n      tag_86\n      jumpi\n        /* \"#utility.yul\":2878:2896   */\n      tag_87\n      tag_49\n      jump\t// in\n    tag_87:\n        /* \"#utility.yul\":2861:2898   */\n    tag_86:\n        /* \"#utility.yul\":2711:2905   */\n      swap3\n      swap2\n      pop\n      pop\n      jump\t// out\n        /* \"#utility.yul\":2911:3058   */\n    tag_50:\n        /* \"#utility.yul\":3012:3023   */\n      0x00\n        /* \"#utility.yul\":3049:3052   */\n      dup2\n        /* \"#utility.yul\":3034:3052   */\n      swap1\n      pop\n        /* \"#utility.yul\":2911:3058   */\n      swap3\n      swap2\n      pop\n      pop\n      jump\t// out\n        /* \"#utility.yul\":3064:3178   */\n    tag_51:\n      pop\n      jump\t// out\n        /* \"#utility.yul\":3184:3582   */\n    tag_52:\n        /* \"#utility.yul\":3343:3346   */\n      0x00\n        /* \"#utility.yul\":3364:3447   */\n      tag_91\n        /* \"#utility.yul\":3445:3446   */\n      0x00\n        /* \"#utility.yul\":3440:3443   */\n      dup4\n        /* \"#utility.yul\":3364:3447   */\n      tag_50\n      jump\t// in\n    tag_91:\n        /* \"#utility.yul\":3357:3447   */\n      swap2\n      pop\n        /* \"#utility.yul\":3456:3549   */\n      tag_92\n        /* \"#utility.yul\":3545:3548   */\n      dup3\n        /* \"#utility.yul\":3456:3549   */\n      tag_51\n      jump\t// in\n    tag_92:\n        /* \"#utility.yul\":3574:3575   */\n      0x00\n        /* \"#utility.yul\":3569:3572   */\n      dup3\n        /* \"#utility.yul\":3565:3576   */\n      add\n        /* \"#utility.yul\":3558:3576   */\n      swap1\n      pop\n        /* \"#utility.yul\":3184:3582   */\n      swap2\n      swap1\n      pop\n      jump\t// out\n        /* \"#utility.yul\":3588:3967   */\n    tag_25:\n        /* \"#utility.yul\":3772:3775   */\n      0x00\n        /* \"#utility.yul\":3794:3941   */\n      tag_94\n        /* \"#utility.yul\":3937:3940   */\n      dup3\n        /* \"#utility.yul\":3794:3941   */\n      tag_52\n      jump\t// in\n    tag_94:\n        /* \"#utility.yul\":3787:3941   */\n      swap2\n      pop\n        /* \"#utility.yul\":3958:3961   */\n      dup2\n        /* \"#utility.yul\":3951:3961   */\n      swap1\n      pop\n        /* \"#utility.yul\":3588:3967   */\n      swap2\n      swap1\n      pop\n      jump\t// out\n        /* \"#utility.yul\":3973:4138   */\n    tag_53:\n        /* \"#utility.yul\":4113:4130   */\n      0x5472616e73666572206661696c65640000000000000000000000000000000000\n        /* \"#utility.yul\":4109:4110   */\n      0x00\n        /* \"#utility.yul\":4101:4107   */\n      dup3\n        /* \"#utility.yul\":4097:4111   */\n      add\n        /* \"#utility.yul\":4090:4131   */\n      mstore\n        /* \"#utility.yul\":3973:4138   */\n      pop\n      jump\t// out\n        /* \"#utility.yul\":4144:4510   */\n    tag_54:\n        /* \"#utility.yul\":4286:4289   */\n      0x00\n        /* \"#utility.yul\":4307:4374   */\n      tag_97\n        /* \"#utility.yul\":4371:4373   */\n      0x0f\n        /* \"#utility.yul\":4366:4369   */\n      dup4\n        /* \"#utility.yul\":4307:4374   */\n      tag_46\n      jump\t// in\n    tag_97:\n        /* \"#utility.yul\":4300:4374   */\n      swap2\n      pop\n        /* \"#utility.yul\":4383:4476   */\n      tag_98\n        /* \"#utility.yul\":4472:4475   */\n      dup3\n        /* \"#utility.yul\":4383:4476   */\n      tag_53\n      jump\t// in\n    tag_98:\n        /* \"#utility.yul\":4501:4503   */\n      0x20\n        /* \"#utility.yul\":4496:4499   */\n      dup3\n        /* \"#utility.yul\":4492:4504   */\n      add\n        /* \"#utility.yul\":4485:4504   */\n      swap1\n      pop\n        /* \"#utility.yul\":4144:4510   */\n      swap2\n      swap1\n      pop\n      jump\t// out\n        /* \"#utility.yul\":4516:4935   */\n    tag_31:\n        /* \"#utility.yul\":4682:4686   */\n      0x00\n        /* \"#utility.yul\":4720:4722   */\n      0x20\n        /* \"#utility.yul\":4709:4718   */\n      dup3\n        /* \"#utility.yul\":4705:4723   */\n      add\n        /* \"#utility.yul\":4697:4723   */\n      swap1\n      pop\n        /* \"#utility.yul\":4769:4778   */\n      dup2\n        /* \"#utility.yul\":4763:4767   */\n      dup2\n        /* \"#utility.yul\":4759:4779   */\n      sub\n        /* \"#utility.yul\":4755:4756   */\n      0x00\n        /* \"#utility.yul\":4744:4753   */\n      dup4\n        /* \"#utility.yul\":4740:4757   */\n      add\n        /* \"#utility.yul\":4733:4780   */\n      mstore\n        /* \"#utility.yul\":4797:4928   */\n      tag_100\n        /* \"#utility.yul\":4923:4927   */\n      dup2\n        /* \"#utility.yul\":4797:4928   */\n      tag_54\n      jump\t// in\n    tag_100:\n        /* \"#utility.yul\":4789:4928   */\n      swap1\n      pop\n        /* \"#utility.yul\":4516:4935   */\n      swap2\n      swap1\n      pop\n      jump\t// out\n        /* \"#utility.yul\":4941:5123   */\n    tag_55:\n        /* \"#utility.yul\":5081:5115   */\n      0x416d6f756e7420646f6573206e6f74206d617463682073656e74204574686572\n        /* \"#utility.yul\":5077:5078   */\n      0x00\n        /* \"#utility.yul\":5069:5075   */\n      dup3\n        /* \"#utility.yul\":5065:5079   */\n      add\n        /* \"#utility.yul\":5058:5116   */\n      mstore\n        /* \"#utility.yul\":4941:5123   */\n      pop\n      jump\t// out\n        /* \"#utility.yul\":5129:5495   */\n    tag_56:\n        /* \"#utility.yul\":5271:5274   */\n      0x00\n        /* \"#utility.yul\":5292:5359   */\n      tag_103\n        /* \"#utility.yul\":5356:5358   */\n      0x20\n        /* \"#utility.yul\":5351:5354   */\n      dup4\n        /* \"#utility.yul\":5292:5359   */\n      tag_46\n      jump\t// in\n    tag_103:\n        /* \"#utility.yul\":5285:5359   */\n      swap2\n      pop\n        /* \"#utility.yul\":5368:5461   */\n      tag_104\n        /* \"#utility.yul\":5457:5460   */\n      dup3\n        /* \"#utility.yul\":5368:5461   */\n      tag_55\n      jump\t// in\n    tag_104:\n        /* \"#utility.yul\":5486:5488   */\n      0x20\n        /* \"#utility.yul\":5481:5484   */\n      dup3\n        /* \"#utility.yul\":5477:5489   */\n      add\n        /* \"#utility.yul\":5470:5489   */\n      swap1\n      pop\n        /* \"#utility.yul\":5129:5495   */\n      swap2\n      swap1\n      pop\n      jump\t// out\n        /* \"#utility.yul\":5501:5920   */\n    tag_35:\n        /* \"#utility.yul\":5667:5671   */\n      0x00\n        /* \"#utility.yul\":5705:5707   */\n      0x20\n        /* \"#utility.yul\":5694:5703   */\n      dup3\n        /* \"#utility.yul\":5690:5708   */\n      add\n        /* \"#utility.yul\":5682:5708   */\n      swap1\n      pop\n        /* \"#utility.yul\":5754:5763   */\n      dup2\n        /* \"#utility.yul\":5748:5752   */\n      dup2\n        /* \"#utility.yul\":5744:5764   */\n      sub\n        /* \"#utility.yul\":5740:5741   */\n      0x00\n        /* \"#utility.yul\":5729:5738   */\n      dup4\n        /* \"#utility.yul\":5725:5742   */\n      add\n        /* \"#utility.yul\":5718:5765   */\n      mstore\n        /* \"#utility.yul\":5782:5913   */\n      tag_106\n        /* \"#utility.yul\":5908:5912   */\n      dup2\n        /* \"#utility.yul\":5782:5913   */\n      tag_56\n      jump\t// in\n    tag_106:\n        /* \"#utility.yul\":5774:5913   */\n      swap1\n      pop\n        /* \"#utility.yul\":5501:5920   */\n      swap2\n      swap1\n      pop\n      jump\t// out\n        /* \"#utility.yul\":5926:6117   */\n    tag_37:\n        /* \"#utility.yul\":5966:5969   */\n      0x00\n        /* \"#utility.yul\":5985:6005   */\n      tag_108\n        /* \"#utility.yul\":6003:6004   */\n      dup3\n        /* \"#utility.yul\":5985:6005   */\n      tag_42\n      jump\t// in\n    tag_108:\n        /* \"#utility.yul\":5980:6005   */\n      swap2\n      pop\n        /* \"#utility.yul\":6019:6039   */\n      tag_109\n        /* \"#utility.yul\":6037:6038   */\n      dup4\n        /* \"#utility.yul\":6019:6039   */\n      tag_42\n      jump\t// in\n    tag_109:\n        /* \"#utility.yul\":6014:6039   */\n      swap3\n      pop\n        /* \"#utility.yul\":6062:6063   */\n      dup3\n        /* \"#utility.yul\":6059:6060   */\n      dup3\n        /* \"#utility.yul\":6055:6064   */\n      add\n        /* \"#utility.yul\":6048:6064   */\n      swap1\n      pop\n        /* \"#utility.yul\":6083:6086   */\n      dup1\n        /* \"#utility.yul\":6080:6081   */\n      dup3\n        /* \"#utility.yul\":6077:6087   */\n      gt\n        /* \"#utility.yul\":6074:6110   */\n      iszero\n      tag_110\n      jumpi\n        /* \"#utility.yul\":6090:6108   */\n      tag_111\n      tag_49\n      jump\t// in\n    tag_111:\n        /* \"#utility.yul\":6074:6110   */\n    tag_110:\n        /* \"#utility.yul\":5926:6117   */\n      swap3\n      swap2\n      pop\n      pop\n      jump\t// out\n\n    auxdata: 0xa2646970667358221220ebd99eb2d9857a86bad294633a52eeba66e94f8ca45a476aaf61463bd0536cd364736f6c634300081f0033\n}\n",
				"bytecode": {
					"linkReferences": {},
					"object": "6080604052348015600e575f5ffd5b506105d88061001c5f395ff3fe608060405260043610610033575f3560e01c80632e1a7d4d14610037578063b6b55f251461005f578063c71daccb1461007b575b5f5ffd5b348015610042575f5ffd5b5061005d60048036038101906100589190610333565b6100a5565b005b61007960048036038101906100749190610333565b610222565b005b348015610086575f5ffd5b5061008f6102b9565b60405161009c919061036d565b60405180910390f35b805f5f3373ffffffffffffffffffffffffffffffffffffffff1673ffffffffffffffffffffffffffffffffffffffff1681526020019081526020015f20541015610124576040517f08c379a000000000000000000000000000000000000000000000000000000000815260040161011b906103e0565b60405180910390fd5b805f5f3373ffffffffffffffffffffffffffffffffffffffff1673ffffffffffffffffffffffffffffffffffffffff1681526020019081526020015f205f82825461016f919061042b565b925050819055505f3373ffffffffffffffffffffffffffffffffffffffff168260405161019b9061048b565b5f6040518083038185875af1925050503d805f81146101d5576040519150601f19603f3d011682016040523d82523d5f602084013e6101da565b606091505b505090508061021e576040517f08c379a0000000000000000000000000000000000000000000000000000000008152600401610215906104e9565b60405180910390fd5b5050565b803414610264576040517f08c379a000000000000000000000000000000000000000000000000000000000815260040161025b90610551565b60405180910390fd5b805f5f3373ffffffffffffffffffffffffffffffffffffffff1673ffffffffffffffffffffffffffffffffffffffff1681526020019081526020015f205f8282546102af919061056f565b9250508190555050565b5f5f5f3373ffffffffffffffffffffffffffffffffffffffff1673ffffffffffffffffffffffffffffffffffffffff1681526020019081526020015f2054905090565b5f5ffd5b5f819050919050565b61031281610300565b811461031c575f5ffd5b50565b5f8135905061032d81610309565b92915050565b5f60208284031215610348576103476102fc565b5b5f6103558482850161031f565b91505092915050565b61036781610300565b82525050565b5f6020820190506103805f83018461035e565b92915050565b5f82825260208201905092915050565b7f496e73756666696369656e742062616c616e63650000000000000000000000005f82015250565b5f6103ca601483610386565b91506103d582610396565b602082019050919050565b5f6020820190508181035f8301526103f7816103be565b9050919050565b7f4e487b71000000000000000000000000000000000000000000000000000000005f52601160045260245ffd5b5f61043582610300565b915061044083610300565b9250828203905081811115610458576104576103fe565b5b92915050565b5f81905092915050565b50565b5f6104765f8361045e565b915061048182610468565b5f82019050919050565b5f6104958261046b565b9150819050919050565b7f5472616e73666572206661696c656400000000000000000000000000000000005f82015250565b5f6104d3600f83610386565b91506104de8261049f565b602082019050919050565b5f6020820190508181035f830152610500816104c7565b9050919050565b7f416d6f756e7420646f6573206e6f74206d617463682073656e742045746865725f82015250565b5f61053b602083610386565b915061054682610507565b602082019050919050565b5f6020820190508181035f8301526105688161052f565b9050919050565b5f61057982610300565b915061058483610300565b925082820190508082111561059c5761059b6103fe565b5b9291505056fea2646970667358221220ebd99eb2d9857a86bad294633a52eeba66e94f8ca45a476aaf61463bd0536cd364736f6c634300081f0033",
					"opcodes": "PUSH1 0x80 PUSH1 0x40 MSTORE CALLVALUE DUP1 ISZERO PUSH1 0xE JUMPI PUSH0 PUSH0 REVERT JUMPDEST POP PUSH2 0x5D8 DUP1 PUSH2 0x1C PUSH0 CODECOPY PUSH0 RETURN INVALID PUSH1 0x80 PUSH1 0x40 MSTORE PUSH1 0x4 CALLDATASIZE LT PUSH2 0x33 JUMPI PUSH0 CALLDATALOAD PUSH1 0xE0 SHR DUP1 PUSH4 0x2E1A7D4D EQ PUSH2 0x37 JUMPI DUP1 PUSH4 0xB6B55F25 EQ PUSH2 0x5F JUMPI DUP1 PUSH4 0xC71DACCB EQ PUSH2 0x7B JUMPI JUMPDEST PUSH0 PUSH0 REVERT JUMPDEST CALLVALUE DUP1 ISZERO PUSH2 0x42 JUMPI PUSH0 PUSH0 REVERT JUMPDEST POP PUSH2 0x5D PUSH1 0x4 DUP1 CALLDATASIZE SUB DUP2 ADD SWAP1 PUSH2 0x58 SWAP2 SWAP1 PUSH2 0x333 JUMP JUMPDEST PUSH2 0xA5 JUMP JUMPDEST STOP JUMPDEST PUSH2 0x79 PUSH1 0x4 DUP1 CALLDATASIZE SUB DUP2 ADD SWAP1 PUSH2 0x74 SWAP2 SWAP1 PUSH2 0x333 JUMP JUMPDEST PUSH2 0x222 JUMP JUMPDEST STOP JUMPDEST CALLVALUE DUP1 ISZERO PUSH2 0x86 JUMPI PUSH0 PUSH0 REVERT JUMPDEST POP PUSH2 0x8F PUSH2 0x2B9 JUMP JUMPDEST PUSH1 0x40 MLOAD PUSH2 0x9C SWAP2 SWAP1 PUSH2 0x36D JUMP JUMPDEST PUSH1 0x40 MLOAD DUP1 SWAP2 SUB SWAP1 RETURN JUMPDEST DUP1 PUSH0 PUSH0 CALLER PUSH20 0xFFFFFFFFFFFFFFFFFFFFFFFFFFFFFFFFFFFFFFFF AND PUSH20 0xFFFFFFFFFFFFFFFFFFFFFFFFFFFFFFFFFFFFFFFF AND DUP2 MSTORE PUSH1 0x20 ADD SWAP1 DUP2 MSTORE PUSH1 0x20 ADD PUSH0 KECCAK256 SLOAD LT ISZERO PUSH2 0x124 JUMPI PUSH1 0x40 MLOAD PUSH32 0x8C379A000000000000000000000000000000000000000000000000000000000 DUP2 MSTORE PUSH1 0x4 ADD PUSH2 0x11B SWAP1 PUSH2 0x3E0 JUMP JUMPDEST PUSH1 0x40 MLOAD DUP1 SWAP2 SUB SWAP1 REVERT JUMPDEST DUP1 PUSH0 PUSH0 CALLER PUSH20 0xFFFFFFFFFFFFFFFFFFFFFFFFFFFFFFFFFFFFFFFF AND PUSH20 0xFFFFFFFFFFFFFFFFFFFFFFFFFFFFFFFFFFFFFFFF AND DUP2 MSTORE PUSH1 0x20 ADD SWAP1 DUP2 MSTORE PUSH1 0x20 ADD PUSH0 KECCAK256 PUSH0 DUP3 DUP3 SLOAD PUSH2 0x16F SWAP2 SWAP1 PUSH2 0x42B JUMP JUMPDEST SWAP3 POP POP DUP2 SWAP1 SSTORE POP PUSH0 CALLER PUSH20 0xFFFFFFFFFFFFFFFFFFFFFFFFFFFFFFFFFFFFFFFF AND DUP3 PUSH1 0x40 MLOAD PUSH2 0x19B SWAP1 PUSH2 0x48B JUMP JUMPDEST PUSH0 PUSH1 0x40 MLOAD DUP1 DUP4 SUB DUP2 DUP6 DUP8 GAS CALL SWAP3 POP POP POP RETURNDATASIZE DUP1 PUSH0 DUP2 EQ PUSH2 0x1D5 JUMPI PUSH1 0x40 MLOAD SWAP2 POP PUSH1 0x1F NOT PUSH1 0x3F RETURNDATASIZE ADD AND DUP3 ADD PUSH1 0x40 MSTORE RETURNDATASIZE DUP3 MSTORE RETURNDATASIZE PUSH0 PUSH1 0x20 DUP5 ADD RETURNDATACOPY PUSH2 0x1DA JUMP JUMPDEST PUSH1 0x60 SWAP2 POP JUMPDEST POP POP SWAP1 POP DUP1 PUSH2 0x21E JUMPI PUSH1 0x40 MLOAD PUSH32 0x8C379A000000000000000000000000000000000000000000000000000000000 DUP2 MSTORE PUSH1 0x4 ADD PUSH2 0x215 SWAP1 PUSH2 0x4E9 JUMP JUMPDEST PUSH1 0x40 MLOAD DUP1 SWAP2 SUB SWAP1 REVERT JUMPDEST POP POP JUMP JUMPDEST DUP1 CALLVALUE EQ PUSH2 0x264 JUMPI PUSH1 0x40 MLOAD PUSH32 0x8C379A000000000000000000000000000000000000000000000000000000000 DUP2 MSTORE PUSH1 0x4 ADD PUSH2 0x25B SWAP1 PUSH2 0x551 JUMP JUMPDEST PUSH1 0x40 MLOAD DUP1 SWAP2 SUB SWAP1 REVERT JUMPDEST DUP1 PUSH0 PUSH0 CALLER PUSH20 0xFFFFFFFFFFFFFFFFFFFFFFFFFFFFFFFFFFFFFFFF AND PUSH20 0xFFFFFFFFFFFFFFFFFFFFFFFFFFFFFFFFFFFFFFFF AND DUP2 MSTORE PUSH1 0x20 ADD SWAP1 DUP2 MSTORE PUSH1 0x20 ADD PUSH0 KECCAK256 PUSH0 DUP3 DUP3 SLOAD PUSH2 0x2AF SWAP2 SWAP1 PUSH2 0x56F JUMP JUMPDEST SWAP3 POP POP DUP2 SWAP1 SSTORE POP POP JUMP JUMPDEST PUSH0 PUSH0 PUSH0 CALLER PUSH20 0xFFFFFFFFFFFFFFFFFFFFFFFFFFFFFFFFFFFFFFFF AND PUSH20 0xFFFFFFFFFFFFFFFFFFFFFFFFFFFFFFFFFFFFFFFF AND DUP2 MSTORE PUSH1 0x20 ADD SWAP1 DUP2 MSTORE PUSH1 0x20 ADD PUSH0 KECCAK256 SLOAD SWAP1 POP SWAP1 JUMP JUMPDEST PUSH0 PUSH0 REVERT JUMPDEST PUSH0 DUP2 SWAP1 POP SWAP2 SWAP1 POP JUMP JUMPDEST PUSH2 0x312 DUP2 PUSH2 0x300 JUMP JUMPDEST DUP2 EQ PUSH2 0x31C JUMPI PUSH0 PUSH0 REVERT JUMPDEST POP JUMP JUMPDEST PUSH0 DUP2 CALLDATALOAD SWAP1 POP PUSH2 0x32D DUP2 PUSH2 0x309 JUMP JUMPDEST SWAP3 SWAP2 POP POP JUMP JUMPDEST PUSH0 PUSH1 0x20 DUP3 DUP5 SUB SLT ISZERO PUSH2 0x348 JUMPI PUSH2 0x347 PUSH2 0x2FC JUMP JUMPDEST JUMPDEST PUSH0 PUSH2 0x355 DUP5 DUP3 DUP6 ADD PUSH2 0x31F JUMP JUMPDEST SWAP2 POP POP SWAP3 SWAP2 POP POP JUMP JUMPDEST PUSH2 0x367 DUP2 PUSH2 0x300 JUMP JUMPDEST DUP3 MSTORE POP POP JUMP JUMPDEST PUSH0 PUSH1 0x20 DUP3 ADD SWAP1 POP PUSH2 0x380 PUSH0 DUP4 ADD DUP5 PUSH2 0x35E JUMP JUMPDEST SWAP3 SWAP2 POP POP JUMP JUMPDEST PUSH0 DUP3 DUP3 MSTORE PUSH1 0x20 DUP3 ADD SWAP1 POP SWAP3 SWAP2 POP POP JUMP JUMPDEST PUSH32 0x496E73756666696369656E742062616C616E6365000000000000000000000000 PUSH0 DUP3 ADD MSTORE POP JUMP JUMPDEST PUSH0 PUSH2 0x3CA PUSH1 0x14 DUP4 PUSH2 0x386 JUMP JUMPDEST SWAP2 POP PUSH2 0x3D5 DUP3 PUSH2 0x396 JUMP JUMPDEST PUSH1 0x20 DUP3 ADD SWAP1 POP SWAP2 SWAP1 POP JUMP JUMPDEST PUSH0 PUSH1 0x20 DUP3 ADD SWAP1 POP DUP2 DUP2 SUB PUSH0 DUP4 ADD MSTORE PUSH2 0x3F7 DUP2 PUSH2 0x3BE JUMP JUMPDEST SWAP1 POP SWAP2 SWAP1 POP JUMP JUMPDEST PUSH32 0x4E487B7100000000000000000000000000000000000000000000000000000000 PUSH0 MSTORE PUSH1 0x11 PUSH1 0x4 MSTORE PUSH1 0x24 PUSH0 REVERT JUMPDEST PUSH0 PUSH2 0x435 DUP3 PUSH2 0x300 JUMP JUMPDEST SWAP2 POP PUSH2 0x440 DUP4 PUSH2 0x300 JUMP JUMPDEST SWAP3 POP DUP3 DUP3 SUB SWAP1 POP DUP2 DUP2 GT ISZERO PUSH2 0x458 JUMPI PUSH2 0x457 PUSH2 0x3FE JUMP JUMPDEST JUMPDEST SWAP3 SWAP2 POP POP JUMP JUMPDEST PUSH0 DUP2 SWAP1 POP SWAP3 SWAP2 POP POP JUMP JUMPDEST POP JUMP JUMPDEST PUSH0 PUSH2 0x476 PUSH0 DUP4 PUSH2 0x45E JUMP JUMPDEST SWAP2 POP PUSH2 0x481 DUP3 PUSH2 0x468 JUMP JUMPDEST PUSH0 DUP3 ADD SWAP1 POP SWAP2 SWAP1 POP JUMP JUMPDEST PUSH0 PUSH2 0x495 DUP3 PUSH2 0x46B JUMP JUMPDEST SWAP2 POP DUP2 SWAP1 POP SWAP2 SWAP1 POP JUMP JUMPDEST PUSH32 0x5472616E73666572206661696C65640000000000000000000000000000000000 PUSH0 DUP3 ADD MSTORE POP JUMP JUMPDEST PUSH0 PUSH2 0x4D3 PUSH1 0xF DUP4 PUSH2 0x386 JUMP JUMPDEST SWAP2 POP PUSH2 0x4DE DUP3 PUSH2 0x49F JUMP JUMPDEST PUSH1 0x20 DUP3 ADD SWAP1 POP SWAP2 SWAP1 POP JUMP JUMPDEST PUSH0 PUSH1 0x20 DUP3 ADD SWAP1 POP DUP2 DUP2 SUB PUSH0 DUP4 ADD MSTORE PUSH2 0x500 DUP2 PUSH2 0x4C7 JUMP JUMPDEST SWAP1 POP SWAP2 SWAP1 POP JUMP JUMPDEST PUSH32 0x416D6F756E7420646F6573206E6F74206D617463682073656E74204574686572 PUSH0 DUP3 ADD MSTORE POP JUMP JUMPDEST PUSH0 PUSH2 0x53B PUSH1 0x20 DUP4 PUSH2 0x386 JUMP JUMPDEST SWAP2 POP PUSH2 0x546 DUP3 PUSH2 0x507 JUMP JUMPDEST PUSH1 0x20 DUP3 ADD SWAP1 POP SWAP2 SWAP1 POP JUMP JUMPDEST PUSH0 PUSH1 0x20 DUP3 ADD SWAP1 POP DUP2 DUP2 SUB PUSH0 DUP4 ADD MSTORE PUSH2 0x568 DUP2 PUSH2 0x52F JUMP JUMPDEST SWAP1 POP SWAP2 SWAP1 POP JUMP JUMPDEST PUSH0 PUSH2 0x579 DUP3 PUSH2 0x300 JUMP JUMPDEST SWAP2 POP PUSH2 0x584 DUP4 PUSH2 0x300 JUMP JUMPDEST SWAP3 POP DUP3 DUP3 ADD SWAP1 POP DUP1 DUP3 GT ISZERO PUSH2 0x59C JUMPI PUSH2 0x59B PUSH2 0x3FE JUMP JUMPDEST JUMPDEST SWAP3 SWAP2 POP POP JUMP INVALID LOG2 PUSH5 0x6970667358 0x22 SLT KECCAK256 0xEB 0xD9 SWAP15 0xB2 0xD9 DUP6 PUSH27 0x86BAD294633A52EEBA66E94F8CA45A476AAF61463BD0536CD36473 PUSH16 0x6C634300081F00330000000000000000 "
				},
				"gasEstimates": {
					"creation": {
						"codeDepositCost": "299200",
						"executionCost": "335",
						"totalCost": "299535"
					},
					"external": {
						"checkBalance()": "2540",
						"deposit(uint256)": "infinite",
						"withdraw(uint256)": "infinite"
					}
				},
				"methodIdentifiers": {
					"checkBalance()": "c71daccb",
					"deposit(uint256)": "b6b55f25",
					"withdraw(uint256)": "2e1a7d4d"
				}
			},
			"storageLayout": {
				"storage": [
					{
						"astId": 23,
						"contract": "ITechnology.sol:Marketplace",
						"label": "balances",
						"offset": 0,
						"slot": "0",
						"type": "t_mapping(t_address,t_uint256)"
					}
				],
				"types": {
					"t_address": {
						"encoding": "inplace",
						"label": "address",
						"numberOfBytes": "20"
					},
					"t_mapping(t_address,t_uint256)": {
						"encoding": "mapping",
						"key": "t_address",
						"label": "mapping(address => uint256)",
						"numberOfBytes": "32",
						"value": "t_uint256"
					},
					"t_uint256": {
						"encoding": "inplace",
						"label": "uint256",
						"numberOfBytes": "32"
					}
				}
			},
			"userdoc": {
				"kind": "user",
				"methods": {},
				"version": 1
			}
		}
	}
}