{
	"LiquidityLocker.sol": {
		"LiquidityLocker": {
			"abi": [
				{
					"inputs": [],
					"stateMutability": "nonpayable",
					"type": "constructor"
				},
				{
					"inputs": [],
					"name": "deposit",
					"outputs": [],
					"stateMutability": "payable",
					"type": "function"
				},
				{
					"inputs": [
						{
							"internalType": "address",
							"name": "",
							"type": "address"
						}
					],
					"name": "deposits",
					"outputs": [
						{
							"internalType": "uint256",
							"name": "",
							"type": "uint256"
						}
					],
					"stateMutability": "view",
					"type": "function"
				},
				{
					"inputs": [
						{
							"internalType": "address",
							"name": "_user",
							"type": "address"
						}
					],
					"name": "getTimeLeft",
					"outputs": [
						{
							"internalType": "uint256",
							"name": "",
							"type": "uint256"
						}
					],
					"stateMutability": "view",
					"type": "function"
				},
				{
					"inputs": [
						{
							"internalType": "address",
							"name": "",
							"type": "address"
						}
					],
					"name": "lockEnd",
					"outputs": [
						{
							"internalType": "uint256",
							"name": "",
							"type": "uint256"
						}
					],
					"stateMutability": "view",
					"type": "function"
				},
				{
					"inputs": [],
					"name": "owner",
					"outputs": [
						{
							"internalType": "address",
							"name": "",
							"type": "address"
						}
					],
					"stateMutability": "view",
					"type": "function"
				},
				{
					"inputs": [],
					"name": "withdraw",
					"outputs": [],
					"stateMutability": "nonpayable",
					"type": "function"
				}
			],
			"devdoc": {
				"kind": "dev",
				"methods": {},
				"version": 1
			},
			"evm": {
				"assembly": "    /* \"LiquidityLocker.sol\":60:1197  contract LiquidityLocker {... */\n  mstore(0x40, 0x80)\n    /* \"LiquidityLocker.sol\":236:287  constructor() {... */\n  callvalue\n  dup1\n  iszero\n  tag_1\n  jumpi\n  revert(0x00, 0x00)\ntag_1:\n  pop\n    /* \"LiquidityLocker.sol\":269:279  msg.sender */\n  caller\n    /* \"LiquidityLocker.sol\":261:266  owner */\n  0x00\n  0x00\n    /* \"LiquidityLocker.sol\":261:279  owner = msg.sender */\n  0x0100\n  exp\n  dup2\n  sload\n  dup2\n  0xffffffffffffffffffffffffffffffffffffffff\n  mul\n  not\n  and\n  swap1\n  dup4\n  0xffffffffffffffffffffffffffffffffffffffff\n  and\n  mul\n  or\n  swap1\n  sstore\n  pop\n    /* \"LiquidityLocker.sol\":60:1197  contract LiquidityLocker {... */\n  dataSize(sub_0)\n  dup1\n  dataOffset(sub_0)\n  0x00\n  codecopy\n  0x00\n  return\nstop\n\nsub_0: assembly {\n        /* \"LiquidityLocker.sol\":60:1197  contract LiquidityLocker {... */\n      mstore(0x40, 0x80)\n      jumpi(tag_1, lt(calldatasize, 0x04))\n      shr(0xe0, calldataload(0x00))\n      dup1\n      0x111eb8b1\n      eq\n      tag_2\n      jumpi\n      dup1\n      0x23792279\n      eq\n      tag_3\n      jumpi\n      dup1\n      0x3ccfd60b\n      eq\n      tag_4\n      jumpi\n      dup1\n      0x8da5cb5b\n      eq\n      tag_5\n      jumpi\n      dup1\n      0xd0e30db0\n      eq\n      tag_6\n      jumpi\n      dup1\n      0xfc7e286d\n      eq\n      tag_7\n      jumpi\n    tag_1:\n      revert(0x00, 0x00)\n        /* \"LiquidityLocker.sol\":964:1194  function getTimeLeft(address _user) public view returns (uint256) {... */\n    tag_2:\n      callvalue\n      dup1\n      iszero\n      tag_8\n      jumpi\n      revert(0x00, 0x00)\n    tag_8:\n      pop\n      tag_9\n      0x04\n      dup1\n      calldatasize\n      sub\n      dup2\n      add\n      swap1\n      tag_10\n      swap2\n      swap1\n      tag_11\n      jump\t// in\n    tag_10:\n      tag_12\n      jump\t// in\n    tag_9:\n      mload(0x40)\n      tag_13\n      swap2\n      swap1\n      tag_14\n      jump\t// in\n    tag_13:\n      mload(0x40)\n      dup1\n      swap2\n      sub\n      swap1\n      return\n        /* \"LiquidityLocker.sol\":185:227  mapping(address => uint256) public lockEnd */\n    tag_3:\n      callvalue\n      dup1\n      iszero\n      tag_15\n      jumpi\n      revert(0x00, 0x00)\n    tag_15:\n      pop\n      tag_16\n      0x04\n      dup1\n      calldatasize\n      sub\n      dup2\n      add\n      swap1\n      tag_17\n      swap2\n      swap1\n      tag_11\n      jump\t// in\n    tag_17:\n      tag_18\n      jump\t// in\n    tag_16:\n      mload(0x40)\n      tag_19\n      swap2\n      swap1\n      tag_14\n      jump\t// in\n    tag_19:\n      mload(0x40)\n      dup1\n      swap2\n      sub\n      swap1\n      return\n        /* \"LiquidityLocker.sol\":525:954  function withdraw() external {... */\n    tag_4:\n      callvalue\n      dup1\n      iszero\n      tag_20\n      jumpi\n      revert(0x00, 0x00)\n    tag_20:\n      pop\n      tag_21\n      tag_22\n      jump\t// in\n    tag_21:\n      stop\n        /* \"LiquidityLocker.sol\":92:112  address public owner */\n    tag_5:\n      callvalue\n      dup1\n      iszero\n      tag_23\n      jumpi\n      revert(0x00, 0x00)\n    tag_23:\n      pop\n      tag_24\n      tag_25\n      jump\t// in\n    tag_24:\n      mload(0x40)\n      tag_26\n      swap2\n      swap1\n      tag_27\n      jump\t// in\n    tag_26:\n      mload(0x40)\n      dup1\n      swap2\n      sub\n      swap1\n      return\n        /* \"LiquidityLocker.sol\":297:515  function deposit() external payable {... */\n    tag_6:\n      tag_28\n      tag_29\n      jump\t// in\n    tag_28:\n      stop\n        /* \"LiquidityLocker.sol\":127:170  mapping(address => uint256) public deposits */\n    tag_7:\n      callvalue\n      dup1\n      iszero\n      tag_30\n      jumpi\n      revert(0x00, 0x00)\n    tag_30:\n      pop\n      tag_31\n      0x04\n      dup1\n      calldatasize\n      sub\n      dup2\n      add\n      swap1\n      tag_32\n      swap2\n      swap1\n      tag_11\n      jump\t// in\n    tag_32:\n      tag_33\n      jump\t// in\n    tag_31:\n      mload(0x40)\n      tag_34\n      swap2\n      swap1\n      tag_14\n      jump\t// in\n    tag_34:\n      mload(0x40)\n      dup1\n      swap2\n      sub\n      swap1\n      return\n        /* \"LiquidityLocker.sol\":964:1194  function getTimeLeft(address _user) public view returns (uint256) {... */\n    tag_12:\n        /* \"LiquidityLocker.sol\":1021:1028  uint256 */\n      0x00\n        /* \"LiquidityLocker.sol\":1064:1071  lockEnd */\n      0x02\n        /* \"LiquidityLocker.sol\":1064:1078  lockEnd[_user] */\n      0x00\n        /* \"LiquidityLocker.sol\":1072:1077  _user */\n      dup4\n        /* \"LiquidityLocker.sol\":1064:1078  lockEnd[_user] */\n      0xffffffffffffffffffffffffffffffffffffffff\n      and\n      0xffffffffffffffffffffffffffffffffffffffff\n      and\n      dup2\n      mstore\n      0x20\n      add\n      swap1\n      dup2\n      mstore\n      0x20\n      add\n      0x00\n      keccak256\n      sload\n        /* \"LiquidityLocker.sol\":1045:1060  block.timestamp */\n      timestamp\n        /* \"LiquidityLocker.sol\":1045:1078  block.timestamp >= lockEnd[_user] */\n      lt\n        /* \"LiquidityLocker.sol\":1041:1187  if (block.timestamp >= lockEnd[_user]) {... */\n      tag_36\n      jumpi\n        /* \"LiquidityLocker.sol\":1102:1103  0 */\n      0x00\n        /* \"LiquidityLocker.sol\":1095:1103  return 0 */\n      swap1\n      pop\n      jump(tag_35)\n        /* \"LiquidityLocker.sol\":1041:1187  if (block.timestamp >= lockEnd[_user]) {... */\n    tag_36:\n        /* \"LiquidityLocker.sol\":1160:1175  block.timestamp */\n      timestamp\n        /* \"LiquidityLocker.sol\":1143:1150  lockEnd */\n      0x02\n        /* \"LiquidityLocker.sol\":1143:1157  lockEnd[_user] */\n      0x00\n        /* \"LiquidityLocker.sol\":1151:1156  _user */\n      dup5\n        /* \"LiquidityLocker.sol\":1143:1157  lockEnd[_user] */\n      0xffffffffffffffffffffffffffffffffffffffff\n      and\n      0xffffffffffffffffffffffffffffffffffffffff\n      and\n      dup2\n      mstore\n      0x20\n      add\n      swap1\n      dup2\n      mstore\n      0x20\n      add\n      0x00\n      keccak256\n      sload\n        /* \"LiquidityLocker.sol\":1143:1175  lockEnd[_user] - block.timestamp */\n      tag_38\n      swap2\n      swap1\n      tag_39\n      jump\t// in\n    tag_38:\n        /* \"LiquidityLocker.sol\":1136:1175  return lockEnd[_user] - block.timestamp */\n      swap1\n      pop\n        /* \"LiquidityLocker.sol\":964:1194  function getTimeLeft(address _user) public view returns (uint256) {... */\n    tag_35:\n      swap2\n      swap1\n      pop\n      jump\t// out\n        /* \"LiquidityLocker.sol\":185:227  mapping(address => uint256) public lockEnd */\n    tag_18:\n      mstore(0x20, 0x02)\n      dup1\n      0x00\n      mstore\n      keccak256(0x00, 0x40)\n      0x00\n      swap2\n      pop\n      swap1\n      pop\n      sload\n      dup2\n      jump\t// out\n        /* \"LiquidityLocker.sol\":525:954  function withdraw() external {... */\n    tag_22:\n        /* \"LiquidityLocker.sol\":594:601  lockEnd */\n      0x02\n        /* \"LiquidityLocker.sol\":594:613  lockEnd[msg.sender] */\n      0x00\n        /* \"LiquidityLocker.sol\":602:612  msg.sender */\n      caller\n        /* \"LiquidityLocker.sol\":594:613  lockEnd[msg.sender] */\n      0xffffffffffffffffffffffffffffffffffffffff\n      and\n      0xffffffffffffffffffffffffffffffffffffffff\n      and\n      dup2\n      mstore\n      0x20\n      add\n      swap1\n      dup2\n      mstore\n      0x20\n      add\n      0x00\n      keccak256\n      sload\n        /* \"LiquidityLocker.sol\":575:590  block.timestamp */\n      timestamp\n        /* \"LiquidityLocker.sol\":575:613  block.timestamp >= lockEnd[msg.sender] */\n      lt\n      iszero\n        /* \"LiquidityLocker.sol\":567:640  require(block.timestamp >= lockEnd[msg.sender], \"Funds are still locked\") */\n      tag_41\n      jumpi\n      mload(0x40)\n      0x08c379a000000000000000000000000000000000000000000000000000000000\n      dup2\n      mstore\n      0x04\n      add\n      tag_42\n      swap1\n      tag_43\n      jump\t// in\n    tag_42:\n      mload(0x40)\n      dup1\n      swap2\n      sub\n      swap1\n      revert\n    tag_41:\n        /* \"LiquidityLocker.sol\":661:675  uint256 amount */\n      0x00\n        /* \"LiquidityLocker.sol\":678:686  deposits */\n      0x01\n        /* \"LiquidityLocker.sol\":678:698  deposits[msg.sender] */\n      0x00\n        /* \"LiquidityLocker.sol\":687:697  msg.sender */\n      caller\n        /* \"LiquidityLocker.sol\":678:698  deposits[msg.sender] */\n      0xffffffffffffffffffffffffffffffffffffffff\n      and\n      0xffffffffffffffffffffffffffffffffffffffff\n      and\n      dup2\n      mstore\n      0x20\n      add\n      swap1\n      dup2\n      mstore\n      0x20\n      add\n      0x00\n      keccak256\n      sload\n        /* \"LiquidityLocker.sol\":661:698  uint256 amount = deposits[msg.sender] */\n      swap1\n      pop\n        /* \"LiquidityLocker.sol\":726:727  0 */\n      0x00\n        /* \"LiquidityLocker.sol\":717:723  amount */\n      dup2\n        /* \"LiquidityLocker.sol\":717:727  amount > 0 */\n      gt\n        /* \"LiquidityLocker.sol\":709:752  require(amount > 0, \"No funds to withdraw\") */\n      tag_44\n      jumpi\n      mload(0x40)\n      0x08c379a000000000000000000000000000000000000000000000000000000000\n      dup2\n      mstore\n      0x04\n      add\n      tag_45\n      swap1\n      tag_46\n      jump\t// in\n    tag_45:\n      mload(0x40)\n      dup1\n      swap2\n      sub\n      swap1\n      revert\n    tag_44:\n        /* \"LiquidityLocker.sol\":788:789  0 */\n      0x00\n        /* \"LiquidityLocker.sol\":765:773  deposits */\n      0x01\n        /* \"LiquidityLocker.sol\":765:785  deposits[msg.sender] */\n      0x00\n        /* \"LiquidityLocker.sol\":774:784  msg.sender */\n      caller\n        /* \"LiquidityLocker.sol\":765:785  deposits[msg.sender] */\n      0xffffffffffffffffffffffffffffffffffffffff\n      and\n      0xffffffffffffffffffffffffffffffffffffffff\n      and\n      dup2\n      mstore\n      0x20\n      add\n      swap1\n      dup2\n      mstore\n      0x20\n      add\n      0x00\n      keccak256\n        /* \"LiquidityLocker.sol\":765:789  deposits[msg.sender] = 0 */\n      dup2\n      swap1\n      sstore\n      pop\n        /* \"LiquidityLocker.sol\":822:823  0 */\n      0x00\n        /* \"LiquidityLocker.sol\":800:807  lockEnd */\n      0x02\n        /* \"LiquidityLocker.sol\":800:819  lockEnd[msg.sender] */\n      0x00\n        /* \"LiquidityLocker.sol\":808:818  msg.sender */\n      caller\n        /* \"LiquidityLocker.sol\":800:819  lockEnd[msg.sender] */\n      0xffffffffffffffffffffffffffffffffffffffff\n      and\n      0xffffffffffffffffffffffffffffffffffffffff\n      and\n      dup2\n      mstore\n      0x20\n      add\n      swap1\n      dup2\n      mstore\n      0x20\n      add\n      0x00\n      keccak256\n        /* \"LiquidityLocker.sol\":800:823  lockEnd[msg.sender] = 0 */\n      dup2\n      swap1\n      sstore\n      pop\n        /* \"LiquidityLocker.sol\":839:851  bool success */\n      0x00\n        /* \"LiquidityLocker.sol\":865:875  msg.sender */\n      caller\n        /* \"LiquidityLocker.sol\":857:881  payable(msg.sender).call */\n      0xffffffffffffffffffffffffffffffffffffffff\n      and\n        /* \"LiquidityLocker.sol\":889:895  amount */\n      dup3\n        /* \"LiquidityLocker.sol\":857:900  payable(msg.sender).call{value: amount}(\"\") */\n      mload(0x40)\n      tag_47\n      swap1\n      tag_48\n      jump\t// in\n    tag_47:\n      0x00\n      mload(0x40)\n      dup1\n      dup4\n      sub\n      dup2\n      dup6\n      dup8\n      gas\n      call\n      swap3\n      pop\n      pop\n      pop\n      returndatasize\n      dup1\n      0x00\n      dup2\n      eq\n      tag_51\n      jumpi\n      mload(0x40)\n      swap2\n      pop\n      and(add(returndatasize, 0x3f), not(0x1f))\n      dup3\n      add\n      0x40\n      mstore\n      returndatasize\n      dup3\n      mstore\n      returndatasize\n      0x00\n      0x20\n      dup5\n      add\n      returndatacopy\n      jump(tag_50)\n    tag_51:\n      0x60\n      swap2\n      pop\n    tag_50:\n      pop\n        /* \"LiquidityLocker.sol\":838:900  (bool success, ) = payable(msg.sender).call{value: amount}(\"\") */\n      pop\n      swap1\n      pop\n        /* \"LiquidityLocker.sol\":919:926  success */\n      dup1\n        /* \"LiquidityLocker.sol\":911:946  require(success, \"Transfer failed\") */\n      tag_52\n      jumpi\n      mload(0x40)\n      0x08c379a000000000000000000000000000000000000000000000000000000000\n      dup2\n      mstore\n      0x04\n      add\n      tag_53\n      swap1\n      tag_54\n      jump\t// in\n    tag_53:\n      mload(0x40)\n      dup1\n      swap2\n      sub\n      swap1\n      revert\n    tag_52:\n        /* \"LiquidityLocker.sol\":554:954  {... */\n      pop\n      pop\n        /* \"LiquidityLocker.sol\":525:954  function withdraw() external {... */\n      jump\t// out\n        /* \"LiquidityLocker.sol\":92:112  address public owner */\n    tag_25:\n      0x00\n      0x00\n      swap1\n      sload\n      swap1\n      0x0100\n      exp\n      swap1\n      div\n      0xffffffffffffffffffffffffffffffffffffffff\n      and\n      dup2\n      jump\t// out\n        /* \"LiquidityLocker.sol\":297:515  function deposit() external payable {... */\n    tag_29:\n        /* \"LiquidityLocker.sol\":364:365  0 */\n      0x00\n        /* \"LiquidityLocker.sol\":352:361  msg.value */\n      callvalue\n        /* \"LiquidityLocker.sol\":352:365  msg.value > 0 */\n      gt\n        /* \"LiquidityLocker.sol\":344:385  require(msg.value > 0, \"Must send Ether\") */\n      tag_56\n      jumpi\n      mload(0x40)\n      0x08c379a000000000000000000000000000000000000000000000000000000000\n      dup2\n      mstore\n      0x04\n      add\n      tag_57\n      swap1\n      tag_58\n      jump\t// in\n    tag_57:\n      mload(0x40)\n      dup1\n      swap2\n      sub\n      swap1\n      revert\n    tag_56:\n        /* \"LiquidityLocker.sol\":432:441  msg.value */\n      callvalue\n        /* \"LiquidityLocker.sol\":408:416  deposits */\n      0x01\n        /* \"LiquidityLocker.sol\":408:428  deposits[msg.sender] */\n      0x00\n        /* \"LiquidityLocker.sol\":417:427  msg.sender */\n      caller\n        /* \"LiquidityLocker.sol\":408:428  deposits[msg.sender] */\n      0xffffffffffffffffffffffffffffffffffffffff\n      and\n      0xffffffffffffffffffffffffffffffffffffffff\n      and\n      dup2\n      mstore\n      0x20\n      add\n      swap1\n      dup2\n      mstore\n      0x20\n      add\n      0x00\n      keccak256\n      0x00\n        /* \"LiquidityLocker.sol\":408:441  deposits[msg.sender] += msg.value */\n      dup3\n      dup3\n      sload\n      tag_59\n      swap2\n      swap1\n      tag_60\n      jump\t// in\n    tag_59:\n      swap3\n      pop\n      pop\n      dup2\n      swap1\n      sstore\n      pop\n        /* \"LiquidityLocker.sol\":504:506  60 */\n      0x3c\n        /* \"LiquidityLocker.sol\":486:501  block.timestamp */\n      timestamp\n        /* \"LiquidityLocker.sol\":486:506  block.timestamp + 60 */\n      tag_61\n      swap2\n      swap1\n      tag_60\n      jump\t// in\n    tag_61:\n        /* \"LiquidityLocker.sol\":464:471  lockEnd */\n      0x02\n        /* \"LiquidityLocker.sol\":464:483  lockEnd[msg.sender] */\n      0x00\n        /* \"LiquidityLocker.sol\":472:482  msg.sender */\n      caller\n        /* \"LiquidityLocker.sol\":464:483  lockEnd[msg.sender] */\n      0xffffffffffffffffffffffffffffffffffffffff\n      and\n      0xffffffffffffffffffffffffffffffffffffffff\n      and\n      dup2\n      mstore\n      0x20\n      add\n      swap1\n      dup2\n      mstore\n      0x20\n      add\n      0x00\n      keccak256\n        /* \"LiquidityLocker.sol\":464:506  lockEnd[msg.sender] = block.timestamp + 60 */\n      dup2\n      swap1\n      sstore\n      pop\n        /* \"LiquidityLocker.sol\":297:515  function deposit() external payable {... */\n      jump\t// out\n        /* \"LiquidityLocker.sol\":127:170  mapping(address => uint256) public deposits */\n    tag_33:\n      mstore(0x20, 0x01)\n      dup1\n      0x00\n      mstore\n      keccak256(0x00, 0x40)\n      0x00\n      swap2\n      pop\n      swap1\n      pop\n      sload\n      dup2\n      jump\t// out\n        /* \"#utility.yul\":88:205   */\n    tag_63:\n        /* \"#utility.yul\":197:198   */\n      0x00\n        /* \"#utility.yul\":194:195   */\n      0x00\n        /* \"#utility.yul\":187:199   */\n      revert\n        /* \"#utility.yul\":334:460   */\n    tag_65:\n        /* \"#utility.yul\":371:378   */\n      0x00\n        /* \"#utility.yul\":411:453   */\n      0xffffffffffffffffffffffffffffffffffffffff\n        /* \"#utility.yul\":404:409   */\n      dup3\n        /* \"#utility.yul\":400:454   */\n      and\n        /* \"#utility.yul\":389:454   */\n      swap1\n      pop\n        /* \"#utility.yul\":334:460   */\n      swap2\n      swap1\n      pop\n      jump\t// out\n        /* \"#utility.yul\":466:562   */\n    tag_66:\n        /* \"#utility.yul\":503:510   */\n      0x00\n        /* \"#utility.yul\":532:556   */\n      tag_91\n        /* \"#utility.yul\":550:555   */\n      dup3\n        /* \"#utility.yul\":532:556   */\n      tag_65\n      jump\t// in\n    tag_91:\n        /* \"#utility.yul\":521:556   */\n      swap1\n      pop\n        /* \"#utility.yul\":466:562   */\n      swap2\n      swap1\n      pop\n      jump\t// out\n        /* \"#utility.yul\":568:690   */\n    tag_67:\n        /* \"#utility.yul\":641:665   */\n      tag_93\n        /* \"#utility.yul\":659:664   */\n      dup2\n        /* \"#utility.yul\":641:665   */\n      tag_66\n      jump\t// in\n    tag_93:\n        /* \"#utility.yul\":634:639   */\n      dup2\n        /* \"#utility.yul\":631:666   */\n      eq\n        /* \"#utility.yul\":621:684   */\n      tag_94\n      jumpi\n        /* \"#utility.yul\":680:681   */\n      0x00\n        /* \"#utility.yul\":677:678   */\n      0x00\n        /* \"#utility.yul\":670:682   */\n      revert\n        /* \"#utility.yul\":621:684   */\n    tag_94:\n        /* \"#utility.yul\":568:690   */\n      pop\n      jump\t// out\n        /* \"#utility.yul\":696:835   */\n    tag_68:\n        /* \"#utility.yul\":742:747   */\n      0x00\n        /* \"#utility.yul\":780:786   */\n      dup2\n        /* \"#utility.yul\":767:787   */\n      calldataload\n        /* \"#utility.yul\":758:787   */\n      swap1\n      pop\n        /* \"#utility.yul\":796:829   */\n      tag_96\n        /* \"#utility.yul\":823:828   */\n      dup2\n        /* \"#utility.yul\":796:829   */\n      tag_67\n      jump\t// in\n    tag_96:\n        /* \"#utility.yul\":696:835   */\n      swap3\n      swap2\n      pop\n      pop\n      jump\t// out\n        /* \"#utility.yul\":841:1170   */\n    tag_11:\n        /* \"#utility.yul\":900:906   */\n      0x00\n        /* \"#utility.yul\":949:951   */\n      0x20\n        /* \"#utility.yul\":937:946   */\n      dup3\n        /* \"#utility.yul\":928:935   */\n      dup5\n        /* \"#utility.yul\":924:947   */\n      sub\n        /* \"#utility.yul\":920:952   */\n      slt\n        /* \"#utility.yul\":917:1036   */\n      iszero\n      tag_98\n      jumpi\n        /* \"#utility.yul\":955:1034   */\n      tag_99\n      tag_63\n      jump\t// in\n    tag_99:\n        /* \"#utility.yul\":917:1036   */\n    tag_98:\n        /* \"#utility.yul\":1075:1076   */\n      0x00\n        /* \"#utility.yul\":1100:1153   */\n      tag_100\n        /* \"#utility.yul\":1145:1152   */\n      dup5\n        /* \"#utility.yul\":1136:1142   */\n      dup3\n        /* \"#utility.yul\":1125:1134   */\n      dup6\n        /* \"#utility.yul\":1121:1143   */\n      add\n        /* \"#utility.yul\":1100:1153   */\n      tag_68\n      jump\t// in\n    tag_100:\n        /* \"#utility.yul\":1090:1153   */\n      swap2\n      pop\n        /* \"#utility.yul\":1046:1163   */\n      pop\n        /* \"#utility.yul\":841:1170   */\n      swap3\n      swap2\n      pop\n      pop\n      jump\t// out\n        /* \"#utility.yul\":1176:1253   */\n    tag_69:\n        /* \"#utility.yul\":1213:1220   */\n      0x00\n        /* \"#utility.yul\":1242:1247   */\n      dup2\n        /* \"#utility.yul\":1231:1247   */\n      swap1\n      pop\n        /* \"#utility.yul\":1176:1253   */\n      swap2\n      swap1\n      pop\n      jump\t// out\n        /* \"#utility.yul\":1259:1377   */\n    tag_70:\n        /* \"#utility.yul\":1346:1370   */\n      tag_103\n        /* \"#utility.yul\":1364:1369   */\n      dup2\n        /* \"#utility.yul\":1346:1370   */\n      tag_69\n      jump\t// in\n    tag_103:\n        /* \"#utility.yul\":1341:1344   */\n      dup3\n        /* \"#utility.yul\":1334:1371   */\n      mstore\n        /* \"#utility.yul\":1259:1377   */\n      pop\n      pop\n      jump\t// out\n        /* \"#utility.yul\":1383:1605   */\n    tag_14:\n        /* \"#utility.yul\":1476:1480   */\n      0x00\n        /* \"#utility.yul\":1514:1516   */\n      0x20\n        /* \"#utility.yul\":1503:1512   */\n      dup3\n        /* \"#utility.yul\":1499:1517   */\n      add\n        /* \"#utility.yul\":1491:1517   */\n      swap1\n      pop\n        /* \"#utility.yul\":1527:1598   */\n      tag_105\n        /* \"#utility.yul\":1595:1596   */\n      0x00\n        /* \"#utility.yul\":1584:1593   */\n      dup4\n        /* \"#utility.yul\":1580:1597   */\n      add\n        /* \"#utility.yul\":1571:1577   */\n      dup5\n        /* \"#utility.yul\":1527:1598   */\n      tag_70\n      jump\t// in\n    tag_105:\n        /* \"#utility.yul\":1383:1605   */\n      swap3\n      swap2\n      pop\n      pop\n      jump\t// out\n        /* \"#utility.yul\":1611:1729   */\n    tag_71:\n        /* \"#utility.yul\":1698:1722   */\n      tag_107\n        /* \"#utility.yul\":1716:1721   */\n      dup2\n        /* \"#utility.yul\":1698:1722   */\n      tag_66\n      jump\t// in\n    tag_107:\n        /* \"#utility.yul\":1693:1696   */\n      dup3\n        /* \"#utility.yul\":1686:1723   */\n      mstore\n        /* \"#utility.yul\":1611:1729   */\n      pop\n      pop\n      jump\t// out\n        /* \"#utility.yul\":1735:1957   */\n    tag_27:\n        /* \"#utility.yul\":1828:1832   */\n      0x00\n        /* \"#utility.yul\":1866:1868   */\n      0x20\n        /* \"#utility.yul\":1855:1864   */\n      dup3\n        /* \"#utility.yul\":1851:1869   */\n      add\n        /* \"#utility.yul\":1843:1869   */\n      swap1\n      pop\n        /* \"#utility.yul\":1879:1950   */\n      tag_109\n        /* \"#utility.yul\":1947:1948   */\n      0x00\n        /* \"#utility.yul\":1936:1945   */\n      dup4\n        /* \"#utility.yul\":1932:1949   */\n      add\n        /* \"#utility.yul\":1923:1929   */\n      dup5\n        /* \"#utility.yul\":1879:1950   */\n      tag_71\n      jump\t// in\n    tag_109:\n        /* \"#utility.yul\":1735:1957   */\n      swap3\n      swap2\n      pop\n      pop\n      jump\t// out\n        /* \"#utility.yul\":1963:2143   */\n    tag_72:\n        /* \"#utility.yul\":2011:2088   */\n      0x4e487b7100000000000000000000000000000000000000000000000000000000\n        /* \"#utility.yul\":2008:2009   */\n      0x00\n        /* \"#utility.yul\":2001:2089   */\n      mstore\n        /* \"#utility.yul\":2108:2112   */\n      0x11\n        /* \"#utility.yul\":2105:2106   */\n      0x04\n        /* \"#utility.yul\":2098:2113   */\n      mstore\n        /* \"#utility.yul\":2132:2136   */\n      0x24\n        /* \"#utility.yul\":2129:2130   */\n      0x00\n        /* \"#utility.yul\":2122:2137   */\n      revert\n        /* \"#utility.yul\":2149:2343   */\n    tag_39:\n        /* \"#utility.yul\":2189:2193   */\n      0x00\n        /* \"#utility.yul\":2209:2229   */\n      tag_112\n        /* \"#utility.yul\":2227:2228   */\n      dup3\n        /* \"#utility.yul\":2209:2229   */\n      tag_69\n      jump\t// in\n    tag_112:\n        /* \"#utility.yul\":2204:2229   */\n      swap2\n      pop\n        /* \"#utility.yul\":2243:2263   */\n      tag_113\n        /* \"#utility.yul\":2261:2262   */\n      dup4\n        /* \"#utility.yul\":2243:2263   */\n      tag_69\n      jump\t// in\n    tag_113:\n        /* \"#utility.yul\":2238:2263   */\n      swap3\n      pop\n        /* \"#utility.yul\":2287:2288   */\n      dup3\n        /* \"#utility.yul\":2284:2285   */\n      dup3\n        /* \"#utility.yul\":2280:2289   */\n      sub\n        /* \"#utility.yul\":2272:2289   */\n      swap1\n      pop\n        /* \"#utility.yul\":2311:2312   */\n      dup2\n        /* \"#utility.yul\":2305:2309   */\n      dup2\n        /* \"#utility.yul\":2302:2313   */\n      gt\n        /* \"#utility.yul\":2299:2336   */\n      iszero\n      tag_114\n      jumpi\n        /* \"#utility.yul\":2316:2334   */\n      tag_115\n      tag_72\n      jump\t// in\n    tag_115:\n        /* \"#utility.yul\":2299:2336   */\n    tag_114:\n        /* \"#utility.yul\":2149:2343   */\n      swap3\n      swap2\n      pop\n      pop\n      jump\t// out\n        /* \"#utility.yul\":2349:2518   */\n    tag_73:\n        /* \"#utility.yul\":2433:2444   */\n      0x00\n        /* \"#utility.yul\":2467:2473   */\n      dup3\n        /* \"#utility.yul\":2462:2465   */\n      dup3\n        /* \"#utility.yul\":2455:2474   */\n      mstore\n        /* \"#utility.yul\":2507:2511   */\n      0x20\n        /* \"#utility.yul\":2502:2505   */\n      dup3\n        /* \"#utility.yul\":2498:2512   */\n      add\n        /* \"#utility.yul\":2483:2512   */\n      swap1\n      pop\n        /* \"#utility.yul\":2349:2518   */\n      swap3\n      swap2\n      pop\n      pop\n      jump\t// out\n        /* \"#utility.yul\":2524:2696   */\n    tag_74:\n        /* \"#utility.yul\":2664:2688   */\n      0x46756e647320617265207374696c6c206c6f636b656400000000000000000000\n        /* \"#utility.yul\":2660:2661   */\n      0x00\n        /* \"#utility.yul\":2652:2658   */\n      dup3\n        /* \"#utility.yul\":2648:2662   */\n      add\n        /* \"#utility.yul\":2641:2689   */\n      mstore\n        /* \"#utility.yul\":2524:2696   */\n      pop\n      jump\t// out\n        /* \"#utility.yul\":2702:3068   */\n    tag_75:\n        /* \"#utility.yul\":2844:2847   */\n      0x00\n        /* \"#utility.yul\":2865:2932   */\n      tag_119\n        /* \"#utility.yul\":2929:2931   */\n      0x16\n        /* \"#utility.yul\":2924:2927   */\n      dup4\n        /* \"#utility.yul\":2865:2932   */\n      tag_73\n      jump\t// in\n    tag_119:\n        /* \"#utility.yul\":2858:2932   */\n      swap2\n      pop\n        /* \"#utility.yul\":2941:3034   */\n      tag_120\n        /* \"#utility.yul\":3030:3033   */\n      dup3\n        /* \"#utility.yul\":2941:3034   */\n      tag_74\n      jump\t// in\n    tag_120:\n        /* \"#utility.yul\":3059:3061   */\n      0x20\n        /* \"#utility.yul\":3054:3057   */\n      dup3\n        /* \"#utility.yul\":3050:3062   */\n      add\n        /* \"#utility.yul\":3043:3062   */\n      swap1\n      pop\n        /* \"#utility.yul\":2702:3068   */\n      swap2\n      swap1\n      pop\n      jump\t// out\n        /* \"#utility.yul\":3074:3493   */\n    tag_43:\n        /* \"#utility.yul\":3240:3244   */\n      0x00\n        /* \"#utility.yul\":3278:3280   */\n      0x20\n        /* \"#utility.yul\":3267:3276   */\n      dup3\n        /* \"#utility.yul\":3263:3281   */\n      add\n        /* \"#utility.yul\":3255:3281   */\n      swap1\n      pop\n        /* \"#utility.yul\":3327:3336   */\n      dup2\n        /* \"#utility.yul\":3321:3325   */\n      dup2\n        /* \"#utility.yul\":3317:3337   */\n      sub\n        /* \"#utility.yul\":3313:3314   */\n      0x00\n        /* \"#utility.yul\":3302:3311   */\n      dup4\n        /* \"#utility.yul\":3298:3315   */\n      add\n        /* \"#utility.yul\":3291:3338   */\n      mstore\n        /* \"#utility.yul\":3355:3486   */\n      tag_122\n        /* \"#utility.yul\":3481:3485   */\n      dup2\n        /* \"#utility.yul\":3355:3486   */\n      tag_75\n      jump\t// in\n    tag_122:\n        /* \"#utility.yul\":3347:3486   */\n      swap1\n      pop\n        /* \"#utility.yul\":3074:3493   */\n      swap2\n      swap1\n      pop\n      jump\t// out\n        /* \"#utility.yul\":3499:3669   */\n    tag_76:\n        /* \"#utility.yul\":3639:3661   */\n      0x4e6f2066756e647320746f207769746864726177000000000000000000000000\n        /* \"#utility.yul\":3635:3636   */\n      0x00\n        /* \"#utility.yul\":3627:3633   */\n      dup3\n        /* \"#utility.yul\":3623:3637   */\n      add\n        /* \"#utility.yul\":3616:3662   */\n      mstore\n        /* \"#utility.yul\":3499:3669   */\n      pop\n      jump\t// out\n        /* \"#utility.yul\":3675:4041   */\n    tag_77:\n        /* \"#utility.yul\":3817:3820   */\n      0x00\n        /* \"#utility.yul\":3838:3905   */\n      tag_125\n        /* \"#utility.yul\":3902:3904   */\n      0x14\n        /* \"#utility.yul\":3897:3900   */\n      dup4\n        /* \"#utility.yul\":3838:3905   */\n      tag_73\n      jump\t// in\n    tag_125:\n        /* \"#utility.yul\":3831:3905   */\n      swap2\n      pop\n        /* \"#utility.yul\":3914:4007   */\n      tag_126\n        /* \"#utility.yul\":4003:4006   */\n      dup3\n        /* \"#utility.yul\":3914:4007   */\n      tag_76\n      jump\t// in\n    tag_126:\n        /* \"#utility.yul\":4032:4034   */\n      0x20\n        /* \"#utility.yul\":4027:4030   */\n      dup3\n        /* \"#utility.yul\":4023:4035   */\n      add\n        /* \"#utility.yul\":4016:4035   */\n      swap1\n      pop\n        /* \"#utility.yul\":3675:4041   */\n      swap2\n      swap1\n      pop\n      jump\t// out\n        /* \"#utility.yul\":4047:4466   */\n    tag_46:\n        /* \"#utility.yul\":4213:4217   */\n      0x00\n        /* \"#utility.yul\":4251:4253   */\n      0x20\n        /* \"#utility.yul\":4240:4249   */\n      dup3\n        /* \"#utility.yul\":4236:4254   */\n      add\n        /* \"#utility.yul\":4228:4254   */\n      swap1\n      pop\n        /* \"#utility.yul\":4300:4309   */\n      dup2\n        /* \"#utility.yul\":4294:4298   */\n      dup2\n        /* \"#utility.yul\":4290:4310   */\n      sub\n        /* \"#utility.yul\":4286:4287   */\n      0x00\n        /* \"#utility.yul\":4275:4284   */\n      dup4\n        /* \"#utility.yul\":4271:4288   */\n      add\n        /* \"#utility.yul\":4264:4311   */\n      mstore\n        /* \"#utility.yul\":4328:4459   */\n      tag_128\n        /* \"#utility.yul\":4454:4458   */\n      dup2\n        /* \"#utility.yul\":4328:4459   */\n      tag_77\n      jump\t// in\n    tag_128:\n        /* \"#utility.yul\":4320:4459   */\n      swap1\n      pop\n        /* \"#utility.yul\":4047:4466   */\n      swap2\n      swap1\n      pop\n      jump\t// out\n        /* \"#utility.yul\":4472:4619   */\n    tag_78:\n        /* \"#utility.yul\":4573:4584   */\n      0x00\n        /* \"#utility.yul\":4610:4613   */\n      dup2\n        /* \"#utility.yul\":4595:4613   */\n      swap1\n      pop\n        /* \"#utility.yul\":4472:4619   */\n      swap3\n      swap2\n      pop\n      pop\n      jump\t// out\n        /* \"#utility.yul\":4625:4739   */\n    tag_79:\n      pop\n      jump\t// out\n        /* \"#utility.yul\":4745:5143   */\n    tag_80:\n        /* \"#utility.yul\":4904:4907   */\n      0x00\n        /* \"#utility.yul\":4925:5008   */\n      tag_132\n        /* \"#utility.yul\":5006:5007   */\n      0x00\n        /* \"#utility.yul\":5001:5004   */\n      dup4\n        /* \"#utility.yul\":4925:5008   */\n      tag_78\n      jump\t// in\n    tag_132:\n        /* \"#utility.yul\":4918:5008   */\n      swap2\n      pop\n        /* \"#utility.yul\":5017:5110   */\n      tag_133\n        /* \"#utility.yul\":5106:5109   */\n      dup3\n        /* \"#utility.yul\":5017:5110   */\n      tag_79\n      jump\t// in\n    tag_133:\n        /* \"#utility.yul\":5135:5136   */\n      0x00\n        /* \"#utility.yul\":5130:5133   */\n      dup3\n        /* \"#utility.yul\":5126:5137   */\n      add\n        /* \"#utility.yul\":5119:5137   */\n      swap1\n      pop\n        /* \"#utility.yul\":4745:5143   */\n      swap2\n      swap1\n      pop\n      jump\t// out\n        /* \"#utility.yul\":5149:5528   */\n    tag_48:\n        /* \"#utility.yul\":5333:5336   */\n      0x00\n        /* \"#utility.yul\":5355:5502   */\n      tag_135\n        /* \"#utility.yul\":5498:5501   */\n      dup3\n        /* \"#utility.yul\":5355:5502   */\n      tag_80\n      jump\t// in\n    tag_135:\n        /* \"#utility.yul\":5348:5502   */\n      swap2\n      pop\n        /* \"#utility.yul\":5519:5522   */\n      dup2\n        /* \"#utility.yul\":5512:5522   */\n      swap1\n      pop\n        /* \"#utility.yul\":5149:5528   */\n      swap2\n      swap1\n      pop\n      jump\t// out\n        /* \"#utility.yul\":5534:5699   */\n    tag_81:\n        /* \"#utility.yul\":5674:5691   */\n      0x5472616e73666572206661696c65640000000000000000000000000000000000\n        /* \"#utility.yul\":5670:5671   */\n      0x00\n        /* \"#utility.yul\":5662:5668   */\n      dup3\n        /* \"#utility.yul\":5658:5672   */\n      add\n        /* \"#utility.yul\":5651:5692   */\n      mstore\n        /* \"#utility.yul\":5534:5699   */\n      pop\n      jump\t// out\n        /* \"#utility.yul\":5705:6071   */\n    tag_82:\n        /* \"#utility.yul\":5847:5850   */\n      0x00\n        /* \"#utility.yul\":5868:5935   */\n      tag_138\n        /* \"#utility.yul\":5932:5934   */\n      0x0f\n        /* \"#utility.yul\":5927:5930   */\n      dup4\n        /* \"#utility.yul\":5868:5935   */\n      tag_73\n      jump\t// in\n    tag_138:\n        /* \"#utility.yul\":5861:5935   */\n      swap2\n      pop\n        /* \"#utility.yul\":5944:6037   */\n      tag_139\n        /* \"#utility.yul\":6033:6036   */\n      dup3\n        /* \"#utility.yul\":5944:6037   */\n      tag_81\n      jump\t// in\n    tag_139:\n        /* \"#utility.yul\":6062:6064   */\n      0x20\n        /* \"#utility.yul\":6057:6060   */\n      dup3\n        /* \"#utility.yul\":6053:6065   */\n      add\n        /* \"#utility.yul\":6046:6065   */\n      swap1\n      pop\n        /* \"#utility.yul\":5705:6071   */\n      swap2\n      swap1\n      pop\n      jump\t// out\n        /* \"#utility.yul\":6077:6496   */\n    tag_54:\n        /* \"#utility.yul\":6243:6247   */\n      0x00\n        /* \"#utility.yul\":6281:6283   */\n      0x20\n        /* \"#utility.yul\":6270:6279   */\n      dup3\n        /* \"#utility.yul\":6266:6284   */\n      add\n        /* \"#utility.yul\":6258:6284   */\n      swap1\n      pop\n        /* \"#utility.yul\":6330:6339   */\n      dup2\n        /* \"#utility.yul\":6324:6328   */\n      dup2\n        /* \"#utility.yul\":6320:6340   */\n      sub\n        /* \"#utility.yul\":6316:6317   */\n      0x00\n        /* \"#utility.yul\":6305:6314   */\n      dup4\n        /* \"#utility.yul\":6301:6318   */\n      add\n        /* \"#utility.yul\":6294:6341   */\n      mstore\n        /* \"#utility.yul\":6358:6489   */\n      tag_141\n        /* \"#utility.yul\":6484:6488   */\n      dup2\n        /* \"#utility.yul\":6358:6489   */\n      tag_82\n      jump\t// in\n    tag_141:\n        /* \"#utility.yul\":6350:6489   */\n      swap1\n      pop\n        /* \"#utility.yul\":6077:6496   */\n      swap2\n      swap1\n      pop\n      jump\t// out\n        /* \"#utility.yul\":6502:6667   */\n    tag_83:\n        /* \"#utility.yul\":6642:6659   */\n      0x4d7573742073656e642045746865720000000000000000000000000000000000\n        /* \"#utility.yul\":6638:6639   */\n      0x00\n        /* \"#utility.yul\":6630:6636   */\n      dup3\n        /* \"#utility.yul\":6626:6640   */\n      add\n        /* \"#utility.yul\":6619:6660   */\n      mstore\n        /* \"#utility.yul\":6502:6667   */\n      pop\n      jump\t// out\n        /* \"#utility.yul\":6673:7039   */\n    tag_84:\n        /* \"#utility.yul\":6815:6818   */\n      0x00\n        /* \"#utility.yul\":6836:6903   */\n      tag_144\n        /* \"#utility.yul\":6900:6902   */\n      0x0f\n        /* \"#utility.yul\":6895:6898   */\n      dup4\n        /* \"#utility.yul\":6836:6903   */\n      tag_73\n      jump\t// in\n    tag_144:\n        /* \"#utility.yul\":6829:6903   */\n      swap2\n      pop\n        /* \"#utility.yul\":6912:7005   */\n      tag_145\n        /* \"#utility.yul\":7001:7004   */\n      dup3\n        /* \"#utility.yul\":6912:7005   */\n      tag_83\n      jump\t// in\n    tag_145:\n        /* \"#utility.yul\":7030:7032   */\n      0x20\n        /* \"#utility.yul\":7025:7028   */\n      dup3\n        /* \"#utility.yul\":7021:7033   */\n      add\n        /* \"#utility.yul\":7014:7033   */\n      swap1\n      pop\n        /* \"#utility.yul\":6673:7039   */\n      swap2\n      swap1\n      pop\n      jump\t// out\n        /* \"#utility.yul\":7045:7464   */\n    tag_58:\n        /* \"#utility.yul\":7211:7215   */\n      0x00\n        /* \"#utility.yul\":7249:7251   */\n      0x20\n        /* \"#utility.yul\":7238:7247   */\n      dup3\n        /* \"#utility.yul\":7234:7252   */\n      add\n        /* \"#utility.yul\":7226:7252   */\n      swap1\n      pop\n        /* \"#utility.yul\":7298:7307   */\n      dup2\n        /* \"#utility.yul\":7292:7296   */\n      dup2\n        /* \"#utility.yul\":7288:7308   */\n      sub\n        /* \"#utility.yul\":7284:7285   */\n      0x00\n        /* \"#utility.yul\":7273:7282   */\n      dup4\n        /* \"#utility.yul\":7269:7286   */\n      add\n        /* \"#utility.yul\":7262:7309   */\n      mstore\n        /* \"#utility.yul\":7326:7457   */\n      tag_147\n        /* \"#utility.yul\":7452:7456   */\n      dup2\n        /* \"#utility.yul\":7326:7457   */\n      tag_84\n      jump\t// in\n    tag_147:\n        /* \"#utility.yul\":7318:7457   */\n      swap1\n      pop\n        /* \"#utility.yul\":7045:7464   */\n      swap2\n      swap1\n      pop\n      jump\t// out\n        /* \"#utility.yul\":7470:7661   */\n    tag_60:\n        /* \"#utility.yul\":7510:7513   */\n      0x00\n        /* \"#utility.yul\":7529:7549   */\n      tag_149\n        /* \"#utility.yul\":7547:7548   */\n      dup3\n        /* \"#utility.yul\":7529:7549   */\n      tag_69\n      jump\t// in\n    tag_149:\n        /* \"#utility.yul\":7524:7549   */\n      swap2\n      pop\n        /* \"#utility.yul\":7563:7583   */\n      tag_150\n        /* \"#utility.yul\":7581:7582   */\n      dup4\n        /* \"#utility.yul\":7563:7583   */\n      tag_69\n      jump\t// in\n    tag_150:\n        /* \"#utility.yul\":7558:7583   */\n      swap3\n      pop\n        /* \"#utility.yul\":7606:7607   */\n      dup3\n        /* \"#utility.yul\":7603:7604   */\n      dup3\n        /* \"#utility.yul\":7599:7608   */\n      add\n        /* \"#utility.yul\":7592:7608   */\n      swap1\n      pop\n        /* \"#utility.yul\":7627:7630   */\n      dup1\n        /* \"#utility.yul\":7624:7625   */\n      dup3\n        /* \"#utility.yul\":7621:7631   */\n      gt\n        /* \"#utility.yul\":7618:7654   */\n      iszero\n      tag_151\n      jumpi\n        /* \"#utility.yul\":7634:7652   */\n      tag_152\n      tag_72\n      jump\t// in\n    tag_152:\n        /* \"#utility.yul\":7618:7654   */\n    tag_151:\n        /* \"#utility.yul\":7470:7661   */\n      swap3\n      swap2\n      pop\n      pop\n      jump\t// out\n\n    auxdata: 0xa2646970667358221220e1b791f1a2275cb5bf7c860ef6da4e5b1873180e9f3fdade8a737c31e72e9c4964736f6c63430008220033\n}\n",
				"bytecode": {
					"linkReferences": {},
					"object": "6080604052348015600e575f5ffd5b50335f5f6101000a81548173ffffffffffffffffffffffffffffffffffffffff021916908373ffffffffffffffffffffffffffffffffffffffff1602179055506108f68061005b5f395ff3fe608060405260043610610054575f3560e01c8063111eb8b11461005857806323792279146100945780633ccfd60b146100d05780638da5cb5b146100e6578063d0e30db014610110578063fc7e286d1461011a575b5f5ffd5b348015610063575f5ffd5b5061007e600480360381019061007991906105b8565b610156565b60405161008b91906105fb565b60405180910390f35b34801561009f575f5ffd5b506100ba60048036038101906100b591906105b8565b6101f4565b6040516100c791906105fb565b60405180910390f35b3480156100db575f5ffd5b506100e4610209565b005b3480156100f1575f5ffd5b506100fa61043c565b6040516101079190610623565b60405180910390f35b610118610460565b005b348015610125575f5ffd5b50610140600480360381019061013b91906105b8565b610545565b60405161014d91906105fb565b60405180910390f35b5f60025f8373ffffffffffffffffffffffffffffffffffffffff1673ffffffffffffffffffffffffffffffffffffffff1681526020019081526020015f205442106101a3575f90506101ef565b4260025f8473ffffffffffffffffffffffffffffffffffffffff1673ffffffffffffffffffffffffffffffffffffffff1681526020019081526020015f20546101ec9190610669565b90505b919050565b6002602052805f5260405f205f915090505481565b60025f3373ffffffffffffffffffffffffffffffffffffffff1673ffffffffffffffffffffffffffffffffffffffff1681526020019081526020015f2054421015610289576040517f08c379a0000000000000000000000000000000000000000000000000000000008152600401610280906106f6565b60405180910390fd5b5f60015f3373ffffffffffffffffffffffffffffffffffffffff1673ffffffffffffffffffffffffffffffffffffffff1681526020019081526020015f205490505f811161030c576040517f08c379a00000000000000000000000000000000000000000000000000000000081526004016103039061075e565b60405180910390fd5b5f60015f3373ffffffffffffffffffffffffffffffffffffffff1673ffffffffffffffffffffffffffffffffffffffff1681526020019081526020015f20819055505f60025f3373ffffffffffffffffffffffffffffffffffffffff1673ffffffffffffffffffffffffffffffffffffffff1681526020019081526020015f20819055505f3373ffffffffffffffffffffffffffffffffffffffff16826040516103b5906107a9565b5f6040518083038185875af1925050503d805f81146103ef576040519150601f19603f3d011682016040523d82523d5f602084013e6103f4565b606091505b5050905080610438576040517f08c379a000000000000000000000000000000000000000000000000000000000815260040161042f90610807565b60405180910390fd5b5050565b5f5f9054906101000a900473ffffffffffffffffffffffffffffffffffffffff1681565b5f34116104a2576040517f08c379a00000000000000000000000000000000000000000000000000000000081526004016104999061086f565b60405180910390fd5b3460015f3373ffffffffffffffffffffffffffffffffffffffff1673ffffffffffffffffffffffffffffffffffffffff1681526020019081526020015f205f8282546104ee919061088d565b92505081905550603c42610502919061088d565b60025f3373ffffffffffffffffffffffffffffffffffffffff1673ffffffffffffffffffffffffffffffffffffffff1681526020019081526020015f2081905550565b6001602052805f5260405f205f915090505481565b5f5ffd5b5f73ffffffffffffffffffffffffffffffffffffffff82169050919050565b5f6105878261055e565b9050919050565b6105978161057d565b81146105a1575f5ffd5b50565b5f813590506105b28161058e565b92915050565b5f602082840312156105cd576105cc61055a565b5b5f6105da848285016105a4565b91505092915050565b5f819050919050565b6105f5816105e3565b82525050565b5f60208201905061060e5f8301846105ec565b92915050565b61061d8161057d565b82525050565b5f6020820190506106365f830184610614565b92915050565b7f4e487b71000000000000000000000000000000000000000000000000000000005f52601160045260245ffd5b5f610673826105e3565b915061067e836105e3565b92508282039050818111156106965761069561063c565b5b92915050565b5f82825260208201905092915050565b7f46756e647320617265207374696c6c206c6f636b6564000000000000000000005f82015250565b5f6106e060168361069c565b91506106eb826106ac565b602082019050919050565b5f6020820190508181035f83015261070d816106d4565b9050919050565b7f4e6f2066756e647320746f2077697468647261770000000000000000000000005f82015250565b5f61074860148361069c565b915061075382610714565b602082019050919050565b5f6020820190508181035f8301526107758161073c565b9050919050565b5f81905092915050565b50565b5f6107945f8361077c565b915061079f82610786565b5f82019050919050565b5f6107b382610789565b9150819050919050565b7f5472616e73666572206661696c656400000000000000000000000000000000005f82015250565b5f6107f1600f8361069c565b91506107fc826107bd565b602082019050919050565b5f6020820190508181035f83015261081e816107e5565b9050919050565b7f4d7573742073656e6420457468657200000000000000000000000000000000005f82015250565b5f610859600f8361069c565b915061086482610825565b602082019050919050565b5f6020820190508181035f8301526108868161084d565b9050919050565b5f610897826105e3565b91506108a2836105e3565b92508282019050808211156108ba576108b961063c565b5b9291505056fea2646970667358221220e1b791f1a2275cb5bf7c860ef6da4e5b1873180e9f3fdade8a737c31e72e9c4964736f6c63430008220033",
					"opcodes": "PUSH1 0x80 PUSH1 0x40 MSTORE CALLVALUE DUP1 ISZERO PUSH1 0xE JUMPI PUSH0 PUSH0 REVERT JUMPDEST POP CALLER PUSH0 PUSH0 PUSH2 0x100 EXP DUP2 SLOAD DUP2 PUSH20 0xFFFFFFFFFFFFFFFFFFFFFFFFFFFFFFFFFFFFFFFF MUL NOT AND SWAP1 DUP4 PUSH20 0xFFFFFFFFFFFFFFFFFFFFFFFFFFFFFFFFFFFFFFFF AND MUL OR SWAP1 SSTORE POP PUSH2 0x8F6 DUP1 PUSH2 0x5B PUSH0 CODECOPY PUSH0 RETURN INVALID PUSH1 0x80 PUSH1 0x40 MSTORE PUSH1 0x4 CALLDATASIZE LT PUSH2 0x54 JUMPI PUSH0 CALLDATALOAD PUSH1 0xE0 SHR DUP1 PUSH4 0x111EB8B1 EQ PUSH2 0x58 JUMPI DUP1 PUSH4 0x23792279 EQ PUSH2 0x94 JUMPI DUP1 PUSH4 0x3CCFD60B EQ PUSH2 0xD0 JUMPI DUP1 PUSH4 0x8DA5CB5B EQ PUSH2 0xE6 JUMPI DUP1 PUSH4 0xD0E30DB0 EQ PUSH2 0x110 JUMPI DUP1 PUSH4 0xFC7E286D EQ PUSH2 0x11A JUMPI JUMPDEST PUSH0 PUSH0 REVERT JUMPDEST CALLVALUE DUP1 ISZERO PUSH2 0x63 JUMPI PUSH0 PUSH0 REVERT JUMPDEST POP PUSH2 0x7E PUSH1 0x4 DUP1 CALLDATASIZE SUB DUP2 ADD SWAP1 PUSH2 0x79 SWAP2 SWAP1 PUSH2 0x5B8 JUMP JUMPDEST PUSH2 0x156 JUMP JUMPDEST PUSH1 0x40 MLOAD PUSH2 0x8B SWAP2 SWAP1 PUSH2 0x5FB JUMP JUMPDEST PUSH1 0x40 MLOAD DUP1 SWAP2 SUB SWAP1 RETURN JUMPDEST CALLVALUE DUP1 ISZERO PUSH2 0x9F JUMPI PUSH0 PUSH0 REVERT JUMPDEST POP PUSH2 0xBA PUSH1 0x4 DUP1 CALLDATASIZE SUB DUP2 ADD SWAP1 PUSH2 0xB5 SWAP2 SWAP1 PUSH2 0x5B8 JUMP JUMPDEST PUSH2 0x1F4 JUMP JUMPDEST PUSH1 0x40 MLOAD PUSH2 0xC7 SWAP2 SWAP1 PUSH2 0x5FB JUMP JUMPDEST PUSH1 0x40 MLOAD DUP1 SWAP2 SUB SWAP1 RETURN JUMPDEST CALLVALUE DUP1 ISZERO PUSH2 0xDB JUMPI PUSH0 PUSH0 REVERT JUMPDEST POP PUSH2 0xE4 PUSH2 0x209 JUMP JUMPDEST STOP JUMPDEST CALLVALUE DUP1 ISZERO PUSH2 0xF1 JUMPI PUSH0 PUSH0 REVERT JUMPDEST POP PUSH2 0xFA PUSH2 0x43C JUMP JUMPDEST PUSH1 0x40 MLOAD PUSH2 0x107 SWAP2 SWAP1 PUSH2 0x623 JUMP JUMPDEST PUSH1 0x40 MLOAD DUP1 SWAP2 SUB SWAP1 RETURN JUMPDEST PUSH2 0x118 PUSH2 0x460 JUMP JUMPDEST STOP JUMPDEST CALLVALUE DUP1 ISZERO PUSH2 0x125 JUMPI PUSH0 PUSH0 REVERT JUMPDEST POP PUSH2 0x140 PUSH1 0x4 DUP1 CALLDATASIZE SUB DUP2 ADD SWAP1 PUSH2 0x13B SWAP2 SWAP1 PUSH2 0x5B8 JUMP JUMPDEST PUSH2 0x545 JUMP JUMPDEST PUSH1 0x40 MLOAD PUSH2 0x14D SWAP2 SWAP1 PUSH2 0x5FB JUMP JUMPDEST PUSH1 0x40 MLOAD DUP1 SWAP2 SUB SWAP1 RETURN JUMPDEST PUSH0 PUSH1 0x2 PUSH0 DUP4 PUSH20 0xFFFFFFFFFFFFFFFFFFFFFFFFFFFFFFFFFFFFFFFF AND PUSH20 0xFFFFFFFFFFFFFFFFFFFFFFFFFFFFFFFFFFFFFFFF AND DUP2 MSTORE PUSH1 0x20 ADD SWAP1 DUP2 MSTORE PUSH1 0x20 ADD PUSH0 KECCAK256 SLOAD TIMESTAMP LT PUSH2 0x1A3 JUMPI PUSH0 SWAP1 POP PUSH2 0x1EF JUMP JUMPDEST TIMESTAMP PUSH1 0x2 PUSH0 DUP5 PUSH20 0xFFFFFFFFFFFFFFFFFFFFFFFFFFFFFFFFFFFFFFFF AND PUSH20 0xFFFFFFFFFFFFFFFFFFFFFFFFFFFFFFFFFFFFFFFF AND DUP2 MSTORE PUSH1 0x20 ADD SWAP1 DUP2 MSTORE PUSH1 0x20 ADD PUSH0 KECCAK256 SLOAD PUSH2 0x1EC SWAP2 SWAP1 PUSH2 0x669 JUMP JUMPDEST SWAP1 POP JUMPDEST SWAP2 SWAP1 POP JUMP JUMPDEST PUSH1 0x2 PUSH1 0x20 MSTORE DUP1 PUSH0 MSTORE PUSH1 0x40 PUSH0 KECCAK256 PUSH0 SWAP2 POP SWAP1 POP SLOAD DUP2 JUMP JUMPDEST PUSH1 0x2 PUSH0 CALLER PUSH20 0xFFFFFFFFFFFFFFFFFFFFFFFFFFFFFFFFFFFFFFFF AND PUSH20 0xFFFFFFFFFFFFFFFFFFFFFFFFFFFFFFFFFFFFFFFF AND DUP2 MSTORE PUSH1 0x20 ADD SWAP1 DUP2 MSTORE PUSH1 0x20 ADD PUSH0 KECCAK256 SLOAD TIMESTAMP LT ISZERO PUSH2 0x289 JUMPI PUSH1 0x40 MLOAD PUSH32 0x8C379A000000000000000000000000000000000000000000000000000000000 DUP2 MSTORE PUSH1 0x4 ADD PUSH2 0x280 SWAP1 PUSH2 0x6F6 JUMP JUMPDEST PUSH1 0x40 MLOAD DUP1 SWAP2 SUB SWAP1 REVERT JUMPDEST PUSH0 PUSH1 0x1 PUSH0 CALLER PUSH20 0xFFFFFFFFFFFFFFFFFFFFFFFFFFFFFFFFFFFFFFFF AND PUSH20 0xFFFFFFFFFFFFFFFFFFFFFFFFFFFFFFFFFFFFFFFF AND DUP2 MSTORE PUSH1 0x20 ADD SWAP1 DUP2 MSTORE PUSH1 0x20 ADD PUSH0 KECCAK256 SLOAD SWAP1 POP PUSH0 DUP2 GT PUSH2 0x30C JUMPI PUSH1 0x40 MLOAD PUSH32 0x8C379A000000000000000000000000000000000000000000000000000000000 DUP2 MSTORE PUSH1 0x4 ADD PUSH2 0x303 SWAP1 PUSH2 0x75E JUMP JUMPDEST PUSH1 0x40 MLOAD DUP1 SWAP2 SUB SWAP1 REVERT JUMPDEST PUSH0 PUSH1 0x1 PUSH0 CALLER PUSH20 0xFFFFFFFFFFFFFFFFFFFFFFFFFFFFFFFFFFFFFFFF AND PUSH20 0xFFFFFFFFFFFFFFFFFFFFFFFFFFFFFFFFFFFFFFFF AND DUP2 MSTORE PUSH1 0x20 ADD SWAP1 DUP2 MSTORE PUSH1 0x20 ADD PUSH0 KECCAK256 DUP2 SWAP1 SSTORE POP PUSH0 PUSH1 0x2 PUSH0 CALLER PUSH20 0xFFFFFFFFFFFFFFFFFFFFFFFFFFFFFFFFFFFFFFFF AND PUSH20 0xFFFFFFFFFFFFFFFFFFFFFFFFFFFFFFFFFFFFFFFF AND DUP2 MSTORE PUSH1 0x20 ADD SWAP1 DUP2 MSTORE PUSH1 0x20 ADD PUSH0 KECCAK256 DUP2 SWAP1 SSTORE POP PUSH0 CALLER PUSH20 0xFFFFFFFFFFFFFFFFFFFFFFFFFFFFFFFFFFFFFFFF AND DUP3 PUSH1 0x40 MLOAD PUSH2 0x3B5 SWAP1 PUSH2 0x7A9 JUMP JUMPDEST PUSH0 PUSH1 0x40 MLOAD DUP1 DUP4 SUB DUP2 DUP6 DUP8 GAS CALL SWAP3 POP POP POP RETURNDATASIZE DUP1 PUSH0 DUP2 EQ PUSH2 0x3EF JUMPI PUSH1 0x40 MLOAD SWAP2 POP PUSH1 0x1F NOT PUSH1 0x3F RETURNDATASIZE ADD AND DUP3 ADD PUSH1 0x40 MSTORE RETURNDATASIZE DUP3 MSTORE RETURNDATASIZE PUSH0 PUSH1 0x20 DUP5 ADD RETURNDATACOPY PUSH2 0x3F4 JUMP JUMPDEST PUSH1 0x60 SWAP2 POP JUMPDEST POP POP SWAP1 POP DUP1 PUSH2 0x438 JUMPI PUSH1 0x40 MLOAD PUSH32 0x8C379A000000000000000000000000000000000000000000000000000000000 DUP2 MSTORE PUSH1 0x4 ADD PUSH2 0x42F SWAP1 PUSH2 0x807 JUMP JUMPDEST PUSH1 0x40 MLOAD DUP1 SWAP2 SUB SWAP1 REVERT JUMPDEST POP POP JUMP JUMPDEST PUSH0 PUSH0 SWAP1 SLOAD SWAP1 PUSH2 0x100 EXP SWAP1 DIV PUSH20 0xFFFFFFFFFFFFFFFFFFFFFFFFFFFFFFFFFFFFFFFF AND DUP2 JUMP JUMPDEST PUSH0 CALLVALUE GT PUSH2 0x4A2 JUMPI PUSH1 0x40 MLOAD PUSH32 0x8C379A000000000000000000000000000000000000000000000000000000000 DUP2 MSTORE PUSH1 0x4 ADD PUSH2 0x499 SWAP1 PUSH2 0x86F JUMP JUMPDEST PUSH1 0x40 MLOAD DUP1 SWAP2 SUB SWAP1 REVERT JUMPDEST CALLVALUE PUSH1 0x1 PUSH0 CALLER PUSH20 0xFFFFFFFFFFFFFFFFFFFFFFFFFFFFFFFFFFFFFFFF AND PUSH20 0xFFFFFFFFFFFFFFFFFFFFFFFFFFFFFFFFFFFFFFFF AND DUP2 MSTORE PUSH1 0x20 ADD SWAP1 DUP2 MSTORE PUSH1 0x20 ADD PUSH0 KECCAK256 PUSH0 DUP3 DUP3 SLOAD PUSH2 0x4EE SWAP2 SWAP1 PUSH2 0x88D JUMP JUMPDEST SWAP3 POP POP DUP2 SWAP1 SSTORE POP PUSH1 0x3C TIMESTAMP PUSH2 0x502 SWAP2 SWAP1 PUSH2 0x88D JUMP JUMPDEST PUSH1 0x2 PUSH0 CALLER PUSH20 0xFFFFFFFFFFFFFFFFFFFFFFFFFFFFFFFFFFFFFFFF AND PUSH20 0xFFFFFFFFFFFFFFFFFFFFFFFFFFFFFFFFFFFFFFFF AND DUP2 MSTORE PUSH1 0x20 ADD SWAP1 DUP2 MSTORE PUSH1 0x20 ADD PUSH0 KECCAK256 DUP2 SWAP1 SSTORE POP JUMP JUMPDEST PUSH1 0x1 PUSH1 0x20 MSTORE DUP1 PUSH0 MSTORE PUSH1 0x40 PUSH0 KECCAK256 PUSH0 SWAP2 POP SWAP1 POP SLOAD DUP2 JUMP JUMPDEST PUSH0 PUSH0 REVERT JUMPDEST PUSH0 PUSH20 0xFFFFFFFFFFFFFFFFFFFFFFFFFFFFFFFFFFFFFFFF DUP3 AND SWAP1 POP SWAP2 SWAP1 POP JUMP JUMPDEST PUSH0 PUSH2 0x587 DUP3 PUSH2 0x55E JUMP JUMPDEST SWAP1 POP SWAP2 SWAP1 POP JUMP JUMPDEST PUSH2 0x597 DUP2 PUSH2 0x57D JUMP JUMPDEST DUP2 EQ PUSH2 0x5A1 JUMPI PUSH0 PUSH0 REVERT JUMPDEST POP JUMP JUMPDEST PUSH0 DUP2 CALLDATALOAD SWAP1 POP PUSH2 0x5B2 DUP2 PUSH2 0x58E JUMP JUMPDEST SWAP3 SWAP2 POP POP JUMP JUMPDEST PUSH0 PUSH1 0x20 DUP3 DUP5 SUB SLT ISZERO PUSH2 0x5CD JUMPI PUSH2 0x5CC PUSH2 0x55A JUMP JUMPDEST JUMPDEST PUSH0 PUSH2 0x5DA DUP5 DUP3 DUP6 ADD PUSH2 0x5A4 JUMP JUMPDEST SWAP2 POP POP SWAP3 SWAP2 POP POP JUMP JUMPDEST PUSH0 DUP2 SWAP1 POP SWAP2 SWAP1 POP JUMP JUMPDEST PUSH2 0x5F5 DUP2 PUSH2 0x5E3 JUMP JUMPDEST DUP3 MSTORE POP POP JUMP JUMPDEST PUSH0 PUSH1 0x20 DUP3 ADD SWAP1 POP PUSH2 0x60E PUSH0 DUP4 ADD DUP5 PUSH2 0x5EC JUMP JUMPDEST SWAP3 SWAP2 POP POP JUMP JUMPDEST PUSH2 0x61D DUP2 PUSH2 0x57D JUMP JUMPDEST DUP3 MSTORE POP POP JUMP JUMPDEST PUSH0 PUSH1 0x20 DUP3 ADD SWAP1 POP PUSH2 0x636 PUSH0 DUP4 ADD DUP5 PUSH2 0x614 JUMP JUMPDEST SWAP3 SWAP2 POP POP JUMP JUMPDEST PUSH32 0x4E487B7100000000000000000000000000000000000000000000000000000000 PUSH0 MSTORE PUSH1 0x11 PUSH1 0x4 MSTORE PUSH1 0x24 PUSH0 REVERT JUMPDEST PUSH0 PUSH2 0x673 DUP3 PUSH2 0x5E3 JUMP JUMPDEST SWAP2 POP PUSH2 0x67E DUP4 PUSH2 0x5E3 JUMP JUMPDEST SWAP3 POP DUP3 DUP3 SUB SWAP1 POP DUP2 DUP2 GT ISZERO PUSH2 0x696 JUMPI PUSH2 0x695 PUSH2 0x63C JUMP JUMPDEST JUMPDEST SWAP3 SWAP2 POP POP JUMP JUMPDEST PUSH0 DUP3 DUP3 MSTORE PUSH1 0x20 DUP3 ADD SWAP1 POP SWAP3 SWAP2 POP POP JUMP JUMPDEST PUSH32 0x46756E647320617265207374696C6C206C6F636B656400000000000000000000 PUSH0 DUP3 ADD MSTORE POP JUMP JUMPDEST PUSH0 PUSH2 0x6E0 PUSH1 0x16 DUP4 PUSH2 0x69C JUMP JUMPDEST SWAP2 POP PUSH2 0x6EB DUP3 PUSH2 0x6AC JUMP JUMPDEST PUSH1 0x20 DUP3 ADD SWAP1 POP SWAP2 SWAP1 POP JUMP JUMPDEST PUSH0 PUSH1 0x20 DUP3 ADD SWAP1 POP DUP2 DUP2 SUB PUSH0 DUP4 ADD MSTORE PUSH2 0x70D DUP2 PUSH2 0x6D4 JUMP JUMPDEST SWAP1 POP SWAP2 SWAP1 POP JUMP JUMPDEST PUSH32 0x4E6F2066756E647320746F207769746864726177000000000000000000000000 PUSH0 DUP3 ADD MSTORE POP JUMP JUMPDEST PUSH0 PUSH2 0x748 PUSH1 0x14 DUP4 PUSH2 0x69C JUMP JUMPDEST SWAP2 POP PUSH2 0x753 DUP3 PUSH2 0x714 JUMP JUMPDEST PUSH1 0x20 DUP3 ADD SWAP1 POP SWAP2 SWAP1 POP JUMP JUMPDEST PUSH0 PUSH1 0x20 DUP3 ADD SWAP1 POP DUP2 DUP2 SUB PUSH0 DUP4 ADD MSTORE PUSH2 0x775 DUP2 PUSH2 0x73C JUMP JUMPDEST SWAP1 POP SWAP2 SWAP1 POP JUMP JUMPDEST PUSH0 DUP2 SWAP1 POP SWAP3 SWAP2 POP POP JUMP JUMPDEST POP JUMP JUMPDEST PUSH0 PUSH2 0x794 PUSH0 DUP4 PUSH2 0x77C JUMP JUMPDEST SWAP2 POP PUSH2 0x79F DUP3 PUSH2 0x786 JUMP JUMPDEST PUSH0 DUP3 ADD SWAP1 POP SWAP2 SWAP1 POP JUMP JUMPDEST PUSH0 PUSH2 0x7B3 DUP3 PUSH2 0x789 JUMP JUMPDEST SWAP2 POP DUP2 SWAP1 POP SWAP2 SWAP1 POP JUMP JUMPDEST PUSH32 0x5472616E73666572206661696C65640000000000000000000000000000000000 PUSH0 DUP3 ADD MSTORE POP JUMP JUMPDEST PUSH0 PUSH2 0x7F1 PUSH1 0xF DUP4 PUSH2 0x69C JUMP JUMPDEST SWAP2 POP PUSH2 0x7FC DUP3 PUSH2 0x7BD JUMP JUMPDEST PUSH1 0x20 DUP3 ADD SWAP1 POP SWAP2 SWAP1 POP JUMP JUMPDEST PUSH0 PUSH1 0x20 DUP3 ADD SWAP1 POP DUP2 DUP2 SUB PUSH0 DUP4 ADD MSTORE PUSH2 0x81E DUP2 PUSH2 0x7E5 JUMP JUMPDEST SWAP1 POP SWAP2 SWAP1 POP JUMP JUMPDEST PUSH32 0x4D7573742073656E642045746865720000000000000000000000000000000000 PUSH0 DUP3 ADD MSTORE POP JUMP JUMPDEST PUSH0 PUSH2 0x859 PUSH1 0xF DUP4 PUSH2 0x69C JUMP JUMPDEST SWAP2 POP PUSH2 0x864 DUP3 PUSH2 0x825 JUMP JUMPDEST PUSH1 0x20 DUP3 ADD SWAP1 POP SWAP2 SWAP1 POP JUMP JUMPDEST PUSH0 PUSH1 0x20 DUP3 ADD SWAP1 POP DUP2 DUP2 SUB PUSH0 DUP4 ADD MSTORE PUSH2 0x886 DUP2 PUSH2 0x84D JUMP JUMPDEST SWAP1 POP SWAP2 SWAP1 POP JUMP JUMPDEST PUSH0 PUSH2 0x897 DUP3 PUSH2 0x5E3 JUMP JUMPDEST SWAP2 POP PUSH2 0x8A2 DUP4 PUSH2 0x5E3 JUMP JUMPDEST SWAP3 POP DUP3 DUP3 ADD SWAP1 POP DUP1 DUP3 GT ISZERO PUSH2 0x8BA JUMPI PUSH2 0x8B9 PUSH2 0x63C JUMP JUMPDEST JUMPDEST SWAP3 SWAP2 POP POP JUMP INVALID LOG2 PUSH5 0x6970667358 0x22 SLT KECCAK256 RJUMPI 0xB791 CALL LOG2 0x27 TLOAD 0xB5 0xBF PUSH29 0x860EF6DA4E5B1873180E9F3FDADE8A737C31E72E9C4964736F6C634300 ADDMOD 0x22 STOP CALLER "
				},
				"gasEstimates": {
					"creation": {
						"codeDepositCost": "458800",
						"executionCost": "24755",
						"totalCost": "483555"
					},
					"external": {
						"deposit()": "infinite",
						"deposits(address)": "2890",
						"getTimeLeft(address)": "infinite",
						"lockEnd(address)": "2802",
						"owner()": "2551",
						"withdraw()": "infinite"
					}
				},
				"methodIdentifiers": {
					"deposit()": "d0e30db0",
					"deposits(address)": "fc7e286d",
					"getTimeLeft(address)": "111eb8b1",
					"lockEnd(address)": "23792279",
					"owner()": "8da5cb5b",
					"withdraw()": "3ccfd60b"
				}
			},
			"storageLayout": {
				"storage": [
					{
						"astId": 3,
						"contract": "LiquidityLocker.sol:LiquidityLocker",
						"label": "owner",
						"offset": 0,
						"slot": "0",
						"type": "t_address"
					},
					{
						"astId": 7,
						"contract": "LiquidityLocker.sol:LiquidityLocker",
						"label": "deposits",
						"offset": 0,
						"slot": "1",
						"type": "t_mapping(t_address,t_uint256)"
					},
					{
						"astId": 11,
						"contract": "LiquidityLocker.sol:LiquidityLocker",
						"label": "lockEnd",
						"offset": 0,
						"slot": "2",
						"type": "t_mapping(t_address,t_uint256)"
					}
				],
				"types": {
					"t_address": {
						"encoding": "inplace",
						"label": "address",
						"numberOfBytes": "20"
					},
					"t_mapping(t_address,t_uint256)": {
						"encoding": "mapping",
						"key": "t_address",
						"label": "mapping(address => uint256)",
						"numberOfBytes": "32",
						"value": "t_uint256"
					},
					"t_uint256": {
						"encoding": "inplace",
						"label": "uint256",
						"numberOfBytes": "32"
					}
				}
			},
			"userdoc": {
				"kind": "user",
				"methods": {},
				"version": 1
			}
		}
	}
}