{
	"DynamicPricing.sol": {
		"DynamicPricing": {
			"abi": [
				{
					"inputs": [
						{
							"internalType": "uint256",
							"name": "basePrice",
							"type": "uint256"
						},
						{
							"internalType": "uint256",
							"name": "demandFactor",
							"type": "uint256"
						},
						{
							"internalType": "uint256",
							"name": "timeFactor",
							"type": "uint256"
						}
					],
					"name": "calculatePrice",
					"outputs": [
						{
							"internalType": "uint256",
							"name": "",
							"type": "uint256"
						}
					],
					"stateMutability": "pure",
					"type": "function"
				}
			],
			"devdoc": {
				"kind": "dev",
				"methods": {},
				"version": 1
			},
			"evm": {
				"assembly": "    /* \"DynamicPricing.sol\":60:504  contract DynamicPricing {... */\n  mstore(0x40, 0x80)\n  callvalue\n  dup1\n  iszero\n  tag_1\n  jumpi\n  revert(0x00, 0x00)\ntag_1:\n  pop\n  dataSize(sub_0)\n  dup1\n  dataOffset(sub_0)\n  0x00\n  codecopy\n  0x00\n  return\nstop\n\nsub_0: assembly {\n        /* \"DynamicPricing.sol\":60:504  contract DynamicPricing {... */\n      mstore(0x40, 0x80)\n      callvalue\n      dup1\n      iszero\n      tag_1\n      jumpi\n      revert(0x00, 0x00)\n    tag_1:\n      pop\n      jumpi(tag_2, lt(calldatasize, 0x04))\n      shr(0xe0, calldataload(0x00))\n      dup1\n      0xe015c62a\n      eq\n      tag_3\n      jumpi\n    tag_2:\n      revert(0x00, 0x00)\n        /* \"DynamicPricing.sol\":93:501  function calculatePrice(... */\n    tag_3:\n      tag_4\n      0x04\n      dup1\n      calldatasize\n      sub\n      dup2\n      add\n      swap1\n      tag_5\n      swap2\n      swap1\n      tag_6\n      jump\t// in\n    tag_5:\n      tag_7\n      jump\t// in\n    tag_4:\n      mload(0x40)\n      tag_8\n      swap2\n      swap1\n      tag_9\n      jump\t// in\n    tag_8:\n      mload(0x40)\n      dup1\n      swap2\n      sub\n      swap1\n      return\n    tag_7:\n        /* \"DynamicPricing.sol\":233:240  uint256 */\n      0x00\n        /* \"DynamicPricing.sol\":272:296  uint256 demandMultiplier */\n      0x00\n        /* \"DynamicPricing.sol\":305:317  demandFactor */\n      dup4\n        /* \"DynamicPricing.sol\":299:302  100 */\n      0x64\n        /* \"DynamicPricing.sol\":299:317  100 + demandFactor */\n      tag_11\n      swap2\n      swap1\n      tag_12\n      jump\t// in\n    tag_11:\n        /* \"DynamicPricing.sol\":272:317  uint256 demandMultiplier = 100 + demandFactor */\n      swap1\n      pop\n        /* \"DynamicPricing.sol\":333:355  uint256 timeMultiplier */\n      0x00\n        /* \"DynamicPricing.sol\":364:374  timeFactor */\n      dup4\n        /* \"DynamicPricing.sol\":358:361  100 */\n      0x64\n        /* \"DynamicPricing.sol\":358:374  100 + timeFactor */\n      tag_13\n      swap2\n      swap1\n      tag_12\n      jump\t// in\n    tag_13:\n        /* \"DynamicPricing.sol\":333:374  uint256 timeMultiplier = 100 + timeFactor */\n      swap1\n      pop\n        /* \"DynamicPricing.sol\":387:405  uint256 finalPrice */\n      0x00\n        /* \"DynamicPricing.sol\":458:463  10000 */\n      0x2710\n        /* \"DynamicPricing.sol\":440:454  timeMultiplier */\n      dup3\n        /* \"DynamicPricing.sol\":421:437  demandMultiplier */\n      dup5\n        /* \"DynamicPricing.sol\":409:418  basePrice */\n      dup10\n        /* \"DynamicPricing.sol\":409:437  basePrice * demandMultiplier */\n      tag_14\n      swap2\n      swap1\n      tag_15\n      jump\t// in\n    tag_14:\n        /* \"DynamicPricing.sol\":409:454  basePrice * demandMultiplier * timeMultiplier */\n      tag_16\n      swap2\n      swap1\n      tag_15\n      jump\t// in\n    tag_16:\n        /* \"DynamicPricing.sol\":408:463  (basePrice * demandMultiplier * timeMultiplier) / 10000 */\n      tag_17\n      swap2\n      swap1\n      tag_18\n      jump\t// in\n    tag_17:\n        /* \"DynamicPricing.sol\":387:463  uint256 finalPrice = (basePrice * demandMultiplier * timeMultiplier) / 10000 */\n      swap1\n      pop\n        /* \"DynamicPricing.sol\":483:493  finalPrice */\n      dup1\n        /* \"DynamicPricing.sol\":476:493  return finalPrice */\n      swap4\n      pop\n      pop\n      pop\n      pop\n        /* \"DynamicPricing.sol\":93:501  function calculatePrice(... */\n      swap4\n      swap3\n      pop\n      pop\n      pop\n      jump\t// out\n        /* \"#utility.yul\":88:205   */\n    tag_20:\n        /* \"#utility.yul\":197:198   */\n      0x00\n        /* \"#utility.yul\":194:195   */\n      0x00\n        /* \"#utility.yul\":187:199   */\n      revert\n        /* \"#utility.yul\":334:411   */\n    tag_22:\n        /* \"#utility.yul\":371:378   */\n      0x00\n        /* \"#utility.yul\":400:405   */\n      dup2\n        /* \"#utility.yul\":389:405   */\n      swap1\n      pop\n        /* \"#utility.yul\":334:411   */\n      swap2\n      swap1\n      pop\n      jump\t// out\n        /* \"#utility.yul\":417:539   */\n    tag_23:\n        /* \"#utility.yul\":490:514   */\n      tag_34\n        /* \"#utility.yul\":508:513   */\n      dup2\n        /* \"#utility.yul\":490:514   */\n      tag_22\n      jump\t// in\n    tag_34:\n        /* \"#utility.yul\":483:488   */\n      dup2\n        /* \"#utility.yul\":480:515   */\n      eq\n        /* \"#utility.yul\":470:533   */\n      tag_35\n      jumpi\n        /* \"#utility.yul\":529:530   */\n      0x00\n        /* \"#utility.yul\":526:527   */\n      0x00\n        /* \"#utility.yul\":519:531   */\n      revert\n        /* \"#utility.yul\":470:533   */\n    tag_35:\n        /* \"#utility.yul\":417:539   */\n      pop\n      jump\t// out\n        /* \"#utility.yul\":545:684   */\n    tag_24:\n        /* \"#utility.yul\":591:596   */\n      0x00\n        /* \"#utility.yul\":629:635   */\n      dup2\n        /* \"#utility.yul\":616:636   */\n      calldataload\n        /* \"#utility.yul\":607:636   */\n      swap1\n      pop\n        /* \"#utility.yul\":645:678   */\n      tag_37\n        /* \"#utility.yul\":672:677   */\n      dup2\n        /* \"#utility.yul\":645:678   */\n      tag_23\n      jump\t// in\n    tag_37:\n        /* \"#utility.yul\":545:684   */\n      swap3\n      swap2\n      pop\n      pop\n      jump\t// out\n        /* \"#utility.yul\":690:1309   */\n    tag_6:\n        /* \"#utility.yul\":767:773   */\n      0x00\n        /* \"#utility.yul\":775:781   */\n      0x00\n        /* \"#utility.yul\":783:789   */\n      0x00\n        /* \"#utility.yul\":832:834   */\n      0x60\n        /* \"#utility.yul\":820:829   */\n      dup5\n        /* \"#utility.yul\":811:818   */\n      dup7\n        /* \"#utility.yul\":807:830   */\n      sub\n        /* \"#utility.yul\":803:835   */\n      slt\n        /* \"#utility.yul\":800:919   */\n      iszero\n      tag_39\n      jumpi\n        /* \"#utility.yul\":838:917   */\n      tag_40\n      tag_20\n      jump\t// in\n    tag_40:\n        /* \"#utility.yul\":800:919   */\n    tag_39:\n        /* \"#utility.yul\":958:959   */\n      0x00\n        /* \"#utility.yul\":983:1036   */\n      tag_41\n        /* \"#utility.yul\":1028:1035   */\n      dup7\n        /* \"#utility.yul\":1019:1025   */\n      dup3\n        /* \"#utility.yul\":1008:1017   */\n      dup8\n        /* \"#utility.yul\":1004:1026   */\n      add\n        /* \"#utility.yul\":983:1036   */\n      tag_24\n      jump\t// in\n    tag_41:\n        /* \"#utility.yul\":973:1036   */\n      swap4\n      pop\n        /* \"#utility.yul\":929:1046   */\n      pop\n        /* \"#utility.yul\":1085:1087   */\n      0x20\n        /* \"#utility.yul\":1111:1164   */\n      tag_42\n        /* \"#utility.yul\":1156:1163   */\n      dup7\n        /* \"#utility.yul\":1147:1153   */\n      dup3\n        /* \"#utility.yul\":1136:1145   */\n      dup8\n        /* \"#utility.yul\":1132:1154   */\n      add\n        /* \"#utility.yul\":1111:1164   */\n      tag_24\n      jump\t// in\n    tag_42:\n        /* \"#utility.yul\":1101:1164   */\n      swap3\n      pop\n        /* \"#utility.yul\":1056:1174   */\n      pop\n        /* \"#utility.yul\":1213:1215   */\n      0x40\n        /* \"#utility.yul\":1239:1292   */\n      tag_43\n        /* \"#utility.yul\":1284:1291   */\n      dup7\n        /* \"#utility.yul\":1275:1281   */\n      dup3\n        /* \"#utility.yul\":1264:1273   */\n      dup8\n        /* \"#utility.yul\":1260:1282   */\n      add\n        /* \"#utility.yul\":1239:1292   */\n      tag_24\n      jump\t// in\n    tag_43:\n        /* \"#utility.yul\":1229:1292   */\n      swap2\n      pop\n        /* \"#utility.yul\":1184:1302   */\n      pop\n        /* \"#utility.yul\":690:1309   */\n      swap3\n      pop\n      swap3\n      pop\n      swap3\n      jump\t// out\n        /* \"#utility.yul\":1315:1433   */\n    tag_25:\n        /* \"#utility.yul\":1402:1426   */\n      tag_45\n        /* \"#utility.yul\":1420:1425   */\n      dup2\n        /* \"#utility.yul\":1402:1426   */\n      tag_22\n      jump\t// in\n    tag_45:\n        /* \"#utility.yul\":1397:1400   */\n      dup3\n        /* \"#utility.yul\":1390:1427   */\n      mstore\n        /* \"#utility.yul\":1315:1433   */\n      pop\n      pop\n      jump\t// out\n        /* \"#utility.yul\":1439:1661   */\n    tag_9:\n        /* \"#utility.yul\":1532:1536   */\n      0x00\n        /* \"#utility.yul\":1570:1572   */\n      0x20\n        /* \"#utility.yul\":1559:1568   */\n      dup3\n        /* \"#utility.yul\":1555:1573   */\n      add\n        /* \"#utility.yul\":1547:1573   */\n      swap1\n      pop\n        /* \"#utility.yul\":1583:1654   */\n      tag_47\n        /* \"#utility.yul\":1651:1652   */\n      0x00\n        /* \"#utility.yul\":1640:1649   */\n      dup4\n        /* \"#utility.yul\":1636:1653   */\n      add\n        /* \"#utility.yul\":1627:1633   */\n      dup5\n        /* \"#utility.yul\":1583:1654   */\n      tag_25\n      jump\t// in\n    tag_47:\n        /* \"#utility.yul\":1439:1661   */\n      swap3\n      swap2\n      pop\n      pop\n      jump\t// out\n        /* \"#utility.yul\":1667:1847   */\n    tag_26:\n        /* \"#utility.yul\":1715:1792   */\n      0x4e487b7100000000000000000000000000000000000000000000000000000000\n        /* \"#utility.yul\":1712:1713   */\n      0x00\n        /* \"#utility.yul\":1705:1793   */\n      mstore\n        /* \"#utility.yul\":1812:1816   */\n      0x11\n        /* \"#utility.yul\":1809:1810   */\n      0x04\n        /* \"#utility.yul\":1802:1817   */\n      mstore\n        /* \"#utility.yul\":1836:1840   */\n      0x24\n        /* \"#utility.yul\":1833:1834   */\n      0x00\n        /* \"#utility.yul\":1826:1841   */\n      revert\n        /* \"#utility.yul\":1853:2044   */\n    tag_12:\n        /* \"#utility.yul\":1893:1896   */\n      0x00\n        /* \"#utility.yul\":1912:1932   */\n      tag_50\n        /* \"#utility.yul\":1930:1931   */\n      dup3\n        /* \"#utility.yul\":1912:1932   */\n      tag_22\n      jump\t// in\n    tag_50:\n        /* \"#utility.yul\":1907:1932   */\n      swap2\n      pop\n        /* \"#utility.yul\":1946:1966   */\n      tag_51\n        /* \"#utility.yul\":1964:1965   */\n      dup4\n        /* \"#utility.yul\":1946:1966   */\n      tag_22\n      jump\t// in\n    tag_51:\n        /* \"#utility.yul\":1941:1966   */\n      swap3\n      pop\n        /* \"#utility.yul\":1989:1990   */\n      dup3\n        /* \"#utility.yul\":1986:1987   */\n      dup3\n        /* \"#utility.yul\":1982:1991   */\n      add\n        /* \"#utility.yul\":1975:1991   */\n      swap1\n      pop\n        /* \"#utility.yul\":2010:2013   */\n      dup1\n        /* \"#utility.yul\":2007:2008   */\n      dup3\n        /* \"#utility.yul\":2004:2014   */\n      gt\n        /* \"#utility.yul\":2001:2037   */\n      iszero\n      tag_52\n      jumpi\n        /* \"#utility.yul\":2017:2035   */\n      tag_53\n      tag_26\n      jump\t// in\n    tag_53:\n        /* \"#utility.yul\":2001:2037   */\n    tag_52:\n        /* \"#utility.yul\":1853:2044   */\n      swap3\n      swap2\n      pop\n      pop\n      jump\t// out\n        /* \"#utility.yul\":2050:2460   */\n    tag_15:\n        /* \"#utility.yul\":2090:2097   */\n      0x00\n        /* \"#utility.yul\":2113:2133   */\n      tag_55\n        /* \"#utility.yul\":2131:2132   */\n      dup3\n        /* \"#utility.yul\":2113:2133   */\n      tag_22\n      jump\t// in\n    tag_55:\n        /* \"#utility.yul\":2108:2133   */\n      swap2\n      pop\n        /* \"#utility.yul\":2147:2167   */\n      tag_56\n        /* \"#utility.yul\":2165:2166   */\n      dup4\n        /* \"#utility.yul\":2147:2167   */\n      tag_22\n      jump\t// in\n    tag_56:\n        /* \"#utility.yul\":2142:2167   */\n      swap3\n      pop\n        /* \"#utility.yul\":2202:2203   */\n      dup3\n        /* \"#utility.yul\":2199:2200   */\n      dup3\n        /* \"#utility.yul\":2195:2204   */\n      mul\n        /* \"#utility.yul\":2224:2254   */\n      tag_57\n        /* \"#utility.yul\":2242:2253   */\n      dup2\n        /* \"#utility.yul\":2224:2254   */\n      tag_22\n      jump\t// in\n    tag_57:\n        /* \"#utility.yul\":2213:2254   */\n      swap2\n      pop\n        /* \"#utility.yul\":2403:2404   */\n      dup3\n        /* \"#utility.yul\":2394:2401   */\n      dup3\n        /* \"#utility.yul\":2390:2405   */\n      div\n        /* \"#utility.yul\":2387:2388   */\n      dup5\n        /* \"#utility.yul\":2384:2406   */\n      eq\n        /* \"#utility.yul\":2364:2365   */\n      dup4\n        /* \"#utility.yul\":2357:2366   */\n      iszero\n        /* \"#utility.yul\":2337:2420   */\n      or\n        /* \"#utility.yul\":2314:2453   */\n      tag_58\n      jumpi\n        /* \"#utility.yul\":2433:2451   */\n      tag_59\n      tag_26\n      jump\t// in\n    tag_59:\n        /* \"#utility.yul\":2314:2453   */\n    tag_58:\n        /* \"#utility.yul\":2098:2460   */\n      pop\n        /* \"#utility.yul\":2050:2460   */\n      swap3\n      swap2\n      pop\n      pop\n      jump\t// out\n        /* \"#utility.yul\":2466:2646   */\n    tag_27:\n        /* \"#utility.yul\":2514:2591   */\n      0x4e487b7100000000000000000000000000000000000000000000000000000000\n        /* \"#utility.yul\":2511:2512   */\n      0x00\n        /* \"#utility.yul\":2504:2592   */\n      mstore\n        /* \"#utility.yul\":2611:2615   */\n      0x12\n        /* \"#utility.yul\":2608:2609   */\n      0x04\n        /* \"#utility.yul\":2601:2616   */\n      mstore\n        /* \"#utility.yul\":2635:2639   */\n      0x24\n        /* \"#utility.yul\":2632:2633   */\n      0x00\n        /* \"#utility.yul\":2625:2640   */\n      revert\n        /* \"#utility.yul\":2652:2837   */\n    tag_18:\n        /* \"#utility.yul\":2692:2693   */\n      0x00\n        /* \"#utility.yul\":2709:2729   */\n      tag_62\n        /* \"#utility.yul\":2727:2728   */\n      dup3\n        /* \"#utility.yul\":2709:2729   */\n      tag_22\n      jump\t// in\n    tag_62:\n        /* \"#utility.yul\":2704:2729   */\n      swap2\n      pop\n        /* \"#utility.yul\":2743:2763   */\n      tag_63\n        /* \"#utility.yul\":2761:2762   */\n      dup4\n        /* \"#utility.yul\":2743:2763   */\n      tag_22\n      jump\t// in\n    tag_63:\n        /* \"#utility.yul\":2738:2763   */\n      swap3\n      pop\n        /* \"#utility.yul\":2782:2783   */\n      dup3\n        /* \"#utility.yul\":2772:2807   */\n      tag_64\n      jumpi\n        /* \"#utility.yul\":2787:2805   */\n      tag_65\n      tag_27\n      jump\t// in\n    tag_65:\n        /* \"#utility.yul\":2772:2807   */\n    tag_64:\n        /* \"#utility.yul\":2829:2830   */\n      dup3\n        /* \"#utility.yul\":2826:2827   */\n      dup3\n        /* \"#utility.yul\":2822:2831   */\n      div\n        /* \"#utility.yul\":2817:2831   */\n      swap1\n      pop\n        /* \"#utility.yul\":2652:2837   */\n      swap3\n      swap2\n      pop\n      pop\n      jump\t// out\n\n    auxdata: 0xa26469706673582212201b4cc198394c32fac0cc3a6663798a40520f4d0d5614fc1a1d7e6c2afb6da36f64736f6c63430008220033\n}\n",
				"bytecode": {
					"linkReferences": {},
					"object": "6080604052348015600e575f5ffd5b506102958061001c5f395ff3fe608060405234801561000f575f5ffd5b5060043610610029575f3560e01c8063e015c62a1461002d575b5f5ffd5b610047600480360381019061004291906100e9565b61005d565b6040516100549190610148565b60405180910390f35b5f5f83606461006c919061018e565b90505f83606461007c919061018e565b90505f61271082848961008f91906101c1565b61009991906101c1565b6100a3919061022f565b90508093505050509392505050565b5f5ffd5b5f819050919050565b6100c8816100b6565b81146100d2575f5ffd5b50565b5f813590506100e3816100bf565b92915050565b5f5f5f60608486031215610100576100ff6100b2565b5b5f61010d868287016100d5565b935050602061011e868287016100d5565b925050604061012f868287016100d5565b9150509250925092565b610142816100b6565b82525050565b5f60208201905061015b5f830184610139565b92915050565b7f4e487b71000000000000000000000000000000000000000000000000000000005f52601160045260245ffd5b5f610198826100b6565b91506101a3836100b6565b92508282019050808211156101bb576101ba610161565b5b92915050565b5f6101cb826100b6565b91506101d6836100b6565b92508282026101e4816100b6565b915082820484148315176101fb576101fa610161565b5b5092915050565b7f4e487b71000000000000000000000000000000000000000000000000000000005f52601260045260245ffd5b5f610239826100b6565b9150610244836100b6565b92508261025457610253610202565b5b82820490509291505056fea26469706673582212201b4cc198394c32fac0cc3a6663798a40520f4d0d5614fc1a1d7e6c2afb6da36f64736f6c63430008220033",
					"opcodes": "PUSH1 0x80 PUSH1 0x40 MSTORE CALLVALUE DUP1 ISZERO PUSH1 0xE JUMPI PUSH0 PUSH0 REVERT JUMPDEST POP PUSH2 0x295 DUP1 PUSH2 0x1C PUSH0 CODECOPY PUSH0 RETURN INVALID PUSH1 0x80 PUSH1 0x40 MSTORE CALLVALUE DUP1 ISZERO PUSH2 0xF JUMPI PUSH0 PUSH0 REVERT JUMPDEST POP PUSH1 0x4 CALLDATASIZE LT PUSH2 0x29 JUMPI PUSH0 CALLDATALOAD PUSH1 0xE0 SHR DUP1 PUSH4 0xE015C62A EQ PUSH2 0x2D JUMPI JUMPDEST PUSH0 PUSH0 REVERT JUMPDEST PUSH2 0x47 PUSH1 0x4 DUP1 CALLDATASIZE SUB DUP2 ADD SWAP1 PUSH2 0x42 SWAP2 SWAP1 PUSH2 0xE9 JUMP JUMPDEST PUSH2 0x5D JUMP JUMPDEST PUSH1 0x40 MLOAD PUSH2 0x54 SWAP2 SWAP1 PUSH2 0x148 JUMP JUMPDEST PUSH1 0x40 MLOAD DUP1 SWAP2 SUB SWAP1 RETURN JUMPDEST PUSH0 PUSH0 DUP4 PUSH1 0x64 PUSH2 0x6C SWAP2 SWAP1 PUSH2 0x18E JUMP JUMPDEST SWAP1 POP PUSH0 DUP4 PUSH1 0x64 PUSH2 0x7C SWAP2 SWAP1 PUSH2 0x18E JUMP JUMPDEST SWAP1 POP PUSH0 PUSH2 0x2710 DUP3 DUP5 DUP10 PUSH2 0x8F SWAP2 SWAP1 PUSH2 0x1C1 JUMP JUMPDEST PUSH2 0x99 SWAP2 SWAP1 PUSH2 0x1C1 JUMP JUMPDEST PUSH2 0xA3 SWAP2 SWAP1 PUSH2 0x22F JUMP JUMPDEST SWAP1 POP DUP1 SWAP4 POP POP POP POP SWAP4 SWAP3 POP POP POP JUMP JUMPDEST PUSH0 PUSH0 REVERT JUMPDEST PUSH0 DUP2 SWAP1 POP SWAP2 SWAP1 POP JUMP JUMPDEST PUSH2 0xC8 DUP2 PUSH2 0xB6 JUMP JUMPDEST DUP2 EQ PUSH2 0xD2 JUMPI PUSH0 PUSH0 REVERT JUMPDEST POP JUMP JUMPDEST PUSH0 DUP2 CALLDATALOAD SWAP1 POP PUSH2 0xE3 DUP2 PUSH2 0xBF JUMP JUMPDEST SWAP3 SWAP2 POP POP JUMP JUMPDEST PUSH0 PUSH0 PUSH0 PUSH1 0x60 DUP5 DUP7 SUB SLT ISZERO PUSH2 0x100 JUMPI PUSH2 0xFF PUSH2 0xB2 JUMP JUMPDEST JUMPDEST PUSH0 PUSH2 0x10D DUP7 DUP3 DUP8 ADD PUSH2 0xD5 JUMP JUMPDEST SWAP4 POP POP PUSH1 0x20 PUSH2 0x11E DUP7 DUP3 DUP8 ADD PUSH2 0xD5 JUMP JUMPDEST SWAP3 POP POP PUSH1 0x40 PUSH2 0x12F DUP7 DUP3 DUP8 ADD PUSH2 0xD5 JUMP JUMPDEST SWAP2 POP POP SWAP3 POP SWAP3 POP SWAP3 JUMP JUMPDEST PUSH2 0x142 DUP2 PUSH2 0xB6 JUMP JUMPDEST DUP3 MSTORE POP POP JUMP JUMPDEST PUSH0 PUSH1 0x20 DUP3 ADD SWAP1 POP PUSH2 0x15B PUSH0 DUP4 ADD DUP5 PUSH2 0x139 JUMP JUMPDEST SWAP3 SWAP2 POP POP JUMP JUMPDEST PUSH32 0x4E487B7100000000000000000000000000000000000000000000000000000000 PUSH0 MSTORE PUSH1 0x11 PUSH1 0x4 MSTORE PUSH1 0x24 PUSH0 REVERT JUMPDEST PUSH0 PUSH2 0x198 DUP3 PUSH2 0xB6 JUMP JUMPDEST SWAP2 POP PUSH2 0x1A3 DUP4 PUSH2 0xB6 JUMP JUMPDEST SWAP3 POP DUP3 DUP3 ADD SWAP1 POP DUP1 DUP3 GT ISZERO PUSH2 0x1BB JUMPI PUSH2 0x1BA PUSH2 0x161 JUMP JUMPDEST JUMPDEST SWAP3 SWAP2 POP POP JUMP JUMPDEST PUSH0 PUSH2 0x1CB DUP3 PUSH2 0xB6 JUMP JUMPDEST SWAP2 POP PUSH2 0x1D6 DUP4 PUSH2 0xB6 JUMP JUMPDEST SWAP3 POP DUP3 DUP3 MUL PUSH2 0x1E4 DUP2 PUSH2 0xB6 JUMP JUMPDEST SWAP2 POP DUP3 DUP3 DIV DUP5 EQ DUP4 ISZERO OR PUSH2 0x1FB JUMPI PUSH2 0x1FA PUSH2 0x161 JUMP JUMPDEST JUMPDEST POP SWAP3 SWAP2 POP POP JUMP JUMPDEST PUSH32 0x4E487B7100000000000000000000000000000000000000000000000000000000 PUSH0 MSTORE PUSH1 0x12 PUSH1 0x4 MSTORE PUSH1 0x24 PUSH0 REVERT JUMPDEST PUSH0 PUSH2 0x239 DUP3 PUSH2 0xB6 JUMP JUMPDEST SWAP2 POP PUSH2 0x244 DUP4 PUSH2 0xB6 JUMP JUMPDEST SWAP3 POP DUP3 PUSH2 0x254 JUMPI PUSH2 0x253 PUSH2 0x202 JUMP JUMPDEST JUMPDEST DUP3 DUP3 DIV SWAP1 POP SWAP3 SWAP2 POP POP JUMP INVALID LOG2 PUSH5 0x6970667358 0x22 SLT KECCAK256 SHL 0x4C 0xC1 SWAP9 CODECOPY 0x4C ORIGIN STATICCALL 0xC0 0xCC GASPRICE PUSH7 0x63798A40520F4D 0xD JUMP EQ 0xFC BYTE SAR PUSH31 0x6C2AFB6DA36F64736F6C634300082200330000000000000000000000000000 "
				},
				"gasEstimates": {
					"creation": {
						"codeDepositCost": "132200",
						"executionCost": "175",
						"totalCost": "132375"
					},
					"external": {
						"calculatePrice(uint256,uint256,uint256)": "infinite"
					}
				},
				"methodIdentifiers": {
					"calculatePrice(uint256,uint256,uint256)": "e015c62a"
				}
			},
			"storageLayout": {
				"storage": [],
				"types": null
			},
			"userdoc": {
				"kind": "user",
				"methods": {},
				"version": 1
			}
		}
	}
}