{
	"PalengkeCalcu.sol": {
		"PalengkeCalculator": {
			"abi": [
				{
					"inputs": [
						{
							"internalType": "uint256",
							"name": "_pricePerUnit",
							"type": "uint256"
						},
						{
							"internalType": "uint256",
							"name": "_quantity",
							"type": "uint256"
						}
					],
					"name": "addOrder",
					"outputs": [],
					"stateMutability": "nonpayable",
					"type": "function"
				},
				{
					"inputs": [
						{
							"internalType": "uint256",
							"name": "_totalCost",
							"type": "uint256"
						},
						{
							"internalType": "uint256",
							"name": "_discountPercent",
							"type": "uint256"
						}
					],
					"name": "applyDiscount",
					"outputs": [
						{
							"internalType": "uint256",
							"name": "",
							"type": "uint256"
						}
					],
					"stateMutability": "pure",
					"type": "function"
				},
				{
					"inputs": [
						{
							"internalType": "uint256",
							"name": "_totalCost",
							"type": "uint256"
						},
						{
							"internalType": "uint256",
							"name": "_payment",
							"type": "uint256"
						}
					],
					"name": "calculateChange",
					"outputs": [
						{
							"internalType": "uint256",
							"name": "",
							"type": "uint256"
						}
					],
					"stateMutability": "pure",
					"type": "function"
				},
				{
					"inputs": [],
					"name": "calculateGrandTotal",
					"outputs": [
						{
							"internalType": "uint256",
							"name": "",
							"type": "uint256"
						}
					],
					"stateMutability": "view",
					"type": "function"
				},
				{
					"inputs": [
						{
							"internalType": "uint256",
							"name": "_pricePerUnit",
							"type": "uint256"
						},
						{
							"internalType": "uint256",
							"name": "_quantity",
							"type": "uint256"
						}
					],
					"name": "calculateTotal",
					"outputs": [
						{
							"internalType": "uint256",
							"name": "",
							"type": "uint256"
						}
					],
					"stateMutability": "pure",
					"type": "function"
				},
				{
					"inputs": [
						{
							"internalType": "uint256",
							"name": "",
							"type": "uint256"
						}
					],
					"name": "prices",
					"outputs": [
						{
							"internalType": "uint256",
							"name": "",
							"type": "uint256"
						}
					],
					"stateMutability": "view",
					"type": "function"
				},
				{
					"inputs": [
						{
							"internalType": "uint256",
							"name": "",
							"type": "uint256"
						}
					],
					"name": "quantities",
					"outputs": [
						{
							"internalType": "uint256",
							"name": "",
							"type": "uint256"
						}
					],
					"stateMutability": "view",
					"type": "function"
				},
				{
					"inputs": [
						{
							"internalType": "uint256",
							"name": "_totalCost",
							"type": "uint256"
						},
						{
							"internalType": "uint256",
							"name": "_groupSize",
							"type": "uint256"
						}
					],
					"name": "splitBill",
					"outputs": [
						{
							"internalType": "uint256",
							"name": "",
							"type": "uint256"
						}
					],
					"stateMutability": "pure",
					"type": "function"
				}
			],
			"devdoc": {
				"kind": "dev",
				"methods": {},
				"version": 1
			},
			"evm": {
				"assembly": "    /* \"PalengkeCalcu.sol\":60:1541  contract PalengkeCalculator {... */\n  mstore(0x40, 0x80)\n  callvalue\n  dup1\n  iszero\n  tag_1\n  jumpi\n  revert(0x00, 0x00)\ntag_1:\n  pop\n  dataSize(sub_0)\n  dup1\n  dataOffset(sub_0)\n  0x00\n  codecopy\n  0x00\n  return\nstop\n\nsub_0: assembly {\n        /* \"PalengkeCalcu.sol\":60:1541  contract PalengkeCalculator {... */\n      mstore(0x40, 0x80)\n      callvalue\n      dup1\n      iszero\n      tag_1\n      jumpi\n      revert(0x00, 0x00)\n    tag_1:\n      pop\n      jumpi(tag_2, lt(calldatasize, 0x04))\n      shr(0xe0, calldataload(0x00))\n      dup1\n      0xbc31c1c1\n      gt\n      tag_11\n      jumpi\n      dup1\n      0xbc31c1c1\n      eq\n      tag_7\n      jumpi\n      dup1\n      0xbe075c4f\n      eq\n      tag_8\n      jumpi\n      dup1\n      0xc6bac7c6\n      eq\n      tag_9\n      jumpi\n      dup1\n      0xf28db6c4\n      eq\n      tag_10\n      jumpi\n      jump(tag_2)\n    tag_11:\n      dup1\n      0x5aa2e98b\n      eq\n      tag_3\n      jumpi\n      dup1\n      0x7944b6d2\n      eq\n      tag_4\n      jumpi\n      dup1\n      0x92742644\n      eq\n      tag_5\n      jumpi\n      dup1\n      0xa4125403\n      eq\n      tag_6\n      jumpi\n    tag_2:\n      revert(0x00, 0x00)\n        /* \"PalengkeCalcu.sol\":1293:1538  function splitBill(uint256 _totalCost, uint256 _groupSize)... */\n    tag_3:\n      tag_12\n      0x04\n      dup1\n      calldatasize\n      sub\n      dup2\n      add\n      swap1\n      tag_13\n      swap2\n      swap1\n      tag_14\n      jump\t// in\n    tag_13:\n      tag_15\n      jump\t// in\n    tag_12:\n      mload(0x40)\n      tag_16\n      swap2\n      swap1\n      tag_17\n      jump\t// in\n    tag_16:\n      mload(0x40)\n      dup1\n      swap2\n      sub\n      swap1\n      return\n        /* \"PalengkeCalcu.sol\":1001:1285  function applyDiscount(uint256 _totalCost, uint256 _discountPercent)... */\n    tag_4:\n      tag_18\n      0x04\n      dup1\n      calldatasize\n      sub\n      dup2\n      add\n      swap1\n      tag_19\n      swap2\n      swap1\n      tag_14\n      jump\t// in\n    tag_19:\n      tag_20\n      jump\t// in\n    tag_18:\n      mload(0x40)\n      tag_21\n      swap2\n      swap1\n      tag_17\n      jump\t// in\n    tag_21:\n      mload(0x40)\n      dup1\n      swap2\n      sub\n      swap1\n      return\n        /* \"PalengkeCalcu.sol\":507:746  function calculateGrandTotal() public view returns (uint256) {... */\n    tag_5:\n      tag_22\n      tag_23\n      jump\t// in\n    tag_22:\n      mload(0x40)\n      tag_24\n      swap2\n      swap1\n      tag_17\n      jump\t// in\n    tag_24:\n      mload(0x40)\n      dup1\n      swap2\n      sub\n      swap1\n      return\n        /* \"PalengkeCalcu.sol\":127:154  uint256[] public quantities */\n    tag_6:\n      tag_25\n      0x04\n      dup1\n      calldatasize\n      sub\n      dup2\n      add\n      swap1\n      tag_26\n      swap2\n      swap1\n      tag_27\n      jump\t// in\n    tag_26:\n      tag_28\n      jump\t// in\n    tag_25:\n      mload(0x40)\n      tag_29\n      swap2\n      swap1\n      tag_17\n      jump\t// in\n    tag_29:\n      mload(0x40)\n      dup1\n      swap2\n      sub\n      swap1\n      return\n        /* \"PalengkeCalcu.sol\":97:120  uint256[] public prices */\n    tag_7:\n      tag_30\n      0x04\n      dup1\n      calldatasize\n      sub\n      dup2\n      add\n      swap1\n      tag_31\n      swap2\n      swap1\n      tag_27\n      jump\t// in\n    tag_31:\n      tag_32\n      jump\t// in\n    tag_30:\n      mload(0x40)\n      tag_33\n      swap2\n      swap1\n      tag_17\n      jump\t// in\n    tag_33:\n      mload(0x40)\n      dup1\n      swap2\n      sub\n      swap1\n      return\n        /* \"PalengkeCalcu.sol\":754:993  function calculateChange(uint256 _totalCost, uint256 _payment)... */\n    tag_8:\n      tag_34\n      0x04\n      dup1\n      calldatasize\n      sub\n      dup2\n      add\n      swap1\n      tag_35\n      swap2\n      swap1\n      tag_14\n      jump\t// in\n    tag_35:\n      tag_36\n      jump\t// in\n    tag_34:\n      mload(0x40)\n      tag_37\n      swap2\n      swap1\n      tag_17\n      jump\t// in\n    tag_37:\n      mload(0x40)\n      dup1\n      swap2\n      sub\n      swap1\n      return\n        /* \"PalengkeCalcu.sol\":320:499  function calculateTotal(uint256 _pricePerUnit, uint256 _quantity)... */\n    tag_9:\n      tag_38\n      0x04\n      dup1\n      calldatasize\n      sub\n      dup2\n      add\n      swap1\n      tag_39\n      swap2\n      swap1\n      tag_14\n      jump\t// in\n    tag_39:\n      tag_40\n      jump\t// in\n    tag_38:\n      mload(0x40)\n      tag_41\n      swap2\n      swap1\n      tag_17\n      jump\t// in\n    tag_41:\n      mload(0x40)\n      dup1\n      swap2\n      sub\n      swap1\n      return\n        /* \"PalengkeCalcu.sol\":163:312  function addOrder(uint256 _pricePerUnit, uint256 _quantity) public {... */\n    tag_10:\n      tag_42\n      0x04\n      dup1\n      calldatasize\n      sub\n      dup2\n      add\n      swap1\n      tag_43\n      swap2\n      swap1\n      tag_14\n      jump\t// in\n    tag_43:\n      tag_44\n      jump\t// in\n    tag_42:\n      stop\n        /* \"PalengkeCalcu.sol\":1293:1538  function splitBill(uint256 _totalCost, uint256 _groupSize)... */\n    tag_15:\n        /* \"PalengkeCalcu.sol\":1400:1407  uint256 */\n      0x00\n        /* \"PalengkeCalcu.sol\":1446:1447  0 */\n      0x00\n        /* \"PalengkeCalcu.sol\":1433:1443  _groupSize */\n      dup3\n        /* \"PalengkeCalcu.sol\":1433:1447  _groupSize > 0 */\n      gt\n        /* \"PalengkeCalcu.sol\":1425:1489  require(_groupSize > 0, \"Group size must be greater than zero.\") */\n      tag_46\n      jumpi\n      mload(0x40)\n      0x08c379a000000000000000000000000000000000000000000000000000000000\n      dup2\n      mstore\n      0x04\n      add\n      tag_47\n      swap1\n      tag_48\n      jump\t// in\n    tag_47:\n      mload(0x40)\n      dup1\n      swap2\n      sub\n      swap1\n      revert\n    tag_46:\n        /* \"PalengkeCalcu.sol\":1520:1530  _groupSize */\n      dup2\n        /* \"PalengkeCalcu.sol\":1507:1517  _totalCost */\n      dup4\n        /* \"PalengkeCalcu.sol\":1507:1530  _totalCost / _groupSize */\n      tag_49\n      swap2\n      swap1\n      tag_50\n      jump\t// in\n    tag_49:\n        /* \"PalengkeCalcu.sol\":1500:1530  return _totalCost / _groupSize */\n      swap1\n      pop\n        /* \"PalengkeCalcu.sol\":1293:1538  function splitBill(uint256 _totalCost, uint256 _groupSize)... */\n      swap3\n      swap2\n      pop\n      pop\n      jump\t// out\n        /* \"PalengkeCalcu.sol\":1001:1285  function applyDiscount(uint256 _totalCost, uint256 _discountPercent)... */\n    tag_20:\n        /* \"PalengkeCalcu.sol\":1118:1125  uint256 */\n      0x00\n        /* \"PalengkeCalcu.sol\":1171:1174  100 */\n      0x64\n        /* \"PalengkeCalcu.sol\":1151:1167  _discountPercent */\n      dup3\n        /* \"PalengkeCalcu.sol\":1151:1174  _discountPercent <= 100 */\n      gt\n      iszero\n        /* \"PalengkeCalcu.sol\":1143:1207  require(_discountPercent <= 100, \"Invalid discount percentage.\") */\n      tag_52\n      jumpi\n      mload(0x40)\n      0x08c379a000000000000000000000000000000000000000000000000000000000\n      dup2\n      mstore\n      0x04\n      add\n      tag_53\n      swap1\n      tag_54\n      jump\t// in\n    tag_53:\n      mload(0x40)\n      dup1\n      swap2\n      sub\n      swap1\n      revert\n    tag_52:\n        /* \"PalengkeCalcu.sol\":1273:1276  100 */\n      0x64\n        /* \"PalengkeCalcu.sol\":1253:1269  _discountPercent */\n      dup3\n        /* \"PalengkeCalcu.sol\":1240:1250  _totalCost */\n      dup5\n        /* \"PalengkeCalcu.sol\":1240:1269  _totalCost * _discountPercent */\n      tag_55\n      swap2\n      swap1\n      tag_56\n      jump\t// in\n    tag_55:\n        /* \"PalengkeCalcu.sol\":1239:1276  (_totalCost * _discountPercent) / 100 */\n      tag_57\n      swap2\n      swap1\n      tag_50\n      jump\t// in\n    tag_57:\n        /* \"PalengkeCalcu.sol\":1225:1235  _totalCost */\n      dup4\n        /* \"PalengkeCalcu.sol\":1225:1277  _totalCost - ((_totalCost * _discountPercent) / 100) */\n      tag_58\n      swap2\n      swap1\n      tag_59\n      jump\t// in\n    tag_58:\n        /* \"PalengkeCalcu.sol\":1218:1277  return _totalCost - ((_totalCost * _discountPercent) / 100) */\n      swap1\n      pop\n        /* \"PalengkeCalcu.sol\":1001:1285  function applyDiscount(uint256 _totalCost, uint256 _discountPercent)... */\n      swap3\n      swap2\n      pop\n      pop\n      jump\t// out\n        /* \"PalengkeCalcu.sol\":507:746  function calculateGrandTotal() public view returns (uint256) {... */\n    tag_23:\n        /* \"PalengkeCalcu.sol\":559:566  uint256 */\n      0x00\n        /* \"PalengkeCalcu.sol\":579:592  uint256 total */\n      0x00\n        /* \"PalengkeCalcu.sol\":595:596  0 */\n      0x00\n        /* \"PalengkeCalcu.sol\":579:596  uint256 total = 0 */\n      swap1\n      pop\n        /* \"PalengkeCalcu.sol\":614:623  uint256 i */\n      0x00\n        /* \"PalengkeCalcu.sol\":626:627  0 */\n      0x00\n        /* \"PalengkeCalcu.sol\":614:627  uint256 i = 0 */\n      swap1\n      pop\n        /* \"PalengkeCalcu.sol\":609:714  for (uint256 i = 0; i < prices.length; i++) {... */\n    tag_61:\n        /* \"PalengkeCalcu.sol\":633:639  prices */\n      0x00\n        /* \"PalengkeCalcu.sol\":633:646  prices.length */\n      dup1\n      sload\n      swap1\n      pop\n        /* \"PalengkeCalcu.sol\":629:630  i */\n      dup2\n        /* \"PalengkeCalcu.sol\":629:646  i < prices.length */\n      lt\n        /* \"PalengkeCalcu.sol\":609:714  for (uint256 i = 0; i < prices.length; i++) {... */\n      iszero\n      tag_62\n      jumpi\n        /* \"PalengkeCalcu.sol\":689:699  quantities */\n      0x01\n        /* \"PalengkeCalcu.sol\":700:701  i */\n      dup2\n        /* \"PalengkeCalcu.sol\":689:702  quantities[i] */\n      dup2\n      sload\n      dup2\n      lt\n      tag_64\n      jumpi\n      tag_65\n      tag_66\n      jump\t// in\n    tag_65:\n    tag_64:\n      swap1\n      0x00\n      mstore\n      keccak256(0x00, 0x20)\n      add\n      sload\n        /* \"PalengkeCalcu.sol\":677:683  prices */\n      0x00\n        /* \"PalengkeCalcu.sol\":684:685  i */\n      dup3\n        /* \"PalengkeCalcu.sol\":677:686  prices[i] */\n      dup2\n      sload\n      dup2\n      lt\n      tag_68\n      jumpi\n      tag_69\n      tag_66\n      jump\t// in\n    tag_69:\n    tag_68:\n      swap1\n      0x00\n      mstore\n      keccak256(0x00, 0x20)\n      add\n      sload\n        /* \"PalengkeCalcu.sol\":677:702  prices[i] * quantities[i] */\n      tag_71\n      swap2\n      swap1\n      tag_56\n      jump\t// in\n    tag_71:\n        /* \"PalengkeCalcu.sol\":668:702  total += prices[i] * quantities[i] */\n      dup3\n      tag_72\n      swap2\n      swap1\n      tag_73\n      jump\t// in\n    tag_72:\n      swap2\n      pop\n        /* \"PalengkeCalcu.sol\":648:651  i++ */\n      dup1\n      dup1\n      0x01\n      add\n      swap2\n      pop\n      pop\n        /* \"PalengkeCalcu.sol\":609:714  for (uint256 i = 0; i < prices.length; i++) {... */\n      jump(tag_61)\n    tag_62:\n      pop\n        /* \"PalengkeCalcu.sol\":733:738  total */\n      dup1\n        /* \"PalengkeCalcu.sol\":726:738  return total */\n      swap2\n      pop\n      pop\n        /* \"PalengkeCalcu.sol\":507:746  function calculateGrandTotal() public view returns (uint256) {... */\n      swap1\n      jump\t// out\n        /* \"PalengkeCalcu.sol\":127:154  uint256[] public quantities */\n    tag_28:\n      0x01\n      dup2\n      dup2\n      sload\n      dup2\n      lt\n      tag_74\n      jumpi\n      0x00\n      dup1\n      revert\n    tag_74:\n      swap1\n      0x00\n      mstore\n      keccak256(0x00, 0x20)\n      add\n      0x00\n      swap2\n      pop\n      swap1\n      pop\n      sload\n      dup2\n      jump\t// out\n        /* \"PalengkeCalcu.sol\":97:120  uint256[] public prices */\n    tag_32:\n      0x00\n      dup2\n      dup2\n      sload\n      dup2\n      lt\n      tag_76\n      jumpi\n      0x00\n      dup1\n      revert\n    tag_76:\n      swap1\n      0x00\n      mstore\n      keccak256(0x00, 0x20)\n      add\n      0x00\n      swap2\n      pop\n      swap1\n      pop\n      sload\n      dup2\n      jump\t// out\n        /* \"PalengkeCalcu.sol\":754:993  function calculateChange(uint256 _totalCost, uint256 _payment)... */\n    tag_36:\n        /* \"PalengkeCalcu.sol\":865:872  uint256 */\n      0x00\n        /* \"PalengkeCalcu.sol\":910:920  _totalCost */\n      dup3\n        /* \"PalengkeCalcu.sol\":898:906  _payment */\n      dup3\n        /* \"PalengkeCalcu.sol\":898:920  _payment >= _totalCost */\n      lt\n      iszero\n        /* \"PalengkeCalcu.sol\":890:946  require(_payment >= _totalCost, \"Insufficient payment.\") */\n      tag_79\n      jumpi\n      mload(0x40)\n      0x08c379a000000000000000000000000000000000000000000000000000000000\n      dup2\n      mstore\n      0x04\n      add\n      tag_80\n      swap1\n      tag_81\n      jump\t// in\n    tag_80:\n      mload(0x40)\n      dup1\n      swap2\n      sub\n      swap1\n      revert\n    tag_79:\n        /* \"PalengkeCalcu.sol\":975:985  _totalCost */\n      dup3\n        /* \"PalengkeCalcu.sol\":964:972  _payment */\n      dup3\n        /* \"PalengkeCalcu.sol\":964:985  _payment - _totalCost */\n      tag_82\n      swap2\n      swap1\n      tag_59\n      jump\t// in\n    tag_82:\n        /* \"PalengkeCalcu.sol\":957:985  return _payment - _totalCost */\n      swap1\n      pop\n        /* \"PalengkeCalcu.sol\":754:993  function calculateChange(uint256 _totalCost, uint256 _payment)... */\n      swap3\n      swap2\n      pop\n      pop\n      jump\t// out\n        /* \"PalengkeCalcu.sol\":320:499  function calculateTotal(uint256 _pricePerUnit, uint256 _quantity)... */\n    tag_40:\n        /* \"PalengkeCalcu.sol\":434:441  uint256 */\n      0x00\n        /* \"PalengkeCalcu.sol\":482:491  _quantity */\n      dup2\n        /* \"PalengkeCalcu.sol\":466:479  _pricePerUnit */\n      dup4\n        /* \"PalengkeCalcu.sol\":466:491  _pricePerUnit * _quantity */\n      tag_84\n      swap2\n      swap1\n      tag_56\n      jump\t// in\n    tag_84:\n        /* \"PalengkeCalcu.sol\":459:491  return _pricePerUnit * _quantity */\n      swap1\n      pop\n        /* \"PalengkeCalcu.sol\":320:499  function calculateTotal(uint256 _pricePerUnit, uint256 _quantity)... */\n      swap3\n      swap2\n      pop\n      pop\n      jump\t// out\n        /* \"PalengkeCalcu.sol\":163:312  function addOrder(uint256 _pricePerUnit, uint256 _quantity) public {... */\n    tag_44:\n        /* \"PalengkeCalcu.sol\":241:247  prices */\n      0x00\n        /* \"PalengkeCalcu.sol\":253:266  _pricePerUnit */\n      dup3\n        /* \"PalengkeCalcu.sol\":241:267  prices.push(_pricePerUnit) */\n      swap1\n      dup1\n      0x01\n      dup2\n      sload\n      add\n      dup1\n      dup3\n      sstore\n      dup1\n      swap2\n      pop\n      pop\n      0x01\n      swap1\n      sub\n      swap1\n      0x00\n      mstore\n      keccak256(0x00, 0x20)\n      add\n      0x00\n      swap1\n      swap2\n      swap1\n      swap2\n      swap1\n      swap2\n      pop\n      sstore\n        /* \"PalengkeCalcu.sol\":278:288  quantities */\n      0x01\n        /* \"PalengkeCalcu.sol\":294:303  _quantity */\n      dup2\n        /* \"PalengkeCalcu.sol\":278:304  quantities.push(_quantity) */\n      swap1\n      dup1\n      0x01\n      dup2\n      sload\n      add\n      dup1\n      dup3\n      sstore\n      dup1\n      swap2\n      pop\n      pop\n      0x01\n      swap1\n      sub\n      swap1\n      0x00\n      mstore\n      keccak256(0x00, 0x20)\n      add\n      0x00\n      swap1\n      swap2\n      swap1\n      swap2\n      swap1\n      swap2\n      pop\n      sstore\n        /* \"PalengkeCalcu.sol\":163:312  function addOrder(uint256 _pricePerUnit, uint256 _quantity) public {... */\n      pop\n      pop\n      jump\t// out\n        /* \"#utility.yul\":88:205   */\n    tag_89:\n        /* \"#utility.yul\":197:198   */\n      0x00\n        /* \"#utility.yul\":194:195   */\n      0x00\n        /* \"#utility.yul\":187:199   */\n      revert\n        /* \"#utility.yul\":334:411   */\n    tag_91:\n        /* \"#utility.yul\":371:378   */\n      0x00\n        /* \"#utility.yul\":400:405   */\n      dup2\n        /* \"#utility.yul\":389:405   */\n      swap1\n      pop\n        /* \"#utility.yul\":334:411   */\n      swap2\n      swap1\n      pop\n      jump\t// out\n        /* \"#utility.yul\":417:539   */\n    tag_92:\n        /* \"#utility.yul\":490:514   */\n      tag_110\n        /* \"#utility.yul\":508:513   */\n      dup2\n        /* \"#utility.yul\":490:514   */\n      tag_91\n      jump\t// in\n    tag_110:\n        /* \"#utility.yul\":483:488   */\n      dup2\n        /* \"#utility.yul\":480:515   */\n      eq\n        /* \"#utility.yul\":470:533   */\n      tag_111\n      jumpi\n        /* \"#utility.yul\":529:530   */\n      0x00\n        /* \"#utility.yul\":526:527   */\n      0x00\n        /* \"#utility.yul\":519:531   */\n      revert\n        /* \"#utility.yul\":470:533   */\n    tag_111:\n        /* \"#utility.yul\":417:539   */\n      pop\n      jump\t// out\n        /* \"#utility.yul\":545:684   */\n    tag_93:\n        /* \"#utility.yul\":591:596   */\n      0x00\n        /* \"#utility.yul\":629:635   */\n      dup2\n        /* \"#utility.yul\":616:636   */\n      calldataload\n        /* \"#utility.yul\":607:636   */\n      swap1\n      pop\n        /* \"#utility.yul\":645:678   */\n      tag_113\n        /* \"#utility.yul\":672:677   */\n      dup2\n        /* \"#utility.yul\":645:678   */\n      tag_92\n      jump\t// in\n    tag_113:\n        /* \"#utility.yul\":545:684   */\n      swap3\n      swap2\n      pop\n      pop\n      jump\t// out\n        /* \"#utility.yul\":690:1164   */\n    tag_14:\n        /* \"#utility.yul\":758:764   */\n      0x00\n        /* \"#utility.yul\":766:772   */\n      0x00\n        /* \"#utility.yul\":815:817   */\n      0x40\n        /* \"#utility.yul\":803:812   */\n      dup4\n        /* \"#utility.yul\":794:801   */\n      dup6\n        /* \"#utility.yul\":790:813   */\n      sub\n        /* \"#utility.yul\":786:818   */\n      slt\n        /* \"#utility.yul\":783:902   */\n      iszero\n      tag_115\n      jumpi\n        /* \"#utility.yul\":821:900   */\n      tag_116\n      tag_89\n      jump\t// in\n    tag_116:\n        /* \"#utility.yul\":783:902   */\n    tag_115:\n        /* \"#utility.yul\":941:942   */\n      0x00\n        /* \"#utility.yul\":966:1019   */\n      tag_117\n        /* \"#utility.yul\":1011:1018   */\n      dup6\n        /* \"#utility.yul\":1002:1008   */\n      dup3\n        /* \"#utility.yul\":991:1000   */\n      dup7\n        /* \"#utility.yul\":987:1009   */\n      add\n        /* \"#utility.yul\":966:1019   */\n      tag_93\n      jump\t// in\n    tag_117:\n        /* \"#utility.yul\":956:1019   */\n      swap3\n      pop\n        /* \"#utility.yul\":912:1029   */\n      pop\n        /* \"#utility.yul\":1068:1070   */\n      0x20\n        /* \"#utility.yul\":1094:1147   */\n      tag_118\n        /* \"#utility.yul\":1139:1146   */\n      dup6\n        /* \"#utility.yul\":1130:1136   */\n      dup3\n        /* \"#utility.yul\":1119:1128   */\n      dup7\n        /* \"#utility.yul\":1115:1137   */\n      add\n        /* \"#utility.yul\":1094:1147   */\n      tag_93\n      jump\t// in\n    tag_118:\n        /* \"#utility.yul\":1084:1147   */\n      swap2\n      pop\n        /* \"#utility.yul\":1039:1157   */\n      pop\n        /* \"#utility.yul\":690:1164   */\n      swap3\n      pop\n      swap3\n      swap1\n      pop\n      jump\t// out\n        /* \"#utility.yul\":1170:1288   */\n    tag_94:\n        /* \"#utility.yul\":1257:1281   */\n      tag_120\n        /* \"#utility.yul\":1275:1280   */\n      dup2\n        /* \"#utility.yul\":1257:1281   */\n      tag_91\n      jump\t// in\n    tag_120:\n        /* \"#utility.yul\":1252:1255   */\n      dup3\n        /* \"#utility.yul\":1245:1282   */\n      mstore\n        /* \"#utility.yul\":1170:1288   */\n      pop\n      pop\n      jump\t// out\n        /* \"#utility.yul\":1294:1516   */\n    tag_17:\n        /* \"#utility.yul\":1387:1391   */\n      0x00\n        /* \"#utility.yul\":1425:1427   */\n      0x20\n        /* \"#utility.yul\":1414:1423   */\n      dup3\n        /* \"#utility.yul\":1410:1428   */\n      add\n        /* \"#utility.yul\":1402:1428   */\n      swap1\n      pop\n        /* \"#utility.yul\":1438:1509   */\n      tag_122\n        /* \"#utility.yul\":1506:1507   */\n      0x00\n        /* \"#utility.yul\":1495:1504   */\n      dup4\n        /* \"#utility.yul\":1491:1508   */\n      add\n        /* \"#utility.yul\":1482:1488   */\n      dup5\n        /* \"#utility.yul\":1438:1509   */\n      tag_94\n      jump\t// in\n    tag_122:\n        /* \"#utility.yul\":1294:1516   */\n      swap3\n      swap2\n      pop\n      pop\n      jump\t// out\n        /* \"#utility.yul\":1522:1851   */\n    tag_27:\n        /* \"#utility.yul\":1581:1587   */\n      0x00\n        /* \"#utility.yul\":1630:1632   */\n      0x20\n        /* \"#utility.yul\":1618:1627   */\n      dup3\n        /* \"#utility.yul\":1609:1616   */\n      dup5\n        /* \"#utility.yul\":1605:1628   */\n      sub\n        /* \"#utility.yul\":1601:1633   */\n      slt\n        /* \"#utility.yul\":1598:1717   */\n      iszero\n      tag_124\n      jumpi\n        /* \"#utility.yul\":1636:1715   */\n      tag_125\n      tag_89\n      jump\t// in\n    tag_125:\n        /* \"#utility.yul\":1598:1717   */\n    tag_124:\n        /* \"#utility.yul\":1756:1757   */\n      0x00\n        /* \"#utility.yul\":1781:1834   */\n      tag_126\n        /* \"#utility.yul\":1826:1833   */\n      dup5\n        /* \"#utility.yul\":1817:1823   */\n      dup3\n        /* \"#utility.yul\":1806:1815   */\n      dup6\n        /* \"#utility.yul\":1802:1824   */\n      add\n        /* \"#utility.yul\":1781:1834   */\n      tag_93\n      jump\t// in\n    tag_126:\n        /* \"#utility.yul\":1771:1834   */\n      swap2\n      pop\n        /* \"#utility.yul\":1727:1844   */\n      pop\n        /* \"#utility.yul\":1522:1851   */\n      swap3\n      swap2\n      pop\n      pop\n      jump\t// out\n        /* \"#utility.yul\":1857:2026   */\n    tag_95:\n        /* \"#utility.yul\":1941:1952   */\n      0x00\n        /* \"#utility.yul\":1975:1981   */\n      dup3\n        /* \"#utility.yul\":1970:1973   */\n      dup3\n        /* \"#utility.yul\":1963:1982   */\n      mstore\n        /* \"#utility.yul\":2015:2019   */\n      0x20\n        /* \"#utility.yul\":2010:2013   */\n      dup3\n        /* \"#utility.yul\":2006:2020   */\n      add\n        /* \"#utility.yul\":1991:2020   */\n      swap1\n      pop\n        /* \"#utility.yul\":1857:2026   */\n      swap3\n      swap2\n      pop\n      pop\n      jump\t// out\n        /* \"#utility.yul\":2032:2256   */\n    tag_96:\n        /* \"#utility.yul\":2172:2206   */\n      0x47726f75702073697a65206d7573742062652067726561746572207468616e20\n        /* \"#utility.yul\":2168:2169   */\n      0x00\n        /* \"#utility.yul\":2160:2166   */\n      dup3\n        /* \"#utility.yul\":2156:2170   */\n      add\n        /* \"#utility.yul\":2149:2207   */\n      mstore\n        /* \"#utility.yul\":2241:2248   */\n      0x7a65726f2e000000000000000000000000000000000000000000000000000000\n        /* \"#utility.yul\":2236:2238   */\n      0x20\n        /* \"#utility.yul\":2228:2234   */\n      dup3\n        /* \"#utility.yul\":2224:2239   */\n      add\n        /* \"#utility.yul\":2217:2249   */\n      mstore\n        /* \"#utility.yul\":2032:2256   */\n      pop\n      jump\t// out\n        /* \"#utility.yul\":2262:2628   */\n    tag_97:\n        /* \"#utility.yul\":2404:2407   */\n      0x00\n        /* \"#utility.yul\":2425:2492   */\n      tag_130\n        /* \"#utility.yul\":2489:2491   */\n      0x25\n        /* \"#utility.yul\":2484:2487   */\n      dup4\n        /* \"#utility.yul\":2425:2492   */\n      tag_95\n      jump\t// in\n    tag_130:\n        /* \"#utility.yul\":2418:2492   */\n      swap2\n      pop\n        /* \"#utility.yul\":2501:2594   */\n      tag_131\n        /* \"#utility.yul\":2590:2593   */\n      dup3\n        /* \"#utility.yul\":2501:2594   */\n      tag_96\n      jump\t// in\n    tag_131:\n        /* \"#utility.yul\":2619:2621   */\n      0x40\n        /* \"#utility.yul\":2614:2617   */\n      dup3\n        /* \"#utility.yul\":2610:2622   */\n      add\n        /* \"#utility.yul\":2603:2622   */\n      swap1\n      pop\n        /* \"#utility.yul\":2262:2628   */\n      swap2\n      swap1\n      pop\n      jump\t// out\n        /* \"#utility.yul\":2634:3053   */\n    tag_48:\n        /* \"#utility.yul\":2800:2804   */\n      0x00\n        /* \"#utility.yul\":2838:2840   */\n      0x20\n        /* \"#utility.yul\":2827:2836   */\n      dup3\n        /* \"#utility.yul\":2823:2841   */\n      add\n        /* \"#utility.yul\":2815:2841   */\n      swap1\n      pop\n        /* \"#utility.yul\":2887:2896   */\n      dup2\n        /* \"#utility.yul\":2881:2885   */\n      dup2\n        /* \"#utility.yul\":2877:2897   */\n      sub\n        /* \"#utility.yul\":2873:2874   */\n      0x00\n        /* \"#utility.yul\":2862:2871   */\n      dup4\n        /* \"#utility.yul\":2858:2875   */\n      add\n        /* \"#utility.yul\":2851:2898   */\n      mstore\n        /* \"#utility.yul\":2915:3046   */\n      tag_133\n        /* \"#utility.yul\":3041:3045   */\n      dup2\n        /* \"#utility.yul\":2915:3046   */\n      tag_97\n      jump\t// in\n    tag_133:\n        /* \"#utility.yul\":2907:3046   */\n      swap1\n      pop\n        /* \"#utility.yul\":2634:3053   */\n      swap2\n      swap1\n      pop\n      jump\t// out\n        /* \"#utility.yul\":3059:3239   */\n    tag_98:\n        /* \"#utility.yul\":3107:3184   */\n      0x4e487b7100000000000000000000000000000000000000000000000000000000\n        /* \"#utility.yul\":3104:3105   */\n      0x00\n        /* \"#utility.yul\":3097:3185   */\n      mstore\n        /* \"#utility.yul\":3204:3208   */\n      0x12\n        /* \"#utility.yul\":3201:3202   */\n      0x04\n        /* \"#utility.yul\":3194:3209   */\n      mstore\n        /* \"#utility.yul\":3228:3232   */\n      0x24\n        /* \"#utility.yul\":3225:3226   */\n      0x00\n        /* \"#utility.yul\":3218:3233   */\n      revert\n        /* \"#utility.yul\":3245:3425   */\n    tag_99:\n        /* \"#utility.yul\":3293:3370   */\n      0x4e487b7100000000000000000000000000000000000000000000000000000000\n        /* \"#utility.yul\":3290:3291   */\n      0x00\n        /* \"#utility.yul\":3283:3371   */\n      mstore\n        /* \"#utility.yul\":3390:3394   */\n      0x11\n        /* \"#utility.yul\":3387:3388   */\n      0x04\n        /* \"#utility.yul\":3380:3395   */\n      mstore\n        /* \"#utility.yul\":3414:3418   */\n      0x24\n        /* \"#utility.yul\":3411:3412   */\n      0x00\n        /* \"#utility.yul\":3404:3419   */\n      revert\n        /* \"#utility.yul\":3431:3616   */\n    tag_50:\n        /* \"#utility.yul\":3471:3472   */\n      0x00\n        /* \"#utility.yul\":3488:3508   */\n      tag_137\n        /* \"#utility.yul\":3506:3507   */\n      dup3\n        /* \"#utility.yul\":3488:3508   */\n      tag_91\n      jump\t// in\n    tag_137:\n        /* \"#utility.yul\":3483:3508   */\n      swap2\n      pop\n        /* \"#utility.yul\":3522:3542   */\n      tag_138\n        /* \"#utility.yul\":3540:3541   */\n      dup4\n        /* \"#utility.yul\":3522:3542   */\n      tag_91\n      jump\t// in\n    tag_138:\n        /* \"#utility.yul\":3517:3542   */\n      swap3\n      pop\n        /* \"#utility.yul\":3561:3562   */\n      dup3\n        /* \"#utility.yul\":3551:3586   */\n      tag_139\n      jumpi\n        /* \"#utility.yul\":3566:3584   */\n      tag_140\n      tag_98\n      jump\t// in\n    tag_140:\n        /* \"#utility.yul\":3551:3586   */\n    tag_139:\n        /* \"#utility.yul\":3608:3609   */\n      dup3\n        /* \"#utility.yul\":3605:3606   */\n      dup3\n        /* \"#utility.yul\":3601:3610   */\n      div\n        /* \"#utility.yul\":3596:3610   */\n      swap1\n      pop\n        /* \"#utility.yul\":3431:3616   */\n      swap3\n      swap2\n      pop\n      pop\n      jump\t// out\n        /* \"#utility.yul\":3622:3800   */\n    tag_100:\n        /* \"#utility.yul\":3762:3792   */\n      0x496e76616c696420646973636f756e742070657263656e746167652e00000000\n        /* \"#utility.yul\":3758:3759   */\n      0x00\n        /* \"#utility.yul\":3750:3756   */\n      dup3\n        /* \"#utility.yul\":3746:3760   */\n      add\n        /* \"#utility.yul\":3739:3793   */\n      mstore\n        /* \"#utility.yul\":3622:3800   */\n      pop\n      jump\t// out\n        /* \"#utility.yul\":3806:4172   */\n    tag_101:\n        /* \"#utility.yul\":3948:3951   */\n      0x00\n        /* \"#utility.yul\":3969:4036   */\n      tag_143\n        /* \"#utility.yul\":4033:4035   */\n      0x1c\n        /* \"#utility.yul\":4028:4031   */\n      dup4\n        /* \"#utility.yul\":3969:4036   */\n      tag_95\n      jump\t// in\n    tag_143:\n        /* \"#utility.yul\":3962:4036   */\n      swap2\n      pop\n        /* \"#utility.yul\":4045:4138   */\n      tag_144\n        /* \"#utility.yul\":4134:4137   */\n      dup3\n        /* \"#utility.yul\":4045:4138   */\n      tag_100\n      jump\t// in\n    tag_144:\n        /* \"#utility.yul\":4163:4165   */\n      0x20\n        /* \"#utility.yul\":4158:4161   */\n      dup3\n        /* \"#utility.yul\":4154:4166   */\n      add\n        /* \"#utility.yul\":4147:4166   */\n      swap1\n      pop\n        /* \"#utility.yul\":3806:4172   */\n      swap2\n      swap1\n      pop\n      jump\t// out\n        /* \"#utility.yul\":4178:4597   */\n    tag_54:\n        /* \"#utility.yul\":4344:4348   */\n      0x00\n        /* \"#utility.yul\":4382:4384   */\n      0x20\n        /* \"#utility.yul\":4371:4380   */\n      dup3\n        /* \"#utility.yul\":4367:4385   */\n      add\n        /* \"#utility.yul\":4359:4385   */\n      swap1\n      pop\n        /* \"#utility.yul\":4431:4440   */\n      dup2\n        /* \"#utility.yul\":4425:4429   */\n      dup2\n        /* \"#utility.yul\":4421:4441   */\n      sub\n        /* \"#utility.yul\":4417:4418   */\n      0x00\n        /* \"#utility.yul\":4406:4415   */\n      dup4\n        /* \"#utility.yul\":4402:4419   */\n      add\n        /* \"#utility.yul\":4395:4442   */\n      mstore\n        /* \"#utility.yul\":4459:4590   */\n      tag_146\n        /* \"#utility.yul\":4585:4589   */\n      dup2\n        /* \"#utility.yul\":4459:4590   */\n      tag_101\n      jump\t// in\n    tag_146:\n        /* \"#utility.yul\":4451:4590   */\n      swap1\n      pop\n        /* \"#utility.yul\":4178:4597   */\n      swap2\n      swap1\n      pop\n      jump\t// out\n        /* \"#utility.yul\":4603:5013   */\n    tag_56:\n        /* \"#utility.yul\":4643:4650   */\n      0x00\n        /* \"#utility.yul\":4666:4686   */\n      tag_148\n        /* \"#utility.yul\":4684:4685   */\n      dup3\n        /* \"#utility.yul\":4666:4686   */\n      tag_91\n      jump\t// in\n    tag_148:\n        /* \"#utility.yul\":4661:4686   */\n      swap2\n      pop\n        /* \"#utility.yul\":4700:4720   */\n      tag_149\n        /* \"#utility.yul\":4718:4719   */\n      dup4\n        /* \"#utility.yul\":4700:4720   */\n      tag_91\n      jump\t// in\n    tag_149:\n        /* \"#utility.yul\":4695:4720   */\n      swap3\n      pop\n        /* \"#utility.yul\":4755:4756   */\n      dup3\n        /* \"#utility.yul\":4752:4753   */\n      dup3\n        /* \"#utility.yul\":4748:4757   */\n      mul\n        /* \"#utility.yul\":4777:4807   */\n      tag_150\n        /* \"#utility.yul\":4795:4806   */\n      dup2\n        /* \"#utility.yul\":4777:4807   */\n      tag_91\n      jump\t// in\n    tag_150:\n        /* \"#utility.yul\":4766:4807   */\n      swap2\n      pop\n        /* \"#utility.yul\":4956:4957   */\n      dup3\n        /* \"#utility.yul\":4947:4954   */\n      dup3\n        /* \"#utility.yul\":4943:4958   */\n      div\n        /* \"#utility.yul\":4940:4941   */\n      dup5\n        /* \"#utility.yul\":4937:4959   */\n      eq\n        /* \"#utility.yul\":4917:4918   */\n      dup4\n        /* \"#utility.yul\":4910:4919   */\n      iszero\n        /* \"#utility.yul\":4890:4973   */\n      or\n        /* \"#utility.yul\":4867:5006   */\n      tag_151\n      jumpi\n        /* \"#utility.yul\":4986:5004   */\n      tag_152\n      tag_99\n      jump\t// in\n    tag_152:\n        /* \"#utility.yul\":4867:5006   */\n    tag_151:\n        /* \"#utility.yul\":4651:5013   */\n      pop\n        /* \"#utility.yul\":4603:5013   */\n      swap3\n      swap2\n      pop\n      pop\n      jump\t// out\n        /* \"#utility.yul\":5019:5213   */\n    tag_59:\n        /* \"#utility.yul\":5059:5063   */\n      0x00\n        /* \"#utility.yul\":5079:5099   */\n      tag_154\n        /* \"#utility.yul\":5097:5098   */\n      dup3\n        /* \"#utility.yul\":5079:5099   */\n      tag_91\n      jump\t// in\n    tag_154:\n        /* \"#utility.yul\":5074:5099   */\n      swap2\n      pop\n        /* \"#utility.yul\":5113:5133   */\n      tag_155\n        /* \"#utility.yul\":5131:5132   */\n      dup4\n        /* \"#utility.yul\":5113:5133   */\n      tag_91\n      jump\t// in\n    tag_155:\n        /* \"#utility.yul\":5108:5133   */\n      swap3\n      pop\n        /* \"#utility.yul\":5157:5158   */\n      dup3\n        /* \"#utility.yul\":5154:5155   */\n      dup3\n        /* \"#utility.yul\":5150:5159   */\n      sub\n        /* \"#utility.yul\":5142:5159   */\n      swap1\n      pop\n        /* \"#utility.yul\":5181:5182   */\n      dup2\n        /* \"#utility.yul\":5175:5179   */\n      dup2\n        /* \"#utility.yul\":5172:5183   */\n      gt\n        /* \"#utility.yul\":5169:5206   */\n      iszero\n      tag_156\n      jumpi\n        /* \"#utility.yul\":5186:5204   */\n      tag_157\n      tag_99\n      jump\t// in\n    tag_157:\n        /* \"#utility.yul\":5169:5206   */\n    tag_156:\n        /* \"#utility.yul\":5019:5213   */\n      swap3\n      swap2\n      pop\n      pop\n      jump\t// out\n        /* \"#utility.yul\":5219:5399   */\n    tag_66:\n        /* \"#utility.yul\":5267:5344   */\n      0x4e487b7100000000000000000000000000000000000000000000000000000000\n        /* \"#utility.yul\":5264:5265   */\n      0x00\n        /* \"#utility.yul\":5257:5345   */\n      mstore\n        /* \"#utility.yul\":5364:5368   */\n      0x32\n        /* \"#utility.yul\":5361:5362   */\n      0x04\n        /* \"#utility.yul\":5354:5369   */\n      mstore\n        /* \"#utility.yul\":5388:5392   */\n      0x24\n        /* \"#utility.yul\":5385:5386   */\n      0x00\n        /* \"#utility.yul\":5378:5393   */\n      revert\n        /* \"#utility.yul\":5405:5596   */\n    tag_73:\n        /* \"#utility.yul\":5445:5448   */\n      0x00\n        /* \"#utility.yul\":5464:5484   */\n      tag_160\n        /* \"#utility.yul\":5482:5483   */\n      dup3\n        /* \"#utility.yul\":5464:5484   */\n      tag_91\n      jump\t// in\n    tag_160:\n        /* \"#utility.yul\":5459:5484   */\n      swap2\n      pop\n        /* \"#utility.yul\":5498:5518   */\n      tag_161\n        /* \"#utility.yul\":5516:5517   */\n      dup4\n        /* \"#utility.yul\":5498:5518   */\n      tag_91\n      jump\t// in\n    tag_161:\n        /* \"#utility.yul\":5493:5518   */\n      swap3\n      pop\n        /* \"#utility.yul\":5541:5542   */\n      dup3\n        /* \"#utility.yul\":5538:5539   */\n      dup3\n        /* \"#utility.yul\":5534:5543   */\n      add\n        /* \"#utility.yul\":5527:5543   */\n      swap1\n      pop\n        /* \"#utility.yul\":5562:5565   */\n      dup1\n        /* \"#utility.yul\":5559:5560   */\n      dup3\n        /* \"#utility.yul\":5556:5566   */\n      gt\n        /* \"#utility.yul\":5553:5589   */\n      iszero\n      tag_162\n      jumpi\n        /* \"#utility.yul\":5569:5587   */\n      tag_163\n      tag_99\n      jump\t// in\n    tag_163:\n        /* \"#utility.yul\":5553:5589   */\n    tag_162:\n        /* \"#utility.yul\":5405:5596   */\n      swap3\n      swap2\n      pop\n      pop\n      jump\t// out\n        /* \"#utility.yul\":5602:5773   */\n    tag_102:\n        /* \"#utility.yul\":5742:5765   */\n      0x496e73756666696369656e74207061796d656e742e0000000000000000000000\n        /* \"#utility.yul\":5738:5739   */\n      0x00\n        /* \"#utility.yul\":5730:5736   */\n      dup3\n        /* \"#utility.yul\":5726:5740   */\n      add\n        /* \"#utility.yul\":5719:5766   */\n      mstore\n        /* \"#utility.yul\":5602:5773   */\n      pop\n      jump\t// out\n        /* \"#utility.yul\":5779:6145   */\n    tag_103:\n        /* \"#utility.yul\":5921:5924   */\n      0x00\n        /* \"#utility.yul\":5942:6009   */\n      tag_166\n        /* \"#utility.yul\":6006:6008   */\n      0x15\n        /* \"#utility.yul\":6001:6004   */\n      dup4\n        /* \"#utility.yul\":5942:6009   */\n      tag_95\n      jump\t// in\n    tag_166:\n        /* \"#utility.yul\":5935:6009   */\n      swap2\n      pop\n        /* \"#utility.yul\":6018:6111   */\n      tag_167\n        /* \"#utility.yul\":6107:6110   */\n      dup3\n        /* \"#utility.yul\":6018:6111   */\n      tag_102\n      jump\t// in\n    tag_167:\n        /* \"#utility.yul\":6136:6138   */\n      0x20\n        /* \"#utility.yul\":6131:6134   */\n      dup3\n        /* \"#utility.yul\":6127:6139   */\n      add\n        /* \"#utility.yul\":6120:6139   */\n      swap1\n      pop\n        /* \"#utility.yul\":5779:6145   */\n      swap2\n      swap1\n      pop\n      jump\t// out\n        /* \"#utility.yul\":6151:6570   */\n    tag_81:\n        /* \"#utility.yul\":6317:6321   */\n      0x00\n        /* \"#utility.yul\":6355:6357   */\n      0x20\n        /* \"#utility.yul\":6344:6353   */\n      dup3\n        /* \"#utility.yul\":6340:6358   */\n      add\n        /* \"#utility.yul\":6332:6358   */\n      swap1\n      pop\n        /* \"#utility.yul\":6404:6413   */\n      dup2\n        /* \"#utility.yul\":6398:6402   */\n      dup2\n        /* \"#utility.yul\":6394:6414   */\n      sub\n        /* \"#utility.yul\":6390:6391   */\n      0x00\n        /* \"#utility.yul\":6379:6388   */\n      dup4\n        /* \"#utility.yul\":6375:6392   */\n      add\n        /* \"#utility.yul\":6368:6415   */\n      mstore\n        /* \"#utility.yul\":6432:6563   */\n      tag_169\n        /* \"#utility.yul\":6558:6562   */\n      dup2\n        /* \"#utility.yul\":6432:6563   */\n      tag_103\n      jump\t// in\n    tag_169:\n        /* \"#utility.yul\":6424:6563   */\n      swap1\n      pop\n        /* \"#utility.yul\":6151:6570   */\n      swap2\n      swap1\n      pop\n      jump\t// out\n\n    auxdata: 0xa264697066735822122024929d6645831682d633894f0e5c086661bea76d32b234402aa6758f64d9ff1064736f6c634300081f0033\n}\n",
				"bytecode": {
					"linkReferences": {},
					"object": "6080604052348015600e575f5ffd5b506107eb8061001c5f395ff3fe608060405234801561000f575f5ffd5b5060043610610086575f3560e01c8063bc31c1c111610059578063bc31c1c114610138578063be075c4f14610168578063c6bac7c614610198578063f28db6c4146101c857610086565b80635aa2e98b1461008a5780637944b6d2146100ba57806392742644146100ea578063a412540314610108575b5f5ffd5b6100a4600480360381019061009f9190610458565b6101e4565b6040516100b191906104a5565b60405180910390f35b6100d460048036038101906100cf9190610458565b61023b565b6040516100e191906104a5565b60405180910390f35b6100f26102ab565b6040516100ff91906104a5565b60405180910390f35b610122600480360381019061011d91906104be565b610326565b60405161012f91906104a5565b60405180910390f35b610152600480360381019061014d91906104be565b610346565b60405161015f91906104a5565b60405180910390f35b610182600480360381019061017d9190610458565b610365565b60405161018f91906104a5565b60405180910390f35b6101b260048036038101906101ad9190610458565b6103bd565b6040516101bf91906104a5565b60405180910390f35b6101e260048036038101906101dd9190610458565b6103d2565b005b5f5f8211610227576040517f08c379a000000000000000000000000000000000000000000000000000000000815260040161021e90610569565b60405180910390fd5b818361023391906105e1565b905092915050565b5f6064821115610280576040517f08c379a00000000000000000000000000000000000000000000000000000000081526004016102779061065b565b60405180910390fd5b6064828461028e9190610679565b61029891906105e1565b836102a391906106ba565b905092915050565b5f5f5f90505f5f90505b5f8054905081101561031e57600181815481106102d5576102d46106ed565b5b905f5260205f2001545f82815481106102f1576102f06106ed565b5b905f5260205f2001546103049190610679565b8261030f919061071a565b915080806001019150506102b5565b508091505090565b60018181548110610335575f80fd5b905f5260205f20015f915090505481565b5f8181548110610354575f80fd5b905f5260205f20015f915090505481565b5f828210156103a9576040517f08c379a00000000000000000000000000000000000000000000000000000000081526004016103a090610797565b60405180910390fd5b82826103b591906106ba565b905092915050565b5f81836103ca9190610679565b905092915050565b5f82908060018154018082558091505060019003905f5260205f20015f9091909190915055600181908060018154018082558091505060019003905f5260205f20015f90919091909150555050565b5f5ffd5b5f819050919050565b61043781610425565b8114610441575f5ffd5b50565b5f813590506104528161042e565b92915050565b5f5f6040838503121561046e5761046d610421565b5b5f61047b85828601610444565b925050602061048c85828601610444565b9150509250929050565b61049f81610425565b82525050565b5f6020820190506104b85f830184610496565b92915050565b5f602082840312156104d3576104d2610421565b5b5f6104e084828501610444565b91505092915050565b5f82825260208201905092915050565b7f47726f75702073697a65206d7573742062652067726561746572207468616e205f8201527f7a65726f2e000000000000000000000000000000000000000000000000000000602082015250565b5f6105536025836104e9565b915061055e826104f9565b604082019050919050565b5f6020820190508181035f83015261058081610547565b9050919050565b7f4e487b71000000000000000000000000000000000000000000000000000000005f52601260045260245ffd5b7f4e487b71000000000000000000000000000000000000000000000000000000005f52601160045260245ffd5b5f6105eb82610425565b91506105f683610425565b92508261060657610605610587565b5b828204905092915050565b7f496e76616c696420646973636f756e742070657263656e746167652e000000005f82015250565b5f610645601c836104e9565b915061065082610611565b602082019050919050565b5f6020820190508181035f83015261067281610639565b9050919050565b5f61068382610425565b915061068e83610425565b925082820261069c81610425565b915082820484148315176106b3576106b26105b4565b5b5092915050565b5f6106c482610425565b91506106cf83610425565b92508282039050818111156106e7576106e66105b4565b5b92915050565b7f4e487b71000000000000000000000000000000000000000000000000000000005f52603260045260245ffd5b5f61072482610425565b915061072f83610425565b9250828201905080821115610747576107466105b4565b5b92915050565b7f496e73756666696369656e74207061796d656e742e00000000000000000000005f82015250565b5f6107816015836104e9565b915061078c8261074d565b602082019050919050565b5f6020820190508181035f8301526107ae81610775565b905091905056fea264697066735822122024929d6645831682d633894f0e5c086661bea76d32b234402aa6758f64d9ff1064736f6c634300081f0033",
					"opcodes": "PUSH1 0x80 PUSH1 0x40 MSTORE CALLVALUE DUP1 ISZERO PUSH1 0xE JUMPI PUSH0 PUSH0 REVERT JUMPDEST POP PUSH2 0x7EB DUP1 PUSH2 0x1C PUSH0 CODECOPY PUSH0 RETURN INVALID PUSH1 0x80 PUSH1 0x40 MSTORE CALLVALUE DUP1 ISZERO PUSH2 0xF JUMPI PUSH0 PUSH0 REVERT JUMPDEST POP PUSH1 0x4 CALLDATASIZE LT PUSH2 0x86 JUMPI PUSH0 CALLDATALOAD PUSH1 0xE0 SHR DUP1 PUSH4 0xBC31C1C1 GT PUSH2 0x59 JUMPI DUP1 PUSH4 0xBC31C1C1 EQ PUSH2 0x138 JUMPI DUP1 PUSH4 0xBE075C4F EQ PUSH2 0x168 JUMPI DUP1 PUSH4 0xC6BAC7C6 EQ PUSH2 0x198 JUMPI DUP1 PUSH4 0xF28DB6C4 EQ PUSH2 0x1C8 JUMPI PUSH2 0x86 JUMP JUMPDEST DUP1 PUSH4 0x5AA2E98B EQ PUSH2 0x8A JUMPI DUP1 PUSH4 0x7944B6D2 EQ PUSH2 0xBA JUMPI DUP1 PUSH4 0x92742644 EQ PUSH2 0xEA JUMPI DUP1 PUSH4 0xA4125403 EQ PUSH2 0x108 JUMPI JUMPDEST PUSH0 PUSH0 REVERT JUMPDEST PUSH2 0xA4 PUSH1 0x4 DUP1 CALLDATASIZE SUB DUP2 ADD SWAP1 PUSH2 0x9F SWAP2 SWAP1 PUSH2 0x458 JUMP JUMPDEST PUSH2 0x1E4 JUMP JUMPDEST PUSH1 0x40 MLOAD PUSH2 0xB1 SWAP2 SWAP1 PUSH2 0x4A5 JUMP JUMPDEST PUSH1 0x40 MLOAD DUP1 SWAP2 SUB SWAP1 RETURN JUMPDEST PUSH2 0xD4 PUSH1 0x4 DUP1 CALLDATASIZE SUB DUP2 ADD SWAP1 PUSH2 0xCF SWAP2 SWAP1 PUSH2 0x458 JUMP JUMPDEST PUSH2 0x23B JUMP JUMPDEST PUSH1 0x40 MLOAD PUSH2 0xE1 SWAP2 SWAP1 PUSH2 0x4A5 JUMP JUMPDEST PUSH1 0x40 MLOAD DUP1 SWAP2 SUB SWAP1 RETURN JUMPDEST PUSH2 0xF2 PUSH2 0x2AB JUMP JUMPDEST PUSH1 0x40 MLOAD PUSH2 0xFF SWAP2 SWAP1 PUSH2 0x4A5 JUMP JUMPDEST PUSH1 0x40 MLOAD DUP1 SWAP2 SUB SWAP1 RETURN JUMPDEST PUSH2 0x122 PUSH1 0x4 DUP1 CALLDATASIZE SUB DUP2 ADD SWAP1 PUSH2 0x11D SWAP2 SWAP1 PUSH2 0x4BE JUMP JUMPDEST PUSH2 0x326 JUMP JUMPDEST PUSH1 0x40 MLOAD PUSH2 0x12F SWAP2 SWAP1 PUSH2 0x4A5 JUMP JUMPDEST PUSH1 0x40 MLOAD DUP1 SWAP2 SUB SWAP1 RETURN JUMPDEST PUSH2 0x152 PUSH1 0x4 DUP1 CALLDATASIZE SUB DUP2 ADD SWAP1 PUSH2 0x14D SWAP2 SWAP1 PUSH2 0x4BE JUMP JUMPDEST PUSH2 0x346 JUMP JUMPDEST PUSH1 0x40 MLOAD PUSH2 0x15F SWAP2 SWAP1 PUSH2 0x4A5 JUMP JUMPDEST PUSH1 0x40 MLOAD DUP1 SWAP2 SUB SWAP1 RETURN JUMPDEST PUSH2 0x182 PUSH1 0x4 DUP1 CALLDATASIZE SUB DUP2 ADD SWAP1 PUSH2 0x17D SWAP2 SWAP1 PUSH2 0x458 JUMP JUMPDEST PUSH2 0x365 JUMP JUMPDEST PUSH1 0x40 MLOAD PUSH2 0x18F SWAP2 SWAP1 PUSH2 0x4A5 JUMP JUMPDEST PUSH1 0x40 MLOAD DUP1 SWAP2 SUB SWAP1 RETURN JUMPDEST PUSH2 0x1B2 PUSH1 0x4 DUP1 CALLDATASIZE SUB DUP2 ADD SWAP1 PUSH2 0x1AD SWAP2 SWAP1 PUSH2 0x458 JUMP JUMPDEST PUSH2 0x3BD JUMP JUMPDEST PUSH1 0x40 MLOAD PUSH2 0x1BF SWAP2 SWAP1 PUSH2 0x4A5 JUMP JUMPDEST PUSH1 0x40 MLOAD DUP1 SWAP2 SUB SWAP1 RETURN JUMPDEST PUSH2 0x1E2 PUSH1 0x4 DUP1 CALLDATASIZE SUB DUP2 ADD SWAP1 PUSH2 0x1DD SWAP2 SWAP1 PUSH2 0x458 JUMP JUMPDEST PUSH2 0x3D2 JUMP JUMPDEST STOP JUMPDEST PUSH0 PUSH0 DUP3 GT PUSH2 0x227 JUMPI PUSH1 0x40 MLOAD PUSH32 0x8C379A000000000000000000000000000000000000000000000000000000000 DUP2 MSTORE PUSH1 0x4 ADD PUSH2 0x21E SWAP1 PUSH2 0x569 JUMP JUMPDEST PUSH1 0x40 MLOAD DUP1 SWAP2 SUB SWAP1 REVERT JUMPDEST DUP2 DUP4 PUSH2 0x233 SWAP2 SWAP1 PUSH2 0x5E1 JUMP JUMPDEST SWAP1 POP SWAP3 SWAP2 POP POP JUMP JUMPDEST PUSH0 PUSH1 0x64 DUP3 GT ISZERO PUSH2 0x280 JUMPI PUSH1 0x40 MLOAD PUSH32 0x8C379A000000000000000000000000000000000000000000000000000000000 DUP2 MSTORE PUSH1 0x4 ADD PUSH2 0x277 SWAP1 PUSH2 0x65B JUMP JUMPDEST PUSH1 0x40 MLOAD DUP1 SWAP2 SUB SWAP1 REVERT JUMPDEST PUSH1 0x64 DUP3 DUP5 PUSH2 0x28E SWAP2 SWAP1 PUSH2 0x679 JUMP JUMPDEST PUSH2 0x298 SWAP2 SWAP1 PUSH2 0x5E1 JUMP JUMPDEST DUP4 PUSH2 0x2A3 SWAP2 SWAP1 PUSH2 0x6BA JUMP JUMPDEST SWAP1 POP SWAP3 SWAP2 POP POP JUMP JUMPDEST PUSH0 PUSH0 PUSH0 SWAP1 POP PUSH0 PUSH0 SWAP1 POP JUMPDEST PUSH0 DUP1 SLOAD SWAP1 POP DUP2 LT ISZERO PUSH2 0x31E JUMPI PUSH1 0x1 DUP2 DUP2 SLOAD DUP2 LT PUSH2 0x2D5 JUMPI PUSH2 0x2D4 PUSH2 0x6ED JUMP JUMPDEST JUMPDEST SWAP1 PUSH0 MSTORE PUSH1 0x20 PUSH0 KECCAK256 ADD SLOAD PUSH0 DUP3 DUP2 SLOAD DUP2 LT PUSH2 0x2F1 JUMPI PUSH2 0x2F0 PUSH2 0x6ED JUMP JUMPDEST JUMPDEST SWAP1 PUSH0 MSTORE PUSH1 0x20 PUSH0 KECCAK256 ADD SLOAD PUSH2 0x304 SWAP2 SWAP1 PUSH2 0x679 JUMP JUMPDEST DUP3 PUSH2 0x30F SWAP2 SWAP1 PUSH2 0x71A JUMP JUMPDEST SWAP2 POP DUP1 DUP1 PUSH1 0x1 ADD SWAP2 POP POP PUSH2 0x2B5 JUMP JUMPDEST POP DUP1 SWAP2 POP POP SWAP1 JUMP JUMPDEST PUSH1 0x1 DUP2 DUP2 SLOAD DUP2 LT PUSH2 0x335 JUMPI PUSH0 DUP1 REVERT JUMPDEST SWAP1 PUSH0 MSTORE PUSH1 0x20 PUSH0 KECCAK256 ADD PUSH0 SWAP2 POP SWAP1 POP SLOAD DUP2 JUMP JUMPDEST PUSH0 DUP2 DUP2 SLOAD DUP2 LT PUSH2 0x354 JUMPI PUSH0 DUP1 REVERT JUMPDEST SWAP1 PUSH0 MSTORE PUSH1 0x20 PUSH0 KECCAK256 ADD PUSH0 SWAP2 POP SWAP1 POP SLOAD DUP2 JUMP JUMPDEST PUSH0 DUP3 DUP3 LT ISZERO PUSH2 0x3A9 JUMPI PUSH1 0x40 MLOAD PUSH32 0x8C379A000000000000000000000000000000000000000000000000000000000 DUP2 MSTORE PUSH1 0x4 ADD PUSH2 0x3A0 SWAP1 PUSH2 0x797 JUMP JUMPDEST PUSH1 0x40 MLOAD DUP1 SWAP2 SUB SWAP1 REVERT JUMPDEST DUP3 DUP3 PUSH2 0x3B5 SWAP2 SWAP1 PUSH2 0x6BA JUMP JUMPDEST SWAP1 POP SWAP3 SWAP2 POP POP JUMP JUMPDEST PUSH0 DUP2 DUP4 PUSH2 0x3CA SWAP2 SWAP1 PUSH2 0x679 JUMP JUMPDEST SWAP1 POP SWAP3 SWAP2 POP POP JUMP JUMPDEST PUSH0 DUP3 SWAP1 DUP1 PUSH1 0x1 DUP2 SLOAD ADD DUP1 DUP3 SSTORE DUP1 SWAP2 POP POP PUSH1 0x1 SWAP1 SUB SWAP1 PUSH0 MSTORE PUSH1 0x20 PUSH0 KECCAK256 ADD PUSH0 SWAP1 SWAP2 SWAP1 SWAP2 SWAP1 SWAP2 POP SSTORE PUSH1 0x1 DUP2 SWAP1 DUP1 PUSH1 0x1 DUP2 SLOAD ADD DUP1 DUP3 SSTORE DUP1 SWAP2 POP POP PUSH1 0x1 SWAP1 SUB SWAP1 PUSH0 MSTORE PUSH1 0x20 PUSH0 KECCAK256 ADD PUSH0 SWAP1 SWAP2 SWAP1 SWAP2 SWAP1 SWAP2 POP SSTORE POP POP JUMP JUMPDEST PUSH0 PUSH0 REVERT JUMPDEST PUSH0 DUP2 SWAP1 POP SWAP2 SWAP1 POP JUMP JUMPDEST PUSH2 0x437 DUP2 PUSH2 0x425 JUMP JUMPDEST DUP2 EQ PUSH2 0x441 JUMPI PUSH0 PUSH0 REVERT JUMPDEST POP JUMP JUMPDEST PUSH0 DUP2 CALLDATALOAD SWAP1 POP PUSH2 0x452 DUP2 PUSH2 0x42E JUMP JUMPDEST SWAP3 SWAP2 POP POP JUMP JUMPDEST PUSH0 PUSH0 PUSH1 0x40 DUP4 DUP6 SUB SLT ISZERO PUSH2 0x46E JUMPI PUSH2 0x46D PUSH2 0x421 JUMP JUMPDEST JUMPDEST PUSH0 PUSH2 0x47B DUP6 DUP3 DUP7 ADD PUSH2 0x444 JUMP JUMPDEST SWAP3 POP POP PUSH1 0x20 PUSH2 0x48C DUP6 DUP3 DUP7 ADD PUSH2 0x444 JUMP JUMPDEST SWAP2 POP POP SWAP3 POP SWAP3 SWAP1 POP JUMP JUMPDEST PUSH2 0x49F DUP2 PUSH2 0x425 JUMP JUMPDEST DUP3 MSTORE POP POP JUMP JUMPDEST PUSH0 PUSH1 0x20 DUP3 ADD SWAP1 POP PUSH2 0x4B8 PUSH0 DUP4 ADD DUP5 PUSH2 0x496 JUMP JUMPDEST SWAP3 SWAP2 POP POP JUMP JUMPDEST PUSH0 PUSH1 0x20 DUP3 DUP5 SUB SLT ISZERO PUSH2 0x4D3 JUMPI PUSH2 0x4D2 PUSH2 0x421 JUMP JUMPDEST JUMPDEST PUSH0 PUSH2 0x4E0 DUP5 DUP3 DUP6 ADD PUSH2 0x444 JUMP JUMPDEST SWAP2 POP POP SWAP3 SWAP2 POP POP JUMP JUMPDEST PUSH0 DUP3 DUP3 MSTORE PUSH1 0x20 DUP3 ADD SWAP1 POP SWAP3 SWAP2 POP POP JUMP JUMPDEST PUSH32 0x47726F75702073697A65206D7573742062652067726561746572207468616E20 PUSH0 DUP3 ADD MSTORE PUSH32 0x7A65726F2E000000000000000000000000000000000000000000000000000000 PUSH1 0x20 DUP3 ADD MSTORE POP JUMP JUMPDEST PUSH0 PUSH2 0x553 PUSH1 0x25 DUP4 PUSH2 0x4E9 JUMP JUMPDEST SWAP2 POP PUSH2 0x55E DUP3 PUSH2 0x4F9 JUMP JUMPDEST PUSH1 0x40 DUP3 ADD SWAP1 POP SWAP2 SWAP1 POP JUMP JUMPDEST PUSH0 PUSH1 0x20 DUP3 ADD SWAP1 POP DUP2 DUP2 SUB PUSH0 DUP4 ADD MSTORE PUSH2 0x580 DUP2 PUSH2 0x547 JUMP JUMPDEST SWAP1 POP SWAP2 SWAP1 POP JUMP JUMPDEST PUSH32 0x4E487B7100000000000000000000000000000000000000000000000000000000 PUSH0 MSTORE PUSH1 0x12 PUSH1 0x4 MSTORE PUSH1 0x24 PUSH0 REVERT JUMPDEST PUSH32 0x4E487B7100000000000000000000000000000000000000000000000000000000 PUSH0 MSTORE PUSH1 0x11 PUSH1 0x4 MSTORE PUSH1 0x24 PUSH0 REVERT JUMPDEST PUSH0 PUSH2 0x5EB DUP3 PUSH2 0x425 JUMP JUMPDEST SWAP2 POP PUSH2 0x5F6 DUP4 PUSH2 0x425 JUMP JUMPDEST SWAP3 POP DUP3 PUSH2 0x606 JUMPI PUSH2 0x605 PUSH2 0x587 JUMP JUMPDEST JUMPDEST DUP3 DUP3 DIV SWAP1 POP SWAP3 SWAP2 POP POP JUMP JUMPDEST PUSH32 0x496E76616C696420646973636F756E742070657263656E746167652E00000000 PUSH0 DUP3 ADD MSTORE POP JUMP JUMPDEST PUSH0 PUSH2 0x645 PUSH1 0x1C DUP4 PUSH2 0x4E9 JUMP JUMPDEST SWAP2 POP PUSH2 0x650 DUP3 PUSH2 0x611 JUMP JUMPDEST PUSH1 0x20 DUP3 ADD SWAP1 POP SWAP2 SWAP1 POP JUMP JUMPDEST PUSH0 PUSH1 0x20 DUP3 ADD SWAP1 POP DUP2 DUP2 SUB PUSH0 DUP4 ADD MSTORE PUSH2 0x672 DUP2 PUSH2 0x639 JUMP JUMPDEST SWAP1 POP SWAP2 SWAP1 POP JUMP JUMPDEST PUSH0 PUSH2 0x683 DUP3 PUSH2 0x425 JUMP JUMPDEST SWAP2 POP PUSH2 0x68E DUP4 PUSH2 0x425 JUMP JUMPDEST SWAP3 POP DUP3 DUP3 MUL PUSH2 0x69C DUP2 PUSH2 0x425 JUMP JUMPDEST SWAP2 POP DUP3 DUP3 DIV DUP5 EQ DUP4 ISZERO OR PUSH2 0x6B3 JUMPI PUSH2 0x6B2 PUSH2 0x5B4 JUMP JUMPDEST JUMPDEST POP SWAP3 SWAP2 POP POP JUMP JUMPDEST PUSH0 PUSH2 0x6C4 DUP3 PUSH2 0x425 JUMP JUMPDEST SWAP2 POP PUSH2 0x6CF DUP4 PUSH2 0x425 JUMP JUMPDEST SWAP3 POP DUP3 DUP3 SUB SWAP1 POP DUP2 DUP2 GT ISZERO PUSH2 0x6E7 JUMPI PUSH2 0x6E6 PUSH2 0x5B4 JUMP JUMPDEST JUMPDEST SWAP3 SWAP2 POP POP JUMP JUMPDEST PUSH32 0x4E487B7100000000000000000000000000000000000000000000000000000000 PUSH0 MSTORE PUSH1 0x32 PUSH1 0x4 MSTORE PUSH1 0x24 PUSH0 REVERT JUMPDEST PUSH0 PUSH2 0x724 DUP3 PUSH2 0x425 JUMP JUMPDEST SWAP2 POP PUSH2 0x72F DUP4 PUSH2 0x425 JUMP JUMPDEST SWAP3 POP DUP3 DUP3 ADD SWAP1 POP DUP1 DUP3 GT ISZERO PUSH2 0x747 JUMPI PUSH2 0x746 PUSH2 0x5B4 JUMP JUMPDEST JUMPDEST SWAP3 SWAP2 POP POP JUMP JUMPDEST PUSH32 0x496E73756666696369656E74207061796D656E742E0000000000000000000000 PUSH0 DUP3 ADD MSTORE POP JUMP JUMPDEST PUSH0 PUSH2 0x781 PUSH1 0x15 DUP4 PUSH2 0x4E9 JUMP JUMPDEST SWAP2 POP PUSH2 0x78C DUP3 PUSH2 0x74D JUMP JUMPDEST PUSH1 0x20 DUP3 ADD SWAP1 POP SWAP2 SWAP1 POP JUMP JUMPDEST PUSH0 PUSH1 0x20 DUP3 ADD SWAP1 POP DUP2 DUP2 SUB PUSH0 DUP4 ADD MSTORE PUSH2 0x7AE DUP2 PUSH2 0x775 JUMP JUMPDEST SWAP1 POP SWAP2 SWAP1 POP JUMP INVALID LOG2 PUSH5 0x6970667358 0x22 SLT KECCAK256 0x24 SWAP3 SWAP14 PUSH7 0x45831682D63389 0x4F 0xE TLOAD ADDMOD PUSH7 0x61BEA76D32B234 BLOCKHASH 0x2A 0xA6 PUSH22 0x8F64D9FF1064736F6C634300081F0033000000000000 "
				},
				"gasEstimates": {
					"creation": {
						"codeDepositCost": "405400",
						"executionCost": "441",
						"totalCost": "405841"
					},
					"external": {
						"addOrder(uint256,uint256)": "infinite",
						"applyDiscount(uint256,uint256)": "infinite",
						"calculateChange(uint256,uint256)": "infinite",
						"calculateGrandTotal()": "infinite",
						"calculateTotal(uint256,uint256)": "infinite",
						"prices(uint256)": "infinite",
						"quantities(uint256)": "infinite",
						"splitBill(uint256,uint256)": "infinite"
					}
				},
				"methodIdentifiers": {
					"addOrder(uint256,uint256)": "f28db6c4",
					"applyDiscount(uint256,uint256)": "7944b6d2",
					"calculateChange(uint256,uint256)": "be075c4f",
					"calculateGrandTotal()": "92742644",
					"calculateTotal(uint256,uint256)": "c6bac7c6",
					"prices(uint256)": "bc31c1c1",
					"quantities(uint256)": "a4125403",
					"splitBill(uint256,uint256)": "5aa2e98b"
				}
			},
			"storageLayout": {
				"storage": [
					{
						"astId": 4,
						"contract": "PalengkeCalcu.sol:PalengkeCalculator",
						"label": "prices",
						"offset": 0,
						"slot": "0",
						"type": "t_array(t_uint256)dyn_storage"
					},
					{
						"astId": 7,
						"contract": "PalengkeCalcu.sol:PalengkeCalculator",
						"label": "quantities",
						"offset": 0,
						"slot": "1",
						"type": "t_array(t_uint256)dyn_storage"
					}
				],
				"types": {
					"t_array(t_uint256)dyn_storage": {
						"base": "t_uint256",
						"encoding": "dynamic_array",
						"label": "uint256[]",
						"numberOfBytes": "32"
					},
					"t_uint256": {
						"encoding": "inplace",
						"label": "uint256",
						"numberOfBytes": "32"
					}
				}
			},
			"userdoc": {
				"kind": "user",
				"methods": {},
				"version": 1
			}
		}
	}
}