{
	"BrgyLending.sol": {
		"BarangayLending": {
			"abi": [
				{
					"anonymous": false,
					"inputs": [
						{
							"indexed": false,
							"internalType": "uint256",
							"name": "loanId",
							"type": "uint256"
						},
						{
							"indexed": false,
							"internalType": "address",
							"name": "lender",
							"type": "address"
						}
					],
					"name": "LoanFunded",
					"type": "event"
				},
				{
					"anonymous": false,
					"inputs": [
						{
							"indexed": false,
							"internalType": "uint256",
							"name": "loanId",
							"type": "uint256"
						},
						{
							"indexed": false,
							"internalType": "address",
							"name": "borrower",
							"type": "address"
						},
						{
							"indexed": false,
							"internalType": "uint256",
							"name": "amount",
							"type": "uint256"
						},
						{
							"indexed": false,
							"internalType": "string",
							"name": "reason",
							"type": "string"
						}
					],
					"name": "LoanRequested",
					"type": "event"
				},
				{
					"inputs": [
						{
							"internalType": "uint256",
							"name": "loanId",
							"type": "uint256"
						}
					],
					"name": "fundLoan",
					"outputs": [],
					"stateMutability": "payable",
					"type": "function"
				},
				{
					"inputs": [],
					"name": "loanCounter",
					"outputs": [
						{
							"internalType": "uint256",
							"name": "",
							"type": "uint256"
						}
					],
					"stateMutability": "view",
					"type": "function"
				},
				{
					"inputs": [
						{
							"internalType": "uint256",
							"name": "",
							"type": "uint256"
						}
					],
					"name": "loans",
					"outputs": [
						{
							"internalType": "address payable",
							"name": "borrower",
							"type": "address"
						},
						{
							"internalType": "uint256",
							"name": "amount",
							"type": "uint256"
						},
						{
							"internalType": "string",
							"name": "reason",
							"type": "string"
						},
						{
							"internalType": "bool",
							"name": "isFunded",
							"type": "bool"
						},
						{
							"internalType": "address",
							"name": "lender",
							"type": "address"
						}
					],
					"stateMutability": "view",
					"type": "function"
				},
				{
					"inputs": [
						{
							"internalType": "uint256",
							"name": "amount",
							"type": "uint256"
						},
						{
							"internalType": "string",
							"name": "reason",
							"type": "string"
						}
					],
					"name": "requestLoan",
					"outputs": [],
					"stateMutability": "nonpayable",
					"type": "function"
				}
			],
			"devdoc": {
				"kind": "dev",
				"methods": {},
				"version": 1
			},
			"evm": {
				"assembly": "    /* \"BrgyLending.sol\":60:1445  contract BarangayLending {... */\n  mstore(0x40, 0x80)\n  callvalue\n  dup1\n  iszero\n  tag_1\n  jumpi\n  revert(0x00, 0x00)\ntag_1:\n  pop\n  dataSize(sub_0)\n  dup1\n  dataOffset(sub_0)\n  0x00\n  codecopy\n  0x00\n  return\nstop\n\nsub_0: assembly {\n        /* \"BrgyLending.sol\":60:1445  contract BarangayLending {... */\n      mstore(0x40, 0x80)\n      jumpi(tag_1, lt(calldatasize, 0x04))\n      shr(0xe0, calldataload(0x00))\n      dup1\n      0x34d9289e\n      eq\n      tag_2\n      jumpi\n      dup1\n      0x6c79e167\n      eq\n      tag_3\n      jumpi\n      dup1\n      0x846b909a\n      eq\n      tag_4\n      jumpi\n      dup1\n      0xe1ec3c68\n      eq\n      tag_5\n      jumpi\n    tag_1:\n      revert(0x00, 0x00)\n        /* \"BrgyLending.sol\":261:287  uint256 public loanCounter */\n    tag_2:\n      callvalue\n      dup1\n      iszero\n      tag_6\n      jumpi\n      revert(0x00, 0x00)\n    tag_6:\n      pop\n      tag_7\n      tag_8\n      jump\t// in\n    tag_7:\n      mload(0x40)\n      tag_9\n      swap2\n      swap1\n      tag_10\n      jump\t// in\n    tag_9:\n      mload(0x40)\n      dup1\n      swap2\n      sub\n      swap1\n      return\n        /* \"BrgyLending.sol\":497:964  function requestLoan(uint256 amount, string memory reason) public {... */\n    tag_3:\n      callvalue\n      dup1\n      iszero\n      tag_11\n      jumpi\n      revert(0x00, 0x00)\n    tag_11:\n      pop\n      tag_12\n      0x04\n      dup1\n      calldatasize\n      sub\n      dup2\n      add\n      swap1\n      tag_13\n      swap2\n      swap1\n      tag_14\n      jump\t// in\n    tag_13:\n      tag_15\n      jump\t// in\n    tag_12:\n      stop\n        /* \"BrgyLending.sol\":974:1442  function fundLoan(uint256 loanId) public payable {... */\n    tag_4:\n      tag_16\n      0x04\n      dup1\n      calldatasize\n      sub\n      dup2\n      add\n      swap1\n      tag_17\n      swap2\n      swap1\n      tag_18\n      jump\t// in\n    tag_17:\n      tag_19\n      jump\t// in\n    tag_16:\n      stop\n        /* \"BrgyLending.sol\":294:338  mapping(uint256 => LoanRequest) public loans */\n    tag_5:\n      callvalue\n      dup1\n      iszero\n      tag_20\n      jumpi\n      revert(0x00, 0x00)\n    tag_20:\n      pop\n      tag_21\n      0x04\n      dup1\n      calldatasize\n      sub\n      dup2\n      add\n      swap1\n      tag_22\n      swap2\n      swap1\n      tag_18\n      jump\t// in\n    tag_22:\n      tag_23\n      jump\t// in\n    tag_21:\n      mload(0x40)\n      tag_24\n      swap6\n      swap5\n      swap4\n      swap3\n      swap2\n      swap1\n      tag_25\n      jump\t// in\n    tag_24:\n      mload(0x40)\n      dup1\n      swap2\n      sub\n      swap1\n      return\n        /* \"BrgyLending.sol\":261:287  uint256 public loanCounter */\n    tag_8:\n      sload(0x00)\n      dup2\n      jump\t// out\n        /* \"BrgyLending.sol\":497:964  function requestLoan(uint256 amount, string memory reason) public {... */\n    tag_15:\n        /* \"BrgyLending.sol\":591:592  0 */\n      0x00\n        /* \"BrgyLending.sol\":582:588  amount */\n      dup3\n        /* \"BrgyLending.sol\":582:592  amount > 0 */\n      gt\n        /* \"BrgyLending.sol\":574:629  require(amount > 0, \"Amount must be greater than zero\") */\n      tag_27\n      jumpi\n      mload(0x40)\n      0x08c379a000000000000000000000000000000000000000000000000000000000\n      dup2\n      mstore\n      0x04\n      add\n      tag_28\n      swap1\n      tag_29\n      jump\t// in\n    tag_28:\n      mload(0x40)\n      dup1\n      swap2\n      sub\n      swap1\n      revert\n    tag_27:\n        /* \"BrgyLending.sol\":650:661  loanCounter */\n      0x00\n      0x00\n        /* \"BrgyLending.sol\":650:663  loanCounter++ */\n      dup2\n      sload\n      dup1\n      swap3\n      swap2\n      swap1\n      tag_30\n      swap1\n      tag_31\n      jump\t// in\n    tag_30:\n      swap2\n      swap1\n      pop\n      sstore\n      pop\n        /* \"BrgyLending.sol\":695:884  LoanRequest({... */\n      mload(0x40)\n      dup1\n      0xa0\n      add\n      0x40\n      mstore\n      dup1\n        /* \"BrgyLending.sol\":740:750  msg.sender */\n      caller\n        /* \"BrgyLending.sol\":695:884  LoanRequest({... */\n      0xffffffffffffffffffffffffffffffffffffffff\n      and\n      dup2\n      mstore\n      0x20\n      add\n        /* \"BrgyLending.sol\":774:780  amount */\n      dup4\n        /* \"BrgyLending.sol\":695:884  LoanRequest({... */\n      dup2\n      mstore\n      0x20\n      add\n        /* \"BrgyLending.sol\":803:809  reason */\n      dup3\n        /* \"BrgyLending.sol\":695:884  LoanRequest({... */\n      dup2\n      mstore\n      0x20\n      add\n        /* \"BrgyLending.sol\":834:839  false */\n      0x00\n        /* \"BrgyLending.sol\":695:884  LoanRequest({... */\n      iszero\n      iszero\n      dup2\n      mstore\n      0x20\n      add\n        /* \"BrgyLending.sol\":870:871  0 */\n      0x00\n        /* \"BrgyLending.sol\":695:884  LoanRequest({... */\n      0xffffffffffffffffffffffffffffffffffffffff\n      and\n      dup2\n      mstore\n      pop\n        /* \"BrgyLending.sol\":674:679  loans */\n      0x01\n        /* \"BrgyLending.sol\":674:692  loans[loanCounter] */\n      0x00\n        /* \"BrgyLending.sol\":680:691  loanCounter */\n      sload(0x00)\n        /* \"BrgyLending.sol\":674:692  loans[loanCounter] */\n      dup2\n      mstore\n      0x20\n      add\n      swap1\n      dup2\n      mstore\n      0x20\n      add\n      0x00\n      keccak256\n        /* \"BrgyLending.sol\":674:884  loans[loanCounter] = LoanRequest({... */\n      0x00\n      dup3\n      add\n      mload\n      dup2\n      0x00\n      add\n      exp(0x0100, 0x00)\n      dup2\n      sload\n      dup2\n      0xffffffffffffffffffffffffffffffffffffffff\n      mul\n      not\n      and\n      swap1\n      dup4\n      0xffffffffffffffffffffffffffffffffffffffff\n      and\n      mul\n      or\n      swap1\n      sstore\n      pop\n      0x20\n      dup3\n      add\n      mload\n      dup2\n      0x01\n      add\n      sstore\n      0x40\n      dup3\n      add\n      mload\n      dup2\n      0x02\n      add\n      swap1\n      dup2\n      tag_32\n      swap2\n      swap1\n      tag_33\n      jump\t// in\n    tag_32:\n      pop\n      0x60\n      dup3\n      add\n      mload\n      dup2\n      0x03\n      add\n      exp(0x0100, 0x00)\n      dup2\n      sload\n      dup2\n      0xff\n      mul\n      not\n      and\n      swap1\n      dup4\n      iszero\n      iszero\n      mul\n      or\n      swap1\n      sstore\n      pop\n      0x80\n      dup3\n      add\n      mload\n      dup2\n      0x03\n      add\n      exp(0x0100, 0x01)\n      dup2\n      sload\n      dup2\n      0xffffffffffffffffffffffffffffffffffffffff\n      mul\n      not\n      and\n      swap1\n      dup4\n      0xffffffffffffffffffffffffffffffffffffffff\n      and\n      mul\n      or\n      swap1\n      sstore\n      pop\n      swap1\n      pop\n      pop\n        /* \"BrgyLending.sol\":902:956  LoanRequested(loanCounter, msg.sender, amount, reason) */\n      0xfbba0893dd1f941cb4a7bb791aed3ce1ad2a008c20ef3254b2a2cf7752b199f1\n        /* \"BrgyLending.sol\":916:927  loanCounter */\n      sload(0x00)\n        /* \"BrgyLending.sol\":929:939  msg.sender */\n      caller\n        /* \"BrgyLending.sol\":941:947  amount */\n      dup5\n        /* \"BrgyLending.sol\":949:955  reason */\n      dup5\n        /* \"BrgyLending.sol\":902:956  LoanRequested(loanCounter, msg.sender, amount, reason) */\n      mload(0x40)\n      tag_34\n      swap5\n      swap4\n      swap3\n      swap2\n      swap1\n      tag_35\n      jump\t// in\n    tag_34:\n      mload(0x40)\n      dup1\n      swap2\n      sub\n      swap1\n      log1\n        /* \"BrgyLending.sol\":497:964  function requestLoan(uint256 amount, string memory reason) public {... */\n      pop\n      pop\n      jump\t// out\n        /* \"BrgyLending.sol\":974:1442  function fundLoan(uint256 loanId) public payable {... */\n    tag_19:\n        /* \"BrgyLending.sol\":1036:1060  LoanRequest storage loan */\n      0x00\n        /* \"BrgyLending.sol\":1063:1068  loans */\n      0x01\n        /* \"BrgyLending.sol\":1063:1076  loans[loanId] */\n      0x00\n        /* \"BrgyLending.sol\":1069:1075  loanId */\n      dup4\n        /* \"BrgyLending.sol\":1063:1076  loans[loanId] */\n      dup2\n      mstore\n      0x20\n      add\n      swap1\n      dup2\n      mstore\n      0x20\n      add\n      0x00\n      keccak256\n        /* \"BrgyLending.sol\":1036:1076  LoanRequest storage loan = loans[loanId] */\n      swap1\n      pop\n        /* \"BrgyLending.sol\":1113:1114  0 */\n      0x00\n        /* \"BrgyLending.sol\":1099:1103  loan */\n      dup2\n        /* \"BrgyLending.sol\":1099:1110  loan.amount */\n      0x01\n      add\n      sload\n        /* \"BrgyLending.sol\":1099:1114  loan.amount > 0 */\n      gt\n        /* \"BrgyLending.sol\":1091:1138  require(loan.amount > 0, \"Loan does not exist\") */\n      tag_37\n      jumpi\n      mload(0x40)\n      0x08c379a000000000000000000000000000000000000000000000000000000000\n      dup2\n      mstore\n      0x04\n      add\n      tag_38\n      swap1\n      tag_39\n      jump\t// in\n    tag_38:\n      mload(0x40)\n      dup1\n      swap2\n      sub\n      swap1\n      revert\n    tag_37:\n        /* \"BrgyLending.sol\":1158:1162  loan */\n      dup1\n        /* \"BrgyLending.sol\":1158:1171  loan.isFunded */\n      0x03\n      add\n      0x00\n      swap1\n      sload\n      swap1\n      0x0100\n      exp\n      swap1\n      div\n      0xff\n      and\n        /* \"BrgyLending.sol\":1157:1171  !loan.isFunded */\n      iszero\n        /* \"BrgyLending.sol\":1149:1195  require(!loan.isFunded, \"Loan already funded\") */\n      tag_40\n      jumpi\n      mload(0x40)\n      0x08c379a000000000000000000000000000000000000000000000000000000000\n      dup2\n      mstore\n      0x04\n      add\n      tag_41\n      swap1\n      tag_42\n      jump\t// in\n    tag_41:\n      mload(0x40)\n      dup1\n      swap2\n      sub\n      swap1\n      revert\n    tag_40:\n        /* \"BrgyLending.sol\":1227:1231  loan */\n      dup1\n        /* \"BrgyLending.sol\":1227:1238  loan.amount */\n      0x01\n      add\n      sload\n        /* \"BrgyLending.sol\":1214:1223  msg.value */\n      callvalue\n        /* \"BrgyLending.sol\":1214:1238  msg.value == loan.amount */\n      eq\n        /* \"BrgyLending.sol\":1206:1270  require(msg.value == loan.amount, \"Must send exact loan amount\") */\n      tag_43\n      jumpi\n      mload(0x40)\n      0x08c379a000000000000000000000000000000000000000000000000000000000\n      dup2\n      mstore\n      0x04\n      add\n      tag_44\n      swap1\n      tag_45\n      jump\t// in\n    tag_44:\n      mload(0x40)\n      dup1\n      swap2\n      sub\n      swap1\n      revert\n    tag_43:\n        /* \"BrgyLending.sol\":1299:1303  true */\n      0x01\n        /* \"BrgyLending.sol\":1283:1287  loan */\n      dup2\n        /* \"BrgyLending.sol\":1283:1296  loan.isFunded */\n      0x03\n      add\n      0x00\n        /* \"BrgyLending.sol\":1283:1303  loan.isFunded = true */\n      0x0100\n      exp\n      dup2\n      sload\n      dup2\n      0xff\n      mul\n      not\n      and\n      swap1\n      dup4\n      iszero\n      iszero\n      mul\n      or\n      swap1\n      sstore\n      pop\n        /* \"BrgyLending.sol\":1328:1338  msg.sender */\n      caller\n        /* \"BrgyLending.sol\":1314:1318  loan */\n      dup2\n        /* \"BrgyLending.sol\":1314:1325  loan.lender */\n      0x03\n      add\n      0x01\n        /* \"BrgyLending.sol\":1314:1338  loan.lender = msg.sender */\n      0x0100\n      exp\n      dup2\n      sload\n      dup2\n      0xffffffffffffffffffffffffffffffffffffffff\n      mul\n      not\n      and\n      swap1\n      dup4\n      0xffffffffffffffffffffffffffffffffffffffff\n      and\n      mul\n      or\n      swap1\n      sstore\n      pop\n        /* \"BrgyLending.sol\":1353:1357  loan */\n      dup1\n        /* \"BrgyLending.sol\":1353:1366  loan.borrower */\n      0x00\n      add\n      0x00\n      swap1\n      sload\n      swap1\n      0x0100\n      exp\n      swap1\n      div\n      0xffffffffffffffffffffffffffffffffffffffff\n      and\n        /* \"BrgyLending.sol\":1353:1375  loan.borrower.transfer */\n      0xffffffffffffffffffffffffffffffffffffffff\n      and\n        /* \"BrgyLending.sol\":1353:1386  loan.borrower.transfer(msg.value) */\n      0x08fc\n        /* \"BrgyLending.sol\":1376:1385  msg.value */\n      callvalue\n        /* \"BrgyLending.sol\":1353:1386  loan.borrower.transfer(msg.value) */\n      swap1\n      dup2\n      iszero\n      mul\n      swap1\n      mload(0x40)\n      0x00\n      mload(0x40)\n      dup1\n      dup4\n      sub\n      dup2\n      dup6\n      dup9\n      dup9\n      call\n      swap4\n      pop\n      pop\n      pop\n      pop\n      iszero\n      dup1\n      iszero\n      tag_47\n      jumpi\n      returndatacopy(0x00, 0x00, returndatasize)\n      revert(0x00, returndatasize)\n    tag_47:\n      pop\n        /* \"BrgyLending.sol\":1404:1434  LoanFunded(loanId, msg.sender) */\n      0x15feab5d3eb17171632762cf769709a315dd15f487a556c0dfb8a259c8f186cc\n        /* \"BrgyLending.sol\":1415:1421  loanId */\n      dup3\n        /* \"BrgyLending.sol\":1423:1433  msg.sender */\n      caller\n        /* \"BrgyLending.sol\":1404:1434  LoanFunded(loanId, msg.sender) */\n      mload(0x40)\n      tag_48\n      swap3\n      swap2\n      swap1\n      tag_49\n      jump\t// in\n    tag_48:\n      mload(0x40)\n      dup1\n      swap2\n      sub\n      swap1\n      log1\n        /* \"BrgyLending.sol\":1023:1442  {... */\n      pop\n        /* \"BrgyLending.sol\":974:1442  function fundLoan(uint256 loanId) public payable {... */\n      pop\n      jump\t// out\n        /* \"BrgyLending.sol\":294:338  mapping(uint256 => LoanRequest) public loans */\n    tag_23:\n      mstore(0x20, 0x01)\n      dup1\n      0x00\n      mstore\n      keccak256(0x00, 0x40)\n      0x00\n      swap2\n      pop\n      swap1\n      pop\n      dup1\n      0x00\n      add\n      0x00\n      swap1\n      sload\n      swap1\n      0x0100\n      exp\n      swap1\n      div\n      0xffffffffffffffffffffffffffffffffffffffff\n      and\n      swap1\n      dup1\n      0x01\n      add\n      sload\n      swap1\n      dup1\n      0x02\n      add\n      dup1\n      sload\n      tag_50\n      swap1\n      tag_51\n      jump\t// in\n    tag_50:\n      dup1\n      0x1f\n      add\n      0x20\n      dup1\n      swap2\n      div\n      mul\n      0x20\n      add\n      mload(0x40)\n      swap1\n      dup2\n      add\n      0x40\n      mstore\n      dup1\n      swap3\n      swap2\n      swap1\n      dup2\n      dup2\n      mstore\n      0x20\n      add\n      dup3\n      dup1\n      sload\n      tag_52\n      swap1\n      tag_51\n      jump\t// in\n    tag_52:\n      dup1\n      iszero\n      tag_53\n      jumpi\n      dup1\n      0x1f\n      lt\n      tag_54\n      jumpi\n      0x0100\n      dup1\n      dup4\n      sload\n      div\n      mul\n      dup4\n      mstore\n      swap2\n      0x20\n      add\n      swap2\n      jump(tag_53)\n    tag_54:\n      dup3\n      add\n      swap2\n      swap1\n      0x00\n      mstore\n      keccak256(0x00, 0x20)\n      swap1\n    tag_55:\n      dup2\n      sload\n      dup2\n      mstore\n      swap1\n      0x01\n      add\n      swap1\n      0x20\n      add\n      dup1\n      dup4\n      gt\n      tag_55\n      jumpi\n      dup3\n      swap1\n      sub\n      0x1f\n      and\n      dup3\n      add\n      swap2\n    tag_53:\n      pop\n      pop\n      pop\n      pop\n      pop\n      swap1\n      dup1\n      0x03\n      add\n      0x00\n      swap1\n      sload\n      swap1\n      0x0100\n      exp\n      swap1\n      div\n      0xff\n      and\n      swap1\n      dup1\n      0x03\n      add\n      0x01\n      swap1\n      sload\n      swap1\n      0x0100\n      exp\n      swap1\n      div\n      0xffffffffffffffffffffffffffffffffffffffff\n      and\n      swap1\n      pop\n      dup6\n      jump\t// out\n        /* \"#utility.yul\":7:84   */\n    tag_56:\n        /* \"#utility.yul\":44:51   */\n      0x00\n        /* \"#utility.yul\":73:78   */\n      dup2\n        /* \"#utility.yul\":62:78   */\n      swap1\n      pop\n        /* \"#utility.yul\":7:84   */\n      swap2\n      swap1\n      pop\n      jump\t// out\n        /* \"#utility.yul\":90:208   */\n    tag_57:\n        /* \"#utility.yul\":177:201   */\n      tag_112\n        /* \"#utility.yul\":195:200   */\n      dup2\n        /* \"#utility.yul\":177:201   */\n      tag_56\n      jump\t// in\n    tag_112:\n        /* \"#utility.yul\":172:175   */\n      dup3\n        /* \"#utility.yul\":165:202   */\n      mstore\n        /* \"#utility.yul\":90:208   */\n      pop\n      pop\n      jump\t// out\n        /* \"#utility.yul\":214:436   */\n    tag_10:\n        /* \"#utility.yul\":307:311   */\n      0x00\n        /* \"#utility.yul\":345:347   */\n      0x20\n        /* \"#utility.yul\":334:343   */\n      dup3\n        /* \"#utility.yul\":330:348   */\n      add\n        /* \"#utility.yul\":322:348   */\n      swap1\n      pop\n        /* \"#utility.yul\":358:429   */\n      tag_114\n        /* \"#utility.yul\":426:427   */\n      0x00\n        /* \"#utility.yul\":415:424   */\n      dup4\n        /* \"#utility.yul\":411:428   */\n      add\n        /* \"#utility.yul\":402:408   */\n      dup5\n        /* \"#utility.yul\":358:429   */\n      tag_57\n      jump\t// in\n    tag_114:\n        /* \"#utility.yul\":214:436   */\n      swap3\n      swap2\n      pop\n      pop\n      jump\t// out\n        /* \"#utility.yul\":442:517   */\n    tag_58:\n        /* \"#utility.yul\":475:481   */\n      0x00\n        /* \"#utility.yul\":508:510   */\n      0x40\n        /* \"#utility.yul\":502:511   */\n      mload\n        /* \"#utility.yul\":492:511   */\n      swap1\n      pop\n        /* \"#utility.yul\":442:517   */\n      swap1\n      jump\t// out\n        /* \"#utility.yul\":523:640   */\n    tag_59:\n        /* \"#utility.yul\":632:633   */\n      0x00\n        /* \"#utility.yul\":629:630   */\n      0x00\n        /* \"#utility.yul\":622:634   */\n      revert\n        /* \"#utility.yul\":646:763   */\n    tag_60:\n        /* \"#utility.yul\":755:756   */\n      0x00\n        /* \"#utility.yul\":752:753   */\n      0x00\n        /* \"#utility.yul\":745:757   */\n      revert\n        /* \"#utility.yul\":769:891   */\n    tag_61:\n        /* \"#utility.yul\":842:866   */\n      tag_119\n        /* \"#utility.yul\":860:865   */\n      dup2\n        /* \"#utility.yul\":842:866   */\n      tag_56\n      jump\t// in\n    tag_119:\n        /* \"#utility.yul\":835:840   */\n      dup2\n        /* \"#utility.yul\":832:867   */\n      eq\n        /* \"#utility.yul\":822:885   */\n      tag_120\n      jumpi\n        /* \"#utility.yul\":881:882   */\n      0x00\n        /* \"#utility.yul\":878:879   */\n      0x00\n        /* \"#utility.yul\":871:883   */\n      revert\n        /* \"#utility.yul\":822:885   */\n    tag_120:\n        /* \"#utility.yul\":769:891   */\n      pop\n      jump\t// out\n        /* \"#utility.yul\":897:1036   */\n    tag_62:\n        /* \"#utility.yul\":943:948   */\n      0x00\n        /* \"#utility.yul\":981:987   */\n      dup2\n        /* \"#utility.yul\":968:988   */\n      calldataload\n        /* \"#utility.yul\":959:988   */\n      swap1\n      pop\n        /* \"#utility.yul\":997:1030   */\n      tag_122\n        /* \"#utility.yul\":1024:1029   */\n      dup2\n        /* \"#utility.yul\":997:1030   */\n      tag_61\n      jump\t// in\n    tag_122:\n        /* \"#utility.yul\":897:1036   */\n      swap3\n      swap2\n      pop\n      pop\n      jump\t// out\n        /* \"#utility.yul\":1042:1159   */\n    tag_63:\n        /* \"#utility.yul\":1151:1152   */\n      0x00\n        /* \"#utility.yul\":1148:1149   */\n      0x00\n        /* \"#utility.yul\":1141:1153   */\n      revert\n        /* \"#utility.yul\":1165:1282   */\n    tag_64:\n        /* \"#utility.yul\":1274:1275   */\n      0x00\n        /* \"#utility.yul\":1271:1272   */\n      0x00\n        /* \"#utility.yul\":1264:1276   */\n      revert\n        /* \"#utility.yul\":1288:1390   */\n    tag_65:\n        /* \"#utility.yul\":1329:1335   */\n      0x00\n        /* \"#utility.yul\":1380:1382   */\n      0x1f\n        /* \"#utility.yul\":1376:1383   */\n      not\n        /* \"#utility.yul\":1371:1373   */\n      0x1f\n        /* \"#utility.yul\":1364:1369   */\n      dup4\n        /* \"#utility.yul\":1360:1374   */\n      add\n        /* \"#utility.yul\":1356:1384   */\n      and\n        /* \"#utility.yul\":1346:1384   */\n      swap1\n      pop\n        /* \"#utility.yul\":1288:1390   */\n      swap2\n      swap1\n      pop\n      jump\t// out\n        /* \"#utility.yul\":1396:1576   */\n    tag_66:\n        /* \"#utility.yul\":1444:1521   */\n      0x4e487b7100000000000000000000000000000000000000000000000000000000\n        /* \"#utility.yul\":1441:1442   */\n      0x00\n        /* \"#utility.yul\":1434:1522   */\n      mstore\n        /* \"#utility.yul\":1541:1545   */\n      0x41\n        /* \"#utility.yul\":1538:1539   */\n      0x04\n        /* \"#utility.yul\":1531:1546   */\n      mstore\n        /* \"#utility.yul\":1565:1569   */\n      0x24\n        /* \"#utility.yul\":1562:1563   */\n      0x00\n        /* \"#utility.yul\":1555:1570   */\n      revert\n        /* \"#utility.yul\":1582:1863   */\n    tag_67:\n        /* \"#utility.yul\":1665:1692   */\n      tag_128\n        /* \"#utility.yul\":1687:1691   */\n      dup3\n        /* \"#utility.yul\":1665:1692   */\n      tag_65\n      jump\t// in\n    tag_128:\n        /* \"#utility.yul\":1657:1663   */\n      dup2\n        /* \"#utility.yul\":1653:1693   */\n      add\n        /* \"#utility.yul\":1795:1801   */\n      dup2\n        /* \"#utility.yul\":1783:1793   */\n      dup2\n        /* \"#utility.yul\":1780:1802   */\n      lt\n        /* \"#utility.yul\":1759:1777   */\n      0xffffffffffffffff\n        /* \"#utility.yul\":1747:1757   */\n      dup3\n        /* \"#utility.yul\":1744:1778   */\n      gt\n        /* \"#utility.yul\":1741:1803   */\n      or\n        /* \"#utility.yul\":1738:1826   */\n      iszero\n      tag_129\n      jumpi\n        /* \"#utility.yul\":1806:1824   */\n      tag_130\n      tag_66\n      jump\t// in\n    tag_130:\n        /* \"#utility.yul\":1738:1826   */\n    tag_129:\n        /* \"#utility.yul\":1846:1856   */\n      dup1\n        /* \"#utility.yul\":1842:1844   */\n      0x40\n        /* \"#utility.yul\":1835:1857   */\n      mstore\n        /* \"#utility.yul\":1625:1863   */\n      pop\n        /* \"#utility.yul\":1582:1863   */\n      pop\n      pop\n      jump\t// out\n        /* \"#utility.yul\":1869:1998   */\n    tag_68:\n        /* \"#utility.yul\":1903:1909   */\n      0x00\n        /* \"#utility.yul\":1930:1950   */\n      tag_132\n      tag_58\n      jump\t// in\n    tag_132:\n        /* \"#utility.yul\":1920:1950   */\n      swap1\n      pop\n        /* \"#utility.yul\":1959:1992   */\n      tag_133\n        /* \"#utility.yul\":1987:1991   */\n      dup3\n        /* \"#utility.yul\":1979:1985   */\n      dup3\n        /* \"#utility.yul\":1959:1992   */\n      tag_67\n      jump\t// in\n    tag_133:\n        /* \"#utility.yul\":1869:1998   */\n      swap2\n      swap1\n      pop\n      jump\t// out\n        /* \"#utility.yul\":2004:2312   */\n    tag_69:\n        /* \"#utility.yul\":2066:2070   */\n      0x00\n        /* \"#utility.yul\":2156:2174   */\n      0xffffffffffffffff\n        /* \"#utility.yul\":2148:2154   */\n      dup3\n        /* \"#utility.yul\":2145:2175   */\n      gt\n        /* \"#utility.yul\":2142:2198   */\n      iszero\n      tag_135\n      jumpi\n        /* \"#utility.yul\":2178:2196   */\n      tag_136\n      tag_66\n      jump\t// in\n    tag_136:\n        /* \"#utility.yul\":2142:2198   */\n    tag_135:\n        /* \"#utility.yul\":2216:2245   */\n      tag_137\n        /* \"#utility.yul\":2238:2244   */\n      dup3\n        /* \"#utility.yul\":2216:2245   */\n      tag_65\n      jump\t// in\n    tag_137:\n        /* \"#utility.yul\":2208:2245   */\n      swap1\n      pop\n        /* \"#utility.yul\":2300:2304   */\n      0x20\n        /* \"#utility.yul\":2294:2298   */\n      dup2\n        /* \"#utility.yul\":2290:2305   */\n      add\n        /* \"#utility.yul\":2282:2305   */\n      swap1\n      pop\n        /* \"#utility.yul\":2004:2312   */\n      swap2\n      swap1\n      pop\n      jump\t// out\n        /* \"#utility.yul\":2318:2466   */\n    tag_70:\n        /* \"#utility.yul\":2416:2422   */\n      dup3\n        /* \"#utility.yul\":2411:2414   */\n      dup2\n        /* \"#utility.yul\":2406:2409   */\n      dup4\n        /* \"#utility.yul\":2393:2423   */\n      calldatacopy\n        /* \"#utility.yul\":2457:2458   */\n      0x00\n        /* \"#utility.yul\":2448:2454   */\n      dup4\n        /* \"#utility.yul\":2443:2446   */\n      dup4\n        /* \"#utility.yul\":2439:2455   */\n      add\n        /* \"#utility.yul\":2432:2459   */\n      mstore\n        /* \"#utility.yul\":2318:2466   */\n      pop\n      pop\n      pop\n      jump\t// out\n        /* \"#utility.yul\":2472:2897   */\n    tag_71:\n        /* \"#utility.yul\":2550:2555   */\n      0x00\n        /* \"#utility.yul\":2575:2641   */\n      tag_140\n        /* \"#utility.yul\":2591:2640   */\n      tag_141\n        /* \"#utility.yul\":2633:2639   */\n      dup5\n        /* \"#utility.yul\":2591:2640   */\n      tag_69\n      jump\t// in\n    tag_141:\n        /* \"#utility.yul\":2575:2641   */\n      tag_68\n      jump\t// in\n    tag_140:\n        /* \"#utility.yul\":2566:2641   */\n      swap1\n      pop\n        /* \"#utility.yul\":2664:2670   */\n      dup3\n        /* \"#utility.yul\":2657:2662   */\n      dup2\n        /* \"#utility.yul\":2650:2671   */\n      mstore\n        /* \"#utility.yul\":2702:2706   */\n      0x20\n        /* \"#utility.yul\":2695:2700   */\n      dup2\n        /* \"#utility.yul\":2691:2707   */\n      add\n        /* \"#utility.yul\":2740:2743   */\n      dup5\n        /* \"#utility.yul\":2731:2737   */\n      dup5\n        /* \"#utility.yul\":2726:2729   */\n      dup5\n        /* \"#utility.yul\":2722:2738   */\n      add\n        /* \"#utility.yul\":2719:2744   */\n      gt\n        /* \"#utility.yul\":2716:2828   */\n      iszero\n      tag_142\n      jumpi\n        /* \"#utility.yul\":2747:2826   */\n      tag_143\n      tag_64\n      jump\t// in\n    tag_143:\n        /* \"#utility.yul\":2716:2828   */\n    tag_142:\n        /* \"#utility.yul\":2837:2891   */\n      tag_144\n        /* \"#utility.yul\":2884:2890   */\n      dup5\n        /* \"#utility.yul\":2879:2882   */\n      dup3\n        /* \"#utility.yul\":2874:2877   */\n      dup6\n        /* \"#utility.yul\":2837:2891   */\n      tag_70\n      jump\t// in\n    tag_144:\n        /* \"#utility.yul\":2556:2897   */\n      pop\n        /* \"#utility.yul\":2472:2897   */\n      swap4\n      swap3\n      pop\n      pop\n      pop\n      jump\t// out\n        /* \"#utility.yul\":2917:3257   */\n    tag_72:\n        /* \"#utility.yul\":2973:2978   */\n      0x00\n        /* \"#utility.yul\":3022:3025   */\n      dup3\n        /* \"#utility.yul\":3015:3019   */\n      0x1f\n        /* \"#utility.yul\":3007:3013   */\n      dup4\n        /* \"#utility.yul\":3003:3020   */\n      add\n        /* \"#utility.yul\":2999:3026   */\n      slt\n        /* \"#utility.yul\":2989:3111   */\n      tag_146\n      jumpi\n        /* \"#utility.yul\":3030:3109   */\n      tag_147\n      tag_63\n      jump\t// in\n    tag_147:\n        /* \"#utility.yul\":2989:3111   */\n    tag_146:\n        /* \"#utility.yul\":3147:3153   */\n      dup2\n        /* \"#utility.yul\":3134:3154   */\n      calldataload\n        /* \"#utility.yul\":3172:3251   */\n      tag_148\n        /* \"#utility.yul\":3247:3250   */\n      dup5\n        /* \"#utility.yul\":3239:3245   */\n      dup3\n        /* \"#utility.yul\":3232:3236   */\n      0x20\n        /* \"#utility.yul\":3224:3230   */\n      dup7\n        /* \"#utility.yul\":3220:3237   */\n      add\n        /* \"#utility.yul\":3172:3251   */\n      tag_71\n      jump\t// in\n    tag_148:\n        /* \"#utility.yul\":3163:3251   */\n      swap2\n      pop\n        /* \"#utility.yul\":2979:3257   */\n      pop\n        /* \"#utility.yul\":2917:3257   */\n      swap3\n      swap2\n      pop\n      pop\n      jump\t// out\n        /* \"#utility.yul\":3263:3917   */\n    tag_14:\n        /* \"#utility.yul\":3341:3347   */\n      0x00\n        /* \"#utility.yul\":3349:3355   */\n      0x00\n        /* \"#utility.yul\":3398:3400   */\n      0x40\n        /* \"#utility.yul\":3386:3395   */\n      dup4\n        /* \"#utility.yul\":3377:3384   */\n      dup6\n        /* \"#utility.yul\":3373:3396   */\n      sub\n        /* \"#utility.yul\":3369:3401   */\n      slt\n        /* \"#utility.yul\":3366:3485   */\n      iszero\n      tag_150\n      jumpi\n        /* \"#utility.yul\":3404:3483   */\n      tag_151\n      tag_59\n      jump\t// in\n    tag_151:\n        /* \"#utility.yul\":3366:3485   */\n    tag_150:\n        /* \"#utility.yul\":3524:3525   */\n      0x00\n        /* \"#utility.yul\":3549:3602   */\n      tag_152\n        /* \"#utility.yul\":3594:3601   */\n      dup6\n        /* \"#utility.yul\":3585:3591   */\n      dup3\n        /* \"#utility.yul\":3574:3583   */\n      dup7\n        /* \"#utility.yul\":3570:3592   */\n      add\n        /* \"#utility.yul\":3549:3602   */\n      tag_62\n      jump\t// in\n    tag_152:\n        /* \"#utility.yul\":3539:3602   */\n      swap3\n      pop\n        /* \"#utility.yul\":3495:3612   */\n      pop\n        /* \"#utility.yul\":3679:3681   */\n      0x20\n        /* \"#utility.yul\":3668:3677   */\n      dup4\n        /* \"#utility.yul\":3664:3682   */\n      add\n        /* \"#utility.yul\":3651:3683   */\n      calldataload\n        /* \"#utility.yul\":3710:3728   */\n      0xffffffffffffffff\n        /* \"#utility.yul\":3702:3708   */\n      dup2\n        /* \"#utility.yul\":3699:3729   */\n      gt\n        /* \"#utility.yul\":3696:3813   */\n      iszero\n      tag_153\n      jumpi\n        /* \"#utility.yul\":3732:3811   */\n      tag_154\n      tag_60\n      jump\t// in\n    tag_154:\n        /* \"#utility.yul\":3696:3813   */\n    tag_153:\n        /* \"#utility.yul\":3837:3900   */\n      tag_155\n        /* \"#utility.yul\":3892:3899   */\n      dup6\n        /* \"#utility.yul\":3883:3889   */\n      dup3\n        /* \"#utility.yul\":3872:3881   */\n      dup7\n        /* \"#utility.yul\":3868:3890   */\n      add\n        /* \"#utility.yul\":3837:3900   */\n      tag_72\n      jump\t// in\n    tag_155:\n        /* \"#utility.yul\":3827:3900   */\n      swap2\n      pop\n        /* \"#utility.yul\":3622:3910   */\n      pop\n        /* \"#utility.yul\":3263:3917   */\n      swap3\n      pop\n      swap3\n      swap1\n      pop\n      jump\t// out\n        /* \"#utility.yul\":3923:4252   */\n    tag_18:\n        /* \"#utility.yul\":3982:3988   */\n      0x00\n        /* \"#utility.yul\":4031:4033   */\n      0x20\n        /* \"#utility.yul\":4019:4028   */\n      dup3\n        /* \"#utility.yul\":4010:4017   */\n      dup5\n        /* \"#utility.yul\":4006:4029   */\n      sub\n        /* \"#utility.yul\":4002:4034   */\n      slt\n        /* \"#utility.yul\":3999:4118   */\n      iszero\n      tag_157\n      jumpi\n        /* \"#utility.yul\":4037:4116   */\n      tag_158\n      tag_59\n      jump\t// in\n    tag_158:\n        /* \"#utility.yul\":3999:4118   */\n    tag_157:\n        /* \"#utility.yul\":4157:4158   */\n      0x00\n        /* \"#utility.yul\":4182:4235   */\n      tag_159\n        /* \"#utility.yul\":4227:4234   */\n      dup5\n        /* \"#utility.yul\":4218:4224   */\n      dup3\n        /* \"#utility.yul\":4207:4216   */\n      dup6\n        /* \"#utility.yul\":4203:4225   */\n      add\n        /* \"#utility.yul\":4182:4235   */\n      tag_62\n      jump\t// in\n    tag_159:\n        /* \"#utility.yul\":4172:4235   */\n      swap2\n      pop\n        /* \"#utility.yul\":4128:4245   */\n      pop\n        /* \"#utility.yul\":3923:4252   */\n      swap3\n      swap2\n      pop\n      pop\n      jump\t// out\n        /* \"#utility.yul\":4258:4384   */\n    tag_73:\n        /* \"#utility.yul\":4295:4302   */\n      0x00\n        /* \"#utility.yul\":4335:4377   */\n      0xffffffffffffffffffffffffffffffffffffffff\n        /* \"#utility.yul\":4328:4333   */\n      dup3\n        /* \"#utility.yul\":4324:4378   */\n      and\n        /* \"#utility.yul\":4313:4378   */\n      swap1\n      pop\n        /* \"#utility.yul\":4258:4384   */\n      swap2\n      swap1\n      pop\n      jump\t// out\n        /* \"#utility.yul\":4390:4494   */\n    tag_74:\n        /* \"#utility.yul\":4435:4442   */\n      0x00\n        /* \"#utility.yul\":4464:4488   */\n      tag_162\n        /* \"#utility.yul\":4482:4487   */\n      dup3\n        /* \"#utility.yul\":4464:4488   */\n      tag_73\n      jump\t// in\n    tag_162:\n        /* \"#utility.yul\":4453:4488   */\n      swap1\n      pop\n        /* \"#utility.yul\":4390:4494   */\n      swap2\n      swap1\n      pop\n      jump\t// out\n        /* \"#utility.yul\":4500:4642   */\n    tag_75:\n        /* \"#utility.yul\":4603:4635   */\n      tag_164\n        /* \"#utility.yul\":4629:4634   */\n      dup2\n        /* \"#utility.yul\":4603:4635   */\n      tag_74\n      jump\t// in\n    tag_164:\n        /* \"#utility.yul\":4598:4601   */\n      dup3\n        /* \"#utility.yul\":4591:4636   */\n      mstore\n        /* \"#utility.yul\":4500:4642   */\n      pop\n      pop\n      jump\t// out\n        /* \"#utility.yul\":4648:4747   */\n    tag_76:\n        /* \"#utility.yul\":4700:4706   */\n      0x00\n        /* \"#utility.yul\":4734:4739   */\n      dup2\n        /* \"#utility.yul\":4728:4740   */\n      mload\n        /* \"#utility.yul\":4718:4740   */\n      swap1\n      pop\n        /* \"#utility.yul\":4648:4747   */\n      swap2\n      swap1\n      pop\n      jump\t// out\n        /* \"#utility.yul\":4753:4922   */\n    tag_77:\n        /* \"#utility.yul\":4837:4848   */\n      0x00\n        /* \"#utility.yul\":4871:4877   */\n      dup3\n        /* \"#utility.yul\":4866:4869   */\n      dup3\n        /* \"#utility.yul\":4859:4878   */\n      mstore\n        /* \"#utility.yul\":4911:4915   */\n      0x20\n        /* \"#utility.yul\":4906:4909   */\n      dup3\n        /* \"#utility.yul\":4902:4916   */\n      add\n        /* \"#utility.yul\":4887:4916   */\n      swap1\n      pop\n        /* \"#utility.yul\":4753:4922   */\n      swap3\n      swap2\n      pop\n      pop\n      jump\t// out\n        /* \"#utility.yul\":4928:5067   */\n    tag_78:\n        /* \"#utility.yul\":5017:5023   */\n      dup3\n        /* \"#utility.yul\":5012:5015   */\n      dup2\n        /* \"#utility.yul\":5007:5010   */\n      dup4\n        /* \"#utility.yul\":5001:5024   */\n      mcopy\n        /* \"#utility.yul\":5058:5059   */\n      0x00\n        /* \"#utility.yul\":5049:5055   */\n      dup4\n        /* \"#utility.yul\":5044:5047   */\n      dup4\n        /* \"#utility.yul\":5040:5056   */\n      add\n        /* \"#utility.yul\":5033:5060   */\n      mstore\n        /* \"#utility.yul\":4928:5067   */\n      pop\n      pop\n      pop\n      jump\t// out\n        /* \"#utility.yul\":5073:5450   */\n    tag_79:\n        /* \"#utility.yul\":5161:5164   */\n      0x00\n        /* \"#utility.yul\":5189:5228   */\n      tag_169\n        /* \"#utility.yul\":5222:5227   */\n      dup3\n        /* \"#utility.yul\":5189:5228   */\n      tag_76\n      jump\t// in\n    tag_169:\n        /* \"#utility.yul\":5244:5315   */\n      tag_170\n        /* \"#utility.yul\":5308:5314   */\n      dup2\n        /* \"#utility.yul\":5303:5306   */\n      dup6\n        /* \"#utility.yul\":5244:5315   */\n      tag_77\n      jump\t// in\n    tag_170:\n        /* \"#utility.yul\":5237:5315   */\n      swap4\n      pop\n        /* \"#utility.yul\":5324:5389   */\n      tag_171\n        /* \"#utility.yul\":5382:5388   */\n      dup2\n        /* \"#utility.yul\":5377:5380   */\n      dup6\n        /* \"#utility.yul\":5370:5374   */\n      0x20\n        /* \"#utility.yul\":5363:5368   */\n      dup7\n        /* \"#utility.yul\":5359:5375   */\n      add\n        /* \"#utility.yul\":5324:5389   */\n      tag_78\n      jump\t// in\n    tag_171:\n        /* \"#utility.yul\":5414:5443   */\n      tag_172\n        /* \"#utility.yul\":5436:5442   */\n      dup2\n        /* \"#utility.yul\":5414:5443   */\n      tag_65\n      jump\t// in\n    tag_172:\n        /* \"#utility.yul\":5409:5412   */\n      dup5\n        /* \"#utility.yul\":5405:5444   */\n      add\n        /* \"#utility.yul\":5398:5444   */\n      swap2\n      pop\n        /* \"#utility.yul\":5165:5450   */\n      pop\n        /* \"#utility.yul\":5073:5450   */\n      swap3\n      swap2\n      pop\n      pop\n      jump\t// out\n        /* \"#utility.yul\":5456:5546   */\n    tag_80:\n        /* \"#utility.yul\":5490:5497   */\n      0x00\n        /* \"#utility.yul\":5533:5538   */\n      dup2\n        /* \"#utility.yul\":5526:5539   */\n      iszero\n        /* \"#utility.yul\":5519:5540   */\n      iszero\n        /* \"#utility.yul\":5508:5540   */\n      swap1\n      pop\n        /* \"#utility.yul\":5456:5546   */\n      swap2\n      swap1\n      pop\n      jump\t// out\n        /* \"#utility.yul\":5552:5661   */\n    tag_81:\n        /* \"#utility.yul\":5633:5654   */\n      tag_175\n        /* \"#utility.yul\":5648:5653   */\n      dup2\n        /* \"#utility.yul\":5633:5654   */\n      tag_80\n      jump\t// in\n    tag_175:\n        /* \"#utility.yul\":5628:5631   */\n      dup3\n        /* \"#utility.yul\":5621:5655   */\n      mstore\n        /* \"#utility.yul\":5552:5661   */\n      pop\n      pop\n      jump\t// out\n        /* \"#utility.yul\":5667:5763   */\n    tag_82:\n        /* \"#utility.yul\":5704:5711   */\n      0x00\n        /* \"#utility.yul\":5733:5757   */\n      tag_177\n        /* \"#utility.yul\":5751:5756   */\n      dup3\n        /* \"#utility.yul\":5733:5757   */\n      tag_73\n      jump\t// in\n    tag_177:\n        /* \"#utility.yul\":5722:5757   */\n      swap1\n      pop\n        /* \"#utility.yul\":5667:5763   */\n      swap2\n      swap1\n      pop\n      jump\t// out\n        /* \"#utility.yul\":5769:5887   */\n    tag_83:\n        /* \"#utility.yul\":5856:5880   */\n      tag_179\n        /* \"#utility.yul\":5874:5879   */\n      dup2\n        /* \"#utility.yul\":5856:5880   */\n      tag_82\n      jump\t// in\n    tag_179:\n        /* \"#utility.yul\":5851:5854   */\n      dup3\n        /* \"#utility.yul\":5844:5881   */\n      mstore\n        /* \"#utility.yul\":5769:5887   */\n      pop\n      pop\n      jump\t// out\n        /* \"#utility.yul\":5893:6668   */\n    tag_25:\n        /* \"#utility.yul\":6128:6132   */\n      0x00\n        /* \"#utility.yul\":6166:6169   */\n      0xa0\n        /* \"#utility.yul\":6155:6164   */\n      dup3\n        /* \"#utility.yul\":6151:6170   */\n      add\n        /* \"#utility.yul\":6143:6170   */\n      swap1\n      pop\n        /* \"#utility.yul\":6180:6267   */\n      tag_181\n        /* \"#utility.yul\":6264:6265   */\n      0x00\n        /* \"#utility.yul\":6253:6262   */\n      dup4\n        /* \"#utility.yul\":6249:6266   */\n      add\n        /* \"#utility.yul\":6240:6246   */\n      dup9\n        /* \"#utility.yul\":6180:6267   */\n      tag_75\n      jump\t// in\n    tag_181:\n        /* \"#utility.yul\":6277:6349   */\n      tag_182\n        /* \"#utility.yul\":6345:6347   */\n      0x20\n        /* \"#utility.yul\":6334:6343   */\n      dup4\n        /* \"#utility.yul\":6330:6348   */\n      add\n        /* \"#utility.yul\":6321:6327   */\n      dup8\n        /* \"#utility.yul\":6277:6349   */\n      tag_57\n      jump\t// in\n    tag_182:\n        /* \"#utility.yul\":6396:6405   */\n      dup2\n        /* \"#utility.yul\":6390:6394   */\n      dup2\n        /* \"#utility.yul\":6386:6406   */\n      sub\n        /* \"#utility.yul\":6381:6383   */\n      0x40\n        /* \"#utility.yul\":6370:6379   */\n      dup4\n        /* \"#utility.yul\":6366:6384   */\n      add\n        /* \"#utility.yul\":6359:6407   */\n      mstore\n        /* \"#utility.yul\":6424:6502   */\n      tag_183\n        /* \"#utility.yul\":6497:6501   */\n      dup2\n        /* \"#utility.yul\":6488:6494   */\n      dup7\n        /* \"#utility.yul\":6424:6502   */\n      tag_79\n      jump\t// in\n    tag_183:\n        /* \"#utility.yul\":6416:6502   */\n      swap1\n      pop\n        /* \"#utility.yul\":6512:6578   */\n      tag_184\n        /* \"#utility.yul\":6574:6576   */\n      0x60\n        /* \"#utility.yul\":6563:6572   */\n      dup4\n        /* \"#utility.yul\":6559:6577   */\n      add\n        /* \"#utility.yul\":6550:6556   */\n      dup6\n        /* \"#utility.yul\":6512:6578   */\n      tag_81\n      jump\t// in\n    tag_184:\n        /* \"#utility.yul\":6588:6661   */\n      tag_185\n        /* \"#utility.yul\":6656:6659   */\n      0x80\n        /* \"#utility.yul\":6645:6654   */\n      dup4\n        /* \"#utility.yul\":6641:6660   */\n      add\n        /* \"#utility.yul\":6632:6638   */\n      dup5\n        /* \"#utility.yul\":6588:6661   */\n      tag_83\n      jump\t// in\n    tag_185:\n        /* \"#utility.yul\":5893:6668   */\n      swap7\n      swap6\n      pop\n      pop\n      pop\n      pop\n      pop\n      pop\n      jump\t// out\n        /* \"#utility.yul\":6674:6856   */\n    tag_84:\n        /* \"#utility.yul\":6814:6848   */\n      0x416d6f756e74206d7573742062652067726561746572207468616e207a65726f\n        /* \"#utility.yul\":6810:6811   */\n      0x00\n        /* \"#utility.yul\":6802:6808   */\n      dup3\n        /* \"#utility.yul\":6798:6812   */\n      add\n        /* \"#utility.yul\":6791:6849   */\n      mstore\n        /* \"#utility.yul\":6674:6856   */\n      pop\n      jump\t// out\n        /* \"#utility.yul\":6862:7228   */\n    tag_85:\n        /* \"#utility.yul\":7004:7007   */\n      0x00\n        /* \"#utility.yul\":7025:7092   */\n      tag_188\n        /* \"#utility.yul\":7089:7091   */\n      0x20\n        /* \"#utility.yul\":7084:7087   */\n      dup4\n        /* \"#utility.yul\":7025:7092   */\n      tag_77\n      jump\t// in\n    tag_188:\n        /* \"#utility.yul\":7018:7092   */\n      swap2\n      pop\n        /* \"#utility.yul\":7101:7194   */\n      tag_189\n        /* \"#utility.yul\":7190:7193   */\n      dup3\n        /* \"#utility.yul\":7101:7194   */\n      tag_84\n      jump\t// in\n    tag_189:\n        /* \"#utility.yul\":7219:7221   */\n      0x20\n        /* \"#utility.yul\":7214:7217   */\n      dup3\n        /* \"#utility.yul\":7210:7222   */\n      add\n        /* \"#utility.yul\":7203:7222   */\n      swap1\n      pop\n        /* \"#utility.yul\":6862:7228   */\n      swap2\n      swap1\n      pop\n      jump\t// out\n        /* \"#utility.yul\":7234:7653   */\n    tag_29:\n        /* \"#utility.yul\":7400:7404   */\n      0x00\n        /* \"#utility.yul\":7438:7440   */\n      0x20\n        /* \"#utility.yul\":7427:7436   */\n      dup3\n        /* \"#utility.yul\":7423:7441   */\n      add\n        /* \"#utility.yul\":7415:7441   */\n      swap1\n      pop\n        /* \"#utility.yul\":7487:7496   */\n      dup2\n        /* \"#utility.yul\":7481:7485   */\n      dup2\n        /* \"#utility.yul\":7477:7497   */\n      sub\n        /* \"#utility.yul\":7473:7474   */\n      0x00\n        /* \"#utility.yul\":7462:7471   */\n      dup4\n        /* \"#utility.yul\":7458:7475   */\n      add\n        /* \"#utility.yul\":7451:7498   */\n      mstore\n        /* \"#utility.yul\":7515:7646   */\n      tag_191\n        /* \"#utility.yul\":7641:7645   */\n      dup2\n        /* \"#utility.yul\":7515:7646   */\n      tag_85\n      jump\t// in\n    tag_191:\n        /* \"#utility.yul\":7507:7646   */\n      swap1\n      pop\n        /* \"#utility.yul\":7234:7653   */\n      swap2\n      swap1\n      pop\n      jump\t// out\n        /* \"#utility.yul\":7659:7839   */\n    tag_86:\n        /* \"#utility.yul\":7707:7784   */\n      0x4e487b7100000000000000000000000000000000000000000000000000000000\n        /* \"#utility.yul\":7704:7705   */\n      0x00\n        /* \"#utility.yul\":7697:7785   */\n      mstore\n        /* \"#utility.yul\":7804:7808   */\n      0x11\n        /* \"#utility.yul\":7801:7802   */\n      0x04\n        /* \"#utility.yul\":7794:7809   */\n      mstore\n        /* \"#utility.yul\":7828:7832   */\n      0x24\n        /* \"#utility.yul\":7825:7826   */\n      0x00\n        /* \"#utility.yul\":7818:7833   */\n      revert\n        /* \"#utility.yul\":7845:8078   */\n    tag_31:\n        /* \"#utility.yul\":7884:7887   */\n      0x00\n        /* \"#utility.yul\":7907:7931   */\n      tag_194\n        /* \"#utility.yul\":7925:7930   */\n      dup3\n        /* \"#utility.yul\":7907:7931   */\n      tag_56\n      jump\t// in\n    tag_194:\n        /* \"#utility.yul\":7898:7931   */\n      swap2\n      pop\n        /* \"#utility.yul\":7953:8019   */\n      0xffffffffffffffffffffffffffffffffffffffffffffffffffffffffffffffff\n        /* \"#utility.yul\":7946:7951   */\n      dup3\n        /* \"#utility.yul\":7943:8020   */\n      sub\n        /* \"#utility.yul\":7940:8043   */\n      tag_195\n      jumpi\n        /* \"#utility.yul\":8023:8041   */\n      tag_196\n      tag_86\n      jump\t// in\n    tag_196:\n        /* \"#utility.yul\":7940:8043   */\n    tag_195:\n        /* \"#utility.yul\":8070:8071   */\n      0x01\n        /* \"#utility.yul\":8063:8068   */\n      dup3\n        /* \"#utility.yul\":8059:8072   */\n      add\n        /* \"#utility.yul\":8052:8072   */\n      swap1\n      pop\n        /* \"#utility.yul\":7845:8078   */\n      swap2\n      swap1\n      pop\n      jump\t// out\n        /* \"#utility.yul\":8084:8264   */\n    tag_87:\n        /* \"#utility.yul\":8132:8209   */\n      0x4e487b7100000000000000000000000000000000000000000000000000000000\n        /* \"#utility.yul\":8129:8130   */\n      0x00\n        /* \"#utility.yul\":8122:8210   */\n      mstore\n        /* \"#utility.yul\":8229:8233   */\n      0x22\n        /* \"#utility.yul\":8226:8227   */\n      0x04\n        /* \"#utility.yul\":8219:8234   */\n      mstore\n        /* \"#utility.yul\":8253:8257   */\n      0x24\n        /* \"#utility.yul\":8250:8251   */\n      0x00\n        /* \"#utility.yul\":8243:8258   */\n      revert\n        /* \"#utility.yul\":8270:8590   */\n    tag_51:\n        /* \"#utility.yul\":8314:8320   */\n      0x00\n        /* \"#utility.yul\":8351:8352   */\n      0x02\n        /* \"#utility.yul\":8345:8349   */\n      dup3\n        /* \"#utility.yul\":8341:8353   */\n      div\n        /* \"#utility.yul\":8331:8353   */\n      swap1\n      pop\n        /* \"#utility.yul\":8398:8399   */\n      0x01\n        /* \"#utility.yul\":8392:8396   */\n      dup3\n        /* \"#utility.yul\":8388:8400   */\n      and\n        /* \"#utility.yul\":8419:8437   */\n      dup1\n        /* \"#utility.yul\":8409:8490   */\n      tag_199\n      jumpi\n        /* \"#utility.yul\":8475:8479   */\n      0x7f\n        /* \"#utility.yul\":8467:8473   */\n      dup3\n        /* \"#utility.yul\":8463:8480   */\n      and\n        /* \"#utility.yul\":8453:8480   */\n      swap2\n      pop\n        /* \"#utility.yul\":8409:8490   */\n    tag_199:\n        /* \"#utility.yul\":8537:8539   */\n      0x20\n        /* \"#utility.yul\":8529:8535   */\n      dup3\n        /* \"#utility.yul\":8526:8540   */\n      lt\n        /* \"#utility.yul\":8506:8524   */\n      dup2\n        /* \"#utility.yul\":8503:8541   */\n      sub\n        /* \"#utility.yul\":8500:8584   */\n      tag_200\n      jumpi\n        /* \"#utility.yul\":8556:8574   */\n      tag_201\n      tag_87\n      jump\t// in\n    tag_201:\n        /* \"#utility.yul\":8500:8584   */\n    tag_200:\n        /* \"#utility.yul\":8321:8590   */\n      pop\n        /* \"#utility.yul\":8270:8590   */\n      swap2\n      swap1\n      pop\n      jump\t// out\n        /* \"#utility.yul\":8596:8737   */\n    tag_88:\n        /* \"#utility.yul\":8645:8649   */\n      0x00\n        /* \"#utility.yul\":8668:8671   */\n      dup2\n        /* \"#utility.yul\":8660:8671   */\n      swap1\n      pop\n        /* \"#utility.yul\":8691:8694   */\n      dup2\n        /* \"#utility.yul\":8688:8689   */\n      0x00\n        /* \"#utility.yul\":8681:8695   */\n      mstore\n        /* \"#utility.yul\":8725:8729   */\n      0x20\n        /* \"#utility.yul\":8722:8723   */\n      0x00\n        /* \"#utility.yul\":8712:8730   */\n      keccak256\n        /* \"#utility.yul\":8704:8730   */\n      swap1\n      pop\n        /* \"#utility.yul\":8596:8737   */\n      swap2\n      swap1\n      pop\n      jump\t// out\n        /* \"#utility.yul\":8743:8836   */\n    tag_89:\n        /* \"#utility.yul\":8780:8786   */\n      0x00\n        /* \"#utility.yul\":8827:8829   */\n      0x20\n        /* \"#utility.yul\":8822:8824   */\n      0x1f\n        /* \"#utility.yul\":8815:8820   */\n      dup4\n        /* \"#utility.yul\":8811:8825   */\n      add\n        /* \"#utility.yul\":8807:8830   */\n      div\n        /* \"#utility.yul\":8797:8830   */\n      swap1\n      pop\n        /* \"#utility.yul\":8743:8836   */\n      swap2\n      swap1\n      pop\n      jump\t// out\n        /* \"#utility.yul\":8842:8949   */\n    tag_90:\n        /* \"#utility.yul\":8886:8894   */\n      0x00\n        /* \"#utility.yul\":8936:8941   */\n      dup3\n        /* \"#utility.yul\":8930:8934   */\n      dup3\n        /* \"#utility.yul\":8926:8942   */\n      shl\n        /* \"#utility.yul\":8905:8942   */\n      swap1\n      pop\n        /* \"#utility.yul\":8842:8949   */\n      swap3\n      swap2\n      pop\n      pop\n      jump\t// out\n        /* \"#utility.yul\":8955:9348   */\n    tag_91:\n        /* \"#utility.yul\":9024:9030   */\n      0x00\n        /* \"#utility.yul\":9074:9075   */\n      0x08\n        /* \"#utility.yul\":9062:9072   */\n      dup4\n        /* \"#utility.yul\":9058:9076   */\n      mul\n        /* \"#utility.yul\":9097:9194   */\n      tag_206\n        /* \"#utility.yul\":9127:9193   */\n      0xffffffffffffffffffffffffffffffffffffffffffffffffffffffffffffffff\n        /* \"#utility.yul\":9116:9125   */\n      dup3\n        /* \"#utility.yul\":9097:9194   */\n      tag_90\n      jump\t// in\n    tag_206:\n        /* \"#utility.yul\":9215:9254   */\n      tag_207\n        /* \"#utility.yul\":9245:9253   */\n      dup7\n        /* \"#utility.yul\":9234:9243   */\n      dup4\n        /* \"#utility.yul\":9215:9254   */\n      tag_90\n      jump\t// in\n    tag_207:\n        /* \"#utility.yul\":9203:9254   */\n      swap6\n      pop\n        /* \"#utility.yul\":9287:9291   */\n      dup1\n        /* \"#utility.yul\":9283:9292   */\n      not\n        /* \"#utility.yul\":9276:9281   */\n      dup5\n        /* \"#utility.yul\":9272:9293   */\n      and\n        /* \"#utility.yul\":9263:9293   */\n      swap4\n      pop\n        /* \"#utility.yul\":9336:9340   */\n      dup1\n        /* \"#utility.yul\":9326:9334   */\n      dup7\n        /* \"#utility.yul\":9322:9341   */\n      and\n        /* \"#utility.yul\":9315:9320   */\n      dup5\n        /* \"#utility.yul\":9312:9342   */\n      or\n        /* \"#utility.yul\":9302:9342   */\n      swap3\n      pop\n        /* \"#utility.yul\":9031:9348   */\n      pop\n      pop\n        /* \"#utility.yul\":8955:9348   */\n      swap4\n      swap3\n      pop\n      pop\n      pop\n      jump\t// out\n        /* \"#utility.yul\":9354:9414   */\n    tag_92:\n        /* \"#utility.yul\":9382:9385   */\n      0x00\n        /* \"#utility.yul\":9403:9408   */\n      dup2\n        /* \"#utility.yul\":9396:9408   */\n      swap1\n      pop\n        /* \"#utility.yul\":9354:9414   */\n      swap2\n      swap1\n      pop\n      jump\t// out\n        /* \"#utility.yul\":9420:9562   */\n    tag_93:\n        /* \"#utility.yul\":9470:9479   */\n      0x00\n        /* \"#utility.yul\":9503:9556   */\n      tag_210\n        /* \"#utility.yul\":9521:9555   */\n      tag_211\n        /* \"#utility.yul\":9530:9554   */\n      tag_212\n        /* \"#utility.yul\":9548:9553   */\n      dup5\n        /* \"#utility.yul\":9530:9554   */\n      tag_56\n      jump\t// in\n    tag_212:\n        /* \"#utility.yul\":9521:9555   */\n      tag_92\n      jump\t// in\n    tag_211:\n        /* \"#utility.yul\":9503:9556   */\n      tag_56\n      jump\t// in\n    tag_210:\n        /* \"#utility.yul\":9490:9556   */\n      swap1\n      pop\n        /* \"#utility.yul\":9420:9562   */\n      swap2\n      swap1\n      pop\n      jump\t// out\n        /* \"#utility.yul\":9568:9643   */\n    tag_94:\n        /* \"#utility.yul\":9611:9614   */\n      0x00\n        /* \"#utility.yul\":9632:9637   */\n      dup2\n        /* \"#utility.yul\":9625:9637   */\n      swap1\n      pop\n        /* \"#utility.yul\":9568:9643   */\n      swap2\n      swap1\n      pop\n      jump\t// out\n        /* \"#utility.yul\":9649:9918   */\n    tag_95:\n        /* \"#utility.yul\":9759:9798   */\n      tag_215\n        /* \"#utility.yul\":9790:9797   */\n      dup4\n        /* \"#utility.yul\":9759:9798   */\n      tag_93\n      jump\t// in\n    tag_215:\n        /* \"#utility.yul\":9820:9911   */\n      tag_216\n        /* \"#utility.yul\":9869:9910   */\n      tag_217\n        /* \"#utility.yul\":9893:9909   */\n      dup3\n        /* \"#utility.yul\":9869:9910   */\n      tag_94\n      jump\t// in\n    tag_217:\n        /* \"#utility.yul\":9861:9867   */\n      dup5\n        /* \"#utility.yul\":9854:9858   */\n      dup5\n        /* \"#utility.yul\":9848:9859   */\n      sload\n        /* \"#utility.yul\":9820:9911   */\n      tag_91\n      jump\t// in\n    tag_216:\n        /* \"#utility.yul\":9814:9818   */\n      dup3\n        /* \"#utility.yul\":9807:9912   */\n      sstore\n        /* \"#utility.yul\":9725:9918   */\n      pop\n        /* \"#utility.yul\":9649:9918   */\n      pop\n      pop\n      pop\n      jump\t// out\n        /* \"#utility.yul\":9924:9997   */\n    tag_96:\n        /* \"#utility.yul\":9969:9972   */\n      0x00\n        /* \"#utility.yul\":9990:9991   */\n      0x00\n        /* \"#utility.yul\":9983:9991   */\n      swap1\n      pop\n        /* \"#utility.yul\":9924:9997   */\n      swap1\n      jump\t// out\n        /* \"#utility.yul\":10003:10192   */\n    tag_97:\n        /* \"#utility.yul\":10080:10112   */\n      tag_220\n      tag_96\n      jump\t// in\n    tag_220:\n        /* \"#utility.yul\":10121:10186   */\n      tag_221\n        /* \"#utility.yul\":10179:10185   */\n      dup2\n        /* \"#utility.yul\":10171:10177   */\n      dup5\n        /* \"#utility.yul\":10165:10169   */\n      dup5\n        /* \"#utility.yul\":10121:10186   */\n      tag_95\n      jump\t// in\n    tag_221:\n        /* \"#utility.yul\":10056:10192   */\n      pop\n        /* \"#utility.yul\":10003:10192   */\n      pop\n      pop\n      jump\t// out\n        /* \"#utility.yul\":10198:10412   */\n    tag_98:\n        /* \"#utility.yul\":10283:10284   */\n      0x00\n        /* \"#utility.yul\":10268:10406   */\n    tag_223:\n        /* \"#utility.yul\":10293:10302   */\n      dup3\n        /* \"#utility.yul\":10290:10291   */\n      dup2\n        /* \"#utility.yul\":10287:10303   */\n      lt\n        /* \"#utility.yul\":10268:10406   */\n      iszero\n      tag_225\n      jumpi\n        /* \"#utility.yul\":10345:10396   */\n      tag_226\n        /* \"#utility.yul\":10394:10395   */\n      0x00\n        /* \"#utility.yul\":10390:10391   */\n      dup3\n        /* \"#utility.yul\":10379:10388   */\n      dup5\n        /* \"#utility.yul\":10375:10392   */\n      add\n        /* \"#utility.yul\":10345:10396   */\n      tag_97\n      jump\t// in\n    tag_226:\n        /* \"#utility.yul\":10318:10319   */\n      0x01\n        /* \"#utility.yul\":10315:10316   */\n      dup2\n        /* \"#utility.yul\":10311:10320   */\n      add\n        /* \"#utility.yul\":10306:10320   */\n      swap1\n      pop\n        /* \"#utility.yul\":10268:10406   */\n      jump(tag_223)\n    tag_225:\n        /* \"#utility.yul\":10272:10286   */\n      pop\n        /* \"#utility.yul\":10198:10412   */\n      pop\n      pop\n      jump\t// out\n        /* \"#utility.yul\":10418:11164   */\n    tag_99:\n        /* \"#utility.yul\":10519:10521   */\n      0x1f\n        /* \"#utility.yul\":10514:10517   */\n      dup3\n        /* \"#utility.yul\":10511:10522   */\n      gt\n        /* \"#utility.yul\":10508:11157   */\n      iszero\n      tag_228\n      jumpi\n        /* \"#utility.yul\":10548:10558   */\n      dup3\n        /* \"#utility.yul\":10543:10546   */\n      dup3\n        /* \"#utility.yul\":10540:10559   */\n      gt\n        /* \"#utility.yul\":10537:11147   */\n      iszero\n      tag_229\n      jumpi\n        /* \"#utility.yul\":10594:10632   */\n      tag_230\n        /* \"#utility.yul\":10626:10631   */\n      dup2\n        /* \"#utility.yul\":10594:10632   */\n      tag_88\n      jump\t// in\n    tag_230:\n        /* \"#utility.yul\":10669:10691   */\n      tag_231\n        /* \"#utility.yul\":10687:10690   */\n      dup4\n        /* \"#utility.yul\":10669:10691   */\n      tag_89\n      jump\t// in\n    tag_231:\n        /* \"#utility.yul\":10728:10757   */\n      tag_232\n        /* \"#utility.yul\":10746:10756   */\n      dup6\n        /* \"#utility.yul\":10728:10757   */\n      tag_89\n      jump\t// in\n    tag_232:\n        /* \"#utility.yul\":10918:10920   */\n      0x20\n        /* \"#utility.yul\":10906:10916   */\n      dup7\n        /* \"#utility.yul\":10903:10921   */\n      lt\n        /* \"#utility.yul\":10900:10979   */\n      iszero\n      tag_233\n      jumpi\n        /* \"#utility.yul\":10960:10961   */\n      0x00\n        /* \"#utility.yul\":10944:10961   */\n      swap1\n      pop\n        /* \"#utility.yul\":10900:10979   */\n    tag_233:\n        /* \"#utility.yul\":11029:11041   */\n      dup1\n        /* \"#utility.yul\":11019:11027   */\n      dup4\n        /* \"#utility.yul\":11015:11042   */\n      add\n        /* \"#utility.yul\":11059:11133   */\n      tag_234\n        /* \"#utility.yul\":11119:11131   */\n      dup3\n        /* \"#utility.yul\":11105:11117   */\n      dup5\n        /* \"#utility.yul\":11101:11132   */\n      sub\n        /* \"#utility.yul\":11088:11099   */\n      dup3\n        /* \"#utility.yul\":11059:11133   */\n      tag_98\n      jump\t// in\n    tag_234:\n        /* \"#utility.yul\":10560:11147   */\n      pop\n      pop\n      pop\n      pop\n        /* \"#utility.yul\":10537:11147   */\n    tag_229:\n        /* \"#utility.yul\":10508:11157   */\n    tag_228:\n        /* \"#utility.yul\":10418:11164   */\n      pop\n      pop\n      pop\n      jump\t// out\n        /* \"#utility.yul\":11170:11287   */\n    tag_100:\n        /* \"#utility.yul\":11224:11232   */\n      0x00\n        /* \"#utility.yul\":11274:11279   */\n      dup3\n        /* \"#utility.yul\":11268:11272   */\n      dup3\n        /* \"#utility.yul\":11264:11280   */\n      shr\n        /* \"#utility.yul\":11243:11280   */\n      swap1\n      pop\n        /* \"#utility.yul\":11170:11287   */\n      swap3\n      swap2\n      pop\n      pop\n      jump\t// out\n        /* \"#utility.yul\":11293:11462   */\n    tag_101:\n        /* \"#utility.yul\":11337:11343   */\n      0x00\n        /* \"#utility.yul\":11370:11421   */\n      tag_237\n        /* \"#utility.yul\":11418:11419   */\n      0x00\n        /* \"#utility.yul\":11414:11420   */\n      not\n        /* \"#utility.yul\":11406:11411   */\n      dup5\n        /* \"#utility.yul\":11403:11404   */\n      0x08\n        /* \"#utility.yul\":11399:11412   */\n      mul\n        /* \"#utility.yul\":11370:11421   */\n      tag_100\n      jump\t// in\n    tag_237:\n        /* \"#utility.yul\":11366:11422   */\n      not\n        /* \"#utility.yul\":11451:11455   */\n      dup1\n        /* \"#utility.yul\":11445:11449   */\n      dup4\n        /* \"#utility.yul\":11441:11456   */\n      and\n        /* \"#utility.yul\":11431:11456   */\n      swap2\n      pop\n        /* \"#utility.yul\":11344:11462   */\n      pop\n        /* \"#utility.yul\":11293:11462   */\n      swap3\n      swap2\n      pop\n      pop\n      jump\t// out\n        /* \"#utility.yul\":11467:11762   */\n    tag_102:\n        /* \"#utility.yul\":11543:11547   */\n      0x00\n        /* \"#utility.yul\":11689:11718   */\n      tag_239\n        /* \"#utility.yul\":11714:11717   */\n      dup4\n        /* \"#utility.yul\":11708:11712   */\n      dup4\n        /* \"#utility.yul\":11689:11718   */\n      tag_101\n      jump\t// in\n    tag_239:\n        /* \"#utility.yul\":11681:11718   */\n      swap2\n      pop\n        /* \"#utility.yul\":11751:11754   */\n      dup3\n        /* \"#utility.yul\":11748:11749   */\n      0x02\n        /* \"#utility.yul\":11744:11755   */\n      mul\n        /* \"#utility.yul\":11738:11742   */\n      dup3\n        /* \"#utility.yul\":11735:11756   */\n      or\n        /* \"#utility.yul\":11727:11756   */\n      swap1\n      pop\n        /* \"#utility.yul\":11467:11762   */\n      swap3\n      swap2\n      pop\n      pop\n      jump\t// out\n        /* \"#utility.yul\":11767:13162   */\n    tag_33:\n        /* \"#utility.yul\":11884:11921   */\n      tag_241\n        /* \"#utility.yul\":11917:11920   */\n      dup3\n        /* \"#utility.yul\":11884:11921   */\n      tag_76\n      jump\t// in\n    tag_241:\n        /* \"#utility.yul\":11986:12004   */\n      0xffffffffffffffff\n        /* \"#utility.yul\":11978:11984   */\n      dup2\n        /* \"#utility.yul\":11975:12005   */\n      gt\n        /* \"#utility.yul\":11972:12028   */\n      iszero\n      tag_242\n      jumpi\n        /* \"#utility.yul\":12008:12026   */\n      tag_243\n      tag_66\n      jump\t// in\n    tag_243:\n        /* \"#utility.yul\":11972:12028   */\n    tag_242:\n        /* \"#utility.yul\":12052:12090   */\n      tag_244\n        /* \"#utility.yul\":12084:12088   */\n      dup3\n        /* \"#utility.yul\":12078:12089   */\n      sload\n        /* \"#utility.yul\":12052:12090   */\n      tag_51\n      jump\t// in\n    tag_244:\n        /* \"#utility.yul\":12137:12204   */\n      tag_245\n        /* \"#utility.yul\":12197:12203   */\n      dup3\n        /* \"#utility.yul\":12189:12195   */\n      dup3\n        /* \"#utility.yul\":12183:12187   */\n      dup6\n        /* \"#utility.yul\":12137:12204   */\n      tag_99\n      jump\t// in\n    tag_245:\n        /* \"#utility.yul\":12231:12232   */\n      0x00\n        /* \"#utility.yul\":12255:12259   */\n      0x20\n        /* \"#utility.yul\":12242:12259   */\n      swap1\n      pop\n        /* \"#utility.yul\":12287:12289   */\n      0x1f\n        /* \"#utility.yul\":12279:12285   */\n      dup4\n        /* \"#utility.yul\":12276:12290   */\n      gt\n        /* \"#utility.yul\":12304:12305   */\n      0x01\n        /* \"#utility.yul\":12299:12917   */\n      dup2\n      eq\n      tag_247\n      jumpi\n        /* \"#utility.yul\":12961:12962   */\n      0x00\n        /* \"#utility.yul\":12978:12984   */\n      dup5\n        /* \"#utility.yul\":12975:13052   */\n      iszero\n      tag_248\n      jumpi\n        /* \"#utility.yul\":13027:13036   */\n      dup3\n        /* \"#utility.yul\":13022:13025   */\n      dup8\n        /* \"#utility.yul\":13018:13037   */\n      add\n        /* \"#utility.yul\":13012:13038   */\n      mload\n        /* \"#utility.yul\":13003:13038   */\n      swap1\n      pop\n        /* \"#utility.yul\":12975:13052   */\n    tag_248:\n        /* \"#utility.yul\":13078:13145   */\n      tag_249\n        /* \"#utility.yul\":13138:13144   */\n      dup6\n        /* \"#utility.yul\":13131:13136   */\n      dup3\n        /* \"#utility.yul\":13078:13145   */\n      tag_102\n      jump\t// in\n    tag_249:\n        /* \"#utility.yul\":13072:13076   */\n      dup7\n        /* \"#utility.yul\":13065:13146   */\n      sstore\n        /* \"#utility.yul\":12934:13156   */\n      pop\n        /* \"#utility.yul\":12269:13156   */\n      jump(tag_246)\n        /* \"#utility.yul\":12299:12917   */\n    tag_247:\n        /* \"#utility.yul\":12351:12355   */\n      0x1f\n        /* \"#utility.yul\":12347:12356   */\n      not\n        /* \"#utility.yul\":12339:12345   */\n      dup5\n        /* \"#utility.yul\":12335:12357   */\n      and\n        /* \"#utility.yul\":12385:12422   */\n      tag_250\n        /* \"#utility.yul\":12417:12421   */\n      dup7\n        /* \"#utility.yul\":12385:12422   */\n      tag_88\n      jump\t// in\n    tag_250:\n        /* \"#utility.yul\":12444:12445   */\n      0x00\n        /* \"#utility.yul\":12458:12666   */\n    tag_251:\n        /* \"#utility.yul\":12472:12479   */\n      dup3\n        /* \"#utility.yul\":12469:12470   */\n      dup2\n        /* \"#utility.yul\":12466:12480   */\n      lt\n        /* \"#utility.yul\":12458:12666   */\n      iszero\n      tag_253\n      jumpi\n        /* \"#utility.yul\":12551:12560   */\n      dup5\n        /* \"#utility.yul\":12546:12549   */\n      dup10\n        /* \"#utility.yul\":12542:12561   */\n      add\n        /* \"#utility.yul\":12536:12562   */\n      mload\n        /* \"#utility.yul\":12528:12534   */\n      dup3\n        /* \"#utility.yul\":12521:12563   */\n      sstore\n        /* \"#utility.yul\":12602:12603   */\n      0x01\n        /* \"#utility.yul\":12594:12600   */\n      dup3\n        /* \"#utility.yul\":12590:12604   */\n      add\n        /* \"#utility.yul\":12580:12604   */\n      swap2\n      pop\n        /* \"#utility.yul\":12649:12651   */\n      0x20\n        /* \"#utility.yul\":12638:12647   */\n      dup6\n        /* \"#utility.yul\":12634:12652   */\n      add\n        /* \"#utility.yul\":12621:12652   */\n      swap5\n      pop\n        /* \"#utility.yul\":12495:12499   */\n      0x20\n        /* \"#utility.yul\":12492:12493   */\n      dup2\n        /* \"#utility.yul\":12488:12500   */\n      add\n        /* \"#utility.yul\":12483:12500   */\n      swap1\n      pop\n        /* \"#utility.yul\":12458:12666   */\n      jump(tag_251)\n    tag_253:\n        /* \"#utility.yul\":12694:12700   */\n      dup7\n        /* \"#utility.yul\":12685:12692   */\n      dup4\n        /* \"#utility.yul\":12682:12701   */\n      lt\n        /* \"#utility.yul\":12679:12858   */\n      iszero\n      tag_254\n      jumpi\n        /* \"#utility.yul\":12752:12761   */\n      dup5\n        /* \"#utility.yul\":12747:12750   */\n      dup10\n        /* \"#utility.yul\":12743:12762   */\n      add\n        /* \"#utility.yul\":12737:12763   */\n      mload\n        /* \"#utility.yul\":12795:12843   */\n      tag_255\n        /* \"#utility.yul\":12837:12841   */\n      0x1f\n        /* \"#utility.yul\":12829:12835   */\n      dup10\n        /* \"#utility.yul\":12825:12842   */\n      and\n        /* \"#utility.yul\":12814:12823   */\n      dup3\n        /* \"#utility.yul\":12795:12843   */\n      tag_101\n      jump\t// in\n    tag_255:\n        /* \"#utility.yul\":12787:12793   */\n      dup4\n        /* \"#utility.yul\":12780:12844   */\n      sstore\n        /* \"#utility.yul\":12702:12858   */\n      pop\n        /* \"#utility.yul\":12679:12858   */\n    tag_254:\n        /* \"#utility.yul\":12904:12905   */\n      0x01\n        /* \"#utility.yul\":12900:12901   */\n      0x02\n        /* \"#utility.yul\":12892:12898   */\n      dup9\n        /* \"#utility.yul\":12888:12902   */\n      mul\n        /* \"#utility.yul\":12884:12906   */\n      add\n        /* \"#utility.yul\":12878:12882   */\n      dup9\n        /* \"#utility.yul\":12871:12907   */\n      sstore\n        /* \"#utility.yul\":12306:12917   */\n      pop\n      pop\n      pop\n        /* \"#utility.yul\":12269:13156   */\n    tag_246:\n      pop\n        /* \"#utility.yul\":11859:13162   */\n      pop\n      pop\n      pop\n        /* \"#utility.yul\":11767:13162   */\n      pop\n      pop\n      jump\t// out\n        /* \"#utility.yul\":13168:13812   */\n    tag_35:\n        /* \"#utility.yul\":13365:13369   */\n      0x00\n        /* \"#utility.yul\":13403:13406   */\n      0x80\n        /* \"#utility.yul\":13392:13401   */\n      dup3\n        /* \"#utility.yul\":13388:13407   */\n      add\n        /* \"#utility.yul\":13380:13407   */\n      swap1\n      pop\n        /* \"#utility.yul\":13417:13488   */\n      tag_257\n        /* \"#utility.yul\":13485:13486   */\n      0x00\n        /* \"#utility.yul\":13474:13483   */\n      dup4\n        /* \"#utility.yul\":13470:13487   */\n      add\n        /* \"#utility.yul\":13461:13467   */\n      dup8\n        /* \"#utility.yul\":13417:13488   */\n      tag_57\n      jump\t// in\n    tag_257:\n        /* \"#utility.yul\":13498:13570   */\n      tag_258\n        /* \"#utility.yul\":13566:13568   */\n      0x20\n        /* \"#utility.yul\":13555:13564   */\n      dup4\n        /* \"#utility.yul\":13551:13569   */\n      add\n        /* \"#utility.yul\":13542:13548   */\n      dup7\n        /* \"#utility.yul\":13498:13570   */\n      tag_83\n      jump\t// in\n    tag_258:\n        /* \"#utility.yul\":13580:13652   */\n      tag_259\n        /* \"#utility.yul\":13648:13650   */\n      0x40\n        /* \"#utility.yul\":13637:13646   */\n      dup4\n        /* \"#utility.yul\":13633:13651   */\n      add\n        /* \"#utility.yul\":13624:13630   */\n      dup6\n        /* \"#utility.yul\":13580:13652   */\n      tag_57\n      jump\t// in\n    tag_259:\n        /* \"#utility.yul\":13699:13708   */\n      dup2\n        /* \"#utility.yul\":13693:13697   */\n      dup2\n        /* \"#utility.yul\":13689:13709   */\n      sub\n        /* \"#utility.yul\":13684:13686   */\n      0x60\n        /* \"#utility.yul\":13673:13682   */\n      dup4\n        /* \"#utility.yul\":13669:13687   */\n      add\n        /* \"#utility.yul\":13662:13710   */\n      mstore\n        /* \"#utility.yul\":13727:13805   */\n      tag_260\n        /* \"#utility.yul\":13800:13804   */\n      dup2\n        /* \"#utility.yul\":13791:13797   */\n      dup5\n        /* \"#utility.yul\":13727:13805   */\n      tag_79\n      jump\t// in\n    tag_260:\n        /* \"#utility.yul\":13719:13805   */\n      swap1\n      pop\n        /* \"#utility.yul\":13168:13812   */\n      swap6\n      swap5\n      pop\n      pop\n      pop\n      pop\n      pop\n      jump\t// out\n        /* \"#utility.yul\":13818:13987   */\n    tag_103:\n        /* \"#utility.yul\":13958:13979   */\n      0x4c6f616e20646f6573206e6f7420657869737400000000000000000000000000\n        /* \"#utility.yul\":13954:13955   */\n      0x00\n        /* \"#utility.yul\":13946:13952   */\n      dup3\n        /* \"#utility.yul\":13942:13956   */\n      add\n        /* \"#utility.yul\":13935:13980   */\n      mstore\n        /* \"#utility.yul\":13818:13987   */\n      pop\n      jump\t// out\n        /* \"#utility.yul\":13993:14359   */\n    tag_104:\n        /* \"#utility.yul\":14135:14138   */\n      0x00\n        /* \"#utility.yul\":14156:14223   */\n      tag_263\n        /* \"#utility.yul\":14220:14222   */\n      0x13\n        /* \"#utility.yul\":14215:14218   */\n      dup4\n        /* \"#utility.yul\":14156:14223   */\n      tag_77\n      jump\t// in\n    tag_263:\n        /* \"#utility.yul\":14149:14223   */\n      swap2\n      pop\n        /* \"#utility.yul\":14232:14325   */\n      tag_264\n        /* \"#utility.yul\":14321:14324   */\n      dup3\n        /* \"#utility.yul\":14232:14325   */\n      tag_103\n      jump\t// in\n    tag_264:\n        /* \"#utility.yul\":14350:14352   */\n      0x20\n        /* \"#utility.yul\":14345:14348   */\n      dup3\n        /* \"#utility.yul\":14341:14353   */\n      add\n        /* \"#utility.yul\":14334:14353   */\n      swap1\n      pop\n        /* \"#utility.yul\":13993:14359   */\n      swap2\n      swap1\n      pop\n      jump\t// out\n        /* \"#utility.yul\":14365:14784   */\n    tag_39:\n        /* \"#utility.yul\":14531:14535   */\n      0x00\n        /* \"#utility.yul\":14569:14571   */\n      0x20\n        /* \"#utility.yul\":14558:14567   */\n      dup3\n        /* \"#utility.yul\":14554:14572   */\n      add\n        /* \"#utility.yul\":14546:14572   */\n      swap1\n      pop\n        /* \"#utility.yul\":14618:14627   */\n      dup2\n        /* \"#utility.yul\":14612:14616   */\n      dup2\n        /* \"#utility.yul\":14608:14628   */\n      sub\n        /* \"#utility.yul\":14604:14605   */\n      0x00\n        /* \"#utility.yul\":14593:14602   */\n      dup4\n        /* \"#utility.yul\":14589:14606   */\n      add\n        /* \"#utility.yul\":14582:14629   */\n      mstore\n        /* \"#utility.yul\":14646:14777   */\n      tag_266\n        /* \"#utility.yul\":14772:14776   */\n      dup2\n        /* \"#utility.yul\":14646:14777   */\n      tag_104\n      jump\t// in\n    tag_266:\n        /* \"#utility.yul\":14638:14777   */\n      swap1\n      pop\n        /* \"#utility.yul\":14365:14784   */\n      swap2\n      swap1\n      pop\n      jump\t// out\n        /* \"#utility.yul\":14790:14959   */\n    tag_105:\n        /* \"#utility.yul\":14930:14951   */\n      0x4c6f616e20616c72656164792066756e64656400000000000000000000000000\n        /* \"#utility.yul\":14926:14927   */\n      0x00\n        /* \"#utility.yul\":14918:14924   */\n      dup3\n        /* \"#utility.yul\":14914:14928   */\n      add\n        /* \"#utility.yul\":14907:14952   */\n      mstore\n        /* \"#utility.yul\":14790:14959   */\n      pop\n      jump\t// out\n        /* \"#utility.yul\":14965:15331   */\n    tag_106:\n        /* \"#utility.yul\":15107:15110   */\n      0x00\n        /* \"#utility.yul\":15128:15195   */\n      tag_269\n        /* \"#utility.yul\":15192:15194   */\n      0x13\n        /* \"#utility.yul\":15187:15190   */\n      dup4\n        /* \"#utility.yul\":15128:15195   */\n      tag_77\n      jump\t// in\n    tag_269:\n        /* \"#utility.yul\":15121:15195   */\n      swap2\n      pop\n        /* \"#utility.yul\":15204:15297   */\n      tag_270\n        /* \"#utility.yul\":15293:15296   */\n      dup3\n        /* \"#utility.yul\":15204:15297   */\n      tag_105\n      jump\t// in\n    tag_270:\n        /* \"#utility.yul\":15322:15324   */\n      0x20\n        /* \"#utility.yul\":15317:15320   */\n      dup3\n        /* \"#utility.yul\":15313:15325   */\n      add\n        /* \"#utility.yul\":15306:15325   */\n      swap1\n      pop\n        /* \"#utility.yul\":14965:15331   */\n      swap2\n      swap1\n      pop\n      jump\t// out\n        /* \"#utility.yul\":15337:15756   */\n    tag_42:\n        /* \"#utility.yul\":15503:15507   */\n      0x00\n        /* \"#utility.yul\":15541:15543   */\n      0x20\n        /* \"#utility.yul\":15530:15539   */\n      dup3\n        /* \"#utility.yul\":15526:15544   */\n      add\n        /* \"#utility.yul\":15518:15544   */\n      swap1\n      pop\n        /* \"#utility.yul\":15590:15599   */\n      dup2\n        /* \"#utility.yul\":15584:15588   */\n      dup2\n        /* \"#utility.yul\":15580:15600   */\n      sub\n        /* \"#utility.yul\":15576:15577   */\n      0x00\n        /* \"#utility.yul\":15565:15574   */\n      dup4\n        /* \"#utility.yul\":15561:15578   */\n      add\n        /* \"#utility.yul\":15554:15601   */\n      mstore\n        /* \"#utility.yul\":15618:15749   */\n      tag_272\n        /* \"#utility.yul\":15744:15748   */\n      dup2\n        /* \"#utility.yul\":15618:15749   */\n      tag_106\n      jump\t// in\n    tag_272:\n        /* \"#utility.yul\":15610:15749   */\n      swap1\n      pop\n        /* \"#utility.yul\":15337:15756   */\n      swap2\n      swap1\n      pop\n      jump\t// out\n        /* \"#utility.yul\":15762:15939   */\n    tag_107:\n        /* \"#utility.yul\":15902:15931   */\n      0x4d7573742073656e64206578616374206c6f616e20616d6f756e740000000000\n        /* \"#utility.yul\":15898:15899   */\n      0x00\n        /* \"#utility.yul\":15890:15896   */\n      dup3\n        /* \"#utility.yul\":15886:15900   */\n      add\n        /* \"#utility.yul\":15879:15932   */\n      mstore\n        /* \"#utility.yul\":15762:15939   */\n      pop\n      jump\t// out\n        /* \"#utility.yul\":15945:16311   */\n    tag_108:\n        /* \"#utility.yul\":16087:16090   */\n      0x00\n        /* \"#utility.yul\":16108:16175   */\n      tag_275\n        /* \"#utility.yul\":16172:16174   */\n      0x1b\n        /* \"#utility.yul\":16167:16170   */\n      dup4\n        /* \"#utility.yul\":16108:16175   */\n      tag_77\n      jump\t// in\n    tag_275:\n        /* \"#utility.yul\":16101:16175   */\n      swap2\n      pop\n        /* \"#utility.yul\":16184:16277   */\n      tag_276\n        /* \"#utility.yul\":16273:16276   */\n      dup3\n        /* \"#utility.yul\":16184:16277   */\n      tag_107\n      jump\t// in\n    tag_276:\n        /* \"#utility.yul\":16302:16304   */\n      0x20\n        /* \"#utility.yul\":16297:16300   */\n      dup3\n        /* \"#utility.yul\":16293:16305   */\n      add\n        /* \"#utility.yul\":16286:16305   */\n      swap1\n      pop\n        /* \"#utility.yul\":15945:16311   */\n      swap2\n      swap1\n      pop\n      jump\t// out\n        /* \"#utility.yul\":16317:16736   */\n    tag_45:\n        /* \"#utility.yul\":16483:16487   */\n      0x00\n        /* \"#utility.yul\":16521:16523   */\n      0x20\n        /* \"#utility.yul\":16510:16519   */\n      dup3\n        /* \"#utility.yul\":16506:16524   */\n      add\n        /* \"#utility.yul\":16498:16524   */\n      swap1\n      pop\n        /* \"#utility.yul\":16570:16579   */\n      dup2\n        /* \"#utility.yul\":16564:16568   */\n      dup2\n        /* \"#utility.yul\":16560:16580   */\n      sub\n        /* \"#utility.yul\":16556:16557   */\n      0x00\n        /* \"#utility.yul\":16545:16554   */\n      dup4\n        /* \"#utility.yul\":16541:16558   */\n      add\n        /* \"#utility.yul\":16534:16581   */\n      mstore\n        /* \"#utility.yul\":16598:16729   */\n      tag_278\n        /* \"#utility.yul\":16724:16728   */\n      dup2\n        /* \"#utility.yul\":16598:16729   */\n      tag_108\n      jump\t// in\n    tag_278:\n        /* \"#utility.yul\":16590:16729   */\n      swap1\n      pop\n        /* \"#utility.yul\":16317:16736   */\n      swap2\n      swap1\n      pop\n      jump\t// out\n        /* \"#utility.yul\":16742:17074   */\n    tag_49:\n        /* \"#utility.yul\":16863:16867   */\n      0x00\n        /* \"#utility.yul\":16901:16903   */\n      0x40\n        /* \"#utility.yul\":16890:16899   */\n      dup3\n        /* \"#utility.yul\":16886:16904   */\n      add\n        /* \"#utility.yul\":16878:16904   */\n      swap1\n      pop\n        /* \"#utility.yul\":16914:16985   */\n      tag_280\n        /* \"#utility.yul\":16982:16983   */\n      0x00\n        /* \"#utility.yul\":16971:16980   */\n      dup4\n        /* \"#utility.yul\":16967:16984   */\n      add\n        /* \"#utility.yul\":16958:16964   */\n      dup6\n        /* \"#utility.yul\":16914:16985   */\n      tag_57\n      jump\t// in\n    tag_280:\n        /* \"#utility.yul\":16995:17067   */\n      tag_281\n        /* \"#utility.yul\":17063:17065   */\n      0x20\n        /* \"#utility.yul\":17052:17061   */\n      dup4\n        /* \"#utility.yul\":17048:17066   */\n      add\n        /* \"#utility.yul\":17039:17045   */\n      dup5\n        /* \"#utility.yul\":16995:17067   */\n      tag_83\n      jump\t// in\n    tag_281:\n        /* \"#utility.yul\":16742:17074   */\n      swap4\n      swap3\n      pop\n      pop\n      pop\n      jump\t// out\n\n    auxdata: 0xa2646970667358221220582112ea01eb6b877c7544de3bc7d48fcd949ae568d70e09d0e2496c522419a864736f6c63430008220033\n}\n",
				"bytecode": {
					"linkReferences": {},
					"object": "6080604052348015600e575f5ffd5b50610eaf8061001c5f395ff3fe60806040526004361061003e575f3560e01c806334d9289e146100425780636c79e1671461006c578063846b909a14610094578063e1ec3c68146100b0575b5f5ffd5b34801561004d575f5ffd5b506100566100f0565b60405161006391906105d1565b60405180910390f35b348015610077575f5ffd5b50610092600480360381019061008d9190610761565b6100f5565b005b6100ae60048036038101906100a991906107bb565b6102c3565b005b3480156100bb575f5ffd5b506100d660048036038101906100d191906107bb565b6104b6565b6040516100e79594939291906108bf565b60405180910390f35b5f5481565b5f8211610137576040517f08c379a000000000000000000000000000000000000000000000000000000000815260040161012e90610961565b60405180910390fd5b5f5f815480929190610148906109ac565b91905055506040518060a001604052803373ffffffffffffffffffffffffffffffffffffffff1681526020018381526020018281526020015f151581526020015f73ffffffffffffffffffffffffffffffffffffffff1681525060015f5f5481526020019081526020015f205f820151815f015f6101000a81548173ffffffffffffffffffffffffffffffffffffffff021916908373ffffffffffffffffffffffffffffffffffffffff1602179055506020820151816001015560408201518160020190816102179190610c01565b506060820151816003015f6101000a81548160ff02191690831515021790555060808201518160030160016101000a81548173ffffffffffffffffffffffffffffffffffffffff021916908373ffffffffffffffffffffffffffffffffffffffff1602179055509050507ffbba0893dd1f941cb4a7bb791aed3ce1ad2a008c20ef3254b2a2cf7752b199f15f543384846040516102b79493929190610cd0565b60405180910390a15050565b5f60015f8381526020019081526020015f2090505f81600101541161031d576040517f08c379a000000000000000000000000000000000000000000000000000000000815260040161031490610d64565b60405180910390fd5b806003015f9054906101000a900460ff161561036e576040517f08c379a000000000000000000000000000000000000000000000000000000000815260040161036590610dcc565b60405180910390fd5b806001015434146103b4576040517f08c379a00000000000000000000000000000000000000000000000000000000081526004016103ab90610e34565b60405180910390fd5b6001816003015f6101000a81548160ff021916908315150217905550338160030160016101000a81548173ffffffffffffffffffffffffffffffffffffffff021916908373ffffffffffffffffffffffffffffffffffffffff160217905550805f015f9054906101000a900473ffffffffffffffffffffffffffffffffffffffff1673ffffffffffffffffffffffffffffffffffffffff166108fc3490811502906040515f60405180830381858888f19350505050158015610478573d5f5f3e3d5ffd5b507f15feab5d3eb17171632762cf769709a315dd15f487a556c0dfb8a259c8f186cc82336040516104aa929190610e52565b60405180910390a15050565b6001602052805f5260405f205f91509050805f015f9054906101000a900473ffffffffffffffffffffffffffffffffffffffff169080600101549080600201805461050090610a20565b80601f016020809104026020016040519081016040528092919081815260200182805461052c90610a20565b80156105775780601f1061054e57610100808354040283529160200191610577565b820191905f5260205f20905b81548152906001019060200180831161055a57829003601f168201915b505050505090806003015f9054906101000a900460ff16908060030160019054906101000a900473ffffffffffffffffffffffffffffffffffffffff16905085565b5f819050919050565b6105cb816105b9565b82525050565b5f6020820190506105e45f8301846105c2565b92915050565b5f604051905090565b5f5ffd5b5f5ffd5b610604816105b9565b811461060e575f5ffd5b50565b5f8135905061061f816105fb565b92915050565b5f5ffd5b5f5ffd5b5f601f19601f8301169050919050565b7f4e487b71000000000000000000000000000000000000000000000000000000005f52604160045260245ffd5b6106738261062d565b810181811067ffffffffffffffff821117156106925761069161063d565b5b80604052505050565b5f6106a46105ea565b90506106b0828261066a565b919050565b5f67ffffffffffffffff8211156106cf576106ce61063d565b5b6106d88261062d565b9050602081019050919050565b828183375f83830152505050565b5f610705610700846106b5565b61069b565b90508281526020810184848401111561072157610720610629565b5b61072c8482856106e5565b509392505050565b5f82601f83011261074857610747610625565b5b81356107588482602086016106f3565b91505092915050565b5f5f60408385031215610777576107766105f3565b5b5f61078485828601610611565b925050602083013567ffffffffffffffff8111156107a5576107a46105f7565b5b6107b185828601610734565b9150509250929050565b5f602082840312156107d0576107cf6105f3565b5b5f6107dd84828501610611565b91505092915050565b5f73ffffffffffffffffffffffffffffffffffffffff82169050919050565b5f61080f826107e6565b9050919050565b61081f81610805565b82525050565b5f81519050919050565b5f82825260208201905092915050565b8281835e5f83830152505050565b5f61085782610825565b610861818561082f565b935061087181856020860161083f565b61087a8161062d565b840191505092915050565b5f8115159050919050565b61089981610885565b82525050565b5f6108a9826107e6565b9050919050565b6108b98161089f565b82525050565b5f60a0820190506108d25f830188610816565b6108df60208301876105c2565b81810360408301526108f1818661084d565b90506109006060830185610890565b61090d60808301846108b0565b9695505050505050565b7f416d6f756e74206d7573742062652067726561746572207468616e207a65726f5f82015250565b5f61094b60208361082f565b915061095682610917565b602082019050919050565b5f6020820190508181035f8301526109788161093f565b9050919050565b7f4e487b71000000000000000000000000000000000000000000000000000000005f52601160045260245ffd5b5f6109b6826105b9565b91507fffffffffffffffffffffffffffffffffffffffffffffffffffffffffffffffff82036109e8576109e761097f565b5b600182019050919050565b7f4e487b71000000000000000000000000000000000000000000000000000000005f52602260045260245ffd5b5f6002820490506001821680610a3757607f821691505b602082108103610a4a57610a496109f3565b5b50919050565b5f819050815f5260205f209050919050565b5f6020601f8301049050919050565b5f82821b905092915050565b5f60088302610aac7fffffffffffffffffffffffffffffffffffffffffffffffffffffffffffffffff82610a71565b610ab68683610a71565b95508019841693508086168417925050509392505050565b5f819050919050565b5f610af1610aec610ae7846105b9565b610ace565b6105b9565b9050919050565b5f819050919050565b610b0a83610ad7565b610b1e610b1682610af8565b848454610a7d565b825550505050565b5f5f905090565b610b35610b26565b610b40818484610b01565b505050565b5f5b82811015610b6657610b5b5f828401610b2d565b600181019050610b47565b505050565b601f821115610bb95782821115610bb857610b8581610a50565b610b8e83610a62565b610b9785610a62565b6020861015610ba4575f90505b808301610bb382840382610b45565b505050505b5b505050565b5f82821c905092915050565b5f610bd95f1984600802610bbe565b1980831691505092915050565b5f610bf18383610bca565b9150826002028217905092915050565b610c0a82610825565b67ffffffffffffffff811115610c2357610c2261063d565b5b610c2d8254610a20565b610c38828285610b6b565b5f60209050601f831160018114610c69575f8415610c57578287015190505b610c618582610be6565b865550610cc8565b601f198416610c7786610a50565b5f5b82811015610c9e57848901518255600182019150602085019450602081019050610c79565b86831015610cbb5784890151610cb7601f891682610bca565b8355505b6001600288020188555050505b505050505050565b5f608082019050610ce35f8301876105c2565b610cf060208301866108b0565b610cfd60408301856105c2565b8181036060830152610d0f818461084d565b905095945050505050565b7f4c6f616e20646f6573206e6f74206578697374000000000000000000000000005f82015250565b5f610d4e60138361082f565b9150610d5982610d1a565b602082019050919050565b5f6020820190508181035f830152610d7b81610d42565b9050919050565b7f4c6f616e20616c72656164792066756e646564000000000000000000000000005f82015250565b5f610db660138361082f565b9150610dc182610d82565b602082019050919050565b5f6020820190508181035f830152610de381610daa565b9050919050565b7f4d7573742073656e64206578616374206c6f616e20616d6f756e7400000000005f82015250565b5f610e1e601b8361082f565b9150610e2982610dea565b602082019050919050565b5f6020820190508181035f830152610e4b81610e12565b9050919050565b5f604082019050610e655f8301856105c2565b610e7260208301846108b0565b939250505056fea2646970667358221220582112ea01eb6b877c7544de3bc7d48fcd949ae568d70e09d0e2496c522419a864736f6c63430008220033",
					"opcodes": "PUSH1 0x80 PUSH1 0x40 MSTORE CALLVALUE DUP1 ISZERO PUSH1 0xE JUMPI PUSH0 PUSH0 REVERT JUMPDEST POP PUSH2 0xEAF DUP1 PUSH2 0x1C PUSH0 CODECOPY PUSH0 RETURN INVALID PUSH1 0x80 PUSH1 0x40 MSTORE PUSH1 0x4 CALLDATASIZE LT PUSH2 0x3E JUMPI PUSH0 CALLDATALOAD PUSH1 0xE0 SHR DUP1 PUSH4 0x34D9289E EQ PUSH2 0x42 JUMPI DUP1 PUSH4 0x6C79E167 EQ PUSH2 0x6C JUMPI DUP1 PUSH4 0x846B909A EQ PUSH2 0x94 JUMPI DUP1 PUSH4 0xE1EC3C68 EQ PUSH2 0xB0 JUMPI JUMPDEST PUSH0 PUSH0 REVERT JUMPDEST CALLVALUE DUP1 ISZERO PUSH2 0x4D JUMPI PUSH0 PUSH0 REVERT JUMPDEST POP PUSH2 0x56 PUSH2 0xF0 JUMP JUMPDEST PUSH1 0x40 MLOAD PUSH2 0x63 SWAP2 SWAP1 PUSH2 0x5D1 JUMP JUMPDEST PUSH1 0x40 MLOAD DUP1 SWAP2 SUB SWAP1 RETURN JUMPDEST CALLVALUE DUP1 ISZERO PUSH2 0x77 JUMPI PUSH0 PUSH0 REVERT JUMPDEST POP PUSH2 0x92 PUSH1 0x4 DUP1 CALLDATASIZE SUB DUP2 ADD SWAP1 PUSH2 0x8D SWAP2 SWAP1 PUSH2 0x761 JUMP JUMPDEST PUSH2 0xF5 JUMP JUMPDEST STOP JUMPDEST PUSH2 0xAE PUSH1 0x4 DUP1 CALLDATASIZE SUB DUP2 ADD SWAP1 PUSH2 0xA9 SWAP2 SWAP1 PUSH2 0x7BB JUMP JUMPDEST PUSH2 0x2C3 JUMP JUMPDEST STOP JUMPDEST CALLVALUE DUP1 ISZERO PUSH2 0xBB JUMPI PUSH0 PUSH0 REVERT JUMPDEST POP PUSH2 0xD6 PUSH1 0x4 DUP1 CALLDATASIZE SUB DUP2 ADD SWAP1 PUSH2 0xD1 SWAP2 SWAP1 PUSH2 0x7BB JUMP JUMPDEST PUSH2 0x4B6 JUMP JUMPDEST PUSH1 0x40 MLOAD PUSH2 0xE7 SWAP6 SWAP5 SWAP4 SWAP3 SWAP2 SWAP1 PUSH2 0x8BF JUMP JUMPDEST PUSH1 0x40 MLOAD DUP1 SWAP2 SUB SWAP1 RETURN JUMPDEST PUSH0 SLOAD DUP2 JUMP JUMPDEST PUSH0 DUP3 GT PUSH2 0x137 JUMPI PUSH1 0x40 MLOAD PUSH32 0x8C379A000000000000000000000000000000000000000000000000000000000 DUP2 MSTORE PUSH1 0x4 ADD PUSH2 0x12E SWAP1 PUSH2 0x961 JUMP JUMPDEST PUSH1 0x40 MLOAD DUP1 SWAP2 SUB SWAP1 REVERT JUMPDEST PUSH0 PUSH0 DUP2 SLOAD DUP1 SWAP3 SWAP2 SWAP1 PUSH2 0x148 SWAP1 PUSH2 0x9AC JUMP JUMPDEST SWAP2 SWAP1 POP SSTORE POP PUSH1 0x40 MLOAD DUP1 PUSH1 0xA0 ADD PUSH1 0x40 MSTORE DUP1 CALLER PUSH20 0xFFFFFFFFFFFFFFFFFFFFFFFFFFFFFFFFFFFFFFFF AND DUP2 MSTORE PUSH1 0x20 ADD DUP4 DUP2 MSTORE PUSH1 0x20 ADD DUP3 DUP2 MSTORE PUSH1 0x20 ADD PUSH0 ISZERO ISZERO DUP2 MSTORE PUSH1 0x20 ADD PUSH0 PUSH20 0xFFFFFFFFFFFFFFFFFFFFFFFFFFFFFFFFFFFFFFFF AND DUP2 MSTORE POP PUSH1 0x1 PUSH0 PUSH0 SLOAD DUP2 MSTORE PUSH1 0x20 ADD SWAP1 DUP2 MSTORE PUSH1 0x20 ADD PUSH0 KECCAK256 PUSH0 DUP3 ADD MLOAD DUP2 PUSH0 ADD PUSH0 PUSH2 0x100 EXP DUP2 SLOAD DUP2 PUSH20 0xFFFFFFFFFFFFFFFFFFFFFFFFFFFFFFFFFFFFFFFF MUL NOT AND SWAP1 DUP4 PUSH20 0xFFFFFFFFFFFFFFFFFFFFFFFFFFFFFFFFFFFFFFFF AND MUL OR SWAP1 SSTORE POP PUSH1 0x20 DUP3 ADD MLOAD DUP2 PUSH1 0x1 ADD SSTORE PUSH1 0x40 DUP3 ADD MLOAD DUP2 PUSH1 0x2 ADD SWAP1 DUP2 PUSH2 0x217 SWAP2 SWAP1 PUSH2 0xC01 JUMP JUMPDEST POP PUSH1 0x60 DUP3 ADD MLOAD DUP2 PUSH1 0x3 ADD PUSH0 PUSH2 0x100 EXP DUP2 SLOAD DUP2 PUSH1 0xFF MUL NOT AND SWAP1 DUP4 ISZERO ISZERO MUL OR SWAP1 SSTORE POP PUSH1 0x80 DUP3 ADD MLOAD DUP2 PUSH1 0x3 ADD PUSH1 0x1 PUSH2 0x100 EXP DUP2 SLOAD DUP2 PUSH20 0xFFFFFFFFFFFFFFFFFFFFFFFFFFFFFFFFFFFFFFFF MUL NOT AND SWAP1 DUP4 PUSH20 0xFFFFFFFFFFFFFFFFFFFFFFFFFFFFFFFFFFFFFFFF AND MUL OR SWAP1 SSTORE POP SWAP1 POP POP PUSH32 0xFBBA0893DD1F941CB4A7BB791AED3CE1AD2A008C20EF3254B2A2CF7752B199F1 PUSH0 SLOAD CALLER DUP5 DUP5 PUSH1 0x40 MLOAD PUSH2 0x2B7 SWAP5 SWAP4 SWAP3 SWAP2 SWAP1 PUSH2 0xCD0 JUMP JUMPDEST PUSH1 0x40 MLOAD DUP1 SWAP2 SUB SWAP1 LOG1 POP POP JUMP JUMPDEST PUSH0 PUSH1 0x1 PUSH0 DUP4 DUP2 MSTORE PUSH1 0x20 ADD SWAP1 DUP2 MSTORE PUSH1 0x20 ADD PUSH0 KECCAK256 SWAP1 POP PUSH0 DUP2 PUSH1 0x1 ADD SLOAD GT PUSH2 0x31D JUMPI PUSH1 0x40 MLOAD PUSH32 0x8C379A000000000000000000000000000000000000000000000000000000000 DUP2 MSTORE PUSH1 0x4 ADD PUSH2 0x314 SWAP1 PUSH2 0xD64 JUMP JUMPDEST PUSH1 0x40 MLOAD DUP1 SWAP2 SUB SWAP1 REVERT JUMPDEST DUP1 PUSH1 0x3 ADD PUSH0 SWAP1 SLOAD SWAP1 PUSH2 0x100 EXP SWAP1 DIV PUSH1 0xFF AND ISZERO PUSH2 0x36E JUMPI PUSH1 0x40 MLOAD PUSH32 0x8C379A000000000000000000000000000000000000000000000000000000000 DUP2 MSTORE PUSH1 0x4 ADD PUSH2 0x365 SWAP1 PUSH2 0xDCC JUMP JUMPDEST PUSH1 0x40 MLOAD DUP1 SWAP2 SUB SWAP1 REVERT JUMPDEST DUP1 PUSH1 0x1 ADD SLOAD CALLVALUE EQ PUSH2 0x3B4 JUMPI PUSH1 0x40 MLOAD PUSH32 0x8C379A000000000000000000000000000000000000000000000000000000000 DUP2 MSTORE PUSH1 0x4 ADD PUSH2 0x3AB SWAP1 PUSH2 0xE34 JUMP JUMPDEST PUSH1 0x40 MLOAD DUP1 SWAP2 SUB SWAP1 REVERT JUMPDEST PUSH1 0x1 DUP2 PUSH1 0x3 ADD PUSH0 PUSH2 0x100 EXP DUP2 SLOAD DUP2 PUSH1 0xFF MUL NOT AND SWAP1 DUP4 ISZERO ISZERO MUL OR SWAP1 SSTORE POP CALLER DUP2 PUSH1 0x3 ADD PUSH1 0x1 PUSH2 0x100 EXP DUP2 SLOAD DUP2 PUSH20 0xFFFFFFFFFFFFFFFFFFFFFFFFFFFFFFFFFFFFFFFF MUL NOT AND SWAP1 DUP4 PUSH20 0xFFFFFFFFFFFFFFFFFFFFFFFFFFFFFFFFFFFFFFFF AND MUL OR SWAP1 SSTORE POP DUP1 PUSH0 ADD PUSH0 SWAP1 SLOAD SWAP1 PUSH2 0x100 EXP SWAP1 DIV PUSH20 0xFFFFFFFFFFFFFFFFFFFFFFFFFFFFFFFFFFFFFFFF AND PUSH20 0xFFFFFFFFFFFFFFFFFFFFFFFFFFFFFFFFFFFFFFFF AND PUSH2 0x8FC CALLVALUE SWAP1 DUP2 ISZERO MUL SWAP1 PUSH1 0x40 MLOAD PUSH0 PUSH1 0x40 MLOAD DUP1 DUP4 SUB DUP2 DUP6 DUP9 DUP9 CALL SWAP4 POP POP POP POP ISZERO DUP1 ISZERO PUSH2 0x478 JUMPI RETURNDATASIZE PUSH0 PUSH0 RETURNDATACOPY RETURNDATASIZE PUSH0 REVERT JUMPDEST POP PUSH32 0x15FEAB5D3EB17171632762CF769709A315DD15F487A556C0DFB8A259C8F186CC DUP3 CALLER PUSH1 0x40 MLOAD PUSH2 0x4AA SWAP3 SWAP2 SWAP1 PUSH2 0xE52 JUMP JUMPDEST PUSH1 0x40 MLOAD DUP1 SWAP2 SUB SWAP1 LOG1 POP POP JUMP JUMPDEST PUSH1 0x1 PUSH1 0x20 MSTORE DUP1 PUSH0 MSTORE PUSH1 0x40 PUSH0 KECCAK256 PUSH0 SWAP2 POP SWAP1 POP DUP1 PUSH0 ADD PUSH0 SWAP1 SLOAD SWAP1 PUSH2 0x100 EXP SWAP1 DIV PUSH20 0xFFFFFFFFFFFFFFFFFFFFFFFFFFFFFFFFFFFFFFFF AND SWAP1 DUP1 PUSH1 0x1 ADD SLOAD SWAP1 DUP1 PUSH1 0x2 ADD DUP1 SLOAD PUSH2 0x500 SWAP1 PUSH2 0xA20 JUMP JUMPDEST DUP1 PUSH1 0x1F ADD PUSH1 0x20 DUP1 SWAP2 DIV MUL PUSH1 0x20 ADD PUSH1 0x40 MLOAD SWAP1 DUP2 ADD PUSH1 0x40 MSTORE DUP1 SWAP3 SWAP2 SWAP1 DUP2 DUP2 MSTORE PUSH1 0x20 ADD DUP3 DUP1 SLOAD PUSH2 0x52C SWAP1 PUSH2 0xA20 JUMP JUMPDEST DUP1 ISZERO PUSH2 0x577 JUMPI DUP1 PUSH1 0x1F LT PUSH2 0x54E JUMPI PUSH2 0x100 DUP1 DUP4 SLOAD DIV MUL DUP4 MSTORE SWAP2 PUSH1 0x20 ADD SWAP2 PUSH2 0x577 JUMP JUMPDEST DUP3 ADD SWAP2 SWAP1 PUSH0 MSTORE PUSH1 0x20 PUSH0 KECCAK256 SWAP1 JUMPDEST DUP2 SLOAD DUP2 MSTORE SWAP1 PUSH1 0x1 ADD SWAP1 PUSH1 0x20 ADD DUP1 DUP4 GT PUSH2 0x55A JUMPI DUP3 SWAP1 SUB PUSH1 0x1F AND DUP3 ADD SWAP2 JUMPDEST POP POP POP POP POP SWAP1 DUP1 PUSH1 0x3 ADD PUSH0 SWAP1 SLOAD SWAP1 PUSH2 0x100 EXP SWAP1 DIV PUSH1 0xFF AND SWAP1 DUP1 PUSH1 0x3 ADD PUSH1 0x1 SWAP1 SLOAD SWAP1 PUSH2 0x100 EXP SWAP1 DIV PUSH20 0xFFFFFFFFFFFFFFFFFFFFFFFFFFFFFFFFFFFFFFFF AND SWAP1 POP DUP6 JUMP JUMPDEST PUSH0 DUP2 SWAP1 POP SWAP2 SWAP1 POP JUMP JUMPDEST PUSH2 0x5CB DUP2 PUSH2 0x5B9 JUMP JUMPDEST DUP3 MSTORE POP POP JUMP JUMPDEST PUSH0 PUSH1 0x20 DUP3 ADD SWAP1 POP PUSH2 0x5E4 PUSH0 DUP4 ADD DUP5 PUSH2 0x5C2 JUMP JUMPDEST SWAP3 SWAP2 POP POP JUMP JUMPDEST PUSH0 PUSH1 0x40 MLOAD SWAP1 POP SWAP1 JUMP JUMPDEST PUSH0 PUSH0 REVERT JUMPDEST PUSH0 PUSH0 REVERT JUMPDEST PUSH2 0x604 DUP2 PUSH2 0x5B9 JUMP JUMPDEST DUP2 EQ PUSH2 0x60E JUMPI PUSH0 PUSH0 REVERT JUMPDEST POP JUMP JUMPDEST PUSH0 DUP2 CALLDATALOAD SWAP1 POP PUSH2 0x61F DUP2 PUSH2 0x5FB JUMP JUMPDEST SWAP3 SWAP2 POP POP JUMP JUMPDEST PUSH0 PUSH0 REVERT JUMPDEST PUSH0 PUSH0 REVERT JUMPDEST PUSH0 PUSH1 0x1F NOT PUSH1 0x1F DUP4 ADD AND SWAP1 POP SWAP2 SWAP1 POP JUMP JUMPDEST PUSH32 0x4E487B7100000000000000000000000000000000000000000000000000000000 PUSH0 MSTORE PUSH1 0x41 PUSH1 0x4 MSTORE PUSH1 0x24 PUSH0 REVERT JUMPDEST PUSH2 0x673 DUP3 PUSH2 0x62D JUMP JUMPDEST DUP2 ADD DUP2 DUP2 LT PUSH8 0xFFFFFFFFFFFFFFFF DUP3 GT OR ISZERO PUSH2 0x692 JUMPI PUSH2 0x691 PUSH2 0x63D JUMP JUMPDEST JUMPDEST DUP1 PUSH1 0x40 MSTORE POP POP POP JUMP JUMPDEST PUSH0 PUSH2 0x6A4 PUSH2 0x5EA JUMP JUMPDEST SWAP1 POP PUSH2 0x6B0 DUP3 DUP3 PUSH2 0x66A JUMP JUMPDEST SWAP2 SWAP1 POP JUMP JUMPDEST PUSH0 PUSH8 0xFFFFFFFFFFFFFFFF DUP3 GT ISZERO PUSH2 0x6CF JUMPI PUSH2 0x6CE PUSH2 0x63D JUMP JUMPDEST JUMPDEST PUSH2 0x6D8 DUP3 PUSH2 0x62D JUMP JUMPDEST SWAP1 POP PUSH1 0x20 DUP2 ADD SWAP1 POP SWAP2 SWAP1 POP JUMP JUMPDEST DUP3 DUP2 DUP4 CALLDATACOPY PUSH0 DUP4 DUP4 ADD MSTORE POP POP POP JUMP JUMPDEST PUSH0 PUSH2 0x705 PUSH2 0x700 DUP5 PUSH2 0x6B5 JUMP JUMPDEST PUSH2 0x69B JUMP JUMPDEST SWAP1 POP DUP3 DUP2 MSTORE PUSH1 0x20 DUP2 ADD DUP5 DUP5 DUP5 ADD GT ISZERO PUSH2 0x721 JUMPI PUSH2 0x720 PUSH2 0x629 JUMP JUMPDEST JUMPDEST PUSH2 0x72C DUP5 DUP3 DUP6 PUSH2 0x6E5 JUMP JUMPDEST POP SWAP4 SWAP3 POP POP POP JUMP JUMPDEST PUSH0 DUP3 PUSH1 0x1F DUP4 ADD SLT PUSH2 0x748 JUMPI PUSH2 0x747 PUSH2 0x625 JUMP JUMPDEST JUMPDEST DUP2 CALLDATALOAD PUSH2 0x758 DUP5 DUP3 PUSH1 0x20 DUP7 ADD PUSH2 0x6F3 JUMP JUMPDEST SWAP2 POP POP SWAP3 SWAP2 POP POP JUMP JUMPDEST PUSH0 PUSH0 PUSH1 0x40 DUP4 DUP6 SUB SLT ISZERO PUSH2 0x777 JUMPI PUSH2 0x776 PUSH2 0x5F3 JUMP JUMPDEST JUMPDEST PUSH0 PUSH2 0x784 DUP6 DUP3 DUP7 ADD PUSH2 0x611 JUMP JUMPDEST SWAP3 POP POP PUSH1 0x20 DUP4 ADD CALLDATALOAD PUSH8 0xFFFFFFFFFFFFFFFF DUP2 GT ISZERO PUSH2 0x7A5 JUMPI PUSH2 0x7A4 PUSH2 0x5F7 JUMP JUMPDEST JUMPDEST PUSH2 0x7B1 DUP6 DUP3 DUP7 ADD PUSH2 0x734 JUMP JUMPDEST SWAP2 POP POP SWAP3 POP SWAP3 SWAP1 POP JUMP JUMPDEST PUSH0 PUSH1 0x20 DUP3 DUP5 SUB SLT ISZERO PUSH2 0x7D0 JUMPI PUSH2 0x7CF PUSH2 0x5F3 JUMP JUMPDEST JUMPDEST PUSH0 PUSH2 0x7DD DUP5 DUP3 DUP6 ADD PUSH2 0x611 JUMP JUMPDEST SWAP2 POP POP SWAP3 SWAP2 POP POP JUMP JUMPDEST PUSH0 PUSH20 0xFFFFFFFFFFFFFFFFFFFFFFFFFFFFFFFFFFFFFFFF DUP3 AND SWAP1 POP SWAP2 SWAP1 POP JUMP JUMPDEST PUSH0 PUSH2 0x80F DUP3 PUSH2 0x7E6 JUMP JUMPDEST SWAP1 POP SWAP2 SWAP1 POP JUMP JUMPDEST PUSH2 0x81F DUP2 PUSH2 0x805 JUMP JUMPDEST DUP3 MSTORE POP POP JUMP JUMPDEST PUSH0 DUP2 MLOAD SWAP1 POP SWAP2 SWAP1 POP JUMP JUMPDEST PUSH0 DUP3 DUP3 MSTORE PUSH1 0x20 DUP3 ADD SWAP1 POP SWAP3 SWAP2 POP POP JUMP JUMPDEST DUP3 DUP2 DUP4 MCOPY PUSH0 DUP4 DUP4 ADD MSTORE POP POP POP JUMP JUMPDEST PUSH0 PUSH2 0x857 DUP3 PUSH2 0x825 JUMP JUMPDEST PUSH2 0x861 DUP2 DUP6 PUSH2 0x82F JUMP JUMPDEST SWAP4 POP PUSH2 0x871 DUP2 DUP6 PUSH1 0x20 DUP7 ADD PUSH2 0x83F JUMP JUMPDEST PUSH2 0x87A DUP2 PUSH2 0x62D JUMP JUMPDEST DUP5 ADD SWAP2 POP POP SWAP3 SWAP2 POP POP JUMP JUMPDEST PUSH0 DUP2 ISZERO ISZERO SWAP1 POP SWAP2 SWAP1 POP JUMP JUMPDEST PUSH2 0x899 DUP2 PUSH2 0x885 JUMP JUMPDEST DUP3 MSTORE POP POP JUMP JUMPDEST PUSH0 PUSH2 0x8A9 DUP3 PUSH2 0x7E6 JUMP JUMPDEST SWAP1 POP SWAP2 SWAP1 POP JUMP JUMPDEST PUSH2 0x8B9 DUP2 PUSH2 0x89F JUMP JUMPDEST DUP3 MSTORE POP POP JUMP JUMPDEST PUSH0 PUSH1 0xA0 DUP3 ADD SWAP1 POP PUSH2 0x8D2 PUSH0 DUP4 ADD DUP9 PUSH2 0x816 JUMP JUMPDEST PUSH2 0x8DF PUSH1 0x20 DUP4 ADD DUP8 PUSH2 0x5C2 JUMP JUMPDEST DUP2 DUP2 SUB PUSH1 0x40 DUP4 ADD MSTORE PUSH2 0x8F1 DUP2 DUP7 PUSH2 0x84D JUMP JUMPDEST SWAP1 POP PUSH2 0x900 PUSH1 0x60 DUP4 ADD DUP6 PUSH2 0x890 JUMP JUMPDEST PUSH2 0x90D PUSH1 0x80 DUP4 ADD DUP5 PUSH2 0x8B0 JUMP JUMPDEST SWAP7 SWAP6 POP POP POP POP POP POP JUMP JUMPDEST PUSH32 0x416D6F756E74206D7573742062652067726561746572207468616E207A65726F PUSH0 DUP3 ADD MSTORE POP JUMP JUMPDEST PUSH0 PUSH2 0x94B PUSH1 0x20 DUP4 PUSH2 0x82F JUMP JUMPDEST SWAP2 POP PUSH2 0x956 DUP3 PUSH2 0x917 JUMP JUMPDEST PUSH1 0x20 DUP3 ADD SWAP1 POP SWAP2 SWAP1 POP JUMP JUMPDEST PUSH0 PUSH1 0x20 DUP3 ADD SWAP1 POP DUP2 DUP2 SUB PUSH0 DUP4 ADD MSTORE PUSH2 0x978 DUP2 PUSH2 0x93F JUMP JUMPDEST SWAP1 POP SWAP2 SWAP1 POP JUMP JUMPDEST PUSH32 0x4E487B7100000000000000000000000000000000000000000000000000000000 PUSH0 MSTORE PUSH1 0x11 PUSH1 0x4 MSTORE PUSH1 0x24 PUSH0 REVERT JUMPDEST PUSH0 PUSH2 0x9B6 DUP3 PUSH2 0x5B9 JUMP JUMPDEST SWAP2 POP PUSH32 0xFFFFFFFFFFFFFFFFFFFFFFFFFFFFFFFFFFFFFFFFFFFFFFFFFFFFFFFFFFFFFFFF DUP3 SUB PUSH2 0x9E8 JUMPI PUSH2 0x9E7 PUSH2 0x97F JUMP JUMPDEST JUMPDEST PUSH1 0x1 DUP3 ADD SWAP1 POP SWAP2 SWAP1 POP JUMP JUMPDEST PUSH32 0x4E487B7100000000000000000000000000000000000000000000000000000000 PUSH0 MSTORE PUSH1 0x22 PUSH1 0x4 MSTORE PUSH1 0x24 PUSH0 REVERT JUMPDEST PUSH0 PUSH1 0x2 DUP3 DIV SWAP1 POP PUSH1 0x1 DUP3 AND DUP1 PUSH2 0xA37 JUMPI PUSH1 0x7F DUP3 AND SWAP2 POP JUMPDEST PUSH1 0x20 DUP3 LT DUP2 SUB PUSH2 0xA4A JUMPI PUSH2 0xA49 PUSH2 0x9F3 JUMP JUMPDEST JUMPDEST POP SWAP2 SWAP1 POP JUMP JUMPDEST PUSH0 DUP2 SWAP1 POP DUP2 PUSH0 MSTORE PUSH1 0x20 PUSH0 KECCAK256 SWAP1 POP SWAP2 SWAP1 POP JUMP JUMPDEST PUSH0 PUSH1 0x20 PUSH1 0x1F DUP4 ADD DIV SWAP1 POP SWAP2 SWAP1 POP JUMP JUMPDEST PUSH0 DUP3 DUP3 SHL SWAP1 POP SWAP3 SWAP2 POP POP JUMP JUMPDEST PUSH0 PUSH1 0x8 DUP4 MUL PUSH2 0xAAC PUSH32 0xFFFFFFFFFFFFFFFFFFFFFFFFFFFFFFFFFFFFFFFFFFFFFFFFFFFFFFFFFFFFFFFF DUP3 PUSH2 0xA71 JUMP JUMPDEST PUSH2 0xAB6 DUP7 DUP4 PUSH2 0xA71 JUMP JUMPDEST SWAP6 POP DUP1 NOT DUP5 AND SWAP4 POP DUP1 DUP7 AND DUP5 OR SWAP3 POP POP POP SWAP4 SWAP3 POP POP POP JUMP JUMPDEST PUSH0 DUP2 SWAP1 POP SWAP2 SWAP1 POP JUMP JUMPDEST PUSH0 PUSH2 0xAF1 PUSH2 0xAEC PUSH2 0xAE7 DUP5 PUSH2 0x5B9 JUMP JUMPDEST PUSH2 0xACE JUMP JUMPDEST PUSH2 0x5B9 JUMP JUMPDEST SWAP1 POP SWAP2 SWAP1 POP JUMP JUMPDEST PUSH0 DUP2 SWAP1 POP SWAP2 SWAP1 POP JUMP JUMPDEST PUSH2 0xB0A DUP4 PUSH2 0xAD7 JUMP JUMPDEST PUSH2 0xB1E PUSH2 0xB16 DUP3 PUSH2 0xAF8 JUMP JUMPDEST DUP5 DUP5 SLOAD PUSH2 0xA7D JUMP JUMPDEST DUP3 SSTORE POP POP POP POP JUMP JUMPDEST PUSH0 PUSH0 SWAP1 POP SWAP1 JUMP JUMPDEST PUSH2 0xB35 PUSH2 0xB26 JUMP JUMPDEST PUSH2 0xB40 DUP2 DUP5 DUP5 PUSH2 0xB01 JUMP JUMPDEST POP POP POP JUMP JUMPDEST PUSH0 JUMPDEST DUP3 DUP2 LT ISZERO PUSH2 0xB66 JUMPI PUSH2 0xB5B PUSH0 DUP3 DUP5 ADD PUSH2 0xB2D JUMP JUMPDEST PUSH1 0x1 DUP2 ADD SWAP1 POP PUSH2 0xB47 JUMP JUMPDEST POP POP POP JUMP JUMPDEST PUSH1 0x1F DUP3 GT ISZERO PUSH2 0xBB9 JUMPI DUP3 DUP3 GT ISZERO PUSH2 0xBB8 JUMPI PUSH2 0xB85 DUP2 PUSH2 0xA50 JUMP JUMPDEST PUSH2 0xB8E DUP4 PUSH2 0xA62 JUMP JUMPDEST PUSH2 0xB97 DUP6 PUSH2 0xA62 JUMP JUMPDEST PUSH1 0x20 DUP7 LT ISZERO PUSH2 0xBA4 JUMPI PUSH0 SWAP1 POP JUMPDEST DUP1 DUP4 ADD PUSH2 0xBB3 DUP3 DUP5 SUB DUP3 PUSH2 0xB45 JUMP JUMPDEST POP POP POP POP JUMPDEST JUMPDEST POP POP POP JUMP JUMPDEST PUSH0 DUP3 DUP3 SHR SWAP1 POP SWAP3 SWAP2 POP POP JUMP JUMPDEST PUSH0 PUSH2 0xBD9 PUSH0 NOT DUP5 PUSH1 0x8 MUL PUSH2 0xBBE JUMP JUMPDEST NOT DUP1 DUP4 AND SWAP2 POP POP SWAP3 SWAP2 POP POP JUMP JUMPDEST PUSH0 PUSH2 0xBF1 DUP4 DUP4 PUSH2 0xBCA JUMP JUMPDEST SWAP2 POP DUP3 PUSH1 0x2 MUL DUP3 OR SWAP1 POP SWAP3 SWAP2 POP POP JUMP JUMPDEST PUSH2 0xC0A DUP3 PUSH2 0x825 JUMP JUMPDEST PUSH8 0xFFFFFFFFFFFFFFFF DUP2 GT ISZERO PUSH2 0xC23 JUMPI PUSH2 0xC22 PUSH2 0x63D JUMP JUMPDEST JUMPDEST PUSH2 0xC2D DUP3 SLOAD PUSH2 0xA20 JUMP JUMPDEST PUSH2 0xC38 DUP3 DUP3 DUP6 PUSH2 0xB6B JUMP JUMPDEST PUSH0 PUSH1 0x20 SWAP1 POP PUSH1 0x1F DUP4 GT PUSH1 0x1 DUP2 EQ PUSH2 0xC69 JUMPI PUSH0 DUP5 ISZERO PUSH2 0xC57 JUMPI DUP3 DUP8 ADD MLOAD SWAP1 POP JUMPDEST PUSH2 0xC61 DUP6 DUP3 PUSH2 0xBE6 JUMP JUMPDEST DUP7 SSTORE POP PUSH2 0xCC8 JUMP JUMPDEST PUSH1 0x1F NOT DUP5 AND PUSH2 0xC77 DUP7 PUSH2 0xA50 JUMP JUMPDEST PUSH0 JUMPDEST DUP3 DUP2 LT ISZERO PUSH2 0xC9E JUMPI DUP5 DUP10 ADD MLOAD DUP3 SSTORE PUSH1 0x1 DUP3 ADD SWAP2 POP PUSH1 0x20 DUP6 ADD SWAP5 POP PUSH1 0x20 DUP2 ADD SWAP1 POP PUSH2 0xC79 JUMP JUMPDEST DUP7 DUP4 LT ISZERO PUSH2 0xCBB JUMPI DUP5 DUP10 ADD MLOAD PUSH2 0xCB7 PUSH1 0x1F DUP10 AND DUP3 PUSH2 0xBCA JUMP JUMPDEST DUP4 SSTORE POP JUMPDEST PUSH1 0x1 PUSH1 0x2 DUP9 MUL ADD DUP9 SSTORE POP POP POP JUMPDEST POP POP POP POP POP POP JUMP JUMPDEST PUSH0 PUSH1 0x80 DUP3 ADD SWAP1 POP PUSH2 0xCE3 PUSH0 DUP4 ADD DUP8 PUSH2 0x5C2 JUMP JUMPDEST PUSH2 0xCF0 PUSH1 0x20 DUP4 ADD DUP7 PUSH2 0x8B0 JUMP JUMPDEST PUSH2 0xCFD PUSH1 0x40 DUP4 ADD DUP6 PUSH2 0x5C2 JUMP JUMPDEST DUP2 DUP2 SUB PUSH1 0x60 DUP4 ADD MSTORE PUSH2 0xD0F DUP2 DUP5 PUSH2 0x84D JUMP JUMPDEST SWAP1 POP SWAP6 SWAP5 POP POP POP POP POP JUMP JUMPDEST PUSH32 0x4C6F616E20646F6573206E6F7420657869737400000000000000000000000000 PUSH0 DUP3 ADD MSTORE POP JUMP JUMPDEST PUSH0 PUSH2 0xD4E PUSH1 0x13 DUP4 PUSH2 0x82F JUMP JUMPDEST SWAP2 POP PUSH2 0xD59 DUP3 PUSH2 0xD1A JUMP JUMPDEST PUSH1 0x20 DUP3 ADD SWAP1 POP SWAP2 SWAP1 POP JUMP JUMPDEST PUSH0 PUSH1 0x20 DUP3 ADD SWAP1 POP DUP2 DUP2 SUB PUSH0 DUP4 ADD MSTORE PUSH2 0xD7B DUP2 PUSH2 0xD42 JUMP JUMPDEST SWAP1 POP SWAP2 SWAP1 POP JUMP JUMPDEST PUSH32 0x4C6F616E20616C72656164792066756E64656400000000000000000000000000 PUSH0 DUP3 ADD MSTORE POP JUMP JUMPDEST PUSH0 PUSH2 0xDB6 PUSH1 0x13 DUP4 PUSH2 0x82F JUMP JUMPDEST SWAP2 POP PUSH2 0xDC1 DUP3 PUSH2 0xD82 JUMP JUMPDEST PUSH1 0x20 DUP3 ADD SWAP1 POP SWAP2 SWAP1 POP JUMP JUMPDEST PUSH0 PUSH1 0x20 DUP3 ADD SWAP1 POP DUP2 DUP2 SUB PUSH0 DUP4 ADD MSTORE PUSH2 0xDE3 DUP2 PUSH2 0xDAA JUMP JUMPDEST SWAP1 POP SWAP2 SWAP1 POP JUMP JUMPDEST PUSH32 0x4D7573742073656E64206578616374206C6F616E20616D6F756E740000000000 PUSH0 DUP3 ADD MSTORE POP JUMP JUMPDEST PUSH0 PUSH2 0xE1E PUSH1 0x1B DUP4 PUSH2 0x82F JUMP JUMPDEST SWAP2 POP PUSH2 0xE29 DUP3 PUSH2 0xDEA JUMP JUMPDEST PUSH1 0x20 DUP3 ADD SWAP1 POP SWAP2 SWAP1 POP JUMP JUMPDEST PUSH0 PUSH1 0x20 DUP3 ADD SWAP1 POP DUP2 DUP2 SUB PUSH0 DUP4 ADD MSTORE PUSH2 0xE4B DUP2 PUSH2 0xE12 JUMP JUMPDEST SWAP1 POP SWAP2 SWAP1 POP JUMP JUMPDEST PUSH0 PUSH1 0x40 DUP3 ADD SWAP1 POP PUSH2 0xE65 PUSH0 DUP4 ADD DUP6 PUSH2 0x5C2 JUMP JUMPDEST PUSH2 0xE72 PUSH1 0x20 DUP4 ADD DUP5 PUSH2 0x8B0 JUMP JUMPDEST SWAP4 SWAP3 POP POP POP JUMP INVALID LOG2 PUSH5 0x6970667358 0x22 SLT KECCAK256 PC 0x21 SLT 0xEA ADD 0xEB PUSH12 0x877C7544DE3BC7D48FCD949A JUMPF 0x68D7 0xE MULMOD 0xD0 0xE2 BLOBHASH PUSH13 0x522419A864736F6C6343000822 STOP CALLER "
				},
				"gasEstimates": {
					"creation": {
						"codeDepositCost": "751800",
						"executionCost": "784",
						"totalCost": "752584"
					},
					"external": {
						"fundLoan(uint256)": "infinite",
						"loanCounter()": "2402",
						"loans(uint256)": "infinite",
						"requestLoan(uint256,string)": "infinite"
					}
				},
				"methodIdentifiers": {
					"fundLoan(uint256)": "846b909a",
					"loanCounter()": "34d9289e",
					"loans(uint256)": "e1ec3c68",
					"requestLoan(uint256,string)": "6c79e167"
				}
			},
			"storageLayout": {
				"storage": [
					{
						"astId": 14,
						"contract": "BrgyLending.sol:BarangayLending",
						"label": "loanCounter",
						"offset": 0,
						"slot": "0",
						"type": "t_uint256"
					},
					{
						"astId": 19,
						"contract": "BrgyLending.sol:BarangayLending",
						"label": "loans",
						"offset": 0,
						"slot": "1",
						"type": "t_mapping(t_uint256,t_struct(LoanRequest)12_storage)"
					}
				],
				"types": {
					"t_address": {
						"encoding": "inplace",
						"label": "address",
						"numberOfBytes": "20"
					},
					"t_address_payable": {
						"encoding": "inplace",
						"label": "address payable",
						"numberOfBytes": "20"
					},
					"t_bool": {
						"encoding": "inplace",
						"label": "bool",
						"numberOfBytes": "1"
					},
					"t_mapping(t_uint256,t_struct(LoanRequest)12_storage)": {
						"encoding": "mapping",
						"key": "t_uint256",
						"label": "mapping(uint256 => struct BarangayLending.LoanRequest)",
						"numberOfBytes": "32",
						"value": "t_struct(LoanRequest)12_storage"
					},
					"t_string_storage": {
						"encoding": "bytes",
						"label": "string",
						"numberOfBytes": "32"
					},
					"t_struct(LoanRequest)12_storage": {
						"encoding": "inplace",
						"label": "struct BarangayLending.LoanRequest",
						"members": [
							{
								"astId": 3,
								"contract": "BrgyLending.sol:BarangayLending",
								"label": "borrower",
								"offset": 0,
								"slot": "0",
								"type": "t_address_payable"
							},
							{
								"astId": 5,
								"contract": "BrgyLending.sol:BarangayLending",
								"label": "amount",
								"offset": 0,
								"slot": "1",
								"type": "t_uint256"
							},
							{
								"astId": 7,
								"contract": "BrgyLending.sol:BarangayLending",
								"label": "reason",
								"offset": 0,
								"slot": "2",
								"type": "t_string_storage"
							},
							{
								"astId": 9,
								"contract": "BrgyLending.sol:BarangayLending",
								"label": "isFunded",
								"offset": 0,
								"slot": "3",
								"type": "t_bool"
							},
							{
								"astId": 11,
								"contract": "BrgyLending.sol:BarangayLending",
								"label": "lender",
								"offset": 1,
								"slot": "3",
								"type": "t_address"
							}
						],
						"numberOfBytes": "128"
					},
					"t_uint256": {
						"encoding": "inplace",
						"label": "uint256",
						"numberOfBytes": "32"
					}
				}
			},
			"userdoc": {
				"kind": "user",
				"methods": {},
				"version": 1
			}
		}
	}
}