{
	"PalengkeTransaction.sol": {
		"PalengkeTransactions": {
			"abi": [
				{
					"inputs": [
						{
							"internalType": "uint256",
							"name": "_index",
							"type": "uint256"
						}
					],
					"name": "getPayment",
					"outputs": [
						{
							"internalType": "uint256",
							"name": "",
							"type": "uint256"
						}
					],
					"stateMutability": "view",
					"type": "function"
				},
				{
					"inputs": [],
					"name": "getTotalPayments",
					"outputs": [
						{
							"internalType": "uint256",
							"name": "",
							"type": "uint256"
						}
					],
					"stateMutability": "view",
					"type": "function"
				},
				{
					"inputs": [
						{
							"internalType": "uint256",
							"name": "",
							"type": "uint256"
						}
					],
					"name": "payments",
					"outputs": [
						{
							"internalType": "uint256",
							"name": "",
							"type": "uint256"
						}
					],
					"stateMutability": "view",
					"type": "function"
				},
				{
					"inputs": [
						{
							"internalType": "uint256",
							"name": "_amount",
							"type": "uint256"
						}
					],
					"name": "recordPayment",
					"outputs": [],
					"stateMutability": "nonpayable",
					"type": "function"
				}
			],
			"devdoc": {
				"kind": "dev",
				"methods": {},
				"version": 1
			},
			"evm": {
				"assembly": "    /* \"PalengkeTransaction.sol\":108:781  contract PalengkeTransactions {... */\n  mstore(0x40, 0x80)\n  callvalue\n  dup1\n  iszero\n  tag_1\n  jumpi\n  revert(0x00, 0x00)\ntag_1:\n  pop\n  dataSize(sub_0)\n  dup1\n  dataOffset(sub_0)\n  0x00\n  codecopy\n  0x00\n  return\nstop\n\nsub_0: assembly {\n        /* \"PalengkeTransaction.sol\":108:781  contract PalengkeTransactions {... */\n      mstore(0x40, 0x80)\n      callvalue\n      dup1\n      iszero\n      tag_1\n      jumpi\n      revert(0x00, 0x00)\n    tag_1:\n      pop\n      jumpi(tag_2, lt(calldatasize, 0x04))\n      shr(0xe0, calldataload(0x00))\n      dup1\n      0x3280a836\n      eq\n      tag_3\n      jumpi\n      dup1\n      0x708f29a6\n      eq\n      tag_4\n      jumpi\n      dup1\n      0x87d81789\n      eq\n      tag_5\n      jumpi\n      dup1\n      0xfefa9291\n      eq\n      tag_6\n      jumpi\n    tag_2:\n      revert(0x00, 0x00)\n        /* \"PalengkeTransaction.sol\":608:778  function getPayment(uint256 _index) public view returns (uint256) {... */\n    tag_3:\n      tag_7\n      0x04\n      dup1\n      calldatasize\n      sub\n      dup2\n      add\n      swap1\n      tag_8\n      swap2\n      swap1\n      tag_9\n      jump\t// in\n    tag_8:\n      tag_10\n      jump\t// in\n    tag_7:\n      mload(0x40)\n      tag_11\n      swap2\n      swap1\n      tag_12\n      jump\t// in\n    tag_11:\n      mload(0x40)\n      dup1\n      swap2\n      sub\n      swap1\n      return\n        /* \"PalengkeTransaction.sol\":444:543  function getTotalPayments() public view returns (uint256) {... */\n    tag_4:\n      tag_13\n      tag_14\n      jump\t// in\n    tag_13:\n      mload(0x40)\n      tag_15\n      swap2\n      swap1\n      tag_12\n      jump\t// in\n    tag_15:\n      mload(0x40)\n      dup1\n      swap2\n      sub\n      swap1\n      return\n        /* \"PalengkeTransaction.sol\":213:238  uint256[] public payments */\n    tag_5:\n      tag_16\n      0x04\n      dup1\n      calldatasize\n      sub\n      dup2\n      add\n      swap1\n      tag_17\n      swap2\n      swap1\n      tag_9\n      jump\t// in\n    tag_17:\n      tag_18\n      jump\t// in\n    tag_16:\n      mload(0x40)\n      tag_19\n      swap2\n      swap1\n      tag_12\n      jump\t// in\n    tag_19:\n      mload(0x40)\n      dup1\n      swap2\n      sub\n      swap1\n      return\n        /* \"PalengkeTransaction.sol\":287:375  function recordPayment(uint256 _amount) public {... */\n    tag_6:\n      tag_20\n      0x04\n      dup1\n      calldatasize\n      sub\n      dup2\n      add\n      swap1\n      tag_21\n      swap2\n      swap1\n      tag_9\n      jump\t// in\n    tag_21:\n      tag_22\n      jump\t// in\n    tag_20:\n      stop\n        /* \"PalengkeTransaction.sol\":608:778  function getPayment(uint256 _index) public view returns (uint256) {... */\n    tag_10:\n        /* \"PalengkeTransaction.sol\":665:672  uint256 */\n      0x00\n        /* \"PalengkeTransaction.sol\":702:710  payments */\n      0x00\n        /* \"PalengkeTransaction.sol\":702:717  payments.length */\n      dup1\n      sload\n      swap1\n      pop\n        /* \"PalengkeTransaction.sol\":693:699  _index */\n      dup3\n        /* \"PalengkeTransaction.sol\":693:717  _index < payments.length */\n      lt\n        /* \"PalengkeTransaction.sol\":685:736  require(_index < payments.length, \"Invalid index.\") */\n      tag_24\n      jumpi\n      mload(0x40)\n      0x08c379a000000000000000000000000000000000000000000000000000000000\n      dup2\n      mstore\n      0x04\n      add\n      tag_25\n      swap1\n      tag_26\n      jump\t// in\n    tag_25:\n      mload(0x40)\n      dup1\n      swap2\n      sub\n      swap1\n      revert\n    tag_24:\n        /* \"PalengkeTransaction.sol\":754:762  payments */\n      0x00\n        /* \"PalengkeTransaction.sol\":763:769  _index */\n      dup3\n        /* \"PalengkeTransaction.sol\":754:770  payments[_index] */\n      dup2\n      sload\n      dup2\n      lt\n      tag_27\n      jumpi\n      tag_28\n      tag_29\n      jump\t// in\n    tag_28:\n    tag_27:\n      swap1\n      0x00\n      mstore\n      keccak256(0x00, 0x20)\n      add\n      sload\n        /* \"PalengkeTransaction.sol\":747:770  return payments[_index] */\n      swap1\n      pop\n        /* \"PalengkeTransaction.sol\":608:778  function getPayment(uint256 _index) public view returns (uint256) {... */\n      swap2\n      swap1\n      pop\n      jump\t// out\n        /* \"PalengkeTransaction.sol\":444:543  function getTotalPayments() public view returns (uint256) {... */\n    tag_14:\n        /* \"PalengkeTransaction.sol\":493:500  uint256 */\n      0x00\n        /* \"PalengkeTransaction.sol\":520:528  payments */\n      0x00\n        /* \"PalengkeTransaction.sol\":520:535  payments.length */\n      dup1\n      sload\n      swap1\n      pop\n        /* \"PalengkeTransaction.sol\":513:535  return payments.length */\n      swap1\n      pop\n        /* \"PalengkeTransaction.sol\":444:543  function getTotalPayments() public view returns (uint256) {... */\n      swap1\n      jump\t// out\n        /* \"PalengkeTransaction.sol\":213:238  uint256[] public payments */\n    tag_18:\n      0x00\n      dup2\n      dup2\n      sload\n      dup2\n      lt\n      tag_32\n      jumpi\n      0x00\n      dup1\n      revert\n    tag_32:\n      swap1\n      0x00\n      mstore\n      keccak256(0x00, 0x20)\n      add\n      0x00\n      swap2\n      pop\n      swap1\n      pop\n      sload\n      dup2\n      jump\t// out\n        /* \"PalengkeTransaction.sol\":287:375  function recordPayment(uint256 _amount) public {... */\n    tag_22:\n        /* \"PalengkeTransaction.sol\":345:353  payments */\n      0x00\n        /* \"PalengkeTransaction.sol\":359:366  _amount */\n      dup2\n        /* \"PalengkeTransaction.sol\":345:367  payments.push(_amount) */\n      swap1\n      dup1\n      0x01\n      dup2\n      sload\n      add\n      dup1\n      dup3\n      sstore\n      dup1\n      swap2\n      pop\n      pop\n      0x01\n      swap1\n      sub\n      swap1\n      0x00\n      mstore\n      keccak256(0x00, 0x20)\n      add\n      0x00\n      swap1\n      swap2\n      swap1\n      swap2\n      swap1\n      swap2\n      pop\n      sstore\n        /* \"PalengkeTransaction.sol\":287:375  function recordPayment(uint256 _amount) public {... */\n      pop\n      jump\t// out\n        /* \"#utility.yul\":88:205   */\n    tag_37:\n        /* \"#utility.yul\":197:198   */\n      0x00\n        /* \"#utility.yul\":194:195   */\n      0x00\n        /* \"#utility.yul\":187:199   */\n      revert\n        /* \"#utility.yul\":334:411   */\n    tag_39:\n        /* \"#utility.yul\":371:378   */\n      0x00\n        /* \"#utility.yul\":400:405   */\n      dup2\n        /* \"#utility.yul\":389:405   */\n      swap1\n      pop\n        /* \"#utility.yul\":334:411   */\n      swap2\n      swap1\n      pop\n      jump\t// out\n        /* \"#utility.yul\":417:539   */\n    tag_40:\n        /* \"#utility.yul\":490:514   */\n      tag_52\n        /* \"#utility.yul\":508:513   */\n      dup2\n        /* \"#utility.yul\":490:514   */\n      tag_39\n      jump\t// in\n    tag_52:\n        /* \"#utility.yul\":483:488   */\n      dup2\n        /* \"#utility.yul\":480:515   */\n      eq\n        /* \"#utility.yul\":470:533   */\n      tag_53\n      jumpi\n        /* \"#utility.yul\":529:530   */\n      0x00\n        /* \"#utility.yul\":526:527   */\n      0x00\n        /* \"#utility.yul\":519:531   */\n      revert\n        /* \"#utility.yul\":470:533   */\n    tag_53:\n        /* \"#utility.yul\":417:539   */\n      pop\n      jump\t// out\n        /* \"#utility.yul\":545:684   */\n    tag_41:\n        /* \"#utility.yul\":591:596   */\n      0x00\n        /* \"#utility.yul\":629:635   */\n      dup2\n        /* \"#utility.yul\":616:636   */\n      calldataload\n        /* \"#utility.yul\":607:636   */\n      swap1\n      pop\n        /* \"#utility.yul\":645:678   */\n      tag_55\n        /* \"#utility.yul\":672:677   */\n      dup2\n        /* \"#utility.yul\":645:678   */\n      tag_40\n      jump\t// in\n    tag_55:\n        /* \"#utility.yul\":545:684   */\n      swap3\n      swap2\n      pop\n      pop\n      jump\t// out\n        /* \"#utility.yul\":690:1019   */\n    tag_9:\n        /* \"#utility.yul\":749:755   */\n      0x00\n        /* \"#utility.yul\":798:800   */\n      0x20\n        /* \"#utility.yul\":786:795   */\n      dup3\n        /* \"#utility.yul\":777:784   */\n      dup5\n        /* \"#utility.yul\":773:796   */\n      sub\n        /* \"#utility.yul\":769:801   */\n      slt\n        /* \"#utility.yul\":766:885   */\n      iszero\n      tag_57\n      jumpi\n        /* \"#utility.yul\":804:883   */\n      tag_58\n      tag_37\n      jump\t// in\n    tag_58:\n        /* \"#utility.yul\":766:885   */\n    tag_57:\n        /* \"#utility.yul\":924:925   */\n      0x00\n        /* \"#utility.yul\":949:1002   */\n      tag_59\n        /* \"#utility.yul\":994:1001   */\n      dup5\n        /* \"#utility.yul\":985:991   */\n      dup3\n        /* \"#utility.yul\":974:983   */\n      dup6\n        /* \"#utility.yul\":970:992   */\n      add\n        /* \"#utility.yul\":949:1002   */\n      tag_41\n      jump\t// in\n    tag_59:\n        /* \"#utility.yul\":939:1002   */\n      swap2\n      pop\n        /* \"#utility.yul\":895:1012   */\n      pop\n        /* \"#utility.yul\":690:1019   */\n      swap3\n      swap2\n      pop\n      pop\n      jump\t// out\n        /* \"#utility.yul\":1025:1143   */\n    tag_42:\n        /* \"#utility.yul\":1112:1136   */\n      tag_61\n        /* \"#utility.yul\":1130:1135   */\n      dup2\n        /* \"#utility.yul\":1112:1136   */\n      tag_39\n      jump\t// in\n    tag_61:\n        /* \"#utility.yul\":1107:1110   */\n      dup3\n        /* \"#utility.yul\":1100:1137   */\n      mstore\n        /* \"#utility.yul\":1025:1143   */\n      pop\n      pop\n      jump\t// out\n        /* \"#utility.yul\":1149:1371   */\n    tag_12:\n        /* \"#utility.yul\":1242:1246   */\n      0x00\n        /* \"#utility.yul\":1280:1282   */\n      0x20\n        /* \"#utility.yul\":1269:1278   */\n      dup3\n        /* \"#utility.yul\":1265:1283   */\n      add\n        /* \"#utility.yul\":1257:1283   */\n      swap1\n      pop\n        /* \"#utility.yul\":1293:1364   */\n      tag_63\n        /* \"#utility.yul\":1361:1362   */\n      0x00\n        /* \"#utility.yul\":1350:1359   */\n      dup4\n        /* \"#utility.yul\":1346:1363   */\n      add\n        /* \"#utility.yul\":1337:1343   */\n      dup5\n        /* \"#utility.yul\":1293:1364   */\n      tag_42\n      jump\t// in\n    tag_63:\n        /* \"#utility.yul\":1149:1371   */\n      swap3\n      swap2\n      pop\n      pop\n      jump\t// out\n        /* \"#utility.yul\":1377:1546   */\n    tag_43:\n        /* \"#utility.yul\":1461:1472   */\n      0x00\n        /* \"#utility.yul\":1495:1501   */\n      dup3\n        /* \"#utility.yul\":1490:1493   */\n      dup3\n        /* \"#utility.yul\":1483:1502   */\n      mstore\n        /* \"#utility.yul\":1535:1539   */\n      0x20\n        /* \"#utility.yul\":1530:1533   */\n      dup3\n        /* \"#utility.yul\":1526:1540   */\n      add\n        /* \"#utility.yul\":1511:1540   */\n      swap1\n      pop\n        /* \"#utility.yul\":1377:1546   */\n      swap3\n      swap2\n      pop\n      pop\n      jump\t// out\n        /* \"#utility.yul\":1552:1716   */\n    tag_44:\n        /* \"#utility.yul\":1692:1708   */\n      0x496e76616c696420696e6465782e000000000000000000000000000000000000\n        /* \"#utility.yul\":1688:1689   */\n      0x00\n        /* \"#utility.yul\":1680:1686   */\n      dup3\n        /* \"#utility.yul\":1676:1690   */\n      add\n        /* \"#utility.yul\":1669:1709   */\n      mstore\n        /* \"#utility.yul\":1552:1716   */\n      pop\n      jump\t// out\n        /* \"#utility.yul\":1722:2088   */\n    tag_45:\n        /* \"#utility.yul\":1864:1867   */\n      0x00\n        /* \"#utility.yul\":1885:1952   */\n      tag_67\n        /* \"#utility.yul\":1949:1951   */\n      0x0e\n        /* \"#utility.yul\":1944:1947   */\n      dup4\n        /* \"#utility.yul\":1885:1952   */\n      tag_43\n      jump\t// in\n    tag_67:\n        /* \"#utility.yul\":1878:1952   */\n      swap2\n      pop\n        /* \"#utility.yul\":1961:2054   */\n      tag_68\n        /* \"#utility.yul\":2050:2053   */\n      dup3\n        /* \"#utility.yul\":1961:2054   */\n      tag_44\n      jump\t// in\n    tag_68:\n        /* \"#utility.yul\":2079:2081   */\n      0x20\n        /* \"#utility.yul\":2074:2077   */\n      dup3\n        /* \"#utility.yul\":2070:2082   */\n      add\n        /* \"#utility.yul\":2063:2082   */\n      swap1\n      pop\n        /* \"#utility.yul\":1722:2088   */\n      swap2\n      swap1\n      pop\n      jump\t// out\n        /* \"#utility.yul\":2094:2513   */\n    tag_26:\n        /* \"#utility.yul\":2260:2264   */\n      0x00\n        /* \"#utility.yul\":2298:2300   */\n      0x20\n        /* \"#utility.yul\":2287:2296   */\n      dup3\n        /* \"#utility.yul\":2283:2301   */\n      add\n        /* \"#utility.yul\":2275:2301   */\n      swap1\n      pop\n        /* \"#utility.yul\":2347:2356   */\n      dup2\n        /* \"#utility.yul\":2341:2345   */\n      dup2\n        /* \"#utility.yul\":2337:2357   */\n      sub\n        /* \"#utility.yul\":2333:2334   */\n      0x00\n        /* \"#utility.yul\":2322:2331   */\n      dup4\n        /* \"#utility.yul\":2318:2335   */\n      add\n        /* \"#utility.yul\":2311:2358   */\n      mstore\n        /* \"#utility.yul\":2375:2506   */\n      tag_70\n        /* \"#utility.yul\":2501:2505   */\n      dup2\n        /* \"#utility.yul\":2375:2506   */\n      tag_45\n      jump\t// in\n    tag_70:\n        /* \"#utility.yul\":2367:2506   */\n      swap1\n      pop\n        /* \"#utility.yul\":2094:2513   */\n      swap2\n      swap1\n      pop\n      jump\t// out\n        /* \"#utility.yul\":2519:2699   */\n    tag_29:\n        /* \"#utility.yul\":2567:2644   */\n      0x4e487b7100000000000000000000000000000000000000000000000000000000\n        /* \"#utility.yul\":2564:2565   */\n      0x00\n        /* \"#utility.yul\":2557:2645   */\n      mstore\n        /* \"#utility.yul\":2664:2668   */\n      0x32\n        /* \"#utility.yul\":2661:2662   */\n      0x04\n        /* \"#utility.yul\":2654:2669   */\n      mstore\n        /* \"#utility.yul\":2688:2692   */\n      0x24\n        /* \"#utility.yul\":2685:2686   */\n      0x00\n        /* \"#utility.yul\":2678:2693   */\n      revert\n\n    auxdata: 0xa2646970667358221220549ba33857301402880708735914ebb49ecad288168f136b86d0a50553e3f29c64736f6c634300081f0033\n}\n",
				"bytecode": {
					"linkReferences": {},
					"object": "6080604052348015600e575f5ffd5b506103098061001c5f395ff3fe608060405234801561000f575f5ffd5b506004361061004a575f3560e01c80633280a8361461004e578063708f29a61461007e57806387d817891461009c578063fefa9291146100cc575b5f5ffd5b610068600480360381019061006391906101db565b6100e8565b6040516100759190610215565b60405180910390f35b610086610152565b6040516100939190610215565b60405180910390f35b6100b660048036038101906100b191906101db565b61015d565b6040516100c39190610215565b60405180910390f35b6100e660048036038101906100e191906101db565b61017c565b005b5f5f80549050821061012f576040517f08c379a000000000000000000000000000000000000000000000000000000000815260040161012690610288565b60405180910390fd5b5f8281548110610142576101416102a6565b5b905f5260205f2001549050919050565b5f5f80549050905090565b5f818154811061016b575f80fd5b905f5260205f20015f915090505481565b5f81908060018154018082558091505060019003905f5260205f20015f909190919091505550565b5f5ffd5b5f819050919050565b6101ba816101a8565b81146101c4575f5ffd5b50565b5f813590506101d5816101b1565b92915050565b5f602082840312156101f0576101ef6101a4565b5b5f6101fd848285016101c7565b91505092915050565b61020f816101a8565b82525050565b5f6020820190506102285f830184610206565b92915050565b5f82825260208201905092915050565b7f496e76616c696420696e6465782e0000000000000000000000000000000000005f82015250565b5f610272600e8361022e565b915061027d8261023e565b602082019050919050565b5f6020820190508181035f83015261029f81610266565b9050919050565b7f4e487b71000000000000000000000000000000000000000000000000000000005f52603260045260245ffdfea2646970667358221220549ba33857301402880708735914ebb49ecad288168f136b86d0a50553e3f29c64736f6c634300081f0033",
					"opcodes": "PUSH1 0x80 PUSH1 0x40 MSTORE CALLVALUE DUP1 ISZERO PUSH1 0xE JUMPI PUSH0 PUSH0 REVERT JUMPDEST POP PUSH2 0x309 DUP1 PUSH2 0x1C PUSH0 CODECOPY PUSH0 RETURN INVALID PUSH1 0x80 PUSH1 0x40 MSTORE CALLVALUE DUP1 ISZERO PUSH2 0xF JUMPI PUSH0 PUSH0 REVERT JUMPDEST POP PUSH1 0x4 CALLDATASIZE LT PUSH2 0x4A JUMPI PUSH0 CALLDATALOAD PUSH1 0xE0 SHR DUP1 PUSH4 0x3280A836 EQ PUSH2 0x4E JUMPI DUP1 PUSH4 0x708F29A6 EQ PUSH2 0x7E JUMPI DUP1 PUSH4 0x87D81789 EQ PUSH2 0x9C JUMPI DUP1 PUSH4 0xFEFA9291 EQ PUSH2 0xCC JUMPI JUMPDEST PUSH0 PUSH0 REVERT JUMPDEST PUSH2 0x68 PUSH1 0x4 DUP1 CALLDATASIZE SUB DUP2 ADD SWAP1 PUSH2 0x63 SWAP2 SWAP1 PUSH2 0x1DB JUMP JUMPDEST PUSH2 0xE8 JUMP JUMPDEST PUSH1 0x40 MLOAD PUSH2 0x75 SWAP2 SWAP1 PUSH2 0x215 JUMP JUMPDEST PUSH1 0x40 MLOAD DUP1 SWAP2 SUB SWAP1 RETURN JUMPDEST PUSH2 0x86 PUSH2 0x152 JUMP JUMPDEST PUSH1 0x40 MLOAD PUSH2 0x93 SWAP2 SWAP1 PUSH2 0x215 JUMP JUMPDEST PUSH1 0x40 MLOAD DUP1 SWAP2 SUB SWAP1 RETURN JUMPDEST PUSH2 0xB6 PUSH1 0x4 DUP1 CALLDATASIZE SUB DUP2 ADD SWAP1 PUSH2 0xB1 SWAP2 SWAP1 PUSH2 0x1DB JUMP JUMPDEST PUSH2 0x15D JUMP JUMPDEST PUSH1 0x40 MLOAD PUSH2 0xC3 SWAP2 SWAP1 PUSH2 0x215 JUMP JUMPDEST PUSH1 0x40 MLOAD DUP1 SWAP2 SUB SWAP1 RETURN JUMPDEST PUSH2 0xE6 PUSH1 0x4 DUP1 CALLDATASIZE SUB DUP2 ADD SWAP1 PUSH2 0xE1 SWAP2 SWAP1 PUSH2 0x1DB JUMP JUMPDEST PUSH2 0x17C JUMP JUMPDEST STOP JUMPDEST PUSH0 PUSH0 DUP1 SLOAD SWAP1 POP DUP3 LT PUSH2 0x12F JUMPI PUSH1 0x40 MLOAD PUSH32 0x8C379A000000000000000000000000000000000000000000000000000000000 DUP2 MSTORE PUSH1 0x4 ADD PUSH2 0x126 SWAP1 PUSH2 0x288 JUMP JUMPDEST PUSH1 0x40 MLOAD DUP1 SWAP2 SUB SWAP1 REVERT JUMPDEST PUSH0 DUP3 DUP2 SLOAD DUP2 LT PUSH2 0x142 JUMPI PUSH2 0x141 PUSH2 0x2A6 JUMP JUMPDEST JUMPDEST SWAP1 PUSH0 MSTORE PUSH1 0x20 PUSH0 KECCAK256 ADD SLOAD SWAP1 POP SWAP2 SWAP1 POP JUMP JUMPDEST PUSH0 PUSH0 DUP1 SLOAD SWAP1 POP SWAP1 POP SWAP1 JUMP JUMPDEST PUSH0 DUP2 DUP2 SLOAD DUP2 LT PUSH2 0x16B JUMPI PUSH0 DUP1 REVERT JUMPDEST SWAP1 PUSH0 MSTORE PUSH1 0x20 PUSH0 KECCAK256 ADD PUSH0 SWAP2 POP SWAP1 POP SLOAD DUP2 JUMP JUMPDEST PUSH0 DUP2 SWAP1 DUP1 PUSH1 0x1 DUP2 SLOAD ADD DUP1 DUP3 SSTORE DUP1 SWAP2 POP POP PUSH1 0x1 SWAP1 SUB SWAP1 PUSH0 MSTORE PUSH1 0x20 PUSH0 KECCAK256 ADD PUSH0 SWAP1 SWAP2 SWAP1 SWAP2 SWAP1 SWAP2 POP SSTORE POP JUMP JUMPDEST PUSH0 PUSH0 REVERT JUMPDEST PUSH0 DUP2 SWAP1 POP SWAP2 SWAP1 POP JUMP JUMPDEST PUSH2 0x1BA DUP2 PUSH2 0x1A8 JUMP JUMPDEST DUP2 EQ PUSH2 0x1C4 JUMPI PUSH0 PUSH0 REVERT JUMPDEST POP JUMP JUMPDEST PUSH0 DUP2 CALLDATALOAD SWAP1 POP PUSH2 0x1D5 DUP2 PUSH2 0x1B1 JUMP JUMPDEST SWAP3 SWAP2 POP POP JUMP JUMPDEST PUSH0 PUSH1 0x20 DUP3 DUP5 SUB SLT ISZERO PUSH2 0x1F0 JUMPI PUSH2 0x1EF PUSH2 0x1A4 JUMP JUMPDEST JUMPDEST PUSH0 PUSH2 0x1FD DUP5 DUP3 DUP6 ADD PUSH2 0x1C7 JUMP JUMPDEST SWAP2 POP POP SWAP3 SWAP2 POP POP JUMP JUMPDEST PUSH2 0x20F DUP2 PUSH2 0x1A8 JUMP JUMPDEST DUP3 MSTORE POP POP JUMP JUMPDEST PUSH0 PUSH1 0x20 DUP3 ADD SWAP1 POP PUSH2 0x228 PUSH0 DUP4 ADD DUP5 PUSH2 0x206 JUMP JUMPDEST SWAP3 SWAP2 POP POP JUMP JUMPDEST PUSH0 DUP3 DUP3 MSTORE PUSH1 0x20 DUP3 ADD SWAP1 POP SWAP3 SWAP2 POP POP JUMP JUMPDEST PUSH32 0x496E76616C696420696E6465782E000000000000000000000000000000000000 PUSH0 DUP3 ADD MSTORE POP JUMP JUMPDEST PUSH0 PUSH2 0x272 PUSH1 0xE DUP4 PUSH2 0x22E JUMP JUMPDEST SWAP2 POP PUSH2 0x27D DUP3 PUSH2 0x23E JUMP JUMPDEST PUSH1 0x20 DUP3 ADD SWAP1 POP SWAP2 SWAP1 POP JUMP JUMPDEST PUSH0 PUSH1 0x20 DUP3 ADD SWAP1 POP DUP2 DUP2 SUB PUSH0 DUP4 ADD MSTORE PUSH2 0x29F DUP2 PUSH2 0x266 JUMP JUMPDEST SWAP1 POP SWAP2 SWAP1 POP JUMP JUMPDEST PUSH32 0x4E487B7100000000000000000000000000000000000000000000000000000000 PUSH0 MSTORE PUSH1 0x32 PUSH1 0x4 MSTORE PUSH1 0x24 PUSH0 REVERT INVALID LOG2 PUSH5 0x6970667358 0x22 SLT KECCAK256 SLOAD SWAP12 LOG3 CODESIZE JUMPI ADDRESS EQ MUL DUP9 SMOD ADDMOD PUSH20 0x5914EBB49ECAD288168F136B86D0A50553E3F29C PUSH5 0x736F6C6343 STOP ADDMOD 0x1F STOP CALLER "
				},
				"gasEstimates": {
					"creation": {
						"codeDepositCost": "155400",
						"executionCost": "200",
						"totalCost": "155600"
					},
					"external": {
						"getPayment(uint256)": "infinite",
						"getTotalPayments()": "2439",
						"payments(uint256)": "infinite",
						"recordPayment(uint256)": "46864"
					}
				},
				"methodIdentifiers": {
					"getPayment(uint256)": "3280a836",
					"getTotalPayments()": "708f29a6",
					"payments(uint256)": "87d81789",
					"recordPayment(uint256)": "fefa9291"
				}
			},
			"storageLayout": {
				"storage": [
					{
						"astId": 4,
						"contract": "PalengkeTransaction.sol:PalengkeTransactions",
						"label": "payments",
						"offset": 0,
						"slot": "0",
						"type": "t_array(t_uint256)dyn_storage"
					}
				],
				"types": {
					"t_array(t_uint256)dyn_storage": {
						"base": "t_uint256",
						"encoding": "dynamic_array",
						"label": "uint256[]",
						"numberOfBytes": "32"
					},
					"t_uint256": {
						"encoding": "inplace",
						"label": "uint256",
						"numberOfBytes": "32"
					}
				}
			},
			"userdoc": {
				"kind": "user",
				"methods": {},
				"version": 1
			}
		}
	}
}