{
	"data": {
		"bytecode": {
			"linkReferences": {},
			"object": "6080604052348015600e575f5ffd5b506104298061001c5f395ff3fe608060405234801561000f575f5ffd5b506004361061003f575f3560e01c8063180996c8146100435780633b76594d14610073578063968ed6001461008f575b5f5ffd5b61005d6004803603810190610058919061020e565b6100ad565b60405161006a9190610251565b60405180910390f35b61008d60048036038101906100889190610294565b6100c2565b005b6100976101ab565b6040516100a49190610251565b60405180910390f35b6001602052805f5260405f205f915090505481565b5f8111610104576040517f08c379a00000000000000000000000000000000000000000000000000000000081526004016100fb9061033f565b60405180910390fd5b805f5f828254610114919061038a565b925050819055508060015f3373ffffffffffffffffffffffffffffffffffffffff1673ffffffffffffffffffffffffffffffffffffffff1681526020019081526020015f205f828254610167919061038a565b925050819055507f2adb48d5a5532bbbe691f24172ff66a5865bf256d9803118badef77abb2e435b5f54336040516101a09291906103cc565b60405180910390a150565b5f5481565b5f5ffd5b5f73ffffffffffffffffffffffffffffffffffffffff82169050919050565b5f6101dd826101b4565b9050919050565b6101ed816101d3565b81146101f7575f5ffd5b50565b5f81359050610208816101e4565b92915050565b5f60208284031215610223576102226101b0565b5b5f610230848285016101fa565b91505092915050565b5f819050919050565b61024b81610239565b82525050565b5f6020820190506102645f830184610242565b92915050565b61027381610239565b811461027d575f5ffd5b50565b5f8135905061028e8161026a565b92915050565b5f602082840312156102a9576102a86101b0565b5b5f6102b684828501610280565b91505092915050565b5f82825260208201905092915050565b7f4465706f73697420616d6f756e74206d757374206265206772656174657220745f8201527f68616e207a65726f2e0000000000000000000000000000000000000000000000602082015250565b5f6103296029836102bf565b9150610334826102cf565b604082019050919050565b5f6020820190508181035f8301526103568161031d565b9050919050565b7f4e487b71000000000000000000000000000000000000000000000000000000005f52601160045260245ffd5b5f61039482610239565b915061039f83610239565b92508282019050808211156103b7576103b661035d565b5b92915050565b6103c6816101d3565b82525050565b5f6040820190506103df5f830185610242565b6103ec60208301846103bd565b939250505056fea26469706673582212204920831e3f6fdcf26aa774bbcc5d7dbc58db4878b65e1582c6480e44a9d70a5564736f6c634300081f0033",
			"opcodes": "PUSH1 0x80 PUSH1 0x40 MSTORE CALLVALUE DUP1 ISZERO PUSH1 0xE JUMPI PUSH0 PUSH0 REVERT JUMPDEST POP PUSH2 0x429 DUP1 PUSH2 0x1C PUSH0 CODECOPY PUSH0 RETURN INVALID PUSH1 0x80 PUSH1 0x40 MSTORE CALLVALUE DUP1 ISZERO PUSH2 0xF JUMPI PUSH0 PUSH0 REVERT JUMPDEST POP PUSH1 0x4 CALLDATASIZE LT PUSH2 0x3F JUMPI PUSH0 CALLDATALOAD PUSH1 0xE0 SHR DUP1 PUSH4 0x180996C8 EQ PUSH2 0x43 JUMPI DUP1 PUSH4 0x3B76594D EQ PUSH2 0x73 JUMPI DUP1 PUSH4 0x968ED600 EQ PUSH2 0x8F JUMPI JUMPDEST PUSH0 PUSH0 REVERT JUMPDEST PUSH2 0x5D PUSH1 0x4 DUP1 CALLDATASIZE SUB DUP2 ADD SWAP1 PUSH2 0x58 SWAP2 SWAP1 PUSH2 0x20E JUMP JUMPDEST PUSH2 0xAD JUMP JUMPDEST PUSH1 0x40 MLOAD PUSH2 0x6A SWAP2 SWAP1 PUSH2 0x251 JUMP JUMPDEST PUSH1 0x40 MLOAD DUP1 SWAP2 SUB SWAP1 RETURN JUMPDEST PUSH2 0x8D PUSH1 0x4 DUP1 CALLDATASIZE SUB DUP2 ADD SWAP1 PUSH2 0x88 SWAP2 SWAP1 PUSH2 0x294 JUMP JUMPDEST PUSH2 0xC2 JUMP JUMPDEST STOP JUMPDEST PUSH2 0x97 PUSH2 0x1AB JUMP JUMPDEST PUSH1 0x40 MLOAD PUSH2 0xA4 SWAP2 SWAP1 PUSH2 0x251 JUMP JUMPDEST PUSH1 0x40 MLOAD DUP1 SWAP2 SUB SWAP1 RETURN JUMPDEST PUSH1 0x1 PUSH1 0x20 MSTORE DUP1 PUSH0 MSTORE PUSH1 0x40 PUSH0 KECCAK256 PUSH0 SWAP2 POP SWAP1 POP SLOAD DUP2 JUMP JUMPDEST PUSH0 DUP2 GT PUSH2 0x104 JUMPI PUSH1 0x40 MLOAD PUSH32 0x8C379A000000000000000000000000000000000000000000000000000000000 DUP2 MSTORE PUSH1 0x4 ADD PUSH2 0xFB SWAP1 PUSH2 0x33F JUMP JUMPDEST PUSH1 0x40 MLOAD DUP1 SWAP2 SUB SWAP1 REVERT JUMPDEST DUP1 PUSH0 PUSH0 DUP3 DUP3 SLOAD PUSH2 0x114 SWAP2 SWAP1 PUSH2 0x38A JUMP JUMPDEST SWAP3 POP POP DUP2 SWAP1 SSTORE POP DUP1 PUSH1 0x1 PUSH0 CALLER PUSH20 0xFFFFFFFFFFFFFFFFFFFFFFFFFFFFFFFFFFFFFFFF AND PUSH20 0xFFFFFFFFFFFFFFFFFFFFFFFFFFFFFFFFFFFFFFFF AND DUP2 MSTORE PUSH1 0x20 ADD SWAP1 DUP2 MSTORE PUSH1 0x20 ADD PUSH0 KECCAK256 PUSH0 DUP3 DUP3 SLOAD PUSH2 0x167 SWAP2 SWAP1 PUSH2 0x38A JUMP JUMPDEST SWAP3 POP POP DUP2 SWAP1 SSTORE POP PUSH32 0x2ADB48D5A5532BBBE691F24172FF66A5865BF256D9803118BADEF77ABB2E435B PUSH0 SLOAD CALLER PUSH1 0x40 MLOAD PUSH2 0x1A0 SWAP3 SWAP2 SWAP1 PUSH2 0x3CC JUMP JUMPDEST PUSH1 0x40 MLOAD DUP1 SWAP2 SUB SWAP1 LOG1 POP JUMP JUMPDEST PUSH0 SLOAD DUP2 JUMP JUMPDEST PUSH0 PUSH0 REVERT JUMPDEST PUSH0 PUSH20 0xFFFFFFFFFFFFFFFFFFFFFFFFFFFFFFFFFFFFFFFF DUP3 AND SWAP1 POP SWAP2 SWAP1 POP JUMP JUMPDEST PUSH0 PUSH2 0x1DD DUP3 PUSH2 0x1B4 JUMP JUMPDEST SWAP1 POP SWAP2 SWAP1 POP JUMP JUMPDEST PUSH2 0x1ED DUP2 PUSH2 0x1D3 JUMP JUMPDEST DUP2 EQ PUSH2 0x1F7 JUMPI PUSH0 PUSH0 REVERT JUMPDEST POP JUMP JUMPDEST PUSH0 DUP2 CALLDATALOAD SWAP1 POP PUSH2 0x208 DUP2 PUSH2 0x1E4 JUMP JUMPDEST SWAP3 SWAP2 POP POP JUMP JUMPDEST PUSH0 PUSH1 0x20 DUP3 DUP5 SUB SLT ISZERO PUSH2 0x223 JUMPI PUSH2 0x222 PUSH2 0x1B0 JUMP JUMPDEST JUMPDEST PUSH0 PUSH2 0x230 DUP5 DUP3 DUP6 ADD PUSH2 0x1FA JUMP JUMPDEST SWAP2 POP POP SWAP3 SWAP2 POP POP JUMP JUMPDEST PUSH0 DUP2 SWAP1 POP SWAP2 SWAP1 POP JUMP JUMPDEST PUSH2 0x24B DUP2 PUSH2 0x239 JUMP JUMPDEST DUP3 MSTORE POP POP JUMP JUMPDEST PUSH0 PUSH1 0x20 DUP3 ADD SWAP1 POP PUSH2 0x264 PUSH0 DUP4 ADD DUP5 PUSH2 0x242 JUMP JUMPDEST SWAP3 SWAP2 POP POP JUMP JUMPDEST PUSH2 0x273 DUP2 PUSH2 0x239 JUMP JUMPDEST DUP2 EQ PUSH2 0x27D JUMPI PUSH0 PUSH0 REVERT JUMPDEST POP JUMP JUMPDEST PUSH0 DUP2 CALLDATALOAD SWAP1 POP PUSH2 0x28E DUP2 PUSH2 0x26A JUMP JUMPDEST SWAP3 SWAP2 POP POP JUMP JUMPDEST PUSH0 PUSH1 0x20 DUP3 DUP5 SUB SLT ISZERO PUSH2 0x2A9 JUMPI PUSH2 0x2A8 PUSH2 0x1B0 JUMP JUMPDEST JUMPDEST PUSH0 PUSH2 0x2B6 DUP5 DUP3 DUP6 ADD PUSH2 0x280 JUMP JUMPDEST SWAP2 POP POP SWAP3 SWAP2 POP POP JUMP JUMPDEST PUSH0 DUP3 DUP3 MSTORE PUSH1 0x20 DUP3 ADD SWAP1 POP SWAP3 SWAP2 POP POP JUMP JUMPDEST PUSH32 0x4465706F73697420616D6F756E74206D75737420626520677265617465722074 PUSH0 DUP3 ADD MSTORE PUSH32 0x68616E207A65726F2E0000000000000000000000000000000000000000000000 PUSH1 0x20 DUP3 ADD MSTORE POP JUMP JUMPDEST PUSH0 PUSH2 0x329 PUSH1 0x29 DUP4 PUSH2 0x2BF JUMP JUMPDEST SWAP2 POP PUSH2 0x334 DUP3 PUSH2 0x2CF JUMP JUMPDEST PUSH1 0x40 DUP3 ADD SWAP1 POP SWAP2 SWAP1 POP JUMP JUMPDEST PUSH0 PUSH1 0x20 DUP3 ADD SWAP1 POP DUP2 DUP2 SUB PUSH0 DUP4 ADD MSTORE PUSH2 0x356 DUP2 PUSH2 0x31D JUMP JUMPDEST SWAP1 POP SWAP2 SWAP1 POP JUMP JUMPDEST PUSH32 0x4E487B7100000000000000000000000000000000000000000000000000000000 PUSH0 MSTORE PUSH1 0x11 PUSH1 0x4 MSTORE PUSH1 0x24 PUSH0 REVERT JUMPDEST PUSH0 PUSH2 0x394 DUP3 PUSH2 0x239 JUMP JUMPDEST SWAP2 POP PUSH2 0x39F DUP4 PUSH2 0x239 JUMP JUMPDEST SWAP3 POP DUP3 DUP3 ADD SWAP1 POP DUP1 DUP3 GT ISZERO PUSH2 0x3B7 JUMPI PUSH2 0x3B6 PUSH2 0x35D JUMP JUMPDEST JUMPDEST SWAP3 SWAP2 POP POP JUMP JUMPDEST PUSH2 0x3C6 DUP2 PUSH2 0x1D3 JUMP JUMPDEST DUP3 MSTORE POP POP JUMP JUMPDEST PUSH0 PUSH1 0x40 DUP3 ADD SWAP1 POP PUSH2 0x3DF PUSH0 DUP4 ADD DUP6 PUSH2 0x242 JUMP JUMPDEST PUSH2 0x3EC PUSH1 0x20 DUP4 ADD DUP5 PUSH2 0x3BD JUMP JUMPDEST SWAP4 SWAP3 POP POP POP JUMP INVALID LOG2 PUSH5 0x6970667358 0x22 SLT KECCAK256 BLOBHASH KECCAK256 DUP4 CLZ EXTCODEHASH PUSH16 0xDCF26AA774BBCC5D7DBC58DB4878B65E ISZERO DUP3 0xC6 BASEFEE 0xE PREVRANDAO 0xA9 0xD7 EXP SSTORE PUSH5 0x736F6C6343 STOP ADDMOD 0x1F STOP CALLER "
		},
		"gasEstimates": {
			"creation": {
				"codeDepositCost": "213000",
				"executionCost": "255",
				"totalCost": "213255"
			},
			"external": {
				"depositFunds(uint256)": "infinite",
				"residentContributions(address)": "2780",
				"totalFunds()": "2446"
			}
		},
		"methodIdentifiers": {
			"depositFunds(uint256)": "3b76594d",
			"residentContributions(address)": "180996c8",
			"totalFunds()": "968ed600"
		}
	},
	"abi": [
		{
			"anonymous": false,
			"inputs": [
				{
					"indexed": false,
					"internalType": "uint256",
					"name": "newAmount",
					"type": "uint256"
				},
				{
					"indexed": false,
					"internalType": "address",
					"name": "updatedBy",
					"type": "address"
				}
			],
			"name": "FundUpdated",
			"type": "event"
		},
		{
			"inputs": [
				{
					"internalType": "uint256",
					"name": "amount",
					"type": "uint256"
				}
			],
			"name": "depositFunds",
			"outputs": [],
			"stateMutability": "nonpayable",
			"type": "function"
		},
		{
			"inputs": [
				{
					"internalType": "address",
					"name": "",
					"type": "address"
				}
			],
			"name": "residentContributions",
			"outputs": [
				{
					"internalType": "uint256",
					"name": "",
					"type": "uint256"
				}
			],
			"stateMutability": "view",
			"type": "function"
		},
		{
			"inputs": [],
			"name": "totalFunds",
			"outputs": [
				{
					"internalType": "uint256",
					"name": "",
					"type": "uint256"
				}
			],
			"stateMutability": "view",
			"type": "function"
		}
	]
}