{
	"data": {
		"bytecode": {
			"linkReferences": {},
			"object": "608060405234801561000f575f5ffd5b5060405161081f38038061081f8339818101604052810190610031919061014f565b815f5f6101000a81548173ffffffffffffffffffffffffffffffffffffffff021916908373ffffffffffffffffffffffffffffffffffffffff160217905550806001819055508160025f6101000a81548173ffffffffffffffffffffffffffffffffffffffff021916908373ffffffffffffffffffffffffffffffffffffffff160217905550505061018d565b5f5ffd5b5f73ffffffffffffffffffffffffffffffffffffffff82169050919050565b5f6100eb826100c2565b9050919050565b6100fb816100e1565b8114610105575f5ffd5b50565b5f81519050610116816100f2565b92915050565b5f819050919050565b61012e8161011c565b8114610138575f5ffd5b50565b5f8151905061014981610125565b92915050565b5f5f60408385031215610165576101646100be565b5b5f61017285828601610108565b92505060206101838582860161013b565b9150509250929050565b6106858061019a5f395ff3fe608060405260043610610049575f3560e01c806302d05d3f1461004d57806312065fe0146100775780638a71bb2d146100a157806394ab67fe146100cb578063b387ef92146100e7575b5f5ffd5b348015610058575f5ffd5b50610061610111565b60405161006e9190610391565b60405180910390f35b348015610082575f5ffd5b5061008b610135565b60405161009891906103c2565b60405180910390f35b3480156100ac575f5ffd5b506100b561013c565b6040516100c291906103c2565b60405180910390f35b6100e560048036038101906100e09190610433565b610142565b005b3480156100f2575f5ffd5b506100fb61032d565b6040516101089190610391565b60405180910390f35b5f5f9054906101000a900473ffffffffffffffffffffffffffffffffffffffff1681565b5f47905090565b60015481565b803414610184576040517f08c379a000000000000000000000000000000000000000000000000000000000815260040161017b906104cb565b60405180910390fd5b5f73ffffffffffffffffffffffffffffffffffffffff168273ffffffffffffffffffffffffffffffffffffffff16036101f2576040517f08c379a00000000000000000000000000000000000000000000000000000000081526004016101e990610533565b60405180910390fd5b5f606460015483610203919061057e565b61020d91906105ec565b90505f818361021c919061061c565b90505f5f9054906101000a900473ffffffffffffffffffffffffffffffffffffffff1673ffffffffffffffffffffffffffffffffffffffff166108fc8390811502906040515f60405180830381858888f19350505050158015610281573d5f5f3e3d5ffd5b5060025f9054906101000a900473ffffffffffffffffffffffffffffffffffffffff1673ffffffffffffffffffffffffffffffffffffffff166108fc8290811502906040515f60405180830381858888f193505050501580156102e6573d5f5f3e3d5ffd5b508360025f6101000a81548173ffffffffffffffffffffffffffffffffffffffff021916908373ffffffffffffffffffffffffffffffffffffffff16021790555050505050565b60025f9054906101000a900473ffffffffffffffffffffffffffffffffffffffff1681565b5f73ffffffffffffffffffffffffffffffffffffffff82169050919050565b5f61037b82610352565b9050919050565b61038b81610371565b82525050565b5f6020820190506103a45f830184610382565b92915050565b5f819050919050565b6103bc816103aa565b82525050565b5f6020820190506103d55f8301846103b3565b92915050565b5f5ffd5b6103e881610371565b81146103f2575f5ffd5b50565b5f81359050610403816103df565b92915050565b610412816103aa565b811461041c575f5ffd5b50565b5f8135905061042d81610409565b92915050565b5f5f60408385031215610449576104486103db565b5b5f610456858286016103f5565b92505060206104678582860161041f565b9150509250929050565b5f82825260208201905092915050565b7f496e636f7272656374207061796d656e7420616d6f756e7400000000000000005f82015250565b5f6104b5601883610471565b91506104c082610481565b602082019050919050565b5f6020820190508181035f8301526104e2816104a9565b9050919050565b7f496e76616c6964206275796572206164647265737300000000000000000000005f82015250565b5f61051d601583610471565b9150610528826104e9565b602082019050919050565b5f6020820190508181035f83015261054a81610511565b9050919050565b7f4e487b71000000000000000000000000000000000000000000000000000000005f52601160045260245ffd5b5f610588826103aa565b9150610593836103aa565b92508282026105a1816103aa565b915082820484148315176105b8576105b7610551565b5b5092915050565b7f4e487b71000000000000000000000000000000000000000000000000000000005f52601260045260245ffd5b5f6105f6826103aa565b9150610601836103aa565b925082610611576106106105bf565b5b828204905092915050565b5f610626826103aa565b9150610631836103aa565b925082820390508181111561064957610648610551565b5b9291505056fea2646970667358221220fd0c618003a0434afe6b8b05b5498e111f7a9b45a485f71b9dde9eebfff6286664736f6c63430008220033",
			"opcodes": "PUSH1 0x80 PUSH1 0x40 MSTORE CALLVALUE DUP1 ISZERO PUSH2 0xF JUMPI PUSH0 PUSH0 REVERT JUMPDEST POP PUSH1 0x40 MLOAD PUSH2 0x81F CODESIZE SUB DUP1 PUSH2 0x81F DUP4 CODECOPY DUP2 DUP2 ADD PUSH1 0x40 MSTORE DUP2 ADD SWAP1 PUSH2 0x31 SWAP2 SWAP1 PUSH2 0x14F JUMP JUMPDEST DUP2 PUSH0 PUSH0 PUSH2 0x100 EXP DUP2 SLOAD DUP2 PUSH20 0xFFFFFFFFFFFFFFFFFFFFFFFFFFFFFFFFFFFFFFFF MUL NOT AND SWAP1 DUP4 PUSH20 0xFFFFFFFFFFFFFFFFFFFFFFFFFFFFFFFFFFFFFFFF AND MUL OR SWAP1 SSTORE POP DUP1 PUSH1 0x1 DUP2 SWAP1 SSTORE POP DUP2 PUSH1 0x2 PUSH0 PUSH2 0x100 EXP DUP2 SLOAD DUP2 PUSH20 0xFFFFFFFFFFFFFFFFFFFFFFFFFFFFFFFFFFFFFFFF MUL NOT AND SWAP1 DUP4 PUSH20 0xFFFFFFFFFFFFFFFFFFFFFFFFFFFFFFFFFFFFFFFF AND MUL OR SWAP1 SSTORE POP POP POP PUSH2 0x18D JUMP JUMPDEST PUSH0 PUSH0 REVERT JUMPDEST PUSH0 PUSH20 0xFFFFFFFFFFFFFFFFFFFFFFFFFFFFFFFFFFFFFFFF DUP3 AND SWAP1 POP SWAP2 SWAP1 POP JUMP JUMPDEST PUSH0 PUSH2 0xEB DUP3 PUSH2 0xC2 JUMP JUMPDEST SWAP1 POP SWAP2 SWAP1 POP JUMP JUMPDEST PUSH2 0xFB DUP2 PUSH2 0xE1 JUMP JUMPDEST DUP2 EQ PUSH2 0x105 JUMPI PUSH0 PUSH0 REVERT JUMPDEST POP JUMP JUMPDEST PUSH0 DUP2 MLOAD SWAP1 POP PUSH2 0x116 DUP2 PUSH2 0xF2 JUMP JUMPDEST SWAP3 SWAP2 POP POP JUMP JUMPDEST PUSH0 DUP2 SWAP1 POP SWAP2 SWAP1 POP JUMP JUMPDEST PUSH2 0x12E DUP2 PUSH2 0x11C JUMP JUMPDEST DUP2 EQ PUSH2 0x138 JUMPI PUSH0 PUSH0 REVERT JUMPDEST POP JUMP JUMPDEST PUSH0 DUP2 MLOAD SWAP1 POP PUSH2 0x149 DUP2 PUSH2 0x125 JUMP JUMPDEST SWAP3 SWAP2 POP POP JUMP JUMPDEST PUSH0 PUSH0 PUSH1 0x40 DUP4 DUP6 SUB SLT ISZERO PUSH2 0x165 JUMPI PUSH2 0x164 PUSH2 0xBE JUMP JUMPDEST JUMPDEST PUSH0 PUSH2 0x172 DUP6 DUP3 DUP7 ADD PUSH2 0x108 JUMP JUMPDEST SWAP3 POP POP PUSH1 0x20 PUSH2 0x183 DUP6 DUP3 DUP7 ADD PUSH2 0x13B JUMP JUMPDEST SWAP2 POP POP SWAP3 POP SWAP3 SWAP1 POP JUMP JUMPDEST PUSH2 0x685 DUP1 PUSH2 0x19A PUSH0 CODECOPY PUSH0 RETURN INVALID PUSH1 0x80 PUSH1 0x40 MSTORE PUSH1 0x4 CALLDATASIZE LT PUSH2 0x49 JUMPI PUSH0 CALLDATALOAD PUSH1 0xE0 SHR DUP1 PUSH4 0x2D05D3F EQ PUSH2 0x4D JUMPI DUP1 PUSH4 0x12065FE0 EQ PUSH2 0x77 JUMPI DUP1 PUSH4 0x8A71BB2D EQ PUSH2 0xA1 JUMPI DUP1 PUSH4 0x94AB67FE EQ PUSH2 0xCB JUMPI DUP1 PUSH4 0xB387EF92 EQ PUSH2 0xE7 JUMPI JUMPDEST PUSH0 PUSH0 REVERT JUMPDEST CALLVALUE DUP1 ISZERO PUSH2 0x58 JUMPI PUSH0 PUSH0 REVERT JUMPDEST POP PUSH2 0x61 PUSH2 0x111 JUMP JUMPDEST PUSH1 0x40 MLOAD PUSH2 0x6E SWAP2 SWAP1 PUSH2 0x391 JUMP JUMPDEST PUSH1 0x40 MLOAD DUP1 SWAP2 SUB SWAP1 RETURN JUMPDEST CALLVALUE DUP1 ISZERO PUSH2 0x82 JUMPI PUSH0 PUSH0 REVERT JUMPDEST POP PUSH2 0x8B PUSH2 0x135 JUMP JUMPDEST PUSH1 0x40 MLOAD PUSH2 0x98 SWAP2 SWAP1 PUSH2 0x3C2 JUMP JUMPDEST PUSH1 0x40 MLOAD DUP1 SWAP2 SUB SWAP1 RETURN JUMPDEST CALLVALUE DUP1 ISZERO PUSH2 0xAC JUMPI PUSH0 PUSH0 REVERT JUMPDEST POP PUSH2 0xB5 PUSH2 0x13C JUMP JUMPDEST PUSH1 0x40 MLOAD PUSH2 0xC2 SWAP2 SWAP1 PUSH2 0x3C2 JUMP JUMPDEST PUSH1 0x40 MLOAD DUP1 SWAP2 SUB SWAP1 RETURN JUMPDEST PUSH2 0xE5 PUSH1 0x4 DUP1 CALLDATASIZE SUB DUP2 ADD SWAP1 PUSH2 0xE0 SWAP2 SWAP1 PUSH2 0x433 JUMP JUMPDEST PUSH2 0x142 JUMP JUMPDEST STOP JUMPDEST CALLVALUE DUP1 ISZERO PUSH2 0xF2 JUMPI PUSH0 PUSH0 REVERT JUMPDEST POP PUSH2 0xFB PUSH2 0x32D JUMP JUMPDEST PUSH1 0x40 MLOAD PUSH2 0x108 SWAP2 SWAP1 PUSH2 0x391 JUMP JUMPDEST PUSH1 0x40 MLOAD DUP1 SWAP2 SUB SWAP1 RETURN JUMPDEST PUSH0 PUSH0 SWAP1 SLOAD SWAP1 PUSH2 0x100 EXP SWAP1 DIV PUSH20 0xFFFFFFFFFFFFFFFFFFFFFFFFFFFFFFFFFFFFFFFF AND DUP2 JUMP JUMPDEST PUSH0 SELFBALANCE SWAP1 POP SWAP1 JUMP JUMPDEST PUSH1 0x1 SLOAD DUP2 JUMP JUMPDEST DUP1 CALLVALUE EQ PUSH2 0x184 JUMPI PUSH1 0x40 MLOAD PUSH32 0x8C379A000000000000000000000000000000000000000000000000000000000 DUP2 MSTORE PUSH1 0x4 ADD PUSH2 0x17B SWAP1 PUSH2 0x4CB JUMP JUMPDEST PUSH1 0x40 MLOAD DUP1 SWAP2 SUB SWAP1 REVERT JUMPDEST PUSH0 PUSH20 0xFFFFFFFFFFFFFFFFFFFFFFFFFFFFFFFFFFFFFFFF AND DUP3 PUSH20 0xFFFFFFFFFFFFFFFFFFFFFFFFFFFFFFFFFFFFFFFF AND SUB PUSH2 0x1F2 JUMPI PUSH1 0x40 MLOAD PUSH32 0x8C379A000000000000000000000000000000000000000000000000000000000 DUP2 MSTORE PUSH1 0x4 ADD PUSH2 0x1E9 SWAP1 PUSH2 0x533 JUMP JUMPDEST PUSH1 0x40 MLOAD DUP1 SWAP2 SUB SWAP1 REVERT JUMPDEST PUSH0 PUSH1 0x64 PUSH1 0x1 SLOAD DUP4 PUSH2 0x203 SWAP2 SWAP1 PUSH2 0x57E JUMP JUMPDEST PUSH2 0x20D SWAP2 SWAP1 PUSH2 0x5EC JUMP JUMPDEST SWAP1 POP PUSH0 DUP2 DUP4 PUSH2 0x21C SWAP2 SWAP1 PUSH2 0x61C JUMP JUMPDEST SWAP1 POP PUSH0 PUSH0 SWAP1 SLOAD SWAP1 PUSH2 0x100 EXP SWAP1 DIV PUSH20 0xFFFFFFFFFFFFFFFFFFFFFFFFFFFFFFFFFFFFFFFF AND PUSH20 0xFFFFFFFFFFFFFFFFFFFFFFFFFFFFFFFFFFFFFFFF AND PUSH2 0x8FC DUP4 SWAP1 DUP2 ISZERO MUL SWAP1 PUSH1 0x40 MLOAD PUSH0 PUSH1 0x40 MLOAD DUP1 DUP4 SUB DUP2 DUP6 DUP9 DUP9 CALL SWAP4 POP POP POP POP ISZERO DUP1 ISZERO PUSH2 0x281 JUMPI RETURNDATASIZE PUSH0 PUSH0 RETURNDATACOPY RETURNDATASIZE PUSH0 REVERT JUMPDEST POP PUSH1 0x2 PUSH0 SWAP1 SLOAD SWAP1 PUSH2 0x100 EXP SWAP1 DIV PUSH20 0xFFFFFFFFFFFFFFFFFFFFFFFFFFFFFFFFFFFFFFFF AND PUSH20 0xFFFFFFFFFFFFFFFFFFFFFFFFFFFFFFFFFFFFFFFF AND PUSH2 0x8FC DUP3 SWAP1 DUP2 ISZERO MUL SWAP1 PUSH1 0x40 MLOAD PUSH0 PUSH1 0x40 MLOAD DUP1 DUP4 SUB DUP2 DUP6 DUP9 DUP9 CALL SWAP4 POP POP POP POP ISZERO DUP1 ISZERO PUSH2 0x2E6 JUMPI RETURNDATASIZE PUSH0 PUSH0 RETURNDATACOPY RETURNDATASIZE PUSH0 REVERT JUMPDEST POP DUP4 PUSH1 0x2 PUSH0 PUSH2 0x100 EXP DUP2 SLOAD DUP2 PUSH20 0xFFFFFFFFFFFFFFFFFFFFFFFFFFFFFFFFFFFFFFFF MUL NOT AND SWAP1 DUP4 PUSH20 0xFFFFFFFFFFFFFFFFFFFFFFFFFFFFFFFFFFFFFFFF AND MUL OR SWAP1 SSTORE POP POP POP POP POP JUMP JUMPDEST PUSH1 0x2 PUSH0 SWAP1 SLOAD SWAP1 PUSH2 0x100 EXP SWAP1 DIV PUSH20 0xFFFFFFFFFFFFFFFFFFFFFFFFFFFFFFFFFFFFFFFF AND DUP2 JUMP JUMPDEST PUSH0 PUSH20 0xFFFFFFFFFFFFFFFFFFFFFFFFFFFFFFFFFFFFFFFF DUP3 AND SWAP1 POP SWAP2 SWAP1 POP JUMP JUMPDEST PUSH0 PUSH2 0x37B DUP3 PUSH2 0x352 JUMP JUMPDEST SWAP1 POP SWAP2 SWAP1 POP JUMP JUMPDEST PUSH2 0x38B DUP2 PUSH2 0x371 JUMP JUMPDEST DUP3 MSTORE POP POP JUMP JUMPDEST PUSH0 PUSH1 0x20 DUP3 ADD SWAP1 POP PUSH2 0x3A4 PUSH0 DUP4 ADD DUP5 PUSH2 0x382 JUMP JUMPDEST SWAP3 SWAP2 POP POP JUMP JUMPDEST PUSH0 DUP2 SWAP1 POP SWAP2 SWAP1 POP JUMP JUMPDEST PUSH2 0x3BC DUP2 PUSH2 0x3AA JUMP JUMPDEST DUP3 MSTORE POP POP JUMP JUMPDEST PUSH0 PUSH1 0x20 DUP3 ADD SWAP1 POP PUSH2 0x3D5 PUSH0 DUP4 ADD DUP5 PUSH2 0x3B3 JUMP JUMPDEST SWAP3 SWAP2 POP POP JUMP JUMPDEST PUSH0 PUSH0 REVERT JUMPDEST PUSH2 0x3E8 DUP2 PUSH2 0x371 JUMP JUMPDEST DUP2 EQ PUSH2 0x3F2 JUMPI PUSH0 PUSH0 REVERT JUMPDEST POP JUMP JUMPDEST PUSH0 DUP2 CALLDATALOAD SWAP1 POP PUSH2 0x403 DUP2 PUSH2 0x3DF JUMP JUMPDEST SWAP3 SWAP2 POP POP JUMP JUMPDEST PUSH2 0x412 DUP2 PUSH2 0x3AA JUMP JUMPDEST DUP2 EQ PUSH2 0x41C JUMPI PUSH0 PUSH0 REVERT JUMPDEST POP JUMP JUMPDEST PUSH0 DUP2 CALLDATALOAD SWAP1 POP PUSH2 0x42D DUP2 PUSH2 0x409 JUMP JUMPDEST SWAP3 SWAP2 POP POP JUMP JUMPDEST PUSH0 PUSH0 PUSH1 0x40 DUP4 DUP6 SUB SLT ISZERO PUSH2 0x449 JUMPI PUSH2 0x448 PUSH2 0x3DB JUMP JUMPDEST JUMPDEST PUSH0 PUSH2 0x456 DUP6 DUP3 DUP7 ADD PUSH2 0x3F5 JUMP JUMPDEST SWAP3 POP POP PUSH1 0x20 PUSH2 0x467 DUP6 DUP3 DUP7 ADD PUSH2 0x41F JUMP JUMPDEST SWAP2 POP POP SWAP3 POP SWAP3 SWAP1 POP JUMP JUMPDEST PUSH0 DUP3 DUP3 MSTORE PUSH1 0x20 DUP3 ADD SWAP1 POP SWAP3 SWAP2 POP POP JUMP JUMPDEST PUSH32 0x496E636F7272656374207061796D656E7420616D6F756E740000000000000000 PUSH0 DUP3 ADD MSTORE POP JUMP JUMPDEST PUSH0 PUSH2 0x4B5 PUSH1 0x18 DUP4 PUSH2 0x471 JUMP JUMPDEST SWAP2 POP PUSH2 0x4C0 DUP3 PUSH2 0x481 JUMP JUMPDEST PUSH1 0x20 DUP3 ADD SWAP1 POP SWAP2 SWAP1 POP JUMP JUMPDEST PUSH0 PUSH1 0x20 DUP3 ADD SWAP1 POP DUP2 DUP2 SUB PUSH0 DUP4 ADD MSTORE PUSH2 0x4E2 DUP2 PUSH2 0x4A9 JUMP JUMPDEST SWAP1 POP SWAP2 SWAP1 POP JUMP JUMPDEST PUSH32 0x496E76616C696420627579657220616464726573730000000000000000000000 PUSH0 DUP3 ADD MSTORE POP JUMP JUMPDEST PUSH0 PUSH2 0x51D PUSH1 0x15 DUP4 PUSH2 0x471 JUMP JUMPDEST SWAP2 POP PUSH2 0x528 DUP3 PUSH2 0x4E9 JUMP JUMPDEST PUSH1 0x20 DUP3 ADD SWAP1 POP SWAP2 SWAP1 POP JUMP JUMPDEST PUSH0 PUSH1 0x20 DUP3 ADD SWAP1 POP DUP2 DUP2 SUB PUSH0 DUP4 ADD MSTORE PUSH2 0x54A DUP2 PUSH2 0x511 JUMP JUMPDEST SWAP1 POP SWAP2 SWAP1 POP JUMP JUMPDEST PUSH32 0x4E487B7100000000000000000000000000000000000000000000000000000000 PUSH0 MSTORE PUSH1 0x11 PUSH1 0x4 MSTORE PUSH1 0x24 PUSH0 REVERT JUMPDEST PUSH0 PUSH2 0x588 DUP3 PUSH2 0x3AA JUMP JUMPDEST SWAP2 POP PUSH2 0x593 DUP4 PUSH2 0x3AA JUMP JUMPDEST SWAP3 POP DUP3 DUP3 MUL PUSH2 0x5A1 DUP2 PUSH2 0x3AA JUMP JUMPDEST SWAP2 POP DUP3 DUP3 DIV DUP5 EQ DUP4 ISZERO OR PUSH2 0x5B8 JUMPI PUSH2 0x5B7 PUSH2 0x551 JUMP JUMPDEST JUMPDEST POP SWAP3 SWAP2 POP POP JUMP JUMPDEST PUSH32 0x4E487B7100000000000000000000000000000000000000000000000000000000 PUSH0 MSTORE PUSH1 0x12 PUSH1 0x4 MSTORE PUSH1 0x24 PUSH0 REVERT JUMPDEST PUSH0 PUSH2 0x5F6 DUP3 PUSH2 0x3AA JUMP JUMPDEST SWAP2 POP PUSH2 0x601 DUP4 PUSH2 0x3AA JUMP JUMPDEST SWAP3 POP DUP3 PUSH2 0x611 JUMPI PUSH2 0x610 PUSH2 0x5BF JUMP JUMPDEST JUMPDEST DUP3 DUP3 DIV SWAP1 POP SWAP3 SWAP2 POP POP JUMP JUMPDEST PUSH0 PUSH2 0x626 DUP3 PUSH2 0x3AA JUMP JUMPDEST SWAP2 POP PUSH2 0x631 DUP4 PUSH2 0x3AA JUMP JUMPDEST SWAP3 POP DUP3 DUP3 SUB SWAP1 POP DUP2 DUP2 GT ISZERO PUSH2 0x649 JUMPI PUSH2 0x648 PUSH2 0x551 JUMP JUMPDEST JUMPDEST SWAP3 SWAP2 POP POP JUMP INVALID LOG2 PUSH5 0x6970667358 0x22 SLT KECCAK256 REVERT 0xC PUSH2 0x8003 LOG0 NUMBER BLOBBASEFEE INVALID PUSH12 0x8B05B5498E111F7A9B45A485 0xF7 SHL SWAP14 0xDE SWAP15 0xEB SELFDESTRUCT 0xF6 0x28 PUSH7 0x64736F6C634300 ADDMOD 0x22 STOP CALLER "
		},
		"gasEstimates": {
			"creation": {
				"codeDepositCost": "333800",
				"executionCost": "infinite",
				"totalCost": "infinite"
			},
			"external": {
				"creator()": "2485",
				"currentOwner()": "2574",
				"getBalance()": "334",
				"royaltyPercentage()": "2447",
				"transferNFT(address,uint256)": "infinite"
			}
		},
		"methodIdentifiers": {
			"creator()": "02d05d3f",
			"currentOwner()": "b387ef92",
			"getBalance()": "12065fe0",
			"royaltyPercentage()": "8a71bb2d",
			"transferNFT(address,uint256)": "94ab67fe"
		}
	},
	"abi": [
		{
			"inputs": [
				{
					"internalType": "address payable",
					"name": "_creator",
					"type": "address"
				},
				{
					"internalType": "uint256",
					"name": "_percentage",
					"type": "uint256"
				}
			],
			"stateMutability": "nonpayable",
			"type": "constructor"
		},
		{
			"inputs": [],
			"name": "creator",
			"outputs": [
				{
					"internalType": "address payable",
					"name": "",
					"type": "address"
				}
			],
			"stateMutability": "view",
			"type": "function"
		},
		{
			"inputs": [],
			"name": "currentOwner",
			"outputs": [
				{
					"internalType": "address payable",
					"name": "",
					"type": "address"
				}
			],
			"stateMutability": "view",
			"type": "function"
		},
		{
			"inputs": [],
			"name": "getBalance",
			"outputs": [
				{
					"internalType": "uint256",
					"name": "",
					"type": "uint256"
				}
			],
			"stateMutability": "view",
			"type": "function"
		},
		{
			"inputs": [],
			"name": "royaltyPercentage",
			"outputs": [
				{
					"internalType": "uint256",
					"name": "",
					"type": "uint256"
				}
			],
			"stateMutability": "view",
			"type": "function"
		},
		{
			"inputs": [
				{
					"internalType": "address payable",
					"name": "buyer",
					"type": "address"
				},
				{
					"internalType": "uint256",
					"name": "salePrice",
					"type": "uint256"
				}
			],
			"name": "transferNFT",
			"outputs": [],
			"stateMutability": "payable",
			"type": "function"
		}
	]
}