{
	"data": {
		"bytecode": {
			"linkReferences": {},
			"object": "6080604052348015600e575f5ffd5b5061091a8061001c5f395ff3fe608060405234801561000f575f5ffd5b5060043610610060575f3560e01c806316dd1f6914610064578063390493be146100825780634e4ffcb8146100a05780634ed224d0146100bc5780636605ff66146100ec578063c2bb3d0f1461010a575b5f5ffd5b61006c610128565b6040516100799190610286565b60405180910390f35b61008a61013a565b604051610097919061030f565b60405180910390f35b6100ba60048036038101906100b591906104f9565b6101c5565b005b6100d660048036038101906100d19190610565565b61024d565b6040516100e3919061059f565b60405180910390f35b6100f4610262565b604051610101919061059f565b60405180910390f35b610112610268565b60405161011f9190610286565b60405180910390f35b60025f9054906101000a900460ff1681565b5f8054610146906105e5565b80601f0160208091040260200160405190810160405280929190818152602001828054610172906105e5565b80156101bd5780601f10610194576101008083540402835291602001916101bd565b820191905f5260205f20905b8154815290600101906020018083116101a057829003601f168201915b505050505081565b815f90816101d391906107b5565b50806001819055508060035f8573ffffffffffffffffffffffffffffffffffffffff1673ffffffffffffffffffffffffffffffffffffffff1681526020019081526020015f205f82825461022791906108b1565b92505081905550600160025f6101000a81548160ff021916908315150217905550505050565b6003602052805f5260405f205f915090505481565b60015481565b5f90565b5f8115159050919050565b6102808161026c565b82525050565b5f6020820190506102995f830184610277565b92915050565b5f81519050919050565b5f82825260208201905092915050565b8281835e5f83830152505050565b5f601f19601f8301169050919050565b5f6102e18261029f565b6102eb81856102a9565b93506102fb8185602086016102b9565b610304816102c7565b840191505092915050565b5f6020820190508181035f83015261032781846102d7565b905092915050565b5f604051905090565b5f5ffd5b5f5ffd5b5f73ffffffffffffffffffffffffffffffffffffffff82169050919050565b5f61036982610340565b9050919050565b6103798161035f565b8114610383575f5ffd5b50565b5f8135905061039481610370565b92915050565b5f5ffd5b5f5ffd5b7f4e487b71000000000000000000000000000000000000000000000000000000005f52604160045260245ffd5b6103d8826102c7565b810181811067ffffffffffffffff821117156103f7576103f66103a2565b5b80604052505050565b5f61040961032f565b905061041582826103cf565b919050565b5f67ffffffffffffffff821115610434576104336103a2565b5b61043d826102c7565b9050602081019050919050565b828183375f83830152505050565b5f61046a6104658461041a565b610400565b9050828152602081018484840111156104865761048561039e565b5b61049184828561044a565b509392505050565b5f82601f8301126104ad576104ac61039a565b5b81356104bd848260208601610458565b91505092915050565b5f819050919050565b6104d8816104c6565b81146104e2575f5ffd5b50565b5f813590506104f3816104cf565b92915050565b5f5f5f606084860312156105105761050f610338565b5b5f61051d86828701610386565b935050602084013567ffffffffffffffff81111561053e5761053d61033c565b5b61054a86828701610499565b925050604061055b868287016104e5565b9150509250925092565b5f6020828403121561057a57610579610338565b5b5f61058784828501610386565b91505092915050565b610599816104c6565b82525050565b5f6020820190506105b25f830184610590565b92915050565b7f4e487b71000000000000000000000000000000000000000000000000000000005f52602260045260245ffd5b5f60028204905060018216806105fc57607f821691505b60208210810361060f5761060e6105b8565b5b50919050565b5f819050815f5260205f209050919050565b5f6020601f8301049050919050565b5f82821b905092915050565b5f600883026106717fffffffffffffffffffffffffffffffffffffffffffffffffffffffffffffffff82610636565b61067b8683610636565b95508019841693508086168417925050509392505050565b5f819050919050565b5f6106b66106b16106ac846104c6565b610693565b6104c6565b9050919050565b5f819050919050565b6106cf8361069c565b6106e36106db826106bd565b848454610642565b825550505050565b5f5f905090565b6106fa6106eb565b6107058184846106c6565b505050565b5b818110156107285761071d5f826106f2565b60018101905061070b565b5050565b601f82111561076d5761073e81610615565b61074784610627565b81016020851015610756578190505b61076a61076285610627565b83018261070a565b50505b505050565b5f82821c905092915050565b5f61078d5f1984600802610772565b1980831691505092915050565b5f6107a5838361077e565b9150826002028217905092915050565b6107be8261029f565b67ffffffffffffffff8111156107d7576107d66103a2565b5b6107e182546105e5565b6107ec82828561072c565b5f60209050601f83116001811461081d575f841561080b578287015190505b610815858261079a565b86555061087c565b601f19841661082b86610615565b5f5b828110156108525784890151825560018201915060208501945060208101905061082d565b8683101561086f578489015161086b601f89168261077e565b8355505b6001600288020188555050505b505050505050565b7f4e487b71000000000000000000000000000000000000000000000000000000005f52601160045260245ffd5b5f6108bb826104c6565b91506108c6836104c6565b92508282019050808211156108de576108dd610884565b5b9291505056fea264697066735822122039bcd0d70be8a08e4d1b59cf23ec2e26e4b472b92ea5a0fbdd334ccb3269b2d664736f6c634300081f0033",
			"opcodes": "PUSH1 0x80 PUSH1 0x40 MSTORE CALLVALUE DUP1 ISZERO PUSH1 0xE JUMPI PUSH0 PUSH0 REVERT JUMPDEST POP PUSH2 0x91A DUP1 PUSH2 0x1C PUSH0 CODECOPY PUSH0 RETURN INVALID PUSH1 0x80 PUSH1 0x40 MSTORE CALLVALUE DUP1 ISZERO PUSH2 0xF JUMPI PUSH0 PUSH0 REVERT JUMPDEST POP PUSH1 0x4 CALLDATASIZE LT PUSH2 0x60 JUMPI PUSH0 CALLDATALOAD PUSH1 0xE0 SHR DUP1 PUSH4 0x16DD1F69 EQ PUSH2 0x64 JUMPI DUP1 PUSH4 0x390493BE EQ PUSH2 0x82 JUMPI DUP1 PUSH4 0x4E4FFCB8 EQ PUSH2 0xA0 JUMPI DUP1 PUSH4 0x4ED224D0 EQ PUSH2 0xBC JUMPI DUP1 PUSH4 0x6605FF66 EQ PUSH2 0xEC JUMPI DUP1 PUSH4 0xC2BB3D0F EQ PUSH2 0x10A JUMPI JUMPDEST PUSH0 PUSH0 REVERT JUMPDEST PUSH2 0x6C PUSH2 0x128 JUMP JUMPDEST PUSH1 0x40 MLOAD PUSH2 0x79 SWAP2 SWAP1 PUSH2 0x286 JUMP JUMPDEST PUSH1 0x40 MLOAD DUP1 SWAP2 SUB SWAP1 RETURN JUMPDEST PUSH2 0x8A PUSH2 0x13A JUMP JUMPDEST PUSH1 0x40 MLOAD PUSH2 0x97 SWAP2 SWAP1 PUSH2 0x30F JUMP JUMPDEST PUSH1 0x40 MLOAD DUP1 SWAP2 SUB SWAP1 RETURN JUMPDEST PUSH2 0xBA PUSH1 0x4 DUP1 CALLDATASIZE SUB DUP2 ADD SWAP1 PUSH2 0xB5 SWAP2 SWAP1 PUSH2 0x4F9 JUMP JUMPDEST PUSH2 0x1C5 JUMP JUMPDEST STOP JUMPDEST PUSH2 0xD6 PUSH1 0x4 DUP1 CALLDATASIZE SUB DUP2 ADD SWAP1 PUSH2 0xD1 SWAP2 SWAP1 PUSH2 0x565 JUMP JUMPDEST PUSH2 0x24D JUMP JUMPDEST PUSH1 0x40 MLOAD PUSH2 0xE3 SWAP2 SWAP1 PUSH2 0x59F JUMP JUMPDEST PUSH1 0x40 MLOAD DUP1 SWAP2 SUB SWAP1 RETURN JUMPDEST PUSH2 0xF4 PUSH2 0x262 JUMP JUMPDEST PUSH1 0x40 MLOAD PUSH2 0x101 SWAP2 SWAP1 PUSH2 0x59F JUMP JUMPDEST PUSH1 0x40 MLOAD DUP1 SWAP2 SUB SWAP1 RETURN JUMPDEST PUSH2 0x112 PUSH2 0x268 JUMP JUMPDEST PUSH1 0x40 MLOAD PUSH2 0x11F SWAP2 SWAP1 PUSH2 0x286 JUMP JUMPDEST PUSH1 0x40 MLOAD DUP1 SWAP2 SUB SWAP1 RETURN JUMPDEST PUSH1 0x2 PUSH0 SWAP1 SLOAD SWAP1 PUSH2 0x100 EXP SWAP1 DIV PUSH1 0xFF AND DUP2 JUMP JUMPDEST PUSH0 DUP1 SLOAD PUSH2 0x146 SWAP1 PUSH2 0x5E5 JUMP JUMPDEST DUP1 PUSH1 0x1F ADD PUSH1 0x20 DUP1 SWAP2 DIV MUL PUSH1 0x20 ADD PUSH1 0x40 MLOAD SWAP1 DUP2 ADD PUSH1 0x40 MSTORE DUP1 SWAP3 SWAP2 SWAP1 DUP2 DUP2 MSTORE PUSH1 0x20 ADD DUP3 DUP1 SLOAD PUSH2 0x172 SWAP1 PUSH2 0x5E5 JUMP JUMPDEST DUP1 ISZERO PUSH2 0x1BD JUMPI DUP1 PUSH1 0x1F LT PUSH2 0x194 JUMPI PUSH2 0x100 DUP1 DUP4 SLOAD DIV MUL DUP4 MSTORE SWAP2 PUSH1 0x20 ADD SWAP2 PUSH2 0x1BD JUMP JUMPDEST DUP3 ADD SWAP2 SWAP1 PUSH0 MSTORE PUSH1 0x20 PUSH0 KECCAK256 SWAP1 JUMPDEST DUP2 SLOAD DUP2 MSTORE SWAP1 PUSH1 0x1 ADD SWAP1 PUSH1 0x20 ADD DUP1 DUP4 GT PUSH2 0x1A0 JUMPI DUP3 SWAP1 SUB PUSH1 0x1F AND DUP3 ADD SWAP2 JUMPDEST POP POP POP POP POP DUP2 JUMP JUMPDEST DUP2 PUSH0 SWAP1 DUP2 PUSH2 0x1D3 SWAP2 SWAP1 PUSH2 0x7B5 JUMP JUMPDEST POP DUP1 PUSH1 0x1 DUP2 SWAP1 SSTORE POP DUP1 PUSH1 0x3 PUSH0 DUP6 PUSH20 0xFFFFFFFFFFFFFFFFFFFFFFFFFFFFFFFFFFFFFFFF AND PUSH20 0xFFFFFFFFFFFFFFFFFFFFFFFFFFFFFFFFFFFFFFFF AND DUP2 MSTORE PUSH1 0x20 ADD SWAP1 DUP2 MSTORE PUSH1 0x20 ADD PUSH0 KECCAK256 PUSH0 DUP3 DUP3 SLOAD PUSH2 0x227 SWAP2 SWAP1 PUSH2 0x8B1 JUMP JUMPDEST SWAP3 POP POP DUP2 SWAP1 SSTORE POP PUSH1 0x1 PUSH1 0x2 PUSH0 PUSH2 0x100 EXP DUP2 SLOAD DUP2 PUSH1 0xFF MUL NOT AND SWAP1 DUP4 ISZERO ISZERO MUL OR SWAP1 SSTORE POP POP POP POP JUMP JUMPDEST PUSH1 0x3 PUSH1 0x20 MSTORE DUP1 PUSH0 MSTORE PUSH1 0x40 PUSH0 KECCAK256 PUSH0 SWAP2 POP SWAP1 POP SLOAD DUP2 JUMP JUMPDEST PUSH1 0x1 SLOAD DUP2 JUMP JUMPDEST PUSH0 SWAP1 JUMP JUMPDEST PUSH0 DUP2 ISZERO ISZERO SWAP1 POP SWAP2 SWAP1 POP JUMP JUMPDEST PUSH2 0x280 DUP2 PUSH2 0x26C JUMP JUMPDEST DUP3 MSTORE POP POP JUMP JUMPDEST PUSH0 PUSH1 0x20 DUP3 ADD SWAP1 POP PUSH2 0x299 PUSH0 DUP4 ADD DUP5 PUSH2 0x277 JUMP JUMPDEST SWAP3 SWAP2 POP POP JUMP JUMPDEST PUSH0 DUP2 MLOAD SWAP1 POP SWAP2 SWAP1 POP JUMP JUMPDEST PUSH0 DUP3 DUP3 MSTORE PUSH1 0x20 DUP3 ADD SWAP1 POP SWAP3 SWAP2 POP POP JUMP JUMPDEST DUP3 DUP2 DUP4 MCOPY PUSH0 DUP4 DUP4 ADD MSTORE POP POP POP JUMP JUMPDEST PUSH0 PUSH1 0x1F NOT PUSH1 0x1F DUP4 ADD AND SWAP1 POP SWAP2 SWAP1 POP JUMP JUMPDEST PUSH0 PUSH2 0x2E1 DUP3 PUSH2 0x29F JUMP JUMPDEST PUSH2 0x2EB DUP2 DUP6 PUSH2 0x2A9 JUMP JUMPDEST SWAP4 POP PUSH2 0x2FB DUP2 DUP6 PUSH1 0x20 DUP7 ADD PUSH2 0x2B9 JUMP JUMPDEST PUSH2 0x304 DUP2 PUSH2 0x2C7 JUMP JUMPDEST DUP5 ADD SWAP2 POP POP SWAP3 SWAP2 POP POP JUMP JUMPDEST PUSH0 PUSH1 0x20 DUP3 ADD SWAP1 POP DUP2 DUP2 SUB PUSH0 DUP4 ADD MSTORE PUSH2 0x327 DUP2 DUP5 PUSH2 0x2D7 JUMP JUMPDEST SWAP1 POP SWAP3 SWAP2 POP POP JUMP JUMPDEST PUSH0 PUSH1 0x40 MLOAD SWAP1 POP SWAP1 JUMP JUMPDEST PUSH0 PUSH0 REVERT JUMPDEST PUSH0 PUSH0 REVERT JUMPDEST PUSH0 PUSH20 0xFFFFFFFFFFFFFFFFFFFFFFFFFFFFFFFFFFFFFFFF DUP3 AND SWAP1 POP SWAP2 SWAP1 POP JUMP JUMPDEST PUSH0 PUSH2 0x369 DUP3 PUSH2 0x340 JUMP JUMPDEST SWAP1 POP SWAP2 SWAP1 POP JUMP JUMPDEST PUSH2 0x379 DUP2 PUSH2 0x35F JUMP JUMPDEST DUP2 EQ PUSH2 0x383 JUMPI PUSH0 PUSH0 REVERT JUMPDEST POP JUMP JUMPDEST PUSH0 DUP2 CALLDATALOAD SWAP1 POP PUSH2 0x394 DUP2 PUSH2 0x370 JUMP JUMPDEST SWAP3 SWAP2 POP POP JUMP JUMPDEST PUSH0 PUSH0 REVERT JUMPDEST PUSH0 PUSH0 REVERT JUMPDEST PUSH32 0x4E487B7100000000000000000000000000000000000000000000000000000000 PUSH0 MSTORE PUSH1 0x41 PUSH1 0x4 MSTORE PUSH1 0x24 PUSH0 REVERT JUMPDEST PUSH2 0x3D8 DUP3 PUSH2 0x2C7 JUMP JUMPDEST DUP2 ADD DUP2 DUP2 LT PUSH8 0xFFFFFFFFFFFFFFFF DUP3 GT OR ISZERO PUSH2 0x3F7 JUMPI PUSH2 0x3F6 PUSH2 0x3A2 JUMP JUMPDEST JUMPDEST DUP1 PUSH1 0x40 MSTORE POP POP POP JUMP JUMPDEST PUSH0 PUSH2 0x409 PUSH2 0x32F JUMP JUMPDEST SWAP1 POP PUSH2 0x415 DUP3 DUP3 PUSH2 0x3CF JUMP JUMPDEST SWAP2 SWAP1 POP JUMP JUMPDEST PUSH0 PUSH8 0xFFFFFFFFFFFFFFFF DUP3 GT ISZERO PUSH2 0x434 JUMPI PUSH2 0x433 PUSH2 0x3A2 JUMP JUMPDEST JUMPDEST PUSH2 0x43D DUP3 PUSH2 0x2C7 JUMP JUMPDEST SWAP1 POP PUSH1 0x20 DUP2 ADD SWAP1 POP SWAP2 SWAP1 POP JUMP JUMPDEST DUP3 DUP2 DUP4 CALLDATACOPY PUSH0 DUP4 DUP4 ADD MSTORE POP POP POP JUMP JUMPDEST PUSH0 PUSH2 0x46A PUSH2 0x465 DUP5 PUSH2 0x41A JUMP JUMPDEST PUSH2 0x400 JUMP JUMPDEST SWAP1 POP DUP3 DUP2 MSTORE PUSH1 0x20 DUP2 ADD DUP5 DUP5 DUP5 ADD GT ISZERO PUSH2 0x486 JUMPI PUSH2 0x485 PUSH2 0x39E JUMP JUMPDEST JUMPDEST PUSH2 0x491 DUP5 DUP3 DUP6 PUSH2 0x44A JUMP JUMPDEST POP SWAP4 SWAP3 POP POP POP JUMP JUMPDEST PUSH0 DUP3 PUSH1 0x1F DUP4 ADD SLT PUSH2 0x4AD JUMPI PUSH2 0x4AC PUSH2 0x39A JUMP JUMPDEST JUMPDEST DUP2 CALLDATALOAD PUSH2 0x4BD DUP5 DUP3 PUSH1 0x20 DUP7 ADD PUSH2 0x458 JUMP JUMPDEST SWAP2 POP POP SWAP3 SWAP2 POP POP JUMP JUMPDEST PUSH0 DUP2 SWAP1 POP SWAP2 SWAP1 POP JUMP JUMPDEST PUSH2 0x4D8 DUP2 PUSH2 0x4C6 JUMP JUMPDEST DUP2 EQ PUSH2 0x4E2 JUMPI PUSH0 PUSH0 REVERT JUMPDEST POP JUMP JUMPDEST PUSH0 DUP2 CALLDATALOAD SWAP1 POP PUSH2 0x4F3 DUP2 PUSH2 0x4CF JUMP JUMPDEST SWAP3 SWAP2 POP POP JUMP JUMPDEST PUSH0 PUSH0 PUSH0 PUSH1 0x60 DUP5 DUP7 SUB SLT ISZERO PUSH2 0x510 JUMPI PUSH2 0x50F PUSH2 0x338 JUMP JUMPDEST JUMPDEST PUSH0 PUSH2 0x51D DUP7 DUP3 DUP8 ADD PUSH2 0x386 JUMP JUMPDEST SWAP4 POP POP PUSH1 0x20 DUP5 ADD CALLDATALOAD PUSH8 0xFFFFFFFFFFFFFFFF DUP2 GT ISZERO PUSH2 0x53E JUMPI PUSH2 0x53D PUSH2 0x33C JUMP JUMPDEST JUMPDEST PUSH2 0x54A DUP7 DUP3 DUP8 ADD PUSH2 0x499 JUMP JUMPDEST SWAP3 POP POP PUSH1 0x40 PUSH2 0x55B DUP7 DUP3 DUP8 ADD PUSH2 0x4E5 JUMP JUMPDEST SWAP2 POP POP SWAP3 POP SWAP3 POP SWAP3 JUMP JUMPDEST PUSH0 PUSH1 0x20 DUP3 DUP5 SUB SLT ISZERO PUSH2 0x57A JUMPI PUSH2 0x579 PUSH2 0x338 JUMP JUMPDEST JUMPDEST PUSH0 PUSH2 0x587 DUP5 DUP3 DUP6 ADD PUSH2 0x386 JUMP JUMPDEST SWAP2 POP POP SWAP3 SWAP2 POP POP JUMP JUMPDEST PUSH2 0x599 DUP2 PUSH2 0x4C6 JUMP JUMPDEST DUP3 MSTORE POP POP JUMP JUMPDEST PUSH0 PUSH1 0x20 DUP3 ADD SWAP1 POP PUSH2 0x5B2 PUSH0 DUP4 ADD DUP5 PUSH2 0x590 JUMP JUMPDEST SWAP3 SWAP2 POP POP JUMP JUMPDEST PUSH32 0x4E487B7100000000000000000000000000000000000000000000000000000000 PUSH0 MSTORE PUSH1 0x22 PUSH1 0x4 MSTORE PUSH1 0x24 PUSH0 REVERT JUMPDEST PUSH0 PUSH1 0x2 DUP3 DIV SWAP1 POP PUSH1 0x1 DUP3 AND DUP1 PUSH2 0x5FC JUMPI PUSH1 0x7F DUP3 AND SWAP2 POP JUMPDEST PUSH1 0x20 DUP3 LT DUP2 SUB PUSH2 0x60F JUMPI PUSH2 0x60E PUSH2 0x5B8 JUMP JUMPDEST JUMPDEST POP SWAP2 SWAP1 POP JUMP JUMPDEST PUSH0 DUP2 SWAP1 POP DUP2 PUSH0 MSTORE PUSH1 0x20 PUSH0 KECCAK256 SWAP1 POP SWAP2 SWAP1 POP JUMP JUMPDEST PUSH0 PUSH1 0x20 PUSH1 0x1F DUP4 ADD DIV SWAP1 POP SWAP2 SWAP1 POP JUMP JUMPDEST PUSH0 DUP3 DUP3 SHL SWAP1 POP SWAP3 SWAP2 POP POP JUMP JUMPDEST PUSH0 PUSH1 0x8 DUP4 MUL PUSH2 0x671 PUSH32 0xFFFFFFFFFFFFFFFFFFFFFFFFFFFFFFFFFFFFFFFFFFFFFFFFFFFFFFFFFFFFFFFF DUP3 PUSH2 0x636 JUMP JUMPDEST PUSH2 0x67B DUP7 DUP4 PUSH2 0x636 JUMP JUMPDEST SWAP6 POP DUP1 NOT DUP5 AND SWAP4 POP DUP1 DUP7 AND DUP5 OR SWAP3 POP POP POP SWAP4 SWAP3 POP POP POP JUMP JUMPDEST PUSH0 DUP2 SWAP1 POP SWAP2 SWAP1 POP JUMP JUMPDEST PUSH0 PUSH2 0x6B6 PUSH2 0x6B1 PUSH2 0x6AC DUP5 PUSH2 0x4C6 JUMP JUMPDEST PUSH2 0x693 JUMP JUMPDEST PUSH2 0x4C6 JUMP JUMPDEST SWAP1 POP SWAP2 SWAP1 POP JUMP JUMPDEST PUSH0 DUP2 SWAP1 POP SWAP2 SWAP1 POP JUMP JUMPDEST PUSH2 0x6CF DUP4 PUSH2 0x69C JUMP JUMPDEST PUSH2 0x6E3 PUSH2 0x6DB DUP3 PUSH2 0x6BD JUMP JUMPDEST DUP5 DUP5 SLOAD PUSH2 0x642 JUMP JUMPDEST DUP3 SSTORE POP POP POP POP JUMP JUMPDEST PUSH0 PUSH0 SWAP1 POP SWAP1 JUMP JUMPDEST PUSH2 0x6FA PUSH2 0x6EB JUMP JUMPDEST PUSH2 0x705 DUP2 DUP5 DUP5 PUSH2 0x6C6 JUMP JUMPDEST POP POP POP JUMP JUMPDEST JUMPDEST DUP2 DUP2 LT ISZERO PUSH2 0x728 JUMPI PUSH2 0x71D PUSH0 DUP3 PUSH2 0x6F2 JUMP JUMPDEST PUSH1 0x1 DUP2 ADD SWAP1 POP PUSH2 0x70B JUMP JUMPDEST POP POP JUMP JUMPDEST PUSH1 0x1F DUP3 GT ISZERO PUSH2 0x76D JUMPI PUSH2 0x73E DUP2 PUSH2 0x615 JUMP JUMPDEST PUSH2 0x747 DUP5 PUSH2 0x627 JUMP JUMPDEST DUP2 ADD PUSH1 0x20 DUP6 LT ISZERO PUSH2 0x756 JUMPI DUP2 SWAP1 POP JUMPDEST PUSH2 0x76A PUSH2 0x762 DUP6 PUSH2 0x627 JUMP JUMPDEST DUP4 ADD DUP3 PUSH2 0x70A JUMP JUMPDEST POP POP JUMPDEST POP POP POP JUMP JUMPDEST PUSH0 DUP3 DUP3 SHR SWAP1 POP SWAP3 SWAP2 POP POP JUMP JUMPDEST PUSH0 PUSH2 0x78D PUSH0 NOT DUP5 PUSH1 0x8 MUL PUSH2 0x772 JUMP JUMPDEST NOT DUP1 DUP4 AND SWAP2 POP POP SWAP3 SWAP2 POP POP JUMP JUMPDEST PUSH0 PUSH2 0x7A5 DUP4 DUP4 PUSH2 0x77E JUMP JUMPDEST SWAP2 POP DUP3 PUSH1 0x2 MUL DUP3 OR SWAP1 POP SWAP3 SWAP2 POP POP JUMP JUMPDEST PUSH2 0x7BE DUP3 PUSH2 0x29F JUMP JUMPDEST PUSH8 0xFFFFFFFFFFFFFFFF DUP2 GT ISZERO PUSH2 0x7D7 JUMPI PUSH2 0x7D6 PUSH2 0x3A2 JUMP JUMPDEST JUMPDEST PUSH2 0x7E1 DUP3 SLOAD PUSH2 0x5E5 JUMP JUMPDEST PUSH2 0x7EC DUP3 DUP3 DUP6 PUSH2 0x72C JUMP JUMPDEST PUSH0 PUSH1 0x20 SWAP1 POP PUSH1 0x1F DUP4 GT PUSH1 0x1 DUP2 EQ PUSH2 0x81D JUMPI PUSH0 DUP5 ISZERO PUSH2 0x80B JUMPI DUP3 DUP8 ADD MLOAD SWAP1 POP JUMPDEST PUSH2 0x815 DUP6 DUP3 PUSH2 0x79A JUMP JUMPDEST DUP7 SSTORE POP PUSH2 0x87C JUMP JUMPDEST PUSH1 0x1F NOT DUP5 AND PUSH2 0x82B DUP7 PUSH2 0x615 JUMP JUMPDEST PUSH0 JUMPDEST DUP3 DUP2 LT ISZERO PUSH2 0x852 JUMPI DUP5 DUP10 ADD MLOAD DUP3 SSTORE PUSH1 0x1 DUP3 ADD SWAP2 POP PUSH1 0x20 DUP6 ADD SWAP5 POP PUSH1 0x20 DUP2 ADD SWAP1 POP PUSH2 0x82D JUMP JUMPDEST DUP7 DUP4 LT ISZERO PUSH2 0x86F JUMPI DUP5 DUP10 ADD MLOAD PUSH2 0x86B PUSH1 0x1F DUP10 AND DUP3 PUSH2 0x77E JUMP JUMPDEST DUP4 SSTORE POP JUMPDEST PUSH1 0x1 PUSH1 0x2 DUP9 MUL ADD DUP9 SSTORE POP POP POP JUMPDEST POP POP POP POP POP POP JUMP JUMPDEST PUSH32 0x4E487B7100000000000000000000000000000000000000000000000000000000 PUSH0 MSTORE PUSH1 0x11 PUSH1 0x4 MSTORE PUSH1 0x24 PUSH0 REVERT JUMPDEST PUSH0 PUSH2 0x8BB DUP3 PUSH2 0x4C6 JUMP JUMPDEST SWAP2 POP PUSH2 0x8C6 DUP4 PUSH2 0x4C6 JUMP JUMPDEST SWAP3 POP DUP3 DUP3 ADD SWAP1 POP DUP1 DUP3 GT ISZERO PUSH2 0x8DE JUMPI PUSH2 0x8DD PUSH2 0x884 JUMP JUMPDEST JUMPDEST SWAP3 SWAP2 POP POP JUMP INVALID LOG2 PUSH5 0x6970667358 0x22 SLT KECCAK256 CODECOPY 0xBC 0xD0 0xD7 SIGNEXTEND 0xE8 LOG0 DUP15 0x4D SHL MSIZE 0xCF 0x23 EOFCREATE 0x2E 0x26 RETF 0xB4 PUSH19 0xB92EA5A0FBDD334CCB3269B2D664736F6C6343 STOP ADDMOD 0x1F STOP CALLER "
		},
		"gasEstimates": {
			"creation": {
				"codeDepositCost": "466000",
				"executionCost": "497",
				"totalCost": "466497"
			},
			"external": {
				"isTransactionSuccessful()": "418",
				"recordSale(address,string,uint256)": "infinite",
				"totalSales()": "2491",
				"transactionStatus()": "2444",
				"vendorName()": "infinite",
				"vendorSales(address)": "2846"
			}
		},
		"methodIdentifiers": {
			"isTransactionSuccessful()": "c2bb3d0f",
			"recordSale(address,string,uint256)": "4e4ffcb8",
			"totalSales()": "6605ff66",
			"transactionStatus()": "16dd1f69",
			"vendorName()": "390493be",
			"vendorSales(address)": "4ed224d0"
		}
	},
	"abi": [
		{
			"inputs": [],
			"name": "isTransactionSuccessful",
			"outputs": [
				{
					"internalType": "bool",
					"name": "",
					"type": "bool"
				}
			],
			"stateMutability": "view",
			"type": "function"
		},
		{
			"inputs": [
				{
					"internalType": "address",
					"name": "_vendor",
					"type": "address"
				},
				{
					"internalType": "string",
					"name": "_vendorName",
					"type": "string"
				},
				{
					"internalType": "uint256",
					"name": "_saleAmount",
					"type": "uint256"
				}
			],
			"name": "recordSale",
			"outputs": [],
			"stateMutability": "nonpayable",
			"type": "function"
		},
		{
			"inputs": [],
			"name": "totalSales",
			"outputs": [
				{
					"internalType": "uint256",
					"name": "",
					"type": "uint256"
				}
			],
			"stateMutability": "view",
			"type": "function"
		},
		{
			"inputs": [],
			"name": "transactionStatus",
			"outputs": [
				{
					"internalType": "bool",
					"name": "",
					"type": "bool"
				}
			],
			"stateMutability": "view",
			"type": "function"
		},
		{
			"inputs": [],
			"name": "vendorName",
			"outputs": [
				{
					"internalType": "string",
					"name": "",
					"type": "string"
				}
			],
			"stateMutability": "view",
			"type": "function"
		},
		{
			"inputs": [
				{
					"internalType": "address",
					"name": "",
					"type": "address"
				}
			],
			"name": "vendorSales",
			"outputs": [
				{
					"internalType": "uint256",
					"name": "",
					"type": "uint256"
				}
			],
			"stateMutability": "view",
			"type": "function"
		}
	]
}