{
	"data": {
		"bytecode": {
			"linkReferences": {},
			"object": "608060405234801561000f575f5ffd5b506040518060400160405280600381526020017f72656400000000000000000000000000000000000000000000000000000000008152505f60405161005390610125565b9081526020016040518091039020908161006d9190610387565b506040518060400160405280600381526020017f72656400000000000000000000000000000000000000000000000000000000008152505f6040516100b1906104a0565b908152602001604051809103902090816100cb9190610387565b506104b4565b5f81905092915050565b7f696e74657273656374696f6e31000000000000000000000000000000000000005f82015250565b5f61010f600d836100d1565b915061011a826100db565b600d82019050919050565b5f61012f82610103565b9150819050919050565b5f81519050919050565b7f4e487b71000000000000000000000000000000000000000000000000000000005f52604160045260245ffd5b7f4e487b71000000000000000000000000000000000000000000000000000000005f52602260045260245ffd5b5f60028204905060018216806101b457607f821691505b6020821081036101c7576101c6610170565b5b50919050565b5f819050815f5260205f209050919050565b5f6020601f8301049050919050565b5f82821b905092915050565b5f600883026102297fffffffffffffffffffffffffffffffffffffffffffffffffffffffffffffffff826101ee565b61023386836101ee565b95508019841693508086168417925050509392505050565b5f819050919050565b5f819050919050565b5f61027761027261026d8461024b565b610254565b61024b565b9050919050565b5f819050919050565b6102908361025d565b6102a461029c8261027e565b8484546101fa565b825550505050565b5f5f905090565b6102bb6102ac565b6102c6818484610287565b505050565b5f5b828110156102ec576102e15f8284016102b3565b6001810190506102cd565b505050565b601f82111561033f578282111561033e5761030b816101cd565b610314836101df565b61031d856101df565b602086101561032a575f90505b808301610339828403826102cb565b505050505b5b505050565b5f82821c905092915050565b5f61035f5f1984600802610344565b1980831691505092915050565b5f6103778383610350565b9150826002028217905092915050565b61039082610139565b67ffffffffffffffff8111156103a9576103a8610143565b5b6103b3825461019d565b6103be8282856102f1565b5f60209050601f8311600181146103ef575f84156103dd578287015190505b6103e7858261036c565b86555061044e565b601f1984166103fd866101cd565b5f5b82811015610424578489015182556001820191506020850194506020810190506103ff565b86831015610441578489015161043d601f891682610350565b8355505b6001600288020188555050505b505050505050565b7f696e74657273656374696f6e32000000000000000000000000000000000000005f82015250565b5f61048a600d836100d1565b915061049582610456565b600d82019050919050565b5f6104aa8261047e565b9150819050919050565b610a37806104c15f395ff3fe608060405234801561000f575f5ffd5b5060043610610034575f3560e01c806362e3152a1461003857806384c9362714610068575b5f5ffd5b610052600480360381019061004d91906103e6565b610084565b60405161005f919061048d565b60405180910390f35b610082600480360381019061007d91906104ad565b610136565b005b5f818051602081018201805184825260208301602085012081835280955050505050505f9150905080546100b790610550565b80601f01602080910402602001604051908101604052809291908181526020018280546100e390610550565b801561012e5780601f106101055761010080835404028352916020019161012e565b820191905f5260205f20905b81548152906001019060200180831161011157829003601f168201915b505050505081565b604051602001610145906105d4565b604051602081830303815290604052805190602001208160405160200161016c9190610618565b6040516020818303038152906040528051906020012014806101d7575060405160200161019890610678565b60405160208183030381529060405280519060200120816040516020016101bf9190610618565b60405160208183030381529060405280519060200120145b8061022b57506040516020016101ec906106d6565b60405160208183030381529060405280519060200120816040516020016102139190610618565b60405160208183030381529060405280519060200120145b61026a576040517f08c379a00000000000000000000000000000000000000000000000000000000081526004016102619061075a565b60405180910390fd5b805f8360405161027a9190610618565b908152602001604051809103902090816102949190610932565b505050565b5f604051905090565b5f5ffd5b5f5ffd5b5f5ffd5b5f5ffd5b5f601f19601f8301169050919050565b7f4e487b71000000000000000000000000000000000000000000000000000000005f52604160045260245ffd5b6102f8826102b2565b810181811067ffffffffffffffff82111715610317576103166102c2565b5b80604052505050565b5f610329610299565b905061033582826102ef565b919050565b5f67ffffffffffffffff821115610354576103536102c2565b5b61035d826102b2565b9050602081019050919050565b828183375f83830152505050565b5f61038a6103858461033a565b610320565b9050828152602081018484840111156103a6576103a56102ae565b5b6103b184828561036a565b509392505050565b5f82601f8301126103cd576103cc6102aa565b5b81356103dd848260208601610378565b91505092915050565b5f602082840312156103fb576103fa6102a2565b5b5f82013567ffffffffffffffff811115610418576104176102a6565b5b610424848285016103b9565b91505092915050565b5f81519050919050565b5f82825260208201905092915050565b8281835e5f83830152505050565b5f61045f8261042d565b6104698185610437565b9350610479818560208601610447565b610482816102b2565b840191505092915050565b5f6020820190508181035f8301526104a58184610455565b905092915050565b5f5f604083850312156104c3576104c26102a2565b5b5f83013567ffffffffffffffff8111156104e0576104df6102a6565b5b6104ec858286016103b9565b925050602083013567ffffffffffffffff81111561050d5761050c6102a6565b5b610519858286016103b9565b9150509250929050565b7f4e487b71000000000000000000000000000000000000000000000000000000005f52602260045260245ffd5b5f600282049050600182168061056757607f821691505b60208210810361057a57610579610523565b5b50919050565b5f81905092915050565b7f72656400000000000000000000000000000000000000000000000000000000005f82015250565b5f6105be600383610580565b91506105c98261058a565b600382019050919050565b5f6105de826105b2565b9150819050919050565b5f6105f28261042d565b6105fc8185610580565b935061060c818560208601610447565b80840191505092915050565b5f61062382846105e8565b915081905092915050565b7f79656c6c6f7700000000000000000000000000000000000000000000000000005f82015250565b5f610662600683610580565b915061066d8261062e565b600682019050919050565b5f61068282610656565b9150819050919050565b7f677265656e0000000000000000000000000000000000000000000000000000005f82015250565b5f6106c0600583610580565b91506106cb8261068c565b600582019050919050565b5f6106e0826106b4565b9150819050919050565b7f496e76616c696420737461746521205374617465206d757374206265202772655f8201527f64272c202779656c6c6f77272c206f722027677265656e272e00000000000000602082015250565b5f610744603983610437565b915061074f826106ea565b604082019050919050565b5f6020820190508181035f83015261077181610738565b9050919050565b5f819050815f5260205f209050919050565b5f6020601f8301049050919050565b5f82821b905092915050565b5f600883026107d47fffffffffffffffffffffffffffffffffffffffffffffffffffffffffffffffff82610799565b6107de8683610799565b95508019841693508086168417925050509392505050565b5f819050919050565b5f819050919050565b5f61082261081d610818846107f6565b6107ff565b6107f6565b9050919050565b5f819050919050565b61083b83610808565b61084f61084782610829565b8484546107a5565b825550505050565b5f5f905090565b610866610857565b610871818484610832565b505050565b5f5b828110156108975761088c5f82840161085e565b600181019050610878565b505050565b601f8211156108ea57828211156108e9576108b681610778565b6108bf8361078a565b6108c88561078a565b60208610156108d5575f90505b8083016108e482840382610876565b505050505b5b505050565b5f82821c905092915050565b5f61090a5f19846008026108ef565b1980831691505092915050565b5f61092283836108fb565b9150826002028217905092915050565b61093b8261042d565b67ffffffffffffffff811115610954576109536102c2565b5b61095e8254610550565b61096982828561089c565b5f60209050601f83116001811461099a575f8415610988578287015190505b6109928582610917565b8655506109f9565b601f1984166109a886610778565b5f5b828110156109cf578489015182556001820191506020850194506020810190506109aa565b868310156109ec57848901516109e8601f8916826108fb565b8355505b6001600288020188555050505b50505050505056fea264697066735822122035645565c2c3e71e8c9f3795146b94f592093f05dd29ae6f872a5c4022e523e864736f6c63430008220033",
			"opcodes": "PUSH1 0x80 PUSH1 0x40 MSTORE CALLVALUE DUP1 ISZERO PUSH2 0xF JUMPI PUSH0 PUSH0 REVERT JUMPDEST POP PUSH1 0x40 MLOAD DUP1 PUSH1 0x40 ADD PUSH1 0x40 MSTORE DUP1 PUSH1 0x3 DUP2 MSTORE PUSH1 0x20 ADD PUSH32 0x7265640000000000000000000000000000000000000000000000000000000000 DUP2 MSTORE POP PUSH0 PUSH1 0x40 MLOAD PUSH2 0x53 SWAP1 PUSH2 0x125 JUMP JUMPDEST SWAP1 DUP2 MSTORE PUSH1 0x20 ADD PUSH1 0x40 MLOAD DUP1 SWAP2 SUB SWAP1 KECCAK256 SWAP1 DUP2 PUSH2 0x6D SWAP2 SWAP1 PUSH2 0x387 JUMP JUMPDEST POP PUSH1 0x40 MLOAD DUP1 PUSH1 0x40 ADD PUSH1 0x40 MSTORE DUP1 PUSH1 0x3 DUP2 MSTORE PUSH1 0x20 ADD PUSH32 0x7265640000000000000000000000000000000000000000000000000000000000 DUP2 MSTORE POP PUSH0 PUSH1 0x40 MLOAD PUSH2 0xB1 SWAP1 PUSH2 0x4A0 JUMP JUMPDEST SWAP1 DUP2 MSTORE PUSH1 0x20 ADD PUSH1 0x40 MLOAD DUP1 SWAP2 SUB SWAP1 KECCAK256 SWAP1 DUP2 PUSH2 0xCB SWAP2 SWAP1 PUSH2 0x387 JUMP JUMPDEST POP PUSH2 0x4B4 JUMP JUMPDEST PUSH0 DUP2 SWAP1 POP SWAP3 SWAP2 POP POP JUMP JUMPDEST PUSH32 0x696E74657273656374696F6E3100000000000000000000000000000000000000 PUSH0 DUP3 ADD MSTORE POP JUMP JUMPDEST PUSH0 PUSH2 0x10F PUSH1 0xD DUP4 PUSH2 0xD1 JUMP JUMPDEST SWAP2 POP PUSH2 0x11A DUP3 PUSH2 0xDB JUMP JUMPDEST PUSH1 0xD DUP3 ADD SWAP1 POP SWAP2 SWAP1 POP JUMP JUMPDEST PUSH0 PUSH2 0x12F DUP3 PUSH2 0x103 JUMP JUMPDEST SWAP2 POP DUP2 SWAP1 POP SWAP2 SWAP1 POP JUMP JUMPDEST PUSH0 DUP2 MLOAD SWAP1 POP SWAP2 SWAP1 POP JUMP JUMPDEST PUSH32 0x4E487B7100000000000000000000000000000000000000000000000000000000 PUSH0 MSTORE PUSH1 0x41 PUSH1 0x4 MSTORE PUSH1 0x24 PUSH0 REVERT JUMPDEST PUSH32 0x4E487B7100000000000000000000000000000000000000000000000000000000 PUSH0 MSTORE PUSH1 0x22 PUSH1 0x4 MSTORE PUSH1 0x24 PUSH0 REVERT JUMPDEST PUSH0 PUSH1 0x2 DUP3 DIV SWAP1 POP PUSH1 0x1 DUP3 AND DUP1 PUSH2 0x1B4 JUMPI PUSH1 0x7F DUP3 AND SWAP2 POP JUMPDEST PUSH1 0x20 DUP3 LT DUP2 SUB PUSH2 0x1C7 JUMPI PUSH2 0x1C6 PUSH2 0x170 JUMP JUMPDEST JUMPDEST POP SWAP2 SWAP1 POP JUMP JUMPDEST PUSH0 DUP2 SWAP1 POP DUP2 PUSH0 MSTORE PUSH1 0x20 PUSH0 KECCAK256 SWAP1 POP SWAP2 SWAP1 POP JUMP JUMPDEST PUSH0 PUSH1 0x20 PUSH1 0x1F DUP4 ADD DIV SWAP1 POP SWAP2 SWAP1 POP JUMP JUMPDEST PUSH0 DUP3 DUP3 SHL SWAP1 POP SWAP3 SWAP2 POP POP JUMP JUMPDEST PUSH0 PUSH1 0x8 DUP4 MUL PUSH2 0x229 PUSH32 0xFFFFFFFFFFFFFFFFFFFFFFFFFFFFFFFFFFFFFFFFFFFFFFFFFFFFFFFFFFFFFFFF DUP3 PUSH2 0x1EE JUMP JUMPDEST PUSH2 0x233 DUP7 DUP4 PUSH2 0x1EE JUMP JUMPDEST SWAP6 POP DUP1 NOT DUP5 AND SWAP4 POP DUP1 DUP7 AND DUP5 OR SWAP3 POP POP POP SWAP4 SWAP3 POP POP POP JUMP JUMPDEST PUSH0 DUP2 SWAP1 POP SWAP2 SWAP1 POP JUMP JUMPDEST PUSH0 DUP2 SWAP1 POP SWAP2 SWAP1 POP JUMP JUMPDEST PUSH0 PUSH2 0x277 PUSH2 0x272 PUSH2 0x26D DUP5 PUSH2 0x24B JUMP JUMPDEST PUSH2 0x254 JUMP JUMPDEST PUSH2 0x24B JUMP JUMPDEST SWAP1 POP SWAP2 SWAP1 POP JUMP JUMPDEST PUSH0 DUP2 SWAP1 POP SWAP2 SWAP1 POP JUMP JUMPDEST PUSH2 0x290 DUP4 PUSH2 0x25D JUMP JUMPDEST PUSH2 0x2A4 PUSH2 0x29C DUP3 PUSH2 0x27E JUMP JUMPDEST DUP5 DUP5 SLOAD PUSH2 0x1FA JUMP JUMPDEST DUP3 SSTORE POP POP POP POP JUMP JUMPDEST PUSH0 PUSH0 SWAP1 POP SWAP1 JUMP JUMPDEST PUSH2 0x2BB PUSH2 0x2AC JUMP JUMPDEST PUSH2 0x2C6 DUP2 DUP5 DUP5 PUSH2 0x287 JUMP JUMPDEST POP POP POP JUMP JUMPDEST PUSH0 JUMPDEST DUP3 DUP2 LT ISZERO PUSH2 0x2EC JUMPI PUSH2 0x2E1 PUSH0 DUP3 DUP5 ADD PUSH2 0x2B3 JUMP JUMPDEST PUSH1 0x1 DUP2 ADD SWAP1 POP PUSH2 0x2CD JUMP JUMPDEST POP POP POP JUMP JUMPDEST PUSH1 0x1F DUP3 GT ISZERO PUSH2 0x33F JUMPI DUP3 DUP3 GT ISZERO PUSH2 0x33E JUMPI PUSH2 0x30B DUP2 PUSH2 0x1CD JUMP JUMPDEST PUSH2 0x314 DUP4 PUSH2 0x1DF JUMP JUMPDEST PUSH2 0x31D DUP6 PUSH2 0x1DF JUMP JUMPDEST PUSH1 0x20 DUP7 LT ISZERO PUSH2 0x32A JUMPI PUSH0 SWAP1 POP JUMPDEST DUP1 DUP4 ADD PUSH2 0x339 DUP3 DUP5 SUB DUP3 PUSH2 0x2CB JUMP JUMPDEST POP POP POP POP JUMPDEST JUMPDEST POP POP POP JUMP JUMPDEST PUSH0 DUP3 DUP3 SHR SWAP1 POP SWAP3 SWAP2 POP POP JUMP JUMPDEST PUSH0 PUSH2 0x35F PUSH0 NOT DUP5 PUSH1 0x8 MUL PUSH2 0x344 JUMP JUMPDEST NOT DUP1 DUP4 AND SWAP2 POP POP SWAP3 SWAP2 POP POP JUMP JUMPDEST PUSH0 PUSH2 0x377 DUP4 DUP4 PUSH2 0x350 JUMP JUMPDEST SWAP2 POP DUP3 PUSH1 0x2 MUL DUP3 OR SWAP1 POP SWAP3 SWAP2 POP POP JUMP JUMPDEST PUSH2 0x390 DUP3 PUSH2 0x139 JUMP JUMPDEST PUSH8 0xFFFFFFFFFFFFFFFF DUP2 GT ISZERO PUSH2 0x3A9 JUMPI PUSH2 0x3A8 PUSH2 0x143 JUMP JUMPDEST JUMPDEST PUSH2 0x3B3 DUP3 SLOAD PUSH2 0x19D JUMP JUMPDEST PUSH2 0x3BE DUP3 DUP3 DUP6 PUSH2 0x2F1 JUMP JUMPDEST PUSH0 PUSH1 0x20 SWAP1 POP PUSH1 0x1F DUP4 GT PUSH1 0x1 DUP2 EQ PUSH2 0x3EF JUMPI PUSH0 DUP5 ISZERO PUSH2 0x3DD JUMPI DUP3 DUP8 ADD MLOAD SWAP1 POP JUMPDEST PUSH2 0x3E7 DUP6 DUP3 PUSH2 0x36C JUMP JUMPDEST DUP7 SSTORE POP PUSH2 0x44E JUMP JUMPDEST PUSH1 0x1F NOT DUP5 AND PUSH2 0x3FD DUP7 PUSH2 0x1CD JUMP JUMPDEST PUSH0 JUMPDEST DUP3 DUP2 LT ISZERO PUSH2 0x424 JUMPI DUP5 DUP10 ADD MLOAD DUP3 SSTORE PUSH1 0x1 DUP3 ADD SWAP2 POP PUSH1 0x20 DUP6 ADD SWAP5 POP PUSH1 0x20 DUP2 ADD SWAP1 POP PUSH2 0x3FF JUMP JUMPDEST DUP7 DUP4 LT ISZERO PUSH2 0x441 JUMPI DUP5 DUP10 ADD MLOAD PUSH2 0x43D PUSH1 0x1F DUP10 AND DUP3 PUSH2 0x350 JUMP JUMPDEST DUP4 SSTORE POP JUMPDEST PUSH1 0x1 PUSH1 0x2 DUP9 MUL ADD DUP9 SSTORE POP POP POP JUMPDEST POP POP POP POP POP POP JUMP JUMPDEST PUSH32 0x696E74657273656374696F6E3200000000000000000000000000000000000000 PUSH0 DUP3 ADD MSTORE POP JUMP JUMPDEST PUSH0 PUSH2 0x48A PUSH1 0xD DUP4 PUSH2 0xD1 JUMP JUMPDEST SWAP2 POP PUSH2 0x495 DUP3 PUSH2 0x456 JUMP JUMPDEST PUSH1 0xD DUP3 ADD SWAP1 POP SWAP2 SWAP1 POP JUMP JUMPDEST PUSH0 PUSH2 0x4AA DUP3 PUSH2 0x47E JUMP JUMPDEST SWAP2 POP DUP2 SWAP1 POP SWAP2 SWAP1 POP JUMP JUMPDEST PUSH2 0xA37 DUP1 PUSH2 0x4C1 PUSH0 CODECOPY PUSH0 RETURN INVALID PUSH1 0x80 PUSH1 0x40 MSTORE CALLVALUE DUP1 ISZERO PUSH2 0xF JUMPI PUSH0 PUSH0 REVERT JUMPDEST POP PUSH1 0x4 CALLDATASIZE LT PUSH2 0x34 JUMPI PUSH0 CALLDATALOAD PUSH1 0xE0 SHR DUP1 PUSH4 0x62E3152A EQ PUSH2 0x38 JUMPI DUP1 PUSH4 0x84C93627 EQ PUSH2 0x68 JUMPI JUMPDEST PUSH0 PUSH0 REVERT JUMPDEST PUSH2 0x52 PUSH1 0x4 DUP1 CALLDATASIZE SUB DUP2 ADD SWAP1 PUSH2 0x4D SWAP2 SWAP1 PUSH2 0x3E6 JUMP JUMPDEST PUSH2 0x84 JUMP JUMPDEST PUSH1 0x40 MLOAD PUSH2 0x5F SWAP2 SWAP1 PUSH2 0x48D JUMP JUMPDEST PUSH1 0x40 MLOAD DUP1 SWAP2 SUB SWAP1 RETURN JUMPDEST PUSH2 0x82 PUSH1 0x4 DUP1 CALLDATASIZE SUB DUP2 ADD SWAP1 PUSH2 0x7D SWAP2 SWAP1 PUSH2 0x4AD JUMP JUMPDEST PUSH2 0x136 JUMP JUMPDEST STOP JUMPDEST PUSH0 DUP2 DUP1 MLOAD PUSH1 0x20 DUP2 ADD DUP3 ADD DUP1 MLOAD DUP5 DUP3 MSTORE PUSH1 0x20 DUP4 ADD PUSH1 0x20 DUP6 ADD KECCAK256 DUP2 DUP4 MSTORE DUP1 SWAP6 POP POP POP POP POP POP PUSH0 SWAP2 POP SWAP1 POP DUP1 SLOAD PUSH2 0xB7 SWAP1 PUSH2 0x550 JUMP JUMPDEST DUP1 PUSH1 0x1F ADD PUSH1 0x20 DUP1 SWAP2 DIV MUL PUSH1 0x20 ADD PUSH1 0x40 MLOAD SWAP1 DUP2 ADD PUSH1 0x40 MSTORE DUP1 SWAP3 SWAP2 SWAP1 DUP2 DUP2 MSTORE PUSH1 0x20 ADD DUP3 DUP1 SLOAD PUSH2 0xE3 SWAP1 PUSH2 0x550 JUMP JUMPDEST DUP1 ISZERO PUSH2 0x12E JUMPI DUP1 PUSH1 0x1F LT PUSH2 0x105 JUMPI PUSH2 0x100 DUP1 DUP4 SLOAD DIV MUL DUP4 MSTORE SWAP2 PUSH1 0x20 ADD SWAP2 PUSH2 0x12E JUMP JUMPDEST DUP3 ADD SWAP2 SWAP1 PUSH0 MSTORE PUSH1 0x20 PUSH0 KECCAK256 SWAP1 JUMPDEST DUP2 SLOAD DUP2 MSTORE SWAP1 PUSH1 0x1 ADD SWAP1 PUSH1 0x20 ADD DUP1 DUP4 GT PUSH2 0x111 JUMPI DUP3 SWAP1 SUB PUSH1 0x1F AND DUP3 ADD SWAP2 JUMPDEST POP POP POP POP POP DUP2 JUMP JUMPDEST PUSH1 0x40 MLOAD PUSH1 0x20 ADD PUSH2 0x145 SWAP1 PUSH2 0x5D4 JUMP JUMPDEST PUSH1 0x40 MLOAD PUSH1 0x20 DUP2 DUP4 SUB SUB DUP2 MSTORE SWAP1 PUSH1 0x40 MSTORE DUP1 MLOAD SWAP1 PUSH1 0x20 ADD KECCAK256 DUP2 PUSH1 0x40 MLOAD PUSH1 0x20 ADD PUSH2 0x16C SWAP2 SWAP1 PUSH2 0x618 JUMP JUMPDEST PUSH1 0x40 MLOAD PUSH1 0x20 DUP2 DUP4 SUB SUB DUP2 MSTORE SWAP1 PUSH1 0x40 MSTORE DUP1 MLOAD SWAP1 PUSH1 0x20 ADD KECCAK256 EQ DUP1 PUSH2 0x1D7 JUMPI POP PUSH1 0x40 MLOAD PUSH1 0x20 ADD PUSH2 0x198 SWAP1 PUSH2 0x678 JUMP JUMPDEST PUSH1 0x40 MLOAD PUSH1 0x20 DUP2 DUP4 SUB SUB DUP2 MSTORE SWAP1 PUSH1 0x40 MSTORE DUP1 MLOAD SWAP1 PUSH1 0x20 ADD KECCAK256 DUP2 PUSH1 0x40 MLOAD PUSH1 0x20 ADD PUSH2 0x1BF SWAP2 SWAP1 PUSH2 0x618 JUMP JUMPDEST PUSH1 0x40 MLOAD PUSH1 0x20 DUP2 DUP4 SUB SUB DUP2 MSTORE SWAP1 PUSH1 0x40 MSTORE DUP1 MLOAD SWAP1 PUSH1 0x20 ADD KECCAK256 EQ JUMPDEST DUP1 PUSH2 0x22B JUMPI POP PUSH1 0x40 MLOAD PUSH1 0x20 ADD PUSH2 0x1EC SWAP1 PUSH2 0x6D6 JUMP JUMPDEST PUSH1 0x40 MLOAD PUSH1 0x20 DUP2 DUP4 SUB SUB DUP2 MSTORE SWAP1 PUSH1 0x40 MSTORE DUP1 MLOAD SWAP1 PUSH1 0x20 ADD KECCAK256 DUP2 PUSH1 0x40 MLOAD PUSH1 0x20 ADD PUSH2 0x213 SWAP2 SWAP1 PUSH2 0x618 JUMP JUMPDEST PUSH1 0x40 MLOAD PUSH1 0x20 DUP2 DUP4 SUB SUB DUP2 MSTORE SWAP1 PUSH1 0x40 MSTORE DUP1 MLOAD SWAP1 PUSH1 0x20 ADD KECCAK256 EQ JUMPDEST PUSH2 0x26A JUMPI PUSH1 0x40 MLOAD PUSH32 0x8C379A000000000000000000000000000000000000000000000000000000000 DUP2 MSTORE PUSH1 0x4 ADD PUSH2 0x261 SWAP1 PUSH2 0x75A JUMP JUMPDEST PUSH1 0x40 MLOAD DUP1 SWAP2 SUB SWAP1 REVERT JUMPDEST DUP1 PUSH0 DUP4 PUSH1 0x40 MLOAD PUSH2 0x27A SWAP2 SWAP1 PUSH2 0x618 JUMP JUMPDEST SWAP1 DUP2 MSTORE PUSH1 0x20 ADD PUSH1 0x40 MLOAD DUP1 SWAP2 SUB SWAP1 KECCAK256 SWAP1 DUP2 PUSH2 0x294 SWAP2 SWAP1 PUSH2 0x932 JUMP JUMPDEST POP POP POP JUMP JUMPDEST PUSH0 PUSH1 0x40 MLOAD SWAP1 POP SWAP1 JUMP JUMPDEST PUSH0 PUSH0 REVERT JUMPDEST PUSH0 PUSH0 REVERT JUMPDEST PUSH0 PUSH0 REVERT JUMPDEST PUSH0 PUSH0 REVERT JUMPDEST PUSH0 PUSH1 0x1F NOT PUSH1 0x1F DUP4 ADD AND SWAP1 POP SWAP2 SWAP1 POP JUMP JUMPDEST PUSH32 0x4E487B7100000000000000000000000000000000000000000000000000000000 PUSH0 MSTORE PUSH1 0x41 PUSH1 0x4 MSTORE PUSH1 0x24 PUSH0 REVERT JUMPDEST PUSH2 0x2F8 DUP3 PUSH2 0x2B2 JUMP JUMPDEST DUP2 ADD DUP2 DUP2 LT PUSH8 0xFFFFFFFFFFFFFFFF DUP3 GT OR ISZERO PUSH2 0x317 JUMPI PUSH2 0x316 PUSH2 0x2C2 JUMP JUMPDEST JUMPDEST DUP1 PUSH1 0x40 MSTORE POP POP POP JUMP JUMPDEST PUSH0 PUSH2 0x329 PUSH2 0x299 JUMP JUMPDEST SWAP1 POP PUSH2 0x335 DUP3 DUP3 PUSH2 0x2EF JUMP JUMPDEST SWAP2 SWAP1 POP JUMP JUMPDEST PUSH0 PUSH8 0xFFFFFFFFFFFFFFFF DUP3 GT ISZERO PUSH2 0x354 JUMPI PUSH2 0x353 PUSH2 0x2C2 JUMP JUMPDEST JUMPDEST PUSH2 0x35D DUP3 PUSH2 0x2B2 JUMP JUMPDEST SWAP1 POP PUSH1 0x20 DUP2 ADD SWAP1 POP SWAP2 SWAP1 POP JUMP JUMPDEST DUP3 DUP2 DUP4 CALLDATACOPY PUSH0 DUP4 DUP4 ADD MSTORE POP POP POP JUMP JUMPDEST PUSH0 PUSH2 0x38A PUSH2 0x385 DUP5 PUSH2 0x33A JUMP JUMPDEST PUSH2 0x320 JUMP JUMPDEST SWAP1 POP DUP3 DUP2 MSTORE PUSH1 0x20 DUP2 ADD DUP5 DUP5 DUP5 ADD GT ISZERO PUSH2 0x3A6 JUMPI PUSH2 0x3A5 PUSH2 0x2AE JUMP JUMPDEST JUMPDEST PUSH2 0x3B1 DUP5 DUP3 DUP6 PUSH2 0x36A JUMP JUMPDEST POP SWAP4 SWAP3 POP POP POP JUMP JUMPDEST PUSH0 DUP3 PUSH1 0x1F DUP4 ADD SLT PUSH2 0x3CD JUMPI PUSH2 0x3CC PUSH2 0x2AA JUMP JUMPDEST JUMPDEST DUP2 CALLDATALOAD PUSH2 0x3DD DUP5 DUP3 PUSH1 0x20 DUP7 ADD PUSH2 0x378 JUMP JUMPDEST SWAP2 POP POP SWAP3 SWAP2 POP POP JUMP JUMPDEST PUSH0 PUSH1 0x20 DUP3 DUP5 SUB SLT ISZERO PUSH2 0x3FB JUMPI PUSH2 0x3FA PUSH2 0x2A2 JUMP JUMPDEST JUMPDEST PUSH0 DUP3 ADD CALLDATALOAD PUSH8 0xFFFFFFFFFFFFFFFF DUP2 GT ISZERO PUSH2 0x418 JUMPI PUSH2 0x417 PUSH2 0x2A6 JUMP JUMPDEST JUMPDEST PUSH2 0x424 DUP5 DUP3 DUP6 ADD PUSH2 0x3B9 JUMP JUMPDEST SWAP2 POP POP SWAP3 SWAP2 POP POP JUMP JUMPDEST PUSH0 DUP2 MLOAD SWAP1 POP SWAP2 SWAP1 POP JUMP JUMPDEST PUSH0 DUP3 DUP3 MSTORE PUSH1 0x20 DUP3 ADD SWAP1 POP SWAP3 SWAP2 POP POP JUMP JUMPDEST DUP3 DUP2 DUP4 MCOPY PUSH0 DUP4 DUP4 ADD MSTORE POP POP POP JUMP JUMPDEST PUSH0 PUSH2 0x45F DUP3 PUSH2 0x42D JUMP JUMPDEST PUSH2 0x469 DUP2 DUP6 PUSH2 0x437 JUMP JUMPDEST SWAP4 POP PUSH2 0x479 DUP2 DUP6 PUSH1 0x20 DUP7 ADD PUSH2 0x447 JUMP JUMPDEST PUSH2 0x482 DUP2 PUSH2 0x2B2 JUMP JUMPDEST DUP5 ADD SWAP2 POP POP SWAP3 SWAP2 POP POP JUMP JUMPDEST PUSH0 PUSH1 0x20 DUP3 ADD SWAP1 POP DUP2 DUP2 SUB PUSH0 DUP4 ADD MSTORE PUSH2 0x4A5 DUP2 DUP5 PUSH2 0x455 JUMP JUMPDEST SWAP1 POP SWAP3 SWAP2 POP POP JUMP JUMPDEST PUSH0 PUSH0 PUSH1 0x40 DUP4 DUP6 SUB SLT ISZERO PUSH2 0x4C3 JUMPI PUSH2 0x4C2 PUSH2 0x2A2 JUMP JUMPDEST JUMPDEST PUSH0 DUP4 ADD CALLDATALOAD PUSH8 0xFFFFFFFFFFFFFFFF DUP2 GT ISZERO PUSH2 0x4E0 JUMPI PUSH2 0x4DF PUSH2 0x2A6 JUMP JUMPDEST JUMPDEST PUSH2 0x4EC DUP6 DUP3 DUP7 ADD PUSH2 0x3B9 JUMP JUMPDEST SWAP3 POP POP PUSH1 0x20 DUP4 ADD CALLDATALOAD PUSH8 0xFFFFFFFFFFFFFFFF DUP2 GT ISZERO PUSH2 0x50D JUMPI PUSH2 0x50C PUSH2 0x2A6 JUMP JUMPDEST JUMPDEST PUSH2 0x519 DUP6 DUP3 DUP7 ADD PUSH2 0x3B9 JUMP JUMPDEST SWAP2 POP POP SWAP3 POP SWAP3 SWAP1 POP JUMP JUMPDEST PUSH32 0x4E487B7100000000000000000000000000000000000000000000000000000000 PUSH0 MSTORE PUSH1 0x22 PUSH1 0x4 MSTORE PUSH1 0x24 PUSH0 REVERT JUMPDEST PUSH0 PUSH1 0x2 DUP3 DIV SWAP1 POP PUSH1 0x1 DUP3 AND DUP1 PUSH2 0x567 JUMPI PUSH1 0x7F DUP3 AND SWAP2 POP JUMPDEST PUSH1 0x20 DUP3 LT DUP2 SUB PUSH2 0x57A JUMPI PUSH2 0x579 PUSH2 0x523 JUMP JUMPDEST JUMPDEST POP SWAP2 SWAP1 POP JUMP JUMPDEST PUSH0 DUP2 SWAP1 POP SWAP3 SWAP2 POP POP JUMP JUMPDEST PUSH32 0x7265640000000000000000000000000000000000000000000000000000000000 PUSH0 DUP3 ADD MSTORE POP JUMP JUMPDEST PUSH0 PUSH2 0x5BE PUSH1 0x3 DUP4 PUSH2 0x580 JUMP JUMPDEST SWAP2 POP PUSH2 0x5C9 DUP3 PUSH2 0x58A JUMP JUMPDEST PUSH1 0x3 DUP3 ADD SWAP1 POP SWAP2 SWAP1 POP JUMP JUMPDEST PUSH0 PUSH2 0x5DE DUP3 PUSH2 0x5B2 JUMP JUMPDEST SWAP2 POP DUP2 SWAP1 POP SWAP2 SWAP1 POP JUMP JUMPDEST PUSH0 PUSH2 0x5F2 DUP3 PUSH2 0x42D JUMP JUMPDEST PUSH2 0x5FC DUP2 DUP6 PUSH2 0x580 JUMP JUMPDEST SWAP4 POP PUSH2 0x60C DUP2 DUP6 PUSH1 0x20 DUP7 ADD PUSH2 0x447 JUMP JUMPDEST DUP1 DUP5 ADD SWAP2 POP POP SWAP3 SWAP2 POP POP JUMP JUMPDEST PUSH0 PUSH2 0x623 DUP3 DUP5 PUSH2 0x5E8 JUMP JUMPDEST SWAP2 POP DUP2 SWAP1 POP SWAP3 SWAP2 POP POP JUMP JUMPDEST PUSH32 0x79656C6C6F770000000000000000000000000000000000000000000000000000 PUSH0 DUP3 ADD MSTORE POP JUMP JUMPDEST PUSH0 PUSH2 0x662 PUSH1 0x6 DUP4 PUSH2 0x580 JUMP JUMPDEST SWAP2 POP PUSH2 0x66D DUP3 PUSH2 0x62E JUMP JUMPDEST PUSH1 0x6 DUP3 ADD SWAP1 POP SWAP2 SWAP1 POP JUMP JUMPDEST PUSH0 PUSH2 0x682 DUP3 PUSH2 0x656 JUMP JUMPDEST SWAP2 POP DUP2 SWAP1 POP SWAP2 SWAP1 POP JUMP JUMPDEST PUSH32 0x677265656E000000000000000000000000000000000000000000000000000000 PUSH0 DUP3 ADD MSTORE POP JUMP JUMPDEST PUSH0 PUSH2 0x6C0 PUSH1 0x5 DUP4 PUSH2 0x580 JUMP JUMPDEST SWAP2 POP PUSH2 0x6CB DUP3 PUSH2 0x68C JUMP JUMPDEST PUSH1 0x5 DUP3 ADD SWAP1 POP SWAP2 SWAP1 POP JUMP JUMPDEST PUSH0 PUSH2 0x6E0 DUP3 PUSH2 0x6B4 JUMP JUMPDEST SWAP2 POP DUP2 SWAP1 POP SWAP2 SWAP1 POP JUMP JUMPDEST PUSH32 0x496E76616C696420737461746521205374617465206D75737420626520277265 PUSH0 DUP3 ADD MSTORE PUSH32 0x64272C202779656C6C6F77272C206F722027677265656E272E00000000000000 PUSH1 0x20 DUP3 ADD MSTORE POP JUMP JUMPDEST PUSH0 PUSH2 0x744 PUSH1 0x39 DUP4 PUSH2 0x437 JUMP JUMPDEST SWAP2 POP PUSH2 0x74F DUP3 PUSH2 0x6EA JUMP JUMPDEST PUSH1 0x40 DUP3 ADD SWAP1 POP SWAP2 SWAP1 POP JUMP JUMPDEST PUSH0 PUSH1 0x20 DUP3 ADD SWAP1 POP DUP2 DUP2 SUB PUSH0 DUP4 ADD MSTORE PUSH2 0x771 DUP2 PUSH2 0x738 JUMP JUMPDEST SWAP1 POP SWAP2 SWAP1 POP JUMP JUMPDEST PUSH0 DUP2 SWAP1 POP DUP2 PUSH0 MSTORE PUSH1 0x20 PUSH0 KECCAK256 SWAP1 POP SWAP2 SWAP1 POP JUMP JUMPDEST PUSH0 PUSH1 0x20 PUSH1 0x1F DUP4 ADD DIV SWAP1 POP SWAP2 SWAP1 POP JUMP JUMPDEST PUSH0 DUP3 DUP3 SHL SWAP1 POP SWAP3 SWAP2 POP POP JUMP JUMPDEST PUSH0 PUSH1 0x8 DUP4 MUL PUSH2 0x7D4 PUSH32 0xFFFFFFFFFFFFFFFFFFFFFFFFFFFFFFFFFFFFFFFFFFFFFFFFFFFFFFFFFFFFFFFF DUP3 PUSH2 0x799 JUMP JUMPDEST PUSH2 0x7DE DUP7 DUP4 PUSH2 0x799 JUMP JUMPDEST SWAP6 POP DUP1 NOT DUP5 AND SWAP4 POP DUP1 DUP7 AND DUP5 OR SWAP3 POP POP POP SWAP4 SWAP3 POP POP POP JUMP JUMPDEST PUSH0 DUP2 SWAP1 POP SWAP2 SWAP1 POP JUMP JUMPDEST PUSH0 DUP2 SWAP1 POP SWAP2 SWAP1 POP JUMP JUMPDEST PUSH0 PUSH2 0x822 PUSH2 0x81D PUSH2 0x818 DUP5 PUSH2 0x7F6 JUMP JUMPDEST PUSH2 0x7FF JUMP JUMPDEST PUSH2 0x7F6 JUMP JUMPDEST SWAP1 POP SWAP2 SWAP1 POP JUMP JUMPDEST PUSH0 DUP2 SWAP1 POP SWAP2 SWAP1 POP JUMP JUMPDEST PUSH2 0x83B DUP4 PUSH2 0x808 JUMP JUMPDEST PUSH2 0x84F PUSH2 0x847 DUP3 PUSH2 0x829 JUMP JUMPDEST DUP5 DUP5 SLOAD PUSH2 0x7A5 JUMP JUMPDEST DUP3 SSTORE POP POP POP POP JUMP JUMPDEST PUSH0 PUSH0 SWAP1 POP SWAP1 JUMP JUMPDEST PUSH2 0x866 PUSH2 0x857 JUMP JUMPDEST PUSH2 0x871 DUP2 DUP5 DUP5 PUSH2 0x832 JUMP JUMPDEST POP POP POP JUMP JUMPDEST PUSH0 JUMPDEST DUP3 DUP2 LT ISZERO PUSH2 0x897 JUMPI PUSH2 0x88C PUSH0 DUP3 DUP5 ADD PUSH2 0x85E JUMP JUMPDEST PUSH1 0x1 DUP2 ADD SWAP1 POP PUSH2 0x878 JUMP JUMPDEST POP POP POP JUMP JUMPDEST PUSH1 0x1F DUP3 GT ISZERO PUSH2 0x8EA JUMPI DUP3 DUP3 GT ISZERO PUSH2 0x8E9 JUMPI PUSH2 0x8B6 DUP2 PUSH2 0x778 JUMP JUMPDEST PUSH2 0x8BF DUP4 PUSH2 0x78A JUMP JUMPDEST PUSH2 0x8C8 DUP6 PUSH2 0x78A JUMP JUMPDEST PUSH1 0x20 DUP7 LT ISZERO PUSH2 0x8D5 JUMPI PUSH0 SWAP1 POP JUMPDEST DUP1 DUP4 ADD PUSH2 0x8E4 DUP3 DUP5 SUB DUP3 PUSH2 0x876 JUMP JUMPDEST POP POP POP POP JUMPDEST JUMPDEST POP POP POP JUMP JUMPDEST PUSH0 DUP3 DUP3 SHR SWAP1 POP SWAP3 SWAP2 POP POP JUMP JUMPDEST PUSH0 PUSH2 0x90A PUSH0 NOT DUP5 PUSH1 0x8 MUL PUSH2 0x8EF JUMP JUMPDEST NOT DUP1 DUP4 AND SWAP2 POP POP SWAP3 SWAP2 POP POP JUMP JUMPDEST PUSH0 PUSH2 0x922 DUP4 DUP4 PUSH2 0x8FB JUMP JUMPDEST SWAP2 POP DUP3 PUSH1 0x2 MUL DUP3 OR SWAP1 POP SWAP3 SWAP2 POP POP JUMP JUMPDEST PUSH2 0x93B DUP3 PUSH2 0x42D JUMP JUMPDEST PUSH8 0xFFFFFFFFFFFFFFFF DUP2 GT ISZERO PUSH2 0x954 JUMPI PUSH2 0x953 PUSH2 0x2C2 JUMP JUMPDEST JUMPDEST PUSH2 0x95E DUP3 SLOAD PUSH2 0x550 JUMP JUMPDEST PUSH2 0x969 DUP3 DUP3 DUP6 PUSH2 0x89C JUMP JUMPDEST PUSH0 PUSH1 0x20 SWAP1 POP PUSH1 0x1F DUP4 GT PUSH1 0x1 DUP2 EQ PUSH2 0x99A JUMPI PUSH0 DUP5 ISZERO PUSH2 0x988 JUMPI DUP3 DUP8 ADD MLOAD SWAP1 POP JUMPDEST PUSH2 0x992 DUP6 DUP3 PUSH2 0x917 JUMP JUMPDEST DUP7 SSTORE POP PUSH2 0x9F9 JUMP JUMPDEST PUSH1 0x1F NOT DUP5 AND PUSH2 0x9A8 DUP7 PUSH2 0x778 JUMP JUMPDEST PUSH0 JUMPDEST DUP3 DUP2 LT ISZERO PUSH2 0x9CF JUMPI DUP5 DUP10 ADD MLOAD DUP3 SSTORE PUSH1 0x1 DUP3 ADD SWAP2 POP PUSH1 0x20 DUP6 ADD SWAP5 POP PUSH1 0x20 DUP2 ADD SWAP1 POP PUSH2 0x9AA JUMP JUMPDEST DUP7 DUP4 LT ISZERO PUSH2 0x9EC JUMPI DUP5 DUP10 ADD MLOAD PUSH2 0x9E8 PUSH1 0x1F DUP10 AND DUP3 PUSH2 0x8FB JUMP JUMPDEST DUP4 SSTORE POP JUMPDEST PUSH1 0x1 PUSH1 0x2 DUP9 MUL ADD DUP9 SSTORE POP POP POP JUMPDEST POP POP POP POP POP POP JUMP INVALID LOG2 PUSH5 0x6970667358 0x22 SLT KECCAK256 CALLDATALOAD PUSH5 0x5565C2C3E7 CLZ DUP13 SWAP16 CALLDATACOPY SWAP6 EQ PUSH12 0x94F592093F05DD29AE6F872A TLOAD BLOCKHASH 0x22 JUMPF 0x23E8 PUSH5 0x736F6C6343 STOP ADDMOD 0x22 STOP CALLER "
		},
		"gasEstimates": {
			"creation": {
				"codeDepositCost": "523000",
				"executionCost": "infinite",
				"totalCost": "infinite"
			},
			"external": {
				"changeLight(string,string)": "infinite",
				"lightState(string)": "infinite"
			}
		},
		"methodIdentifiers": {
			"changeLight(string,string)": "84c93627",
			"lightState(string)": "62e3152a"
		}
	},
	"abi": [
		{
			"inputs": [],
			"stateMutability": "nonpayable",
			"type": "constructor"
		},
		{
			"inputs": [
				{
					"internalType": "string",
					"name": "intersection",
					"type": "string"
				},
				{
					"internalType": "string",
					"name": "newState",
					"type": "string"
				}
			],
			"name": "changeLight",
			"outputs": [],
			"stateMutability": "nonpayable",
			"type": "function"
		},
		{
			"inputs": [
				{
					"internalType": "string",
					"name": "",
					"type": "string"
				}
			],
			"name": "lightState",
			"outputs": [
				{
					"internalType": "string",
					"name": "",
					"type": "string"
				}
			],
			"stateMutability": "view",
			"type": "function"
		}
	]
}